:020000040800F2
:1000000000000320955300089D4E00089F4E0008F5
:10001000A14E0008A34E0008A54E000800000000F5
:10002000000000000000000000000000A74E0008D3
:10003000A94E000800000000AB4E0008AD4E0008BD
:10004000ED530008ED530008ED530008B54E0008CD
:10005000ED530008ED530008BD4E0008ED530008B5
:10006000ED530008ED530008ED530008C94E000899
:10007000ED530008ED530008ED530008ED53000860
:10008000ED530008ED530008ED530008ED53000850
:10009000D94E0008ED530008ED530008ED53000859
:1000A000ED530008E94E0008ED530008ED53000839
:1000B000ED530008ED530008ED530008ED53000820
:1000C000ED530008ED530008F94E0008ED53000809
:1000D000094F0008ED530008ED530008ED530008E8
:1000E000194F0008ED530008ED530008ED530008C8
:1000F000354F00083D4F0008454F0008ED530008FC
:10010000ED530008ED530008ED530008ED530008CF
:10011000ED530008ED530008ED530008ED530008BF
:10012000ED530008ED530008ED530008ED530008AF
:0C013000ED530008ED530008ED530008EB
:1001400010B5054C237833B9044B13B10448AFF311
:1001500000800123237010BDE00300200000000098
:10016000F40B050808B5034B1BB103490348AFF373
:10017000008008BD00000000E4030020F40B050827
:1001800001F0FF01102A2BDB10F0070F08D010F848
:10019000013B013A8B422DD010F0070F42B3F6D14C
:1001A000F0B441EA012141EA014122F007047FF065
:1001B00000070023F0E80256083C85EA010586EABC
:1001C000010685FA47F5A3FA87F586FA47F6A5FAF8
:1001D00087F68EB9EED1F0BC01F0FF0102F0070204
:1001E00032B110F8013B013A83EA010313B1F8D1AF
:1001F0000020704701387047002D06BF3546033890
:10020000073815F0010F07D1013015F4807F02BFC8
:10021000013015F4C03F0130F0BC0138704700BF19
:10022000034613F8012B002AFBD1181A0138704736
:1002300081F0004102E000BF83F0004330B54FEA97
:1002400041044FEA430594EA050F08BF90EA020F04
:100250001FBF54EA000C55EA020C7FEA645C7FEA97
:10026000655C00F0E2804FEA5454D4EB5555B8BFBA
:100270006D420CDD2C4480EA020281EA030382EA2B
:10028000000083EA010180EA020281EA0303362DBD
:1002900088BF30BD11F0004F4FEA01314FF4801C90
:1002A0004CEA113102D0404261EB410113F0004FA2
:1002B0004FEA03334CEA133302D0524263EB430359
:1002C00094EA050F00F0A780A4F10104D5F1200EF7
:1002D0000DDB02FA0EFC22FA05F2801841F1000152
:1002E00003FA0EF2801843FA05F359410EE0A5F126
:1002F00020050EF1200E012A03FA0EFC28BF4CF057
:10030000020C43FA05F3C01851EBE37101F000450C
:1003100007D54FF0000EDCF1000C7EEB00006EEB19
:100320000101B1F5801F1BD3B1F5001F0CD34908A3
:100330005FEA30004FEA3C0C04F101044FEA4452FA
:1003400012F5800F80F09A80BCF1004F08BF5FEA81
:10035000500C50F1000041EB045141EA050130BD61
:100360005FEA4C0C404141EB0101013C28BFB1F573
:10037000801FE9D291F0000F04BF01460020B1FABE
:1003800081F308BF2033A3F10B03B3F120020CDA91
:100390000C3208DD02F1140CC2F10C0201FA0CF06F
:1003A00021FA02F10CE002F11402D8BFC2F1200CD4
:1003B00001FA02F120FA0CFCDCBF41EA0C0190408A
:1003C000E41AA2BF01EB0451294330BD6FEA0404D3
:1003D0001F3C1CDA0C340EDC04F11404C4F12002BE
:1003E00020FA04F001FA02F340EA030021FA04F3D0
:1003F00045EA030130BDC4F10C04C4F1200220FA27
:1004000002F001FA04F340EA0300294630BD21FA64
:1004100004F0294630BD94F0000F83F4801306BF2A
:1004200081F480110134013D4EE77FEA645C18BF1E
:100430007FEA655C29D094EA050F08BF90EA020FB5
:1004400005D054EA000C04BF1946104630BD91EAAD
:10045000030F1EBF0021002030BD5FEA545C05D1B0
:100460004000494128BF41F0004130BD14F58004EF
:100470003CBF01F5801130BD01F0004545F0FE4163
:1004800041F470014FF0000030BD7FEA645C1ABF98
:10049000194610467FEA655C1CBF0B46024650EACF
:1004A000013406BF52EA033591EA030F41F40021FB
:1004B00030BD00BF90F0000F04BF0021704730B581
:1004C0004FF4806404F132044FF000054FF0000156
:1004D00050E700BF90F0000F04BF0021704730B517
:1004E0004FF4806404F1320410F0004548BF4042EC
:1004F0004FF000013EE700BF42004FEAE2014FEA41
:1005000031014FEA02701FBF12F07F4393F07F4F1B
:1005100081F06051704732F07F4208BF704793F01E
:100520007F4F04BF41F40021704730B54FF4607431
:1005300001F0004521F000411CE700BF50EA010234
:1005400008BF704730B54FF000050AE050EA0102DD
:1005500008BF704730B511F0004502D5404261EB4D
:1005600041014FF4806404F132045FEA915C3FF48E
:10057000D8AE4FF003025FEADC0C18BF03325FEA2B
:10058000DC0C18BF033202EBDC02C2F1200300FADC
:1005900003FC20FA02F001FA03FE40EA0E0021FA01
:1005A00002F11444BDE600BF70B54FF0FF0C4CF4EF
:1005B000E06C1CEA11541DBF1CEA135594EA0C0FA1
:1005C00095EA0C0F00F0DEF82C4481EA030621EADC
:1005D0004C5123EA4C5350EA013518BF52EA033517
:1005E00041F4801143F4801338D0A0FB02CE4FF0C9
:1005F0000005E1FB02E506F00042E0FB03E54FF0F9
:100600000006E1FB03569CF0000F18BF4EF0010EF0
:10061000A4F1FF04B6F5007F64F5407404D25FEAEC
:100620004E0E6D4146EB060642EAC62141EA55519F
:100630004FEAC52040EA5E504FEACE2EB4F1FD0CE1
:1006400088BFBCF5E06F1ED8BEF1004F08BF5FEA5F
:10065000500E50F1000041EB045170BD06F0004611
:1006600046EA010140EA020081EA0301B4EB5C04BE
:10067000C2BFD4EB0C0541EA045170BD41F48011B6
:100680004FF0000E013C00F3AB8014F1360FDEBFDB
:10069000002001F0004170BDC4F10004203C35DAB7
:1006A0000C341BDC04F11404C4F1200500FA05F33A
:1006B00020FA04F001FA05F240EA020001F00042DB
:1006C00021F0004110EBD37021FA04F642EB060151
:1006D0005EEA430E08BF20EAD37070BDC4F10C047B
:1006E000C4F1200500FA04F320FA05F001FA04F23F
:1006F00040EA020001F0004110EBD37041F100012B
:100700005EEA430E08BF20EAD37070BDC4F1200535
:1007100000FA05F24EEA020E20FA04F301FA05F29D
:1007200043EA020321FA04F001F0004121FA04F245
:1007300020EA020000EBD3705EEA430E08BF20EA15
:10074000D37070BD94F0000F0FD101F0004640004F
:1007500041EB010111F4801F08BF013CF7D041EAD1
:10076000060195F0000F18BF704703F000465200D5
:1007700043EB030313F4801F08BF013DF7D043EAA6
:100780000603704794EA0C0F0CEA135518BF95EA5C
:100790000C0F0CD050EA410618BF52EA4306D1D1E3
:1007A00081EA030101F000414FF0000070BD50EA02
:1007B000410606BF1046194652EA430619D094EA8C
:1007C0000C0F02D150EA013613D195EA0C0F05D176
:1007D00052EA03361CBF104619460AD181EA0301CA
:1007E00001F0004141F0FE4141F470014FF0000082
:1007F00070BD41F0FE4141F4780170BD70B54FF01D
:10080000FF0C4CF4E06C1CEA11541DBF1CEA13559C
:1008100094EA0C0F95EA0C0F00F0A7F8A4EB05047E
:1008200081EA030E52EA03354FEA013100F0888075
:100830004FEA03334FF0805545EA131343EA12633E
:100840004FEA022245EA111545EA10654FEA0026F3
:100850000EF000419D4208BF964244F1FD0404F5AC
:10086000407402D25B084FEA3202B61A65EB030508
:100870005B084FEA32024FF480104FF4002CB6EBC5
:10088000020E75EB030E22BFB61A754640EA0C0045
:100890005B084FEA3202B6EB020E75EB030E22BF85
:1008A000B61A754640EA5C005B084FEA3202B6EBC6
:1008B000020E75EB030E22BFB61A754640EA9C0085
:1008C0005B084FEA3202B6EB020E75EB030E22BF55
:1008D000B61A754640EADC0055EA060E18D04FEA13
:1008E000051545EA16754FEA06164FEAC30343EAB3
:1008F00052734FEAC2025FEA1C1CC0D111F4801F80
:100900000BD141EA00014FF000004FF0004CB6E778
:1009100011F4801F04BF01430020B4F1FD0C88BF17
:10092000BCF5E06F3FF6AFAEB5EB030C04BFB6EB22
:10093000020C5FEA500C50F1000041EB045170BD15
:100940000EF0004E4EEA113114EB5C04C2BFD4EB42
:100950000C0541EA045170BD41F480114FF0000EC6
:10096000013C90E645EA060E8DE60CEA135594EA42
:100970000C0F08BF95EA0C0F3FF43BAF94EA0C0F45
:100980000AD150EA01347FF434AF95EA0C0F7FF4BA
:1009900025AF104619462CE795EA0C0F06D152EA0E
:1009A00003353FF4FDAE1046194622E750EA4106F2
:1009B00018BF52EA43067FF4C5AE50EA41047FF403
:1009C0000DAF52EA43057FF4EBAE12E74FF0FF3C68
:1009D00006E000BF4FF0010C02E000BF4FF0010C39
:1009E0004DF804CD4FEA410C7FEA6C5C4FEA430CB2
:1009F00018BF7FEA6C5C1BD001B050EA410C0CBF01
:100A000052EA430C91EA030F02BF90EA020F002062
:100A1000704710F1000F91EA030F58BF994208BFC9
:100A200090422CBFD8176FEAE37040F00100704786
:100A30004FEA410C7FEA6C5C02D150EA013C07D1DD
:100A40004FEA430C7FEA6C5CD6D152EA033CD3D028
:100A50005DF8040B704700BF8446104662468C4622
:100A60001946634600E000BF01B5FFF7B7FF002855
:100A700048BF10F1000F01BD4DF808EDFFF7F4FF7E
:100A80000CBF012000205DF808FB00BF4DF808ED09
:100A9000FFF7EAFF34BF012000205DF808FB00BF2C
:100AA0004DF808EDFFF7E0FF94BF012000205DF84E
:100AB00008FB00BF4DF808EDFFF7CEFF94BF012003
:100AC00000205DF808FB00BF4DF808EDFFF7C4FFFC
:100AD00034BF012000205DF808FB00BF4FEA410C45
:100AE0007FEA6C5C02D150EA013C0AD14FEA430C28
:100AF0007FEA6C5C02D152EA033C02D14FF0000065
:100B000070474FF0010070474FEA410212F50012A2
:100B100015D211D56FF47873B3EB625212D94FEA44
:100B2000C12343F0004343EA505311F0004F23FA2E
:100B300002F018BF404270474FF00000704750EA83
:100B4000013005D111F0004008BF6FF00040704740
:100B50004FF00000704700BF4FEA4102B2F1E0439E
:100B600024BFB3F5001CDCF1FE5C0DD901F0004C94
:100B70004FEAC0024CEA5070B2F1004F40EB8300E4
:100B800008BF20F00100704711F0804F21D113F110
:100B90003872BCBF01F00040704741F480114FEA49
:100BA0005252C2F11802C2F1200C10FA0CF320FAD2
:100BB00002F018BF40F001004FEAC1234FEAD323EF
:100BC00003FA0CFC40EA0C0023FA02F34FEA430359
:100BD000CCE77FEA625307D150EA01331EBF4FF0E2
:100BE000FE4040F44000704701F0004040F0FE40FD
:100BF00040F40000704700BF7BB972B90029BEBF46
:100C000000204FF0004106E008BF00281CBF6FF035
:100C100000414FF0FF3000F0D3B9ADF1080C6DE9A1
:100C200004CE002909DB002B1ADB00F04DF8DDF8BB
:100C300004E0DDE9022304B07047404261EB41016A
:100C4000002B1BDB00F040F8DDF804E0DDE90223B7
:100C500004B0404261EB4101524263EB43037047F1
:100C6000524263EB430300F02FF8DDF804E0DDE9C6
:100C7000022304B0404261EB41017047524263EBF2
:100C8000430300F021F8DDF804E0DDE9022304B0BD
:100C9000524263EB4303704753B94AB9002908BF76
:100CA00000281CBF4FF0FF314FF0FF3000F088B933
:100CB000ADF1080C6DE904CE00F006F8DDF804E0B3
:100CC000DDE9022304B070472DE9F047089D8E4608
:100CD00004468846002B4AD18A42174662D9B2FAA6
:100CE00082F64EB1C6F1200301FA06F820FA03F3AA
:100CF000B74043EA0808B4404FEA174E1FFA87FC92
:100D0000B8FBFEF1230C0EFB118843EA084301FBFC
:100D10000CF29A4209D9FB1801F1FF3080F0EA8009
:100D20009A4240F2E78002393B449A1AA3B2B2FBDE
:100D3000FEF00EFB102243EA024300FB0CFC9C4534
:100D400009D9FB1800F1FF3280F0D6809C4540F2B3
:100D5000D3803B44023840EA0140A3EB0C0300215E
:100D60001DB1F3400022C5E90032BDE8F0878B4297
:100D700005D90DB1C5E9000100210846F5E7B3FA30
:100D800083F1002946D1734502D3824200F20581E6
:100D9000841A6EEB030201209046002DE5D0C5E9D0
:100DA0000048E2E7002A00F09080B2FA82F6002EB6
:100DB00040F0A4808A1A030C4FEA174E80B2BCB2EE
:100DC0000121B2FBFEFC0EFB1C2243EA024304FBA2
:100DD0000CF29A4207D9FB180CF1FF3802D29A4262
:100DE00000F2E080C4469B1AB3FBFEF20EFB123306
:100DF00040EA034302FB04F49C4207D9FB1802F1CA
:100E0000FF3002D29C4200F2CA8002461B1B42EA1B
:100E10000C40A5E7C1F120068B4022FA06F71F43DC
:100E20000EFA01F420FA06F32EFA06FE4FEA1749ED
:100E3000234300FA01F81FFA87FCBEFBF9F01C0CF3
:100E400009FB10EE44EA0E4400FB0CFEA64502FA34
:100E500001F209D93C1900F1FF3A80F09C80A645C7
:100E600040F2998002383C44A4EB0E041FFA83FE42
:100E7000B4FBF9F309FB13444EEA044403FB0CFCF6
:100E8000A44508D93C1903F1FF3E80F08280A445B7
:100E90007FD9023B3C4443EA0040A4EB0C04A0FB96
:100EA00002EC64457346E14662D35FD05DB1B8EBB6
:100EB000030264EB090404FA06F622FA01F31E4366
:100EC000CC40C5E9006400214FE7B1FBF2FC010C06
:100ED00041EA0E4180B240EA01423B4638463C4678
:100EE000B846BE462026B1FBF7F1A2EB080241EA64
:100EF0000C4166E7014618E710462CE7C6F12002D0
:100F00002EFA02F3B740B14020FA02F24FEA174E30
:100F10000A43B3FBFEF8BCB20EFB1833110C41EAD6
:100F2000034108FB04F9B04089454FEA104380B201
:100F30003ED9791808F1FF3C01D289451FD8A1EBB1
:100F40000901B1FBFEF909FB04F80EFB191192B27D
:100F500042EA0142424529D2BA1809F1FF31C4D20E
:100F60004245C2D2A9F102013A44BEE7F0459DD202
:100F7000BEEB02036CEB070C0138E14696E7A7EBEA
:100F800009094944A8F1020CB1FBFEF909FB04F878
:100F9000DBE773467FE7504666E70846FDE63B44DD
:100FA000023A33E7ACF1020C3B441CE749469CE7AC
:100FB000A1EB0901C446B1FBFEF909FB04F8C4E743
:100FC000704700BF10B400246C214FF47A720460A3
:100FD00081805DF8044B8260704700BFF0B585B03A
:100FE0008368009345F2FE428188ADF80C2003230C
:100FF00003AA0446002700688DF80E7005F020FB58
:10100000642001F0D9F903251A26A368A188206875
:1010100000930DF10B0201238DF80B608DF80C701D
:1010200005F00EFB012303AA08BBA1680091A1886B
:10103000206805F0D7FB9DF80CC00CF0FE0CA268F0
:10104000A18820680092022303AA8DF80C608DF815
:101050000DC005F0F5FA034632205BB101F0ACF9A2
:10106000681E10F0FF05D0D1284605B0F0BD4FF046
:10107000000CE4E7012005B0F0BD00BF70B50446E8
:1010800084B05200082308468DF80B3091B200233B
:10109000A2680092ADF80C302060A18001230DF110
:1010A0000B0205F0CDFA18B10025284604B070BD3A
:1010B000A3680093A1882068022303AA05F092FB8D
:1010C00006460028F0D1BDF80C305BBA23F00F03C0
:1010D0001B041B0C102BE7D12046FFF77FFF0546B2
:1010E0000028E1D0A368009306238DF80B30A18877
:1010F00020688DF80C6001230DF10B0205F0A0FAB9
:10110000002845D1A3680093A1882068012303AA81
:1011100005F068FB9DF80C3003F0DF038DF80D300F
:10112000A36800930623A1888DF80C3003AA02233C
:10113000206805F085FAA36800930C238DF80B3026
:1011400000238DF80C30A18820680DF10B020123DB
:1011500005F076FA58B9A3680093A18820680123A6
:1011600003AA05F03FFB9DF80C0000F07F060C235E
:101170000DEB03028DF80C30A3680093A188206862
:101180008DF80D60022305F05BFA284604B070BDAF
:101190003346C3E710B584B083680093082100226A
:1011A00004468DF80B10ADF80C20818800680123EF
:1011B0000DF10B0205F044FA18B19FED220A04B0BC
:1011C00010BDA3680093A1882068022303AA05F03C
:1011D00009FB0028F1D1BDF80C305BBA23F00F03F6
:1011E0001B041B0C102BE8D104238DF80B30A368D3
:1011F0000093ADF80C00A18820680DF10B020123CB
:1012000005F01EFA18B19FED100A04B010BDA368D6
:10121000A1882068009303AA022305F0E3FA0028BE
:10122000F1D1BDF80C0040BA80B2FFF753F9074B7B
:101230000022FFF7B9F9FFF78FFC00EE100A04B0A7
:1012400010BD00BF0000C07F000000000000703F24
:1012500030B5044685B0A368A1880093062000221B
:101260008DF80B008DF80C20206801230DF10B0286
:1012700005F0E6F980B1402103ADA3680093062094
:101280008DF80C008DF80D102068A18802232A46E5
:1012900005F0D6F905B030BDA368A1882068009399
:1012A00003AD01232A4605F09DFA9DF80C1021F0AC
:1012B000400141F04001E0E72DE9F041DFF8848092
:1012C0001C4F1D4E362241463846FFF7D7FE60BB05
:1012D0001A4D194C05F1200EAC46BCE80F00F44540
:1012E00004F11004654644F8100C44F80C1C44F852
:1012F000082C44F8043CEFD1BCF800302380304681
:10130000FEF78EFF024692B231464FF496730C48B8
:101310000AF0CCF84FF47A7001F04EF836224146CC
:101320003846FFF7ABFE0028D2D0BDE8F0410148B7
:10133000FFF78EBFFC030020C80B002070100508CB
:10134000041800200C0B002008B50A48FFF722FF04
:10135000DFED097AB4EEE70AF1EE10FA08DA054893
:10136000FFF718FFBCEEC00A10EE103A98B208BDA5
:10137000642008BDFC0300200000C84208B510210D
:10138000034804F0A9FEB0FA80F0400908BD00BF90
:10139000000400480148FFF715BE00BFFC03002011
:1013A0000160002380F842300522C274037580F882
:1013B0002A3080F84030012180F84110827416E014
:1013C00003F1080100EB41014FF6FF72CA8003F1FF
:1013D000100120F8112003F1140100EB41018A8073
:1013E00003F1180100EB4101CA800133DBB2042B89
:1013F000E6D97047002900DBC17490F913007047EB
:10140000C9B2052900D88174807C7047007D70477F
:10141000037D8B4206D341B1073100EB4100B0F9A7
:10142000060070474FF0FF3070474FF0FF307047B5
:10143000037D8B4204D331B10F3130F91100704775
:101440004FF0FF3070474FF0FF30704710B584B059
:10145000044600238DF80F306423009301230DF11F
:101460000F027021006805F0EBF808B104B010BD60
:10147000224652F8480B642300932123702105F083
:10148000B1F902460028F1D194F84A3003F00F0375
:101490002375052B01D905232375217DA37C994252
:1014A00028D9237526E002EB42035B00DBB2D91C8E
:1014B000214491F84810090201F47061181D20447C
:1014C00090F84800014302F1080004EB4000C1809D
:1014D000591D214491F84810090201F47061063346
:1014E000234493F848300B4302F1100124F81130E3
:1014F0000132D2B2042AD6D9B8E70000F8B50446C2
:10150000C3681BB190F84200002853D02046FFF773
:101510009DFF002384F8423084F8403094F814E0B2
:1015200094F82A50AE4503D2A5EB0E0384F8403060
:101530000023184610E0012002F1140104EB4101E0
:10154000A1F804C002F1100134F91110183204EBB3
:101550004202D1800133DBB29E4526D91A4603F1FF
:10156000140104EB4101B1F9041003F1080C04EB80
:101570004C0CBCF906C0A1EB0C010029B8BF4942D4
:10158000E67CB142D7DC03F1180104EB4101B1F96B
:10159000061003F1100734F91770C91B0029B8BFF2
:1015A00049428E42C8DA0120C6E7AE4500D001208C
:1015B00084F82AE0034B1B7813B10020014B18700C
:1015C000F8BD00BF0800002000B585B08DF80C10F4
:1015D0008DF80D20006864230093022303AA702174
:1015E00005F02EF805B05DF804FB70B50446BDF8B3
:1015F0001060C16002824360068183B11D460022F3
:101600003146184604F06FFD0A2000F0D5FE012295
:101610003146284604F067FD642000F0CDFE00222C
:1016200011462046FFF7D0FF0E2288212046FFF703
:10163000CBFF70BD038A8B4200D07047012380F836
:101640004230FAE710B582B00B4C0C492046FFF748
:10165000A7FE0B49022300930B4601222046FFF709
:10166000C4FF05212046FFF7C5FE01212046FFF7F4
:10167000C7FE02B010BD00BF080400200C0B002004
:101680000008004838B50C461648FFF737FFC8B1C8
:101690001448FFF7BBFE80B1124D01212846FFF729
:1016A000B7FEA5F8440001212846FFF7C1FEA5F8C2
:1016B0004600012385F8433008E00A4B002283F8F6
:1016C000432003E0074B002283F84320054BB3F986
:1016D00044206262B3F94620A26293F8433084F852
:1016E000203038BD08040020F0B52DED028B6423B6
:1016F00083B09FED398B00240546C0F8F4340DF01B
:1017000037FC214601230094022228460DF0EEFD0D
:10171000B0EE480AF0EE680A05F1280622460123D9
:101720000094022128460DF063FEB0EE480AF0EE68
:10173000680A012305220094022130460DF058FE6C
:10174000CDE90044264F23463A88042128460DF06F
:1017500097FE3A882346CDE900443046042101260D
:101760000DF08EFE324623462146CDE9006628461E
:101770000DF0F8FD0322CDE9002631463246022362
:1017800028460DF0EFFD11221023CDE9002602219D
:10179000224628460DF0E6FD3246314628460DF039
:1017A0006FFD3246052128460DF06AFD0D4B0E49AE
:1017B0000E48996100229A601A6158610C4B9A6038
:1017C0001A615861996103F05DFEC5F8740503B0B4
:1017D000BDEC028BF0BD00BF000000000000044023
:1017E0000C0000202C0A00200000C842CDCCCC3DCB
:1017F000100A0020000000002DE9F04F824B2DED73
:10180000048B1D6899B025B119B0BDEC048BBDE8FF
:10181000F08F0F2204461A600CA903220DF098FFE6
:1018200020469DED140B0DF07FFA784BDFF8F8A100
:10183000DFF8F8B1002251EC100BFEF7FFFC41EC91
:10184000170B9DED0C0BB0EE471AF0EE671A294608
:1018500020468DED147B0DF041FA9DED141BB0EE8A
:10186000407AF0EE607A294620469DED100B8DED12
:101870000C7B0DF033FADDE90C894946404655EC06
:10188000104B8DED100BFFF767F92946CAF80000E1
:1018900009EE100A2046FFF75FF99BED028A9BEDE7
:1018A000057ADBED066ADBED048ACBF8000038EE42
:1018B000078A07EE900A78EE266A37EEE86A88EE25
:1018C000267AE7EE068A8BED037A17EE100ACBED47
:1018D000048AFEF711FE02460B4600204C49FEF733
:1018E000ABFC064618EE100A0F46FEF705FE024650
:1018F0000B4630463946FEF757FEFFF72DF9DAED75
:10190000029ADAED057A9AED067A9AED048ACBF816
:10191000080079EEA79A39EE489A39EE877AC9EE2F
:10192000877AA7EE898ACAED037A17EE900A8AEDC4
:10193000048AFEF7E1FD02460B4600203449FEF71B
:101940007BFC064619EE900A0F46FEF7D5FD0246CF
:101950000B4630463946FEF727FEFFF7FDF82D4BC4
:10196000CAF808001868FEF7C7FD2B4B0022FEF7E7
:101970001BFE78EEC87A064617EE900A0F46FEF771
:10198000BBFD02460B4630463946FEF70DFE1CA352
:10199000D3E90023FEF752FCFFF7DEF81F4E30605C
:1019A000FEF7AAFDDDE91423CDE90A0118EE900A3D
:1019B000CDE90645CDE90489CDE90823FEF79CFD74
:1019C0000B46024618EE100ACDE90223FEF794FDFD
:1019D000134ACDE900014FF4807112484CF03CFFEE
:1019E000104801F0A9FB02F047F996ED000A0EF04D
:1019F000E5FB19B0BDEC048BBDE8F08FAFF30080C0
:101A00000000000000E07040080A002000003E4096
:101A10000000F03F1000002000003440480A002081
:101A200094100508C80B0020100A00202C0A002082
:101A300010B50D4C20460DF0BFF80122C4F8E82483
:101A400004F23C52DFF830C0C2F800C004F5A862CE
:101A50000648106004F2445204F5AA640449054B98
:101A60001160236010BD00BF78040020331395433C
:101A700000B056456AF72B380000FA442DE9F04FC4
:101A80000020A9B00FF0E2FEDFF8EC93EE4FEF4D2F
:101A9000DFF8E8A3044648463C6035F004FEC0F396
:101AA0000743C0F307228DF80A308DF808008DF83F
:101AB000092002990022204615F0A9FA38680FF093
:101AC000C5FE4FF496720446DC2111F0D9FC204685
:101AD00012F095FF484635F0E6FDC0F307238DF878
:101AE0000C00C0F307408DF80D308DF80E000399FF
:101AF0000022204615F08BFA284635F0D4FDC0F3BD
:101B000007238DF81000C0F307408DF811308DF8D1
:101B1000120004992046002215F0A1FA2046002266
:101B2000022115F0AEFA20460022052115F02CFB0B
:101B300020460022052115F054FA204600220521F6
:101B400015F05AFA20460022052115F034FA002239
:101B50002046052115F03AFA102120460FF0FCFE30
:101B6000204643F039FCBA49804644F0BEF80022D2
:101B70000221404615F0FDFA284635F094FDC0F3E9
:101B800007238DF81400C0F307408DF815308DF849
:101B9000160005994046002215F0CEFA51464046FF
:101BA000002215F0DBFA052300220221404611F045
:101BB000B3FC204643F010FCA649064644F095F8D5
:101BC00051460022304615F0C9FA284635F06BFD23
:101BD0008DF81800C0F30723C0F307408DF81930C3
:101BE0008DF81A000699DFF898A23046002215F009
:101BF000A3FA41464FF0050800230E223046CDF8E7
:101C0000008012F07DFC204643F0E6FB924B9349A6
:101C10001A6883460FA84CF055FE0FA9584644F0A9
:101C200064F8284635F03FFDC0F307238DF81C000B
:101C3000C0F307408DF81D308DF81E0007995846F7
:101C4000002215F079FA51465846002215F086FA1E
:101C500000230E2231465846CDF8008012F050FC89
:101C6000204643F0B9FB7E49064644F03EF828463C
:101C700035F019FDC0F307238DF82000C0F30740AD
:101C80008DF821308DF8220008993046002215F099
:101C900053FA51463046002215F060FA00230E2216
:101CA00059463046CDF8008012F02AFC204643F019
:101CB00093FB6C49834644F018F8284635F0F3FC52
:101CC000C0F307238DF82400C0F307408DF82530BA
:101CD0008DF8260009995846002215F02DFA514634
:101CE0005846002215F03AFA0E2200233146584693
:101CF000CDF8008012F004FC204632F02DFC642167
:101D0000064632F035FC284635F0CDFCC0F30723FB
:101D10008DF82800C0F307408DF829308DF82A008F
:101D20000A99304632F041FC484635F0BCFCC0F31D
:101D300007238DF82C00C0F307408DF82D308DF867
:101D40002E000B99304632F03CFC474925223046A4
:101D500032F06EFC1E2300220921304611F0DCFB1C
:101D6000204643F039FB4149814643F0BEFF2846F7
:101D700035F099FCC0F307238DF83000C0F307401D
:101D80008DF831308DF832000C994846002215F05C
:101D9000D3F951464846002215F0E0F931460026B5
:101DA000334648460E22009612F0AAFB20463EF02B
:101DB00003F828221146044611F062FB284635F04C
:101DC00072FCC0F307238DF83400C0F307408DF890
:101DD00035308DF836000D993246204615F017F94A
:101DE00032464146204615F0CFF9334632460421AB
:101DF000204611F091FB204643F0EEFA1C490546BF
:101E000043F073FF284612F0FAFD6FF07F4035F083
:101E10004AFC0346C3F30722C3F307438DF8380097
:101E20008DF839208DF83A300E992846324615F053
:101E300083F9104933460A22204611F019F9384631
:101E400010F07AF81EE000BF4C0A00204F45360023
:101E5000B0100508D810050820000020E81005087B
:101E6000FC100508141105082C110508541105086B
:101E7000701105087D3B0008D0EAF000FC4B050816
:101E80001C1F0508386829B0BDE8F08F1D4A1E48A0
:101E9000137813B90378002B33D030B587B0002105
:101EA00001240DF11703642502958DF817101170A8
:101EB000CDE900343022017023461448A62104F0F5
:101EC00023FE9DF81720D00604D51148114B04704D
:101ED00002211970110705D50F480E4B012403216B
:101EE00004701970930608D50C4A0D491378B3FA9B
:101EF00083F301205B090870137001F095FE07B0B1
:101F000030BD7047520A0020510A00200C0B0020FF
:101F1000540A0020680A0020530A0020500A0020BA
:101F2000550A002070B5434EBEB00124642509ABAC
:101F30000093CDE9014523460022A621304604F056
:101F4000E3FD0DF125038DE838001D222346A6216F
:101F5000304604F0D9FD0DF126038DE8380021222A
:101F60002346A621304604F0CFFD0DF127038DE86E
:101F7000380022222346A621304604F0C5FD0AABD4
:101F80008DE838002A222346A621304604F0BCFD05
:101F90000DF129038DE838002D222346A621304675
:101FA00004F0B2FD0DF12A038DE838002E222346FD
:101FB000A621304604F0A8FD0DF12B038DE8380072
:101FC0002F222346A621304604F09EFD0BAB8DE860
:101FD000380030222346A621304604F095FD9DF8B6
:101FE0002C009DF82B30144ACDE906309DF82A309C
:101FF00005939DF8293004939DF8283003939DF8AC
:10200000273002939DF8263001939DF825300093E8
:10201000C8219DF824300CA84CF01EFC0CA8FEF73B
:10202000FFF802462B4692B20CA9044809F03EFA8A
:102030003EB070BD0C0B0020741105080418002080
:102040002DE9F043604D89B0012464260DF113039E
:10205000282200938DF813202346CDE901462D2236
:10206000A621284604F07CFC10238DF8153050235F
:102070008DF81630F0238DF8173005AB4FF01809A6
:102080000093CDE9014623461D22A62128468DF85E
:1020900014908DF8184004F063FC0DF115030093C3
:1020A000CDE9014623462122A621284604F058FC0A
:1020B0000DF116030093CDE9014623462222A62105
:1020C000284604F04DFC0DF117030093CDE90146BD
:1020D00023462322A621284604F042FC0DEB0903E7
:1020E0000093CDE9014623462A22A621284604F082
:1020F00037FC0DF11903009303238DF81A30FF23E9
:102100004FF0300878278DF81C30CDE90146234682
:102110002422A62128468DF819808DF81B7004F022
:102120001FFC0DF11A030093CDE901462346252239
:10213000A621284604F014FC0DF11B030093CDE901
:10214000014623462622A621284604F009FC07ABB7
:102150000093CDE9014623462722A621284604F014
:10216000FFFB0DF11D03009338238DF81D30CDE9E1
:10217000014623462E22A621284604F0F1FB0DF14C
:102180001E030093CDE9014623462F22A6212846AF
:102190008DF81E9004F0E4FB0DF11F030021424670
:1021A000CDE900348DF81F102346A621029628465B
:1021B00004F0AAFCFFF7B6FE044A054B14701F702A
:1021C00009B0BDE8F08300BF0C0B0020570A0020C7
:1021D000560A002010B588B00DF1040C094C0FCC44
:1021E000ACE80F0094E80700ACE803002CF8022BE1
:1021F000120C8CF800200CF065FC01A80CF0E1F842
:1022000008B010BD180C0508054BCA225A625322AB
:102210005A629A6822F007029A60FF225A62704757
:10222000002800407047000008B500200CF070FC4A
:1022300068B181794FF0B042054BC2F89C30D2F8BA
:102240009C3023F47C5343EA0123C2F89C3008BD40
:10225000FECAFECA08B54FF0B042936843F400438B
:1022600093600EF059FC054AD2F8803023F0070342
:1022700043F00403C2F8803008BD00BF00040058DA
:1022800000B589B00CF018FB0F4A00214FF4007024
:102290000EF070FD0D4B00930D4B019369460D48F8
:1022A0000CF056FA0C4B02930C4B03930C4B04931B
:1022B00040F23C53059302A80CF0D2FB0CF0F8FA64
:1022C00009B05DF804FB00BF75E7000810040320A7
:1022D0002522000845230008F801032004030320F9
:1022E0001C05032000B585B00023009301930293E1
:1022F000039343685B7B23B1012B1ED005B05DF8CF
:1023000004FBFFF767FF0F238DF800307F238DF864
:1023100002300B4A13681B0CADF80C301368C3F382
:102320000B03ADF80E3068460CF05AF80DF030FD96
:10233000002101200EF0FAFBE0E700230370DDE747
:10234000002004E04368B3F80B30B3F5124F00D01F
:10235000704710B584B0044668460CF04FF820462C
:10236000FFF7C0FF04B010BD08B5034B4FF40042A7
:102370001A61FFF759FF08BD00400058034AD2F820
:10238000903043F05003C2F8903070470008005876
:1023900008B5FFF7F3FFFFF737FF08BD08B5FFF7F4
:1023A000F7FFFFF757FF0349002000F07DFBFFF721
:1023B00067FF08BD1816002038B5044603F062F820
:1023C0000546B4F1FF3F09D003F068F8044405E086
:1023D000054A136923F00403136130BF03F052F878
:1023E000401BA042F4D338BD00ED00E008B54FF02B
:1023F000FF300EF0F7FB08BD704708B500214FF421
:1024000000700EF0A9FB08BD08B502200EF0D2FB4B
:1024100008BD08B502200EF081FC08BD10B5064CC1
:102420000021204607F082FF226800235363034AFD
:102430001370034A136010BDB8170020680A00200B
:10244000640A00200C4B1B6883420BD00BDA01336B
:10245000094A1360834200DD1060084B1B68064A7E
:1024600012685A6370478342F7DD013B024A1360EA
:102470008342F2DA1060F0E7600A0020B81700200B
:1024800008B5174B1B78032B0AD8DFE803F0020EC0
:102490001720144B1B681BB9134B1A68134B1A6097
:1024A000124B1868FFF7CEFF08BD0E4B1B68002BC0
:1024B000F6D10F4B1A680D4B1A60F1E7094B1B68F8
:1024C000002BEDD10B4B1A68084B1A60E8E7054B5F
:1024D0001B68002BE4D1084B1A68044B1A60DFE735
:1024E000680A0020640A00201C0000205C0A00200A
:1024F0001800002014000020580A002000B583B006
:102500004FF0B0439A6C42F004029A649A6C02F065
:1025100004020192019A9A6C42F001029A649B6C47
:1025200003F001030093009B002211460B2003F0EF
:1025300021F80B2003F02EF803B05DF804FB000037
:102540002DE9F04F89B00024039404940594069477
:1025500007944FF0B043DA6C42F00402DA64DA6CAC
:1025600002F004020292029ADA6C42F00202DA6489
:10257000DA6C02F002020192019ADA6C42F0010276
:10258000DA64DB6C03F001030093009B474F0122E8
:102590000221384603F0A7FD224616214FF0904055
:1025A00003F0A1FD424E224641F22401304603F0E1
:1025B0009AFD012503954FF40419CDF81090059567
:1025C00003A9384603F0AEFC022303930495059457
:1025D000069403A9384603F0A5FC4FF00608CDF891
:1025E0000C8004950594069403A94FF0904003F0E5
:1025F00099FC4FF0100BCDF80CB0049505944FF0FA
:10260000030ACDF818A003A94FF0904003F08AFC0C
:102610002423039304950594069403A9304603F0FC
:1026200081FC03950494059403A9304603F07AFCD9
:10263000CDF80CB00494059403A9304603F072FC65
:102640004FF48053039304950594CDF818A003A983
:10265000304603F067FC4FF480630393CDF810908D
:10266000059503A94FF0904003F05CFC4FF4C05374
:1026700003934FF4881304930223059303A9384668
:1026800003F050FC22462146404602F073FF4046CC
:1026900002F080FF22462146282002F06BFF28200E
:1026A00002F078FF09B0BDE8F08F00BF00080048D5
:1026B00000040048064A936A9BB2906A80B203E025
:1026C000034B9A6A034690B28342F9D1704700BF28
:1026D0000028004001EB41020D4B03EBC2035B7D80
:1026E000DBB2062B05D003EB430C094A02EBCC020C
:1026F0001075074A00EB400C02EBCC0C8CF815303F
:102700008CF8141001EB410102EBC10250757047C7
:102710007C0A0020174B1B78DBB28B421DD0164B76
:1027200001EB410203EBC202127D5FFA82FC02EB75
:10273000420203EBC202507500EB400203EBC202FF
:10274000517500EB400203EBC20282F814C001EBAA
:10275000410103EBC10318757047074B00EB4002C2
:1027600003EBC202517501EB410103EBC103187584
:10277000704700BF790A00207C0A002010B4234B68
:102780001B78DBB283422CD0214C00EB400204EBDF
:10279000C20292F814C0537DDBB2527DD2B20CEB70
:1027A0004C0C04EBCC046275062B0BD0184A00EBE2
:1027B000400402EBC404247DE4B203EB430302EBC8
:1027C000C302147500EB4000114B03EBC003012260
:1027D0001A730E4B1B78DBB2062B10D05DF8044B3E
:1027E00070470A4C2378DBB20A4A137000EB4002B0
:1027F000074B03EBC2035B7DDBB22370E2E70029EA
:10280000ECD1054B4FF0FF321A60E7E7790A002060
:102810007C0A0020780A0020740A002008B5104BBA
:102820001B68B3F1FF3F02D1002080B208BDFFF763
:1028300041FF0B4B1B6883420AD3094B1B681B1AD1
:10284000084A107803FB00F0074B1B78D840ECE7F0
:10285000064B1A88121A024B1B681344F0E700BF9C
:10286000740A00206E0A00206F0A00206C0A002003
:1028700070B50446314B1B78DBB2062B13D12F4ABF
:102880001378DBB22E490B70107000EB40042D4B17
:1028900003EBC404062363752B4B4FF0FF321A6021
:1028A0000025284670BDFFF7B9FF0546254B04EB10
:1028B000440203EBC20291680144916004EB4402BC
:1028C00003EBC20290681D4A127802EB420203EB4E
:1028D000C2039B68834225D8184B1B78D9B203EBFF
:1028E0004303184A02EBC3035B7DDBB20CE0154ADD
:1028F00001EB410102EBC1014B7DD9B203EB430374
:1029000002EBC302537DDBB2062B07D003EB43037C
:102910000C4A02EBC3039B688342E8D92046FFF7C9
:10292000D9FEBEE7054E31782046FFF7F3FE337837
:10293000DBB2034A13703470B3E700BF790A00209A
:10294000780A00207C0A0020740A002010B548B3E1
:10295000044601282ED9013CA4B2194B1B68DA6841
:1029600012F0040FF9D0DA68D2B262F49062DA6041
:10297000144B4FF40022DA60032002F035FE124AB5
:1029800053696FF30F031C435461FFF793FE0F4B22
:1029900018600B4B1A68936843F480639360AFF33D
:1029A000008010BDFFF786FE084B1860032002F080
:1029B0000DFEF6E7064B1B78012BCCD1CDE700BF0F
:1029C000181600200008005800280040740A002053
:1029D0006F0A002038B52E4B9B6813F4806F05D02A
:1029E0002C4B1B68DB6813F0040FF9D1294B1A68D4
:1029F000936823F480639360274B1B78DCB203EB6E
:102A00004303264A02EBC3039D68FFF707FF844692
:102A1000A84204D9224B01221A70002024E0214B45
:102A20001B8810FA83F3AB4206D21E4B188880B283
:102A30001B4B00221A7017E0A8B2A0EB0C0080B26A
:102A4000174B01221A700FE004EB4404134A02EB07
:102A5000C404A268A2EB0C02A26003EB43030F4A7A
:102A600002EBC3035C7DE4B2062C0ED0234604EBDC
:102A700044010A4A02EBC10292689445E4D9074A2C
:102A800002EBC1040022A260E7E7FFF75FFF38BD59
:102A90000028004018160020790A00207C0A002037
:102AA000700A00206A0A002010B5484B1B68CA2231
:102AB0005A6253225A62464B9A6842F020029A6048
:102AC0009A6802F00702C2F10402D2B241490A70C8
:102AD0001B6903F4FE034FF4FE0191FAA1F10029F2
:102AE00031D0B1FA81F1CB40DBB20133DBB23A49EC
:102AF0000B7037490969C1F30E010131374C218050
:102B0000013901FB03F3A3F5A073D3404FF6FE7226
:102B100093421AD9324B4FF6FF721A80314B1A6822
:102B200042F400221A60D3F8802042F40022C3F855
:102B3000802000283FD12C4B01221A702B4B4FF0E4
:102B4000FF321A600EE02021CDE79BB2244A1380A9
:102B5000E4E700EB4002264B03EBC20300221A73AA
:102B60000130C0B20528F4D9224B06221A70174C46
:102B70002268936823F480639360D368DBB263F4C4
:102B80009063D360174B4FF40022DA60032002F009
:102B90002BFD2268936843F4804393600B4B1B68C2
:102BA000FF225A6200220321084602F0E3FC0320C0
:102BB00002F0F0FC10BD054B1B68DB6813F4806F5E
:102BC000ECD0032002F002FDE8E700BF1816002059
:102BD000002800406F0A00206E0A00206C0A0020C6
:102BE0006A0A002000080058700A0020740A0020B9
:102BF0007C0A0020790A0020F0B5EFF3108572B648
:102C00004FF0000CBCF1050F0CD80CEB4C0E154C22
:102C100004EBCE0E9EF80C4024B10CF1010C5FFACF
:102C20008CFCEFE7BCF1060F17D00E4E4FEA4C04B8
:102C30000CEB4C0E06EBCE0E01278EF80C7085F3D4
:102C40001088CEF810008EF80D2004EB0C02D20094
:102C5000B35081F800C00020F0BD85F3108801203A
:102C6000FAE700BF7C0A002038B50446EFF3108570
:102C700072B6032002F092FC254B1B68CA225A62EE
:102C800053225A6204EB4402224B03EBC2031B7B28
:102C9000DBB2022B09D01E4B1B68FF225A620320B5
:102CA00002F078FC85F3108838BD00212046FFF73C
:102CB00065FD194B1B78DBB2062B07D0174A12783B
:102CC000D2B29A42E7D0FFF785FEE4E7144B9B6847
:102CD00013F4806F05D00E4B1B68DB6813F0040FF4
:102CE000F9D10B4B1A68936823F480639360D3681F
:102CF00013F0040FFBD0D368DBB263F49063D360AE
:102D0000084B4FF40022DA60032002F06DFCC2E7AA
:102D1000181600207C0A0020790A0020780A00207A
:102D2000002800400008005870B504460D4600EB2E
:102D30004002214B03EBC2031B7BDBB2022B35D0DD
:102D4000EFF3108672B6032002F028FC1B4B1B68C1
:102D5000CA225A6253225A6204EB4402164B03EB16
:102D6000C20302221A739D605D602046FFF780FD5A
:102D7000134B1B78DBB2134A1278D2B29A4218D1A5
:102D80000D4B04EB440203EBC2029268121A04EBEF
:102D9000440403EBC4039A60084B1B68FF225A6289
:102DA000032002F0F7FB86F3108870BDFFF75CFF8D
:102DB000C6E7FFF70FFEEFE77C0A00201816002099
:102DC000790A0020780A002008B5904708BD000065
:102DD000F8B5EFF3108572B6314B1B68CA225A6200
:102DE00053225A629A6822F480629A602D4A1478BB
:102DF000E4B204EB4402D1002B4A0A44127BD2B263
:102E0000022A13D0DA6812F0040FFBD0DA68D2B2CB
:102E100062F49062DA60254B4FF40022DA6085F3A9
:102E200010881F4B1B68FF225A62F8BD1E4A04EB34
:102E30004401CB00D118D7580E691D4B1B7853B3F2
:102E40004B7BDBB2012B10D085F310882046FFF7B7
:102E50000BFF134B1B68CA225A6253225A623A462E
:102E600021463046FFF7B0FFDBE701212046FFF7A0
:102E700085FC85F3108804EB4403DA000A4B134405
:102E800059682046FFF750FF054B1B68CA225A625B
:102E900053225A62E3E7FFF79DFD85F31088C0E7F0
:102EA00018160020790A00207C0A0020000800582B
:102EB000700A002008B51248124B0360124B4360A1
:102EC000002383600122C260036143618361C361A7
:102ED000036203F051FB50B90021094803F0ECFEF6
:102EE00040B90021064803F015FF30B908BD00F0D5
:102EF00043FCF1E700F040FCF3E700F03DFCF5E7B0
:102F00000C0B002000540040B57DB11010B59CB0F2
:102F1000044600211791189119911A911B91502282
:102F200003A84BF08BFD2268194B9A4201D01CB0CC
:102F300010BD042303934FF440330B9303A805F013
:102F400018FE10BB4FF0B044E36C43F00203E3649F
:102F5000E36C03F002030293029B4FF44073179358
:102F600012231893002319931A9304231B9317A970
:102F7000084802F0D7FFA36D43F40013A365A36DC7
:102F800003F400130193019BD1E700F0F5FBD9E7AF
:102F9000005400400004004808B50548054B036094
:102FA00003F002FF00B908BD00F0E6FBFBE700BF3D
:102FB000600B0020000C00580268124B9A4200D0AF
:102FC000704700B583B04FF0B0431A6D42F48012E1
:102FD0001A651B6D03F480130193019B00221146B7
:102FE0002C2002F0C7FA2C2002F0D4FA002211465D
:102FF0002D2002F0BFFA2D2002F0CCFA03B05DF8CC
:1030000004FB00BF000C00582DE9F843DDF82090C8
:103010001C480E46174698460468002CFCD11A4DF1
:103020004FF4E0632846EB6006F08FF92246042156
:103030004FF0904003F057F8224610214FF0904097
:1030400003F051F8BAB231464FF48053284606F0E7
:10305000EBF908B1BDE8F883012204214FF090405C
:1030600003F041F81FFA89F241464FF48053284695
:1030700006F0DAF9BDE8F843012210214FF0904044
:1030800003F031B8B40B0020041700202DE9F047FD
:10309000DDF820A01A4D0F46904699462C68002C6A
:1030A000FCD1184E4FF4E0633046F36006F04DF962
:1030B000224604214FF0904003F015F822461021DB
:1030C0004FF0904003F00FF81FFA88F239464FF4A2
:1030D0008053304606F0A8F908B1BDE8F087012218
:1030E00004214FF0904002F0FEFF01231FFA8AF204
:1030F000494630462B60BDE8F04706F019BC00BFDA
:10310000B40B0020041700200FB400B5A3B025AB0A
:10311000084A0193802102A84BF068FC002803DDD7
:1031200081B202A80DF0EEF923B05DF804EB04B013
:10313000704700BFC80B00200FB400B5A3B024AB8C
:10314000802153F8042B019302A84BF04FFC002878
:1031500003DD81B202A80DF0D5F923B05DF804EBD0
:1031600004B0704708B5012202214FF0904002F0F0
:10317000BAFF0120FFF720F9002202214FF0904012
:1031800002F0B1FF0A20FFF717F9012202214FF0E8
:10319000904002F0A8FF7820FFF70EF901221021DD
:1031A0004FF0904002F09FFF012204214FF0904029
:1031B00002F099FF002008BD184B02689A4200D027
:1031C000704730B4164B1B78242B10D015490A7861
:1031D000BAB1154C154D22880A2BAB5402D12B786D
:1031E000242B13D0FD2A0CD8013292B208E00D4CEA
:1031F0000F490122227000240C700C490A4C0B70FC
:10320000228030BC0649012208F0FEBA1544002392
:10321000074C0B706B7001232370F2E700380140FC
:10322000C50B00209C0B00209E0B0020C80C00202A
:10323000C40B0020274B834200D0704710B5264CAA
:1032400026482268264B013222602168254A00FB6D
:103250000133B2EB730F25D8234A13680BB1013B3E
:103260001360236821492368214A01FB03F303F516
:10327000511303F53753B2EB331F12D31D491E4BC5
:103280000A681E481A604FF0010C00221C4B0A60AD
:1032900080F800C022601A781AB11A78013AD2B2C6
:1032A0001A7010BD01203BF07DF91648164B2168BD
:1032B000164A00FB0133B2EBF30F02D3144B012289
:1032C0001A60144B1A68002AC6D01A68013A1A60AC
:1032D000C2E700BF6C170020B00B0020CDCCCCCCD7
:1032E0009899991999999919C80D0020917EFB3ADE
:1032F000B88D0600A80B0020A40B0020A00B002016
:10330000560A0020295C8FC250B81E0514AE470132
:10331000AC0B0020080A002008B5094B834200D0FE
:1033200008BD012210214FF0904002F0DCFE054B59
:10333000054900221A600868BDE8084015F08FBDF5
:1033400004170020B40B0020B80B0020044B0268C7
:103350009A4200D07047034B01221A60704700BFA9
:1033600000380140C00B0020B0F5006F01460BD0C3
:10337000B0F5805F04D001280AD10948FEF75AB998
:10338000084B01221A707047074B01221A707047D0
:10339000B0F5806F02D1054B01221A60704700BF63
:1033A00008040020510A0020520A00200C0A0020C4
:1033B000034BD3F8500E431C08BF0020704700BFDA
:1033C00000F00B0810B584B0044602F019FB0A4B5C
:1033D00093E8070001AB83E807006946184602F04E
:1033E00067FD064922460023012002F099FB02F006
:1033F0001FFB04B010BD00BF340C050850FE0B08C5
:1034000000B595B04C22002168464BF017FB02F046
:10341000F7FA02F01BFB04214FF0406200236846DC
:10342000CDE90523009102F0CBFC02F029FB15B099
:103430005DF804FB0000000010B59CB00024482299
:1034400000210AA84BF0FAFACDE90244CDE9044480
:10345000CDE90644089404F0B7FC4FF0B0422721B0
:10346000D2F8903023F0180343F01003C2F89030E4
:10347000D2F8003423F4C06343F40073C2F800347C
:10348000D2F8003412944FF48032CDE90A1203F4DA
:10349000C063402201934FF4807101230E920222F7
:1034A000CDE90C31159260212022119313911693CE
:1034B0004FF0005118924FF000734FF400320AA8F9
:1034C0001794CDE91923019C1B9104F08BFD08B1E1
:1034D00072B6FEE79FED0A7B034603216F2202A826
:1034E0008DED067BCDE9031302920593089305F059
:1034F00005F908B172B6FEE705F0B4FC1CB010BDCA
:10350000000000008000000010B594B040220021AF
:1035100001A84BF093FA4FF440544FF4804102223B
:1035200010236846CDE911120094139305F021FB96
:1035300008B172B6FEE7024BD3F8943014B010BD58
:10354000001400582DE9804883B001F079FF734BD7
:10355000734AD3F8503E591C08BF00231360FFF78D
:103560006BFFFFF7D1FFFEF7FFFEFFF715FDFEF73C
:10357000E7FFFEF7C3FF01F035FBFFF79BFC01F00F
:1035800097FB01F0BBFB01F0E5FD01F023FE01F02C
:103590006DFD01F0E9FA01F0E9FA6420FEF70CFF95
:1035A0000CF06CFF6420FEF707FF5E4806F048FC55
:1035B00000221146192001F0DDFF192001F0EAFF79
:1035C000FEF7ECFEFEF73CFD5748FEF78DF8FEF7E0
:1035D00039F8FDF771FE32F013FAFFF7C3FDD0B9E9
:1035E000524A534B0092044602464FF4A071F02019
:1035F0002BF096FF4F4D0221286016F098F82868AE
:103600001B2116F075F828684B4A4C4900944FF47A
:10361000164315F0B8FB4A484A4C4B4E4B4DDFF869
:103620004C91DFF84CB1DFF84C81494FDFF8F8A03E
:103630003BF006F82CF090FC012120602CF0DCFC23
:1036400044492068444C2CF0DEFC002001F040FE90
:10365000FEF7E4FE0FCC0FC694E8030086E80300F3
:10366000A6F11000FCF7DCFDA6F1100182B23B4888
:103670003B4C07F0EBFA3B493848012208F0C4F80C
:10368000A6F11000FCF7CCFD81B2A6F110000CF001
:1036900039FF103E236801332360FEF7A7FE2B7825
:1036A000002203B12A70FEF7F1FBFEF7E9FE504657
:1036B000FEF7A2F899F80030BBB9D8F800303BB15A
:1036C0003B68002BE6D000233B6036F06FFCE1E75F
:1036D000A723C8F800300CF069FD3B68002BD9D057
:1036E00000233B6036F062FCD4E7002389F8003009
:1036F000DBF800301C4A402130464BF0ADF8304634
:10370000FCF78EFD02461E2392B23146134807F0A5
:10371000CDFE3046FFF7F8FCCFE700BF00F00B0806
:10372000200000206C170020780400208D30000855
:1037300009300008B80B0020D0180020D0AE0020BF
:1037400085540008BC0B0020C80B0020C40B0020CF
:10375000AC0B002085160008CC11050804180020C9
:10376000A80B0020C50B0020E4110508A00B0020C9
:10377000A40B0020C80D002072B6FEE708B50CF0BF
:1037800013FCBDE80840002001F0A2BD022001F0BA
:103790009FBD00BF002001F09BBD00BF2DE9F04F91
:1037A00000208FB00EF052F8E74FE84D386002214C
:1037B0000EF0D2F83868DFF8B483DFF8B4A3DFF88E
:1037C000B49310210EF0C8F838680022FF2113F0DE
:1037D00030FC28463C6833F066FFC0F307238DF8C1
:1037E0000800C0F307408DF809308DF80A00002268
:1037F0000299204613F00BFC3868D54C0EF026F8E1
:10380000022120600EF0A8F8206810210EF0A4F824
:10381000386826680FF0CEFEA0F1140130460FF094
:10382000FDFD20686FF040410FF011FE206800227E
:10383000022113F026FC4046266833F034FF03468D
:10384000C3F30722C3F307438DF80E308DF80C0045
:103850008DF80D2003993046002213F000FC284615
:10386000256833F020FF0346C3F30722C3F3074361
:103870008DF812308DF810008DF81120049928462B
:10388000002213F0C4FB20680022052113F07CFC09
:103890002568002228460A2113F0A3FB28460022AF
:1038A0000A2113F0A9FB284600220A2113F083FB0A
:1038B000284600220A2113F089FB00231A462068BB
:1038C00009210FF029FE20683CF076FA32220646E4
:1038D000B4210FF0D5FD00220821304613F054FC2E
:1038E000404633F0E0FEC0F307238DF81400C0F328
:1038F00007408DF815308DF81600059930460022E6
:1039000013F085FB00220A21304613F0C5FB00208E
:1039100033F0C9FEC0F307238DF81800C0F3074049
:103920008DF819308DF81A0006993046002213F0F0
:10393000BEFB00224C21304613F0CBFB504633F047
:10394000B2FE8DF81C00C0F30723C0F307408DF8CA
:103950001D308DF81E0007993046202213F057FBCA
:1039600000231A46304602210FF0D6FD00230A221A
:10397000784930460FF07CFB304641F02DFD76490A
:10398000054642F0B2F949460022284613F0E6FB0C
:10399000284611F034F820683CF00EFA3222054631
:1039A000B4210FF06DFD00220821284613F0ECFB36
:1039B000404633F078FEC0F307238DF82000C0F3B3
:1039C00007408DF821308DF8220008992846002202
:1039D00013F01DFB00220A21284613F05DFB002096
:1039E00033F061FEC0F307238DF82400C0F30740D5
:1039F0008DF825308DF8260009992846002213F00D
:103A000056FB00224C21284613F063FB504633F04E
:103A10004AFE8DF82800C0F30723C0F307408DF855
:103A200029308DF82A000A992846202213F0EFFA4F
:103A300031460F262846009600230E2210F060FD26
:103A400000230A22454928460FF012FB284641F080
:103A5000C3FC4349834642F048F949460022584690
:103A600013F07CFB584610F0CAFF20683CF0A4F924
:103A700032220446B4210FF003FD00220821204623
:103A800013F082FB404633F00EFEC0F307238DF89F
:103A90002C00C0F307408DF82D308DF82E000B99C7
:103AA0002046002213F0B3FA00220A21204613F028
:103AB000F3FA002033F0F7FDC0F307238DF8300050
:103AC000C0F307408DF831308DF832000C99204654
:103AD000002213F0ECFA00224C21204613F0F9FAF0
:103AE000504633F0E0FD8DF83400C0F30723C0F3F7
:103AF00007408DF835308DF836000D99204620228C
:103B000013F085FA29462046009600230E2210F075
:103B1000F7FC00230A22134920460FF0A9FA204699
:103B200041F05AFC1049044642F0DFF800224946B1
:103B3000204613F013FB204610F061FF38460EF0CC
:103B4000FBF938680FB017E0D00D0020D0EAF00084
:103B5000CC0D00208D370008F811050895370008B6
:103B6000001205087D370008081205084F45360089
:103B7000D2761900FC4B0508BDE8F08F012001F05A
:103B8000A7BB00BF0B4B1B6893B110B590B00446A8
:103B9000402168460CF00EFA694607484AF04AFE92
:103BA000204636F0D9FA694642F09FF810B010BDB1
:103BB000704700BFC415002018120508164B1B687B
:103BC00043B370B58AB00446FDF7BEFB0546FDF76A
:103BD000D5FB0646204636F0BFFA044666B902AE6B
:103BE0000E4A2B46202130464AF036FE314620460A
:103BF00042F07BF80AB070BD02AE094B094A00954D
:103C0000202130464AF028FE3146204642F06DF829
:103C10000AB070BD704700BFC415002034120508FB
:103C2000281205082C1205080C4B1B68ABB100B517
:103C30000B4A0C4910780C4B0C4A89B0002818BF6D
:103C40000B46202168464AF007FE094B6946186872
:103C500042F04BF809B05DF804FB7047C415002032
:103C6000500A00203C1205084412050848120508B5
:103C700000160020000000006B4B1B68002B77D063
:103C80006A4BF0B5D3ED007A694D6A4B2A68FDEEB8
:103C9000E77A2DED048B17EE904A944283B0C3ED82
:103CA000007A61D0F8EEE77A9FED637AF4EEC77A96
:103CB000F1EE10FA5DD59FED619A4FF48074F0EE4D
:103CC000490A1C6062260027B3EE058AB0EE480A56
:103CD0009FED5B2ADFED5B1A9FED5B1A2C6001A95B
:103CE000684601F033FBDDED007A584C5849594BDA
:103CF00020684F60F4EEC87AF1EE10FA8CBFF0EE57
:103D0000488AF0EE678A38EE688A77EEE87ABDEE88
:103D1000C88AFDEEE77A022281ED008AC1ED027ABF
:103D2000CE60019342F03CFF206813F09FFA0546F5
:103D30000FF00AFC08EE100A28460FF01BFC07EEF5
:103D4000900AF8EEE77AB8EEC88A39EE679A78EE0C
:103D5000C88AFDEEC97A206817EE902AFDEEE87A4F
:103D600017EE901A0FF04EFB03B0BDEC048BF0BDC4
:103D700070479FED397AF4EEC77AF1EE10FA0BDD59
:103D80009FED2E9A9FED358A4FF48E74F0EE490A1E
:103D90001C606226002799E72046FCF79BFB20A3C6
:103DA000D3E90023FCF700FCFCF7D6FE08EE900AEE
:103DB000B0EE680A48F046FE9FED299ADFED227AC0
:103DC000E0EE097AB0EE670A48F0D0FEB0EE408A25
:103DD000B0EE680A48F07AFEDFED227AE0EE097A6A
:103DE000B0EE670A48F0C2FEDFED1F7AB4EEE70AD4
:103DF000F1EE10FA8CBFB0EE679AB0EE409A30EE5A
:103E0000497A77EEC97ABDEEC77AFDEEE77A17EE0A
:103E1000107A17EE906AF0EE400A57E7AFF3008091
:103E2000399D52A246DF913FC4150020480A002068
:103E3000E40D0020E80D00200000804300007842DF
:103E40000000C842000048430000F042D81500209E
:103E5000D40D00200000204300008E4300005B438F
:103E60000000CD430000E643000020432DE9F0416F
:103E70008F4E904C3068904F94B00DF0E7FC0221CB
:103E800020600DF069FD102120680DF065FD30689F
:103E900025680FF08FFB011F28460FF0BFFA20683E
:103EA0006FF040410FF0D3FA00220221206813F096
:103EB000E8F88248256833F0F6FBC0F307238DF855
:103EC0000800C0F307408DF809308DF80A00029908
:103ED0002846002213F0C3F820680022052113F0C1
:103EE00053F9256800222846032113F07AF8284662
:103EF0000022032113F080F828460022032113F04A
:103F00005AF800220321284613F060F86B48256810
:103F100033F0C9FBC0F307238DF80C00C0F3074052
:103F20008DF80D308DF80E0003992846002213F00D
:103F30006EF80223194600222068614D0FF0ECFA5A
:103F4000206841F049FA022128600DF005FD28683B
:103F500010210DF001FD5B49286841F0C6FE6FF0AD
:103F60004042114628680FF08BFA2868002203218E
:103F700013F0FFF8002328681A4608210FF0CCFA46
:103F80003868002800F08180296836F0BAF83D686A
:103F90003368C3B1FDF7D8F90746FDF7EFF980465E
:103FA000284636F0D9F80546B8F1000F63D10DF177
:103FB0001008454A3B46202140464AF04DFC414608
:103FC000284641F092FE2068404D414F41F004FAEE
:103FD000022128600DF0C0FC286810210DF0BCFC07
:103FE0003C49286841F081FE6FF040421146286844
:103FF0000FF046FA28680022032113F0BAF80023D4
:1040000028681A4609210FF087FA3868002845D039
:10401000296836F076F83D6833686BB1402104A812
:104020000BF0C8FF04A92C484AF004FC284636F0DF
:1040300093F804A941F059FE2068284C41F0CCF9CE
:10404000022120600DF088FC206810210DF084FC16
:104050002068234941F049FE6FF040422068114634
:104060000FF00EFA002320681A46072114B0BDE8AD
:10407000F0410FF051BA0DF110081A4B1A4A00978F
:10408000202140464AF0E8FB99E72A6817484FF498
:104090007A7135F01FFF0546386079E72A681448C1
:1040A0004FF47A7135F016FF05463860B4E700BF6B
:1040B000C4150020E8150020C0150020D0EAF0004B
:1040C000FC1500204C12050834120508F8150020D4
:1040D000BC1500205412050818120508001600200F
:1040E00044120508281205082C120508BD3B0008DB
:1040F000853B0008000000002DE9F0472DED0C8BFA
:10410000834CDFF854A22068824D9FED83DA9FED47
:10411000838A9FED83CADFED83BA9FED83BADFED1B
:1041200083AA9FED83AA88B00DF090FB0221CAF804
:1041300000000DF011FC1021DAF800000DF00CFC6D
:104140002068DAF800400FF035FA011F20460FF022
:1041500065F9DAF8000082210FF079F900220221D6
:10416000DAF8000012F08DFF7248DAF8004033F000
:104170009AFAC0F30743C0F307228DF80E308DF88A
:104180000C008DF80D2020460399002212F067FFE5
:10419000DAF800000022052112F0F6FFDAF80040FC
:1041A00000221146204612F01CFF00221146204634
:1041B00012F022FF00221146204612F0FCFE0022DF
:1041C0001146204612F002FF5B48DAF8004033F057
:1041D0006AFAC0F30743C0F307228DF810008DF888
:1041E00011208DF8123020460499002212F00FFFA2
:1041F00002231946DAF8000000220FF08DF94F4B28
:1042000002241968009400230E22DAF8000010F04E
:1042100077F9DAF8000010F04FF9DAF800000FF043
:1042200093F909EE900ADAF800000FF0A3F909EE0D
:10423000100ADAF8000041F0CFF8214628600DF0AE
:104240008BFB286810210DF087FB28683C4941F062
:104250004CFD28682146002212F08BFF6FF040428F
:10426000286811460FF00CF9052300222146286822
:10427000344D0FF051F9DAF8000041F0ADF8214665
:1042800028600DF069FB286810210DF065FB286897
:104290002D4941F02AFD28682146002212F069FFCD
:1042A0006FF04042286811460FF0EAF80A236422B2
:1042B00021462868254D0FF02FF9DAF8000041F06B
:1042C0008BF8214628600DF047FB286810210DF07F
:1042D00043FB28681C4941F008FD2868214600225C
:1042E00012F047FF6FF04042286811460FF0C8F8FF
:1042F0002868174D21460A236FF063020FF00CF96E
:10430000144CF8EEE99AB8EEC99A4FF000084EE066
:10431000C4150020D01500204D6578BF62BA77BE65
:104320000000CD430000C9430000F0420000E64316
:10433000000048434F453600D0EAF000E815002061
:10434000A8130508CC15002058120508C815002030
:10435000EC0D002028140020D41500203333333F07
:104360000000804307EE908A5FED046A1FED047A37
:10437000F8EEE77AA7EEA67A17EE100AFCF7BCF87B
:1043800093A3D3E90023FCF70FF9FCF7E5FB08EE54
:10439000100AB0EE480A48F055FBF0EE407AB0EE55
:1043A000480AB0EE678A48F091FBB0EE40DA824BE3
:1043B00003FB08F3B3F1333F8CBFF0EE6BDAF0EEA2
:1043C0004CDAB0EE4B0AF0EE007AADEE880A08F156
:1043D0000108F2EE04CA88BFF0EE67CA48F0C6FBD7
:1043E000F0EE408AB0EE6A0AADEE8D0A48F0BEFBF0
:1043F000B0EE6C2AF0EE400A9FED701AF0EE4A1A09
:10440000B0EE408A07A9B0EE680A06A800F09EFF49
:104410009DED067ADDED077ADAF80000B4EEE87A71
:10442000F1EE10FAF4EEC87A8CBFF0EE68CAF0EE46
:1044300047CAF1EE10FAB4EEE87A8CBFB0EE48DA73
:10444000B0EE67DAF1EE10FAB4BFB0EE686AB0EE23
:10445000476AF4EEC87AF1EE10FAB4EE6C6AB4BFB3
:10446000F0EE486AF0EE676AF1EE10FA18BF36EE29
:104470006C6AF4EE4D6A18BFBDEEC66A78EEEC8A3F
:1044800018BF16EE106A38EE4D8A37EE6C7A77EE6A
:10449000CD7A08BF0126F1EE10FA18BF76EECD6A8C
:1044A000BDEEC77AFDEEE77AFDEEE88ABDEEC88A7A
:1044B00018BFFDEEE66A85ED027AC5ED037AC5ED1B
:1044C000008A85ED018A14BF16EE907A012742F02A
:1044D0005BFB44F8040F2946022242F061FB0022F4
:1044E0000221206812F000FE3548D4F8009033F025
:1044F000DAF8C0F307238DF81400C0F307408DF8F5
:1045000015308DF816000599002248463DEE49DA2F
:1045100012F000FE20680022012112F0F0FD7CEE76
:10452000E9CAFDEECD7A206817EE902AFDEEEC7A0E
:10453000103517EE901A0EF065FF20683A463146A6
:104540000EF09EFFB8F1290F7FF40CAFDAF80000EF
:104550001C4C42F019FB022120600DF0FDF920688F
:1045600010210DF0F9F920680022032112F0BCFDA2
:104570001548256833F097F8C0F30743C0F30722C6
:104580008DF81E308DF81C008DF81D2007992846E7
:10459000002212F0BFFD00221146206812F0AFFD8C
:1045A0000A4B4FF487721A6008B0BDEC0C8BBDE863
:1045B000F047FFF761BB00BFCDCCCCCC0000F04290
:1045C0004F453600D81500201D57DF00E40D0020B0
:1045D000399D52A246DF913F30B5474D474C286880
:1045E0008DB00DF033F9022120600DF0B5F920688F
:1045F00010210DF0B1F9286825680EF0DBFF011FCE
:1046000028460EF00BFF20686FF040410EF01FFFB0
:1046100020680022022112F034FD3948256833F069
:1046200042F8C0F30743C0F307228DF80A308DF833
:1046300008008DF8092002990022284612F00FFD8B
:104640003048256833F02FF8C0F30743C0F3072242
:104650008DF80E308DF80C008DF80D20039928464A
:10466000002212F0D4FC20680022052112F08CFDFB
:10467000256800222846032112F0B3FC28460022B8
:10468000032112F0B9FC28460022032112F093FC0A
:1046900028460022032112F099FC1B4B02251968C1
:1046A000009500230E2220680FF02AFF2068174C87
:1046B00040F092FE294620600DF04EF9206810214E
:1046C0000DF04AF9124B134A1B68202104A84AF046
:1046D000C3F8206804A941F008FB6FF0404220684D
:1046E00011460EF0CDFE002320681A4607210EF079
:1046F00013FF0DB030BD00BFC4150020E41500202D
:104700004F453600D0EAF000D4150020F415002003
:10471000200000205C1205082DE9F041764D774C11
:104720002868774F86B00DF091F8022120600DF0D7
:1047300013F9206810210DF00FF9286825680EF094
:1047400039FF011F28460EF069FE20686FF04041D6
:104750000EF07DFE20680022022112F092FC384605
:10476000256832F0A0FFC0F307238DF80800C0F3DE
:1047700007408DF809308DF80A000299002228467A
:1047800012F06DFC5F48256832F08DFFC0F30723FF
:104790008DF80C00C0F307408DF80D308DF80E0039
:1047A00003992846002212F032FC206800220521DD
:1047B00012F0EAFC256800222846032112F011FCC1
:1047C00028460022032112F017FC2846002203216C
:1047D00012F0F1FB28460022032112F0F7FB4A4BAE
:1047E0004A4D19680226009600230E2220680FF019
:1047F00087FE206840F0F0FD314628600DF0ACF8EF
:10480000286810210DF0A8F86FF040421146286882
:104810000EF036FE28683E4941F067FA28683146B6
:10482000002212F0A6FC00221146286812F029FC92
:104830003846D5F8008032F036FF0346C3F307222E
:10484000C3F307438DF812308DF810008DF8112056
:1048500004994046002212F06FFC28682D4900227E
:1048600012F07CFC00231A46314628680EF054FEF4
:104870002068294C40F0B0FD314620600DF06CF806
:10488000206810210DF068F86FF040421146206852
:104890000EF0F6FD2068214941F027FA20683146E4
:1048A000002212F066FC00221146206812F0E9FB9B
:1048B0003846276832F0F7FE0346C3F30722C3F3F6
:1048C00007438DF816308DF814008DF815200599E2
:1048D0003846002212F030FC20681149002212F004
:1048E0003DFC29682068009600230E220FF008FE88
:1048F00006B0BDE8F08100BFC4150020E01500201F
:104900004F453600D0EAF000E4150020F0150020F5
:10491000D8100508FC4B0508EC15002068120508A6
:104920001C1F050870B56A4D6A4C286888B00CF0E9
:104930008DFF022120600DF00FF8206810210DF08E
:104940000BF8286825680EF035FE011F28460EF08A
:1049500065FD614D206834210EF079FD206800224C
:10496000022112F08EFB2846266832F09CFEC0F32E
:1049700007238DF80C00C0F307408DF80D308DF83B
:104980000E0003990022304612F069FB2846256884
:1049900032F089FEC0F30743C0F307228DF81230CE
:1049A0008DF810008DF8112004992846002212F08D
:1049B0002EFB20680022052112F0E6FB256800226C
:1049C0002846032112F00DFB28460022032112F095
:1049D00013FB28460022032112F0EDFA284600229C
:1049E000032112F0F3FA3D4A206811680223009374
:1049F0000E2200230FF084FD20683BF0DDF9282211
:104A0000114604460EF03CFD00231A4620460721BD
:104A10000EF082FD00220821204612F0B5FB30483E
:104A200032F041FEC0F30743C0F307228DF8163081
:104A30008DF814008DF8152005992046002212F0FB
:104A4000E6FA00220A21204612F026FB002032F06E
:104A50002AFEC0F30743C0F307228DF81A308DF801
:104A600018008DF8192006992046002212F01FFB2D
:104A700000224C21204612F02CFB1A4832F013FE83
:104A8000C0F30743C0F307228DF81E308DF81C00D9
:104A90008DF81D2007992022204612F0B8FA2046F2
:104AA00040F09AFC1049054641F01FF928460FF0E6
:104AB000A6FF28460D49002212F050FB0C490023A6
:104AC0000A22204608B0BDE870400EF0D1BA00BFFF
:104AD000C4150020DC150020D0EAF000E01500200D
:104AE0004F453600D276190070110508FC4B0508B9
:104AF0007D3B000830B5002083B00CF0A7FE184CB9
:104B0000022120600CF028FF206810210CF024FF07
:104B100020680022FF2112F08CFA1248256832F03A
:104B2000C2FDC0F30743C0F307228DF806308DF8AD
:104B300004008DF8052001990022284612F067FA3A
:104B4000FFF794F9FFF7D8FAFFF746FDFFF7E4FD0A
:104B5000FFF7E8FE20460DF0EFF9206803B030BD06
:104B6000C4150020D0EAF0007047000008B50648E0
:104B7000064B03600023436004F07BF900B908BDD5
:104B8000FEF7FAFDFBE700BF0416002000100058F6
:104B900010B596B004465022002102A849F04EFFFD
:104BA00022680F4B9A4201D016B010BD4FF400732B
:104BB00002934FF08043109302A803F0DAFF58B934
:104BC0004FF0B0431A6D42F480221A651B6D03F456
:104BD00080230193019BE7E7FEF7CEFDF0E700BFDE
:104BE0000010005808B50F480F4B036000234360C6
:104BF0000F22826047F6FF72C26003618361C36166
:104C0000436104F0A9F930B900221146054804F0C7
:104C1000F9F918B908BDFEF7AFFDF5E7FEF7ACFDF1
:104C2000F8E700BF181600200028004010B596B025
:104C300004465022002102A849F000FF2268164BCA
:104C40009A4201D016B010BD4FF4006302934FF4A6
:104C50008073129302A803F08CFFC8B94FF0B043E1
:104C6000D3F8902042F40042C3F890209A6D42F4A9
:104C700080629A659B6D03F480630193019B00221F
:104C80001146032000F076FC032000F083FCD9E7F6
:104C9000FEF772FDE2E700BF0028004010B5034CAC
:104CA00020460DF049F9206810BD00BF3C160020D9
:104CB00008B51048104B03604FF482734360002323
:104CC00083604FF4E062C260036143614FF400729D
:104CD0008261C3610362436283620722C26203632B
:104CE0000823436304F031FB00B908BDFEF744FD1F
:104CF000FBE700BF041700200030014008B5114851
:104D0000114B03604FF482734360002383604FF4C0
:104D1000E062C26002220261012242614FF400722D
:104D200082612022C2610362436283620722C262FF
:104D30000363436304F009FB00B908BDFEF71CFDE3
:104D4000FBE700BFA01600200038004070B58AB015
:104D500000230593069307930893099303683E4A3B
:104D6000934204D03D4A934246D00AB070BD0446F7
:104D70004FF0B0431A6E42F480521A661A6E02F473
:104D800080520292029ADA6C42F00102DA64DB6C21
:104D900003F001030193019BE02305930223069393
:104DA000032308930523099305A94FF0904001F0D0
:104DB000B9F82B482B4B0360072343601023836013
:104DC0000023C3608022026143618361C3614FF4A9
:104DD0000053036200F078FC58B9214B63659C6274
:104DE00000221146222000F0C5FB222000F0D2FB59
:104DF000BBE7FEF7C1FCF0E74FF0B0439A6D42F419
:104E000080429A659A6D02F480420492049ADA6CA8
:104E100042F00202DA64DB6C03F002030393039BAB
:104E20004FF4204305930226069603230893052595
:104E300009950D4C05A9204601F074F84FF4804304
:104E400005930696002307930893099505A9204624
:104E500001F068F889E700BF0030014000380040E9
:104E600040160020080002400004004800B583B04E
:104E70004FF0B0431A6D42F400221A651B6D03F423
:104E800000230193019B002211462E2000F072FBAB
:104E90002E2000F07FFB03B05DF804FBFEE7FEE789
:104EA000FEE7FEE7FEE770477047704708B500F081
:104EB000DDFA08BD08B5FDF78BFF08BD08B5012078
:104EC00001F016F908BD000008B5024800F025FD04
:104ED00008BD00BF4016002008B5024802F02CFDB6
:104EE00008BD00BF045D012008B5024804F0DEFFE4
:104EF00008BD00BF6C17002008B5024804F006FE8C
:104F000008BD00BF0417002008B5024805F0F4FEF4
:104F100008BD00BF0418002008B54FF4806001F000
:104F2000E7F84FF4006001F0E3F84FF4805001F02F
:104F3000DFF808BD08B50BF075FA08BD08B50BF031
:104F400005FA08BD08B501F0E3F808BD0120704777
:104F500008B549F0EBFD162303604FF0FF3008BDA4
:104F600008B54FF0FF31FFF7F3FFFEE738B50C4609
:104F70000025002D01DD012038BDAFF30080214662
:104F800001F8010B01350C46F3E770B50C461646E7
:104F9000002504E014F8010BAFF300800135B542A1
:104FA000F8DB304670BD4FF0FF3070474FF40053D0
:104FB0004B600020704701207047002070470000C0
:104FC00010B503460C4A0D490D48006840B10C4825
:104FD00000680344521A934206D8094A136010BD70
:104FE0000748084C0460F2E749F0A0FD0C23036079
:104FF0004FF0FF30F3E700BF000003200010000077
:1050000068170020D8E30120164AD2F8883043F40C
:105010007003C2F888304FF0B0431A6842F00102C2
:105020001A604FF4E0229A601968A2F1A262A2F21B
:1050300005120A401A60D3F8942022F00502C3F842
:105040009420D3F8982022F00102C3F89820064A51
:10505000DA601A611A6822F480221A6000229A61CA
:10506000704700BF00ED00E00010042208B50A48B8
:105070000A4B03603F234360002383606322C260C6
:10508000036143618023836105F00AF800B908BD1C
:10509000FEF772FBFBE700BF6C17002000440140E5
:1050A0000368B3F1804F00D0704782B04FF0B04337
:1050B0009A6D42F001029A659B6D03F00103019322
:1050C000019B02B07047000002680E4B9A4200D06C
:1050D000704700B583B04FF0B0431A6E42F400320F
:1050E0001A661B6E03F400330193019B00221146E4
:1050F000192000F03FFA192000F04CFA03B05DF8D7
:1051000004FB00BF0044014000B587B000230193B9
:1051100002930393049305930368B3F1804F02D085
:1051200007B05DF804FB4FF0B043DA6C42F00102C7
:10513000DA64DB6C03F001030093009B012301930D
:1051400002220292059301A94FF0904000F0EAFE7E
:10515000E6E7000000B58BB000230793089309939E
:1051600000930193029303930493059306931848C5
:105170004FF0804202601F224260836040F2E732BB
:10518000C2600361836104F0BBFFC0B900230793D1
:10519000099307A90E4805F061F998B960230093B7
:1051A00000220192029204926946094805F012F821
:1051B00058B90748FFF7A8FF0BB05DF804FBFEF7EE
:1051C000DBFAE3E7FEF7D8FAE8E7FEF7D5FAF0E70F
:1051D000B817002008B51748174B03604FF4E133A8
:1051E000436000238360C36003610C2242618361DA
:1051F000C36103624362836206F026FA70B900213C
:105200000C4806F06FFB60B900210A4806F08FFBDE
:1052100050B9084806F047FB48B908BDFEF7ACFA9C
:10522000EDE7FEF7A9FAEFE7FEF7A6FAF1E7FEF7DA
:10523000A3FAF2E7041800200038014010B59CB032
:10524000044600211791189119911A911B9150222F
:1052500003A849F0F3FB22681B4B9A4201D01CB013
:1052600010BD0123039303A803F083FC48BB4FF058
:10527000B0431A6E42F480421A661A6E02F48042FB
:105280000292029ADA6C42F00202DA64DB6C03F0FA
:1052900002030193019BC023179302231893002458
:1052A00019941A9407231B9317A9084800F03AFE93
:1052B00022462146242000F05DF9242000F06AF9FE
:1052C000CDE7FEF759FAD2E7003801400004004864
:1052D00010B582B0032806D8DFE800F002150E07EB
:1052E000164C2368F3B102B010BD154C2368002B97
:1052F000F9D1FFF7D3FC17E0124C2368002BF2D151
:10530000FCF7BCFB10E0104C2368002BEBD1FEF740
:1053100045FA01230093642203232060022113F045
:10532000E3FDE0E7FFF7E6FB0121009103232060A6
:10533000642213F0D9FD02B010BD00BFC4150020D7
:105340003C1600204C0A0020D00D002071EEE01A1F
:1053500031EE401A61EEA17AE1EE017AB1EEE77A20
:10536000C1EE876AC1EE077AE6EE820AA7EE820AEC
:1053700080ED000AC1ED000A704700BFD458C45048
:105380000433C4188C42F9D3704703600430884258
:10539000FBD370470C488546FFF736FE0B480C4997
:1053A0000C4A0023FFF7EDFF0B480C490C4A002381
:1053B000FFF7E7FF0B480C490023FFF7E8FF49F030
:1053C000BBFBFEF7BFF8FEE700000320080000204B
:1053D0008803002050990508E4010320670A032090
:1053E000259D0508E0030020D4E30120FEE700002E
:1053F000114B1B780BB90120704710B5044602F021
:10540000E1FD0D4B1A784FF47A73B3FBF2F3B0FB66
:10541000F3F000F0C7F868B90F2C01D901200AE0B9
:10542000002221464FF0FF3000F0A4F8034B1C602F
:10543000002000E0012010BD280000202C000020EA
:1054400010B5094A136843F480731360032000F019
:105450007FF80F20FFF7CCFF10B10124204610BDCC
:105460000446FFF703FDF9E700400058034B1B78A3
:10547000034A11680B441360704700BF28000020E6
:10548000D0440120014B1868704700BFD044012070
:10549000014B1868704700BF2C000020014B1878A2
:1054A000704700BF28000020002807DB00F01F0223
:1054B000400901239340024A42F82030704700BF60
:1054C00000E100E000280CDB00F01F02400901238E
:1054D00093402030034A42F82030BFF34F8FBFF390
:1054E0006F8F704700E100E0002808DB0901C9B2B6
:1054F00000F1604000F5614080F80013704700F053
:105500000F000901C9B2014B1954704714ED00E0B6
:1055100000B500F00700C0F1070CBCF1040F28BF74
:105520004FF0040C031D062B0FD9C31E4FF0FF3E96
:105530000EFA0CF021EA000199400EFA03FE22EA6D
:105540000E0241EA02005DF804FB0023EEE70000D2
:10555000074AD36823F4E0631B041B0C000200F429
:10556000E060034343F0BF6343F40033D36070470C
:1055700000ED00E010B50446054BD868C0F30220EA
:10558000FFF7C6FF01462046FFF7AEFF10BD00BF84
:1055900000ED00E008B5FFF787FF08BD08B5FFF78D
:1055A00091FF08BD0138B0F1807F0BD24FF0E023AE
:1055B0005861054AF02182F82310002098610722E3
:1055C0001A6170470120704700ED00E0002808DBF9
:1055D00000F01F024009012393404030014A42F885
:1055E0002030704700E100E0002808DB00F01F02D7
:1055F0004009012393406030014A42F8203070474F
:1056000000E100E030B4C46C056D6560446D14B118
:10561000846DC56D6560446C04F01C0C012404FAB3
:105620000CF4056C6C60046863608368102B05D013
:10563000036899600368DA6030BC704703689A6059
:105640000368D960F8E700000368104A934215D850
:10565000426C22F0030202F1804202F502328264BF
:10566000DBB2083B0A4AA2FB03230A4AC264C3F323
:105670000413012202FA03F303657047426C22F01F
:105680000301054A0A448264EAE700BF07040240B6
:10569000CDCCCCCC800802401C080240436803F00B
:1056A0003F03074A1A4492004265064A8265013B5D
:1056B00003F00303012202FA03F3C365704700BF3E
:1056C0003F8200104009024000285BD010B504461C
:1056D00002682D4B9A423DD82C4B13442C49A1FB18
:1056E00003131B099B0043642A4B0364022384F8C1
:1056F000253011686FF30E11A368E0680343206939
:10570000034360690343A0690343E0690343206ADC
:1057100003430B4313602046FFF796FFA368B3F5DE
:10572000804F22D06368A26C03F03F031360E36CE8
:10573000226D5A606368013B032B19D9002363650E
:10574000A365E3650020E063012384F8253084F835
:10575000240010BD104B13440D49A1FB03131B097A
:105760009B0043640D4B0364C0E700236360D9E7EB
:105770002046FFF793FF636D00221A60A36DE26D70
:105780005A60DFE70120704707040240F8FFFDBFC1
:10579000CDCCCCCC00000240F8FBFDBF00040240A1
:1057A00038B5044690F82400012841D0012084F83F
:1057B000240094F82500C0B2012804D0002384F806
:1057C0002430022038BD022084F825000020E06348
:1057D0002568286820F0010028602046FFF712FFA6
:1057E000236BD3B12268136843F00E031360A36CDC
:1057F0001A6812F4803F03D01A6842F480721A606B
:10580000636D1BB11A6842F480721A6022681368D3
:1058100043F0010313600020D4E72268136823F0EB
:10582000040313602268136843F00A031360DEE781
:105830000220C7E70346002834D090F82520D2B2D2
:10584000022A06D00422C263002280F8242001200C
:10585000704701680A6822F00E020A60816C0A68CB
:1058600022F480720A6001680A6822F001020A606C
:10587000426C02F01C01006C01228A404260DA6C2A
:10588000196D51605A6D32B1116821F48071116047
:105890009A6DD96D5160012283F82520002083F88C
:1058A000240070470120704708B590F82530DBB21E
:1058B000022B03D00423C363012008BD02681368D0
:1058C00023F00E0313600268136823F001031360D2
:1058D000826C136823F480731360436C03F01C0222
:1058E000016C012393404B60C36C026D5A60436DA1
:1058F00033B11A6822F480721A60836DC26D5A60E7
:10590000012380F82530002380F82430836B13B105
:1059100098470020D1E70020CFE738B5036C19681D
:1059200004682568436C03F01C0304229A400A4271
:1059300015D015F0040F12D0236813F0200F03D1F7
:10594000236823F004032360436C03F01C02016C02
:10595000042393404B60036B03B1984738BD022288
:105960009A400A421CD015F0020F19D0236813F098
:10597000200F06D1236823F00A032360012380F857
:105980002530436C03F01C02016C022393404B60F2
:10599000002380F82430C36A002BDFD09847DDE76E
:1059A000082202FA03F30B42D8D015F0080FD5D025
:1059B000236823F00E032360436C03F01C03016C87
:1059C000012202FA03F34B60C26380F82520002312
:1059D00080F82430436B002BC0D09847BEE700000E
:1059E00010B4064C616941F0010161610260BFF3CE
:1059F0006F8F43605DF8044B704700BF0040005854
:105A0000094B5B69002B01DB00207047064B074AFE
:105A10009A6002F188329A605B69002B01DB0020FA
:105A200070470120704700BF0040005823016745C0
:105A3000054B5A6942F000425A615B69002B01DB59
:105A40000120704700207047004000580A4B5B69F6
:105A500013F0804F0BD0084B084ADA6002F1443251
:105A6000DA605B6913F0804F03D00120704701209A
:105A700070470020704700BF004000583B2A1908BB
:105A8000034A536943F0006353610120704700BF2C
:105A90000040005838B50546FFF7F4FC04461E4B9D
:105AA0001B6913F4803F06D0FFF7ECFC001BA842F3
:105AB000F5D3032038BD184B1B6913F0010F02D03A
:105AC000154A0121116113F4004F15D14CF2FA313E
:105AD00019404CF2FA32134001D00F4A1361A9B9B0
