:020000040800F2
:1000000000000320755D0008695800086D5800085D
:100010007158000875580008795800080000000061
:100020000000000000000000000000007D580008F3
:100030008158000800000000855800088958000811
:10004000CD5D0008CD5D0008CD5D00088D5800082D
:10005000CD5D0008CD5D000891580008CD5D000819
:10006000CD5D0008CD5D0008CD5D00089958000801
:10007000CD5D0008CD5D0008CD5D0008CD5D0008B8
:10008000CD5D0008CD5D0008CD5D0008CD5D0008A8
:10009000A5580008CD5D0008CD5D0008CD5D0008C5
:1000A000CD5D0008B1580008CD5D0008CD5D0008A9
:1000B000CD5D0008CD5D0008CD5D0008CD5D000878
:1000C000CD5D0008CD5D0008BD580008CD5D00087D
:1000D000C9580008CD5D0008CD5D0008CD5D000861
:1000E000D5580008CD5D0008CD5D0008CD5D000845
:1000F000F5580008F9580008FD580008CD5D0008C3
:10010000CD5D0008CD5D0008CD5D0008CD5D000827
:10011000CD5D0008CD5D0008CD5D0008CD5D000817
:10012000CD5D0008CD5D0008CD5D0008CD5D000807
:0C013000CD5D0008CD5D0008CD5D00082D
:1001400010B5054C237833B9044B13B10448AFF311
:1001500000800123237010BDA803002000000000D0
:10016000D49E060808B5034B1BB103490348AFF3FF
:10017000008008BD00000000AC030020D49E0608EB
:1001800001F0FF01102A2BDB10F0070F08D010F848
:10019000013B013A8B422DD010F0070F42B3F6D14C
:1001A000F0B441EA012141EA014122F007047FF065
:1001B00000070023F0E80256083C85EA010586EABC
:1001C000010685FA47F5A3FA87F586FA47F6A5FAF8
:1001D00087F68EB9EED1F0BC01F0FF0102F0070204
:1001E00032B110F8013B013A83EA010313B1F8D1AF
:1001F0000020704701387047002D06BF3546033890
:10020000073815F0010F07D1013015F4807F02BFC8
:10021000013015F4C03F0130F0BC0138704700BF19
:10022000034613F8012B002AFBD1181A0138704736
:1002300081F0004102E000BF83F0004330B54FEA97
:1002400041044FEA430594EA050F08BF90EA020F04
:100250001FBF54EA000C55EA020C7FEA645C7FEA97
:10026000655C00F0E2804FEA5454D4EB5555B8BFBA
:100270006D420CDD2C4480EA020281EA030382EA2B
:10028000000083EA010180EA020281EA0303362DBD
:1002900088BF30BD11F0004F4FEA01314FF4801C90
:1002A0004CEA113102D0404261EB410113F0004FA2
:1002B0004FEA03334CEA133302D0524263EB430359
:1002C00094EA050F00F0A780A4F10104D5F1200EF7
:1002D0000DDB02FA0EFC22FA05F2801841F1000152
:1002E00003FA0EF2801843FA05F359410EE0A5F126
:1002F00020050EF1200E012A03FA0EFC28BF4CF057
:10030000020C43FA05F3C01851EBE37101F000450C
:1003100007D54FF0000EDCF1000C7EEB00006EEB19
:100320000101B1F5801F1BD3B1F5001F0CD34908A3
:100330005FEA30004FEA3C0C04F101044FEA4452FA
:1003400012F5800F80F09A80BCF1004F08BF5FEA81
:10035000500C50F1000041EB045141EA050130BD61
:100360005FEA4C0C404141EB0101013C28BFB1F573
:10037000801FE9D291F0000F04BF01460020B1FABE
:1003800081F308BF2033A3F10B03B3F120020CDA91
:100390000C3208DD02F1140CC2F10C0201FA0CF06F
:1003A00021FA02F10CE002F11402D8BFC2F1200CD4
:1003B00001FA02F120FA0CFCDCBF41EA0C0190408A
:1003C000E41AA2BF01EB0451294330BD6FEA0404D3
:1003D0001F3C1CDA0C340EDC04F11404C4F12002BE
:1003E00020FA04F001FA02F340EA030021FA04F3D0
:1003F00045EA030130BDC4F10C04C4F1200220FA27
:1004000002F001FA04F340EA0300294630BD21FA64
:1004100004F0294630BD94F0000F83F4801306BF2A
:1004200081F480110134013D4EE77FEA645C18BF1E
:100430007FEA655C29D094EA050F08BF90EA020FB5
:1004400005D054EA000C04BF1946104630BD91EAAD
:10045000030F1EBF0021002030BD5FEA545C05D1B0
:100460004000494128BF41F0004130BD14F58004EF
:100470003CBF01F5801130BD01F0004545F0FE4163
:1004800041F470014FF0000030BD7FEA645C1ABF98
:10049000194610467FEA655C1CBF0B46024650EACF
:1004A000013406BF52EA033591EA030F41F40021FB
:1004B00030BD00BF90F0000F04BF0021704730B581
:1004C0004FF4806404F132044FF000054FF0000156
:1004D00050E700BF90F0000F04BF0021704730B517
:1004E0004FF4806404F1320410F0004548BF4042EC
:1004F0004FF000013EE700BF42004FEAE2014FEA41
:1005000031014FEA02701FBF12F07F4393F07F4F1B
:1005100081F06051704732F07F4208BF704793F01E
:100520007F4F04BF41F40021704730B54FF4607431
:1005300001F0004521F000411CE700BF50EA010234
:1005400008BF704730B54FF000050AE050EA0102DD
:1005500008BF704730B511F0004502D5404261EB4D
:1005600041014FF4806404F132045FEA915C3FF48E
:10057000D8AE4FF003025FEADC0C18BF03325FEA2B
:10058000DC0C18BF033202EBDC02C2F1200300FADC
:1005900003FC20FA02F001FA03FE40EA0E0021FA01
:1005A00002F11444BDE600BF70B54FF0FF0C4CF4EF
:1005B000E06C1CEA11541DBF1CEA135594EA0C0FA1
:1005C00095EA0C0F00F0DEF82C4481EA030621EADC
:1005D0004C5123EA4C5350EA013518BF52EA033517
:1005E00041F4801143F4801338D0A0FB02CE4FF0C9
:1005F0000005E1FB02E506F00042E0FB03E54FF0F9
:100600000006E1FB03569CF0000F18BF4EF0010EF0
:10061000A4F1FF04B6F5007F64F5407404D25FEAEC
:100620004E0E6D4146EB060642EAC62141EA55519F
:100630004FEAC52040EA5E504FEACE2EB4F1FD0CE1
:1006400088BFBCF5E06F1ED8BEF1004F08BF5FEA5F
:10065000500E50F1000041EB045170BD06F0004611
:1006600046EA010140EA020081EA0301B4EB5C04BE
:10067000C2BFD4EB0C0541EA045170BD41F48011B6
:100680004FF0000E013C00F3AB8014F1360FDEBFDB
:10069000002001F0004170BDC4F10004203C35DAB7
:1006A0000C341BDC04F11404C4F1200500FA05F33A
:1006B00020FA04F001FA05F240EA020001F00042DB
:1006C00021F0004110EBD37021FA04F642EB060151
:1006D0005EEA430E08BF20EAD37070BDC4F10C047B
:1006E000C4F1200500FA04F320FA05F001FA04F23F
:1006F00040EA020001F0004110EBD37041F100012B
:100700005EEA430E08BF20EAD37070BDC4F1200535
:1007100000FA05F24EEA020E20FA04F301FA05F29D
:1007200043EA020321FA04F001F0004121FA04F245
:1007300020EA020000EBD3705EEA430E08BF20EA15
:10074000D37070BD94F0000F0FD101F0004640004F
:1007500041EB010111F4801F08BF013CF7D041EAD1
:10076000060195F0000F18BF704703F000465200D5
:1007700043EB030313F4801F08BF013DF7D043EAA6
:100780000603704794EA0C0F0CEA135518BF95EA5C
:100790000C0F0CD050EA410618BF52EA4306D1D1E3
:1007A00081EA030101F000414FF0000070BD50EA02
:1007B000410606BF1046194652EA430619D094EA8C
:1007C0000C0F02D150EA013613D195EA0C0F05D176
:1007D00052EA03361CBF104619460AD181EA0301CA
:1007E00001F0004141F0FE4141F470014FF0000082
:1007F00070BD41F0FE4141F4780170BD70B54FF01D
:10080000FF0C4CF4E06C1CEA11541DBF1CEA13559C
:1008100094EA0C0F95EA0C0F00F0A7F8A4EB05047E
:1008200081EA030E52EA03354FEA013100F0888075
:100830004FEA03334FF0805545EA131343EA12633E
:100840004FEA022245EA111545EA10654FEA0026F3
:100850000EF000419D4208BF964244F1FD0404F5AC
:10086000407402D25B084FEA3202B61A65EB030508
:100870005B084FEA32024FF480104FF4002CB6EBC5
:10088000020E75EB030E22BFB61A754640EA0C0045
:100890005B084FEA3202B6EB020E75EB030E22BF85
:1008A000B61A754640EA5C005B084FEA3202B6EBC6
:1008B000020E75EB030E22BFB61A754640EA9C0085
:1008C0005B084FEA3202B6EB020E75EB030E22BF55
:1008D000B61A754640EADC0055EA060E18D04FEA13
:1008E000051545EA16754FEA06164FEAC30343EAB3
:1008F00052734FEAC2025FEA1C1CC0D111F4801F80
:100900000BD141EA00014FF000004FF0004CB6E778
:1009100011F4801F04BF01430020B4F1FD0C88BF17
:10092000BCF5E06F3FF6AFAEB5EB030C04BFB6EB22
:10093000020C5FEA500C50F1000041EB045170BD15
:100940000EF0004E4EEA113114EB5C04C2BFD4EB42
:100950000C0541EA045170BD41F480114FF0000EC6
:10096000013C90E645EA060E8DE60CEA135594EA42
:100970000C0F08BF95EA0C0F3FF43BAF94EA0C0F45
:100980000AD150EA01347FF434AF95EA0C0F7FF4BA
:1009900025AF104619462CE795EA0C0F06D152EA0E
:1009A00003353FF4FDAE1046194622E750EA4106F2
:1009B00018BF52EA43067FF4C5AE50EA41047FF403
:1009C0000DAF52EA43057FF4EBAE12E74FF0FF3C68
:1009D00006E000BF4FF0010C02E000BF4FF0010C39
:1009E0004DF804CD4FEA410C7FEA6C5C4FEA430CB2
:1009F00018BF7FEA6C5C1BD001B050EA410C0CBF01
:100A000052EA430C91EA030F02BF90EA020F002062
:100A1000704710F1000F91EA030F58BF994208BFC9
:100A200090422CBFD8176FEAE37040F00100704786
:100A30004FEA410C7FEA6C5C02D150EA013C07D1DD
:100A40004FEA430C7FEA6C5CD6D152EA033CD3D028
:100A50005DF8040B704700BF8446104662468C4622
:100A60001946634600E000BF01B5FFF7B7FF002855
:100A700048BF10F1000F01BD4DF808EDFFF7F4FF7E
:100A80000CBF012000205DF808FB00BF4DF808ED09
:100A9000FFF7EAFF34BF012000205DF808FB00BF2C
:100AA0004DF808EDFFF7E0FF94BF012000205DF84E
:100AB00008FB00BF4DF808EDFFF7CEFF94BF012003
:100AC00000205DF808FB00BF4DF808EDFFF7C4FFFC
:100AD00034BF012000205DF808FB00BF4FEA410C45
:100AE0007FEA6C5C02D150EA013C0AD14FEA430C28
:100AF0007FEA6C5C02D152EA033C02D14FF0000065
:100B000070474FF0010070474FEA410212F50012A2
:100B100015D211D56FF47873B3EB625212D94FEA44
:100B2000C12343F0004343EA505311F0004F23FA2E
:100B300002F018BF404270474FF00000704750EA83
:100B4000013005D111F0004008BF6FF00040704740
:100B50004FF00000704700BF4FEA4102B2F1E0439E
:100B600024BFB3F5001CDCF1FE5C0DD901F0004C94
:100B70004FEAC0024CEA5070B2F1004F40EB8300E4
:100B800008BF20F00100704711F0804F21D113F110
:100B90003872BCBF01F00040704741F480114FEA49
:100BA0005252C2F11802C2F1200C10FA0CF320FAD2
:100BB00002F018BF40F001004FEAC1234FEAD323EF
:100BC00003FA0CFC40EA0C0023FA02F34FEA430359
:100BD000CCE77FEA625307D150EA01331EBF4FF0E2
:100BE000FE4040F44000704701F0004040F0FE40FD
:100BF00040F40000704700BF7BB972B90029BEBF46
:100C000000204FF0004106E008BF00281CBF6FF035
:100C100000414FF0FF3000F0D3B9ADF1080C6DE9A1
:100C200004CE002909DB002B1ADB00F04DF8DDF8BB
:100C300004E0DDE9022304B07047404261EB41016A
:100C4000002B1BDB00F040F8DDF804E0DDE90223B7
:100C500004B0404261EB4101524263EB43037047F1
:100C6000524263EB430300F02FF8DDF804E0DDE9C6
:100C7000022304B0404261EB41017047524263EBF2
:100C8000430300F021F8DDF804E0DDE9022304B0BD
:100C9000524263EB4303704753B94AB9002908BF76
:100CA00000281CBF4FF0FF314FF0FF3000F088B933
:100CB000ADF1080C6DE904CE00F006F8DDF804E0B3
:100CC000DDE9022304B070472DE9F047089D8E4608
:100CD00004468846002B4AD18A42174662D9B2FAA6
:100CE00082F64EB1C6F1200301FA06F820FA03F3AA
:100CF000B74043EA0808B4404FEA174E1FFA87FC92
:100D0000B8FBFEF1230C0EFB118843EA084301FBFC
:100D10000CF29A4209D9FB1801F1FF3080F0EA8009
:100D20009A4240F2E78002393B449A1AA3B2B2FBDE
:100D3000FEF00EFB102243EA024300FB0CFC9C4534
:100D400009D9FB1800F1FF3280F0D6809C4540F2B3
:100D5000D3803B44023840EA0140A3EB0C0300215E
:100D60001DB1F3400022C5E90032BDE8F0878B4297
:100D700005D90DB1C5E9000100210846F5E7B3FA30
:100D800083F1002946D1734502D3824200F20581E6
:100D9000841A6EEB030201209046002DE5D0C5E9D0
:100DA0000048E2E7002A00F09080B2FA82F6002EB6
:100DB00040F0A4808A1A030C4FEA174E80B2BCB2EE
:100DC0000121B2FBFEFC0EFB1C2243EA024304FBA2
:100DD0000CF29A4207D9FB180CF1FF3802D29A4262
:100DE00000F2E080C4469B1AB3FBFEF20EFB123306
:100DF00040EA034302FB04F49C4207D9FB1802F1CA
:100E0000FF3002D29C4200F2CA8002461B1B42EA1B
:100E10000C40A5E7C1F120068B4022FA06F71F43DC
:100E20000EFA01F420FA06F32EFA06FE4FEA1749ED
:100E3000234300FA01F81FFA87FCBEFBF9F01C0CF3
:100E400009FB10EE44EA0E4400FB0CFEA64502FA34
:100E500001F209D93C1900F1FF3A80F09C80A645C7
:100E600040F2998002383C44A4EB0E041FFA83FE42
:100E7000B4FBF9F309FB13444EEA044403FB0CFCF6
:100E8000A44508D93C1903F1FF3E80F08280A445B7
:100E90007FD9023B3C4443EA0040A4EB0C04A0FB96
:100EA00002EC64457346E14662D35FD05DB1B8EBB6
:100EB000030264EB090404FA06F622FA01F31E4366
:100EC000CC40C5E9006400214FE7B1FBF2FC010C06
:100ED00041EA0E4180B240EA01423B4638463C4678
:100EE000B846BE462026B1FBF7F1A2EB080241EA64
:100EF0000C4166E7014618E710462CE7C6F12002D0
:100F00002EFA02F3B740B14020FA02F24FEA174E30
:100F10000A43B3FBFEF8BCB20EFB1833110C41EAD6
:100F2000034108FB04F9B04089454FEA104380B201
:100F30003ED9791808F1FF3C01D289451FD8A1EBB1
:100F40000901B1FBFEF909FB04F80EFB191192B27D
:100F500042EA0142424529D2BA1809F1FF31C4D20E
:100F60004245C2D2A9F102013A44BEE7F0459DD202
:100F7000BEEB02036CEB070C0138E14696E7A7EBEA
:100F800009094944A8F1020CB1FBFEF909FB04F878
:100F9000DBE773467FE7504666E70846FDE63B44DD
:100FA000023A33E7ACF1020C3B441CE749469CE7AC
:100FB000A1EB0901C446B1FBFEF909FB04F8C4E743
:100FC000704700BF38B504461D4621700448012211
:100FD0004FF4805105F086FD0120656038BD00BFEB
:100FE00000040048F0B583B0144602AF15480D4622
:100FF00000224FF4805105F075FDE31D03F4FC73EE
:10100000ADEB030D02AE24B122462946304666F010
:101010002AFF4FF0FF3300932A46234631460A4801
:1010200009F02EFB012205464FF48051054805F0DA
:1010300059FD002D0CBF20464FF0FF300437BD4650
:10104000F0BD00BF000400484814002038B50E4829
:1010500014460D4600224FF4805105F043FD4FF039
:10106000FF3322462946094809F0E2F901220546E4
:101070004FF48051044805F035FD002D0CBF20468B
:101080004FF0FF3038BD00BF000400484814002076
:1010900008B5084601F044FE002008BD30B5002325
:1010A00085B0CDE90033CDE90233002900F0988006
:1010B0000B780A7A03F03F0343F040038DF80030C9
:1010C000037C05460C46002B40F087800132D2B2EB
:1010D00069462846FFF786FF00287CDB2B7C257AB3
:1010E000002B67D0227802F03F02012342F0400239
:1010F0008DF8082005EB030E1A4610326A440133BE
:10110000DBB212F8101C02F8081C73451A46F4DD15
:101110000DF109030DF1080C53FA8EFE00221CF8A4
:10112000013B51005A40C9B2120648BF81F0070185
:10113000C3F380104A00D2B2B0EBD11F18BF82F0C7
:101140000702C3F340105100C9B2B0EBD21F18BF61
:1011500081F00701C3F300104A00D2B2B0EBD11FF7
:1011600018BF82F00702C3F3C0005100C9B2B0EB50
:10117000D21F18BF81F00701C3F380004A00D2B22A
:10118000B0EBD11F18BF82F007025000C3F340013B
:10119000C0B2B1EBD21F18BF80F00700420003F0CD
:1011A0000103B3EBD01FD2B218BF82F00702E645AD
:1011B000B5D1C2B90022626001235DB103F1100113
:1011C0006944013311F8101CDBB2AB4201EB02227F
:1011D000F4D96260002005B030BD0232D2B277E7A8
:1011E0004FF0FF30F7E76FF00100F4E770B586B01D
:1011F00001AC84E80E009DF804309DF80C400022FC
:1012000003F03F03CDE904228DF81030027C029BED
:10121000002C00F08F8004F118010DEB0105012C6A
:1012200005F8083C4FEA232120D0022C05F8091CC0
:101230004FEA23411AD0032C05F80A1C4FEA236118
:1012400014D0042C05F80B1C4FEAE3730ED0DBB26C
:10125000052C05F80C3C09D0062C05F80D3C05D0F2
:10126000072C05F80E3C01D005F80F3C002A58D099
:10127000631CDBB20DF11102013B52FA83FE0DF14A
:10128000100C00221CF8013B51005A40C9B2120652
:1012900048BF81F00701C3F380164A00D2B2B6EB13
:1012A000D11F18BF82F00702C3F340165100C9B224
:1012B000B6EBD21F18BF81F00701C3F300164A0036
:1012C000D2B2B6EBD11F18BF82F00702C3F3C0063B
:1012D0005100C9B2B6EBD21F18BF81F00701C3F3AA
:1012E00080064A00D2B2B6EBD11F18BF82F00702C7
:1012F0005100C3F34006C9B2B6EBD21F18BF81F04C
:1013000007014A0003F00103B3EBD11FD2B218BFAB
:1013100082F00702F445B5D1023405F8072CE2B299
:1013200001E0621CD2B204A9FFF790FE00EAE0706F
:1013300006B070BD002AF4D0012306AD9AE700BFC5
:10134000F8B50F4605460E46EC6894F84830062B73
:1013500004F1480401D06B7C13BB21462846FFF7FB
:101360009DFE0346002B4FF00101284611DBEB6880
:10137000DC6C04F0400446B1FFF78AFE013EB4B1D4
:10138000002EE1D147B93B4603E02FB9B4FA84F30C
:101390005B091846F8BD66B96FF002031846F8BD40
:1013A00069692846FFF7CCFF031ED6DAF1E7002F64
:1013B000F1D10123EDE700BF38B50B78062B0D46C0
:1013C000044601D0437C2BB929462046BDE838406D
:1013D000FFF764BE4169FFF7B3FF0028F4DA38BDB8
:1013E00030B585B001AC84E80E00437C054623B1DE
:1013F0004169FFF7A5FF002807DB94E80E002846A7
:1014000005B0BDE83040FFF7F1BE05B030BD00BF0C
:10141000F8B51E4EA6FB01360F460546F608EC68E9
:101420002378062B01D06B7CFBB921462846FFF7B9
:1014300035FE0346002B4FF00A01284613DBEB680C
:101440005C6804F010044EB1FFF722FE013ECCB1FF
:10145000002EE4D1092F11D8334604E0092F0DD80E
:10146000B4FA84F35B091846F8BD69692846FFF7AA
:1014700067FF031ED9DA1846F8BD2EB96FF00203D4
:101480001846F8BD092FF8D80123ECE7CDCCCCCC19
:1014900038B5C5682B78062B044601D0437C6BB960
:1014A00029462046FFF7FAFD002806DBE3685B6863
:1014B00013F0800F0CBF0120002038BD4169FFF7F9
:1014C0003FFF0028ECDA38BD70B5C36803F1180699
:1014D0001B7E062B04460D4601D0437C3BB93146AA
:1014E0002046FFF7DBFDE368DB692B6070BD4169D7
:1014F000FFF726FF0028F2DAF5E700BFF0B587B066
:1015000000240127C2602B4B0194C9B200972246E8
:101510000546FFF757FD002849D0274B93E8030005
:1015200003AE86E80300082231462846FFF78EFD09
:1015300000283ADB69692846FFF76AFF002834DB98
:101540006F7401E0292C2ED0EB6804EB440203EB0E
:1015500082035A7A012A13D0072C04F10104F1D135
:10156000EB689A6D0824C2F38001C2F380126A749A
:1015700004EB440203EB820329745A7A012AEBD16B
:1015800093E807006B7C86E80700284623B1696969
:10159000FFF7D6FE002806DB96E80E002846FFF788
:1015A00025FE0028D8DA00EAE07007B0F0BD6FF041
:1015B0000300FAE740420F008C9F060800224FF418
:1015C0007A71C26002824161704700BF704700BFFC
:1015D00002494FF42B7266F046BC00BF24AB0608EC
:1015E00070B500F1180604460D463046FFF7F0FFCF
:1015F000324629462046FFF781FF00280ADB41F2E8
:101600000803A36204F1240320460ECBBDE870401A
:10161000FFF7E6BE70BD00BF10B500F1180104462B
:10162000FFF7CAFE002804DBE0690028A8BF00F02D
:101630000F0010BD10B50F299DF808C09DF80CE0F3
:101640001AD8072A18D80931C9B20CF01F0C4CEA75
:10165000CE3C01EB41014FEA431E00EB81030EF447
:1016600078714CEA010C4CEA0232DA611833BDE8B9
:1016700010400ECBFFF7B4BE4FF0FF3010BD00BFDF
:101680000F2925D8093170B5CCB20C2101FB04011A
:10169000183105461646FFF78FFE002817DB04EBCE
:1016A000440205EB82026300D1696EB921F4004166
:1016B000234405EB830303F11802D96128460ECABF
:1016C000BDE87040FFF78CBE41F40041F0E770BD0B
:1016D0004FF0FF30704700BF10B507299DF8084054
:1016E0009DF80CE01DD81931D2004FEA4E2E02F0C1
:1016F0001802C9B203F007030EF4C06E13434EEA9A
:10170000C42E01EB410100EB810243EA0E0343F4D6
:10171000F073D36102F11803BDE810400ECBFFF760
:101720005FBE4FF0FF3010BD30B507299DF80C406B
:101730009DF810C09DF814501ED821314FEA0C5C62
:101740004CEA054CC3F30A03C9B264044CEA030C27
:1017500001EB410104F46024520500EB81034CEAE3
:10176000040C02F460024CEA0202DA611833BDE8AC
:1017700030400ECBFFF734BE4FF0FF3030BD00BF1E
:1017800000B589009DF804E001F03C0141EA032125
:101790000EF0030E9201D2B241EA0E01114341F460
:1017A000805100F1240C81629CE80E005DF804EB8E
:1017B000FFF716BEFFF76CBE00B583B001A9FFF7B7
:1017C00083FE0028A8BF019803B05DF804FB00BFAA
:1017D000F8B5174655EC104B0E46FEF77BFED7B119
:1017E000134A4FF07A53FEF7DFFE124B0022FEF74A
:1017F00023FD22462B46FEF7D7FE044630460D4613
:10180000FEF768FE02460B4620462946FEF7F6FF25
:1018100041EC100BF8BD04A3D3E90023FEF7C4FE8E
:10182000E7E700BFAFF30080100000100000703E3B
:10183000400000200000F03F10B400246C214FF461
:101840007A72046081805DF8044B8260704700BF4B
:10185000F0B585B08368009345F2FE428188ADF80B
:101860000C20032303AA0446002700688DF80E709D
:1018700005F05EFD642001F053FA03251A26A368E3
:10188000A188206800930DF10B0201238DF80B60F5
:101890008DF80C7005F04CFD012303AA08BBA1686C
:1018A0000091A188206805F0B1FE9DF80CC00CF0F5
:1018B000FE0CA268A18820680092022303AA8DF87A
:1018C0000C608DF80DC005F033FD034632205BB18E
:1018D00001F026FA681E10F0FF05D0D1284605B0A9
:1018E000F0BD4FF0000CE4E7012005B0F0BD00BFF3
:1018F00070B5044684B05200082308468DF80B30BA
:1019000091B20023A2680092ADF80C302060A18053
:1019100001230DF10B0205F00BFD18B1002528463F
:1019200004B070BDA3680093A1882068022303AAB5
:1019300005F06CFE06460028F0D1BDF80C305BBA0D
:1019400023F00F031B041B0C102BE7D12046FFF7DD
:101950007FFF05460028E1D0A368009306238DF899
:101960000B30A18820688DF80C6001230DF10B026B
:1019700005F0DEFC002845D1A3680093A18820680B
:10198000012303AA05F042FE9DF80C3003F0DF03AB
:101990008DF80D30A36800930623A1888DF80C30D4
:1019A00003AA0223206805F0C3FCA36800930C235C
:1019B0008DF80B3000238DF80C30A18820680DF1D4
:1019C0000B02012305F0B4FC58B9A3680093A18869
:1019D0002068012303AA05F019FE9DF80C0000F011
:1019E0007F060C230DEB03028DF80C30A3680093E7
:1019F000A18820688DF80D60022305F099FC284627
:101A000004B070BD3346C3E710B584B0836800935B
:101A10000821002204468DF80B10ADF80C208188B7
:101A2000006801230DF10B0205F082FC18B19FED57
:101A3000220A04B010BDA3680093A1882068022385
:101A400003AA05F0E3FD0028F1D1BDF80C305BBA24
:101A500023F00F031B041B0C102BE8D104238DF87B
:101A60000B30A3680093ADF80C00A18820680DF13D
:101A70000B02012305F05CFC18B19FED100A04B0C5
:101A800010BDA368A1882068009303AA022305F073
:101A9000BDFD0028F1D1BDF80C0040BA80B2FEF7C0
:101AA00019FD074B0022FEF77FFDFFF755F800EE0A
:101AB000100A04B010BD00BF0000C07F000000008D
:101AC0000000703F30B5044685B0A368A18800933C
:101AD000062000228DF80B008DF80C2020680123D1
:101AE0000DF10B0205F024FC80B1402103ADA36889
:101AF000009306208DF80C008DF80D102068A18849
:101B000002232A4605F014FC05B030BDA368A18865
:101B10002068009303AD01232A4605F077FD9DF868
:101B20000C1021F0400141F04001E0E72DE9F041C7
:101B3000DFF884801C4F1D4E362241463846FFF7A1
:101B4000D7FE60BB1A4D194C05F1200EAC46BCE81F
:101B50000F00F44504F11004654644F8100C44F8F5
:101B60000C1C44F8082C44F8043CEFD1BCF80030BD
:101B700023803046FEF754FB024692B231464FF4C2
:101B800096730C480AF076F84FF47A7001F0C8F8B2
:101B9000362241463846FFF7ABFE0028D2D0BDE8DA
:101BA000F0410148FFF78EBFC40300206C090020FC
:101BB000989F0608B0150020B008002008B50A4814
:101BC000FFF722FFDFED097AB4EEE70AF1EE10FA33
:101BD00008DA0548FFF718FFBCEEC00A10EE103A0D
:101BE00098B208BD642008BDC40300200000C842AC
:101BF00008B51021034804F06FFFB0FA80F04009E7
:101C000008BD00BF000400480148FFF715BE00BF33
:101C1000C40300202DE9F04F8BB06425002100950E
:101C200004468DF82710006801230DF1270270216A
:101C300005F07EFB10B10BB0BDE8F08F2246009599
:101C400052F8480B2123702105F0E0FC0028F2D166
:101C500094F85430039394F85F3094F84BA094F8C0
:101C600058B094F85190CDF814B01B0294F85780F6
:101C700094F8636094F94D5094F953E094F959C085
:101C800094F84C20049203F4706B4FEA0A2A03463E
:101C90004FEA09296AF30F034FEA082869F31F4343
:101CA0008146360268F30F0980462D0266F30F085D
:101CB00065F31F484FEA0E2E05464FEA0C2C6EF3D3
:101CC0000F056CF31F4594F812C094F84A1094F86D
:101CD000652094F85D70CDF818B0BCF1050F01F0E7
:101CE0000F0128BF4FF0050C120261454FEA07278C
:101CF00002F4706228BF6146079267F31F49049A95
:101D0000217509F00F27014694F8529094F864B0B9
:101D100094F84EE094F85AC062F30F0169F31F4142
:101D200003F00F23059A0B43C4F8163008F00F2672
:101D3000034694F85E8062F30F0368F31F431F436A
:101D400003466BF30F036EF31F431E43039BC4F85C
:101D50001A70C4F81E6063F30F0094F86630079A97
:101D600013432385069A94F860306CF31F4005F006
:101D70000F2505431343C4F82250E3840BB0BDE89C
:101D8000F08F00BF038A8B4204BF012380F84230EA
:101D9000704700BF2DE9F041284C294F29494FF0E9
:101DA000FF3384B000260225C4E90B33C4E90D33A8
:101DB000C4F81630C4F81A30C4F81E30C4F8223003
:101DC000C4F82630E363204B2160324629464FF0A9
:101DD00001083846C4E90373676084F82A6084F810
:101DE000406026752581A4F8418004F07BFE0A201E
:101DF00000F096FF42462946384604F073FE6427F9
:101E0000642000F08DFF00972B4603AA2068ADF8F0
:101E10000C60702105F08CFA009740F688602B4624
:101E2000ADF80C0003AA2068702105F081FA40F299
:101E30000153638204B0BDE8F08100BFD0030020ED
:101E400000080048B0080020010005052DE9F8430E
:101E50008A4CE3680D46A3B194F842308BB9884FA1
:101E60003B780BB100233B70B4F94410B4F94660E1
:101E7000002384F8433085F82030C5E90916BDE811
:101E8000F8837E48FFF7C6FE237D94F82AE00022FF
:101E9000734584F8422084F84020C0F0C380784F16
:101EA0003A78002B00F0E280B4F91610B4F92C2037
:101EB000E07C521A002AB8BF5242824200F3C68028
:101EC000B4F93620B4F92060921B002AB8BF524200
:101ED0009042ACBF00220122B4F92060A185012B01
:101EE000E68600F08A80B4F91880B4F92EC0ACEB15
:101EF000080CBCF1000FB8BFCCF1000C6045C0F27B
:101F0000A780B4F938C0B4F92290ACEB090CBCF14D
:101F1000000FB8BFCCF1000C8445C8BF0122B4F853
:101F200022C0A4F82E80022BA4F838C065D0B4F9E2
:101F30001A80B4F930C0ACEB080CBCF1000FB8BF8C
:101F4000CCF1000C6045C0F28580B4F93AC0B4F918
:101F50002490ACEB090CBCF1000FB8BFCCF1000C25
:101F60006045B8BF0122B4F824C0A4F83080032B28
:101F7000A4F83AC041D0B4F91C80B4F932C0ACEB3B
:101F8000080CBCF1000FB8BFCCF1000C604569DB58
:101F9000B4F93CC0B4F92690ACEB090CBCF1000FCD
:101FA000B8BFCCF1000C6045B8BF0122B4F826C020
:101FB000A4F83280042BA4F83CC01ED0B4F91E80D3
:101FC000B4F934C0ACEB080CBCF1000FB8BFCCF1D5
:101FD000000C604548DBB4F93EC0B4F92890ACEB86
:101FE000090CBCF1000FB8BFCCF1000C8445C8BF90
:101FF0000122208DA4F83480E0877345387884F876
:102000002A3029D000287FF42DAF0123A4F84410F2
:10201000A4F8466084F8433085F82030C5E90916F5
:10202000BDE8F883AEEB0302154F84F84020002B87
:102030007FF43AAF002384F82A303B78B4F9441097
:10204000B4F94660002B3FF414AF0BE7012243E7DD
:10205000012264E7012286E700287FF403AF002A0B
:10206000D3D101E70122A1E70122C2E7BEF1000FAF
:10207000E0D1002A7FF4F6AEF6E600BFD0030020E0
:1020800008000020F0B5642385B00021C0F8D032EC
:102090000446FFF7A5FA002808DA642000F040FEA5
:1020A00000212046FFF79CFA0028F6DB00250126D8
:1020B0002946CDE90065072302222046FFF70CFBE5
:1020C000B4F8D03200952946CDE9015504222046C6
:1020D000FFF72AFB2B463146CDE900650222204658
:1020E000FFF7FAFAB4F8D03200953146CDE9015540
:1020F00004222046FFF718FB03272B462A462946D1
:10210000CDE900662046FFF795FA2A463146CDE92B
:10211000007602232046FFF78DFA33462946022235
:1021200000952046FFF72CFBC82000F0F9FD324651
:1021300029462046FFF7A4FA324631462046FFF7EB
:102140009FFA2A4602212046FFF79AFA2A46394684
:102150002046FFF795FA2A4604212046FFF790FA19
:102160002A4605212046FFF78BFA2A4606212046FB
:10217000FFF786FA2A4607212046FFF781FA2A460A
:1021800008212046FFF77CFA2A4609212046FFF75E
:1021900077FA2A460A212046FFF772FA2A460B21CF
:1021A0002046FFF76DFA2A460C212046FFF768FA11
:1021B0002A460D212046FFF763FA2A460E212046C3
:1021C000FFF75EFA2A460F212046FFF759FAC8208A
:1021D00000F0A6FD094B0A49996100224FF07E509C
:1021E0009A601A615861074B9A601A615861996147
:1021F00003F038FEC4F8540305B0F0BDD00700204A
:102200000000A040B4070020F8B52DED048B044673
:10221000FFF7D0FA10B9BDEC048BF8BD2046FFF7EC
:10222000CBFAC4F8C8022046FFF7F6F90246C4F814
:10223000CC02002800F09F80012A00F0AB80D4E996
:10224000BC67D4E9BA01FEF787FC5F4C5F4D08EE2E
:10225000100A394684ED008A3046FEF77DFCD5ED44
:10226000028A95ED057AD5ED066A95ED049A286007
:1022700078EE878A07EE900A78EEA66A37EEC96A8A
:1022800088EEA67AA7EE069A85ED037A17EE100A75
:1022900085ED049AFEF730F902460B4600204C49C2
:1022A000FDF7CAFF064618EE900A0F46FEF724F91E
:1022B00002460B4630463946FEF776F9FEF74CFCEF
:1022C000D4ED029AD4ED057A94ED067AD4ED048A21
:1022D000A86079EEA79A38EE688A39EE877AC9EE57
:1022E000877AE7EE888AC4ED037A17EE900AC4ED88
:1022F000048AFEF701F902460B4600203449FDF737
:102300009BFF064619EE900A0F46FEF7F5F80246C7
:102310000B4630463946FEF747F9FEF71DFC2D4ABD
:102320002D4E0346A3601068FEF7E6F820A3D3E91C
:102330000023FEF739F979EE687A044617EE900A21
:102340000D46FEF7D9F802460B4620462946FEF711
:102350002BF919A3D3E90023FDF770FFFEF7FCFB6F
:10236000306002F069F9BDEC048B96ED000ABDE81F
:10237000F8400DF0E3BCD4F8C802C4F8D80201223A
:102380009FED0F0B8021FFF723FAD4F8CC2284EDC8
:10239000BA0B51E7D4F8C802C4F8DC029FED080B71
:1023A0008021FFF715FA84EDBC0B57EC106B48E762
:1023B0000000000080842E410000000000E070401A
:1023C0000000000000000440B4070020D0070020F7
:1023D0000000F03F0C000020EC07002038B50A4C4C
:1023E0002046FFF7EBF8012508480949094A0A4B3E
:1023F000C4F8C452C4F81C03C4F82013C4F824233E
:10240000C4F8303338BD00BF400400200000FA4457
:102410003313954300B056456AF72B380148FFF750
:10242000D5B800BF400400202DE9F04F0020A9B02E
:102430000FF090F9DFF8EC93EE4FEF4DDFF8E8A3E3
:10244000044648463C604BF00DFDC0F30743C0F323
:1024500007228DF80A308DF808008DF809200299BE
:102460000022204616F06CFF38680FF073F94FF425
:1024700096720446DC2111F05DFB204612F0E4FF69
:1024800048464BF0EFFCC0F307238DF80C00C0F377
:1024900007408DF80D308DF80E000399002220467C
:1024A00016F04EFF28464BF0DDFCC0F307238DF8F5
:1024B0001000C0F307408DF811308DF81200049918
:1024C0002046002216F060FF20460022022116F06E
:1024D0006FFF20460022052116F0DEFF2046002275
:1024E000052116F01DFF20460022052116F020FFD1
:1024F00020460022052116F003FF00222046052178
:1025000016F006FF102120460FF03CF920465CF043
:10251000E1FCBA4980465CF0E9FC00220221404619
:1025200016F0B2FF28464BF09DFCC0F307238DF850
:102530001400C0F307408DF815308DF8160005998A
:102540004046002216F084FF51464046002216F015
:1025500093FF052300220221404611F09FFB2046F5
:102560005CF0B8FCA64906465CF0C0FC514600226F
:10257000304616F081FF28464BF074FC8DF81800A9
:10258000C0F30723C0F307408DF819308DF81A0007
:102590000699DFF898A23046002216F059FF41460E
:1025A0004FF0050800230E223046CDF8008012F0CF
:1025B00019FB20465CF08EFC924B93491A688346C7
:1025C0000FA865F0EFFA0FA958465CF08FFC28467B
:1025D0004BF048FCC0F307238DF81C00C0F3074004
:1025E0008DF81D308DF81E0007995846002216F010
:1025F0002FFF51465846002216F03EFF00230E22C0
:1026000031465846CDF8008012F0ECFA20465CF0D6
:1026100061FC7E4906465CF069FC28464BF022FCD2
:10262000C0F307238DF82000C0F307408DF8213058
:102630008DF8220008993046002216F009FF514615
:102640003046002216F018FF00230E22594630466D
:10265000CDF8008012F0C6FA20465CF03BFC6C49D5
:1026600083465CF043FC28464BF0FCFBC0F3072399
:102670008DF82400C0F307408DF825308DF8260032
:1026800009995846002216F0E3FE514658460022AA
:1026900016F0F2FE0E22002331465846CDF8008097
:1026A00012F0A0FA204647F0ADFA6421064647F042
:1026B000B5FA28464BF0D6FBC0F307238DF8280067
:1026C000C0F307408DF829308DF82A000A9930466A
:1026D00047F0C4FA48464BF0C5FBC0F307238DF81A
:1026E0002C00C0F307408DF82D308DF82E000B998B
:1026F000304647F0BDFA47492522304647F0C6FA32
:102700001E2300220921304611F0C8FA20465CF051
:10271000E1FB414981465CF0E9FB28464BF0A2FB16
:10272000C0F307238DF83000C0F307408DF8313037
:102730008DF832000C994846002216F089FE514669
:102740004846002216F098FE314600263346484699
:102750000E22009612F046FA204655F06BFC282215
:102760001146044611F0E6F928464BF07BFBC0F316
:1027700007238DF83400C0F307408DF835308DF80D
:1027800036000D993246204616F0DAFD32464146B3
:10279000204616F081FE334632460421204611F0D1
:1027A0007DFA20465CF096FB1C4905465CF09EFBDA
:1027B000284612F049FE6FF07F404BF053FB034672
:1027C000C3F30722C3F307438DF838008DF839208F
:1027D0008DF83A300E992846324616F039FE1049E7
:1027E00033460A22204610F0EBFB38460FF0BEFBC2
:1027F0001EE000BFF00700204F453600BC9F0608D2
:10280000E49F06081C000020F49F060808A00608A4
:1028100020A0060838A0060860A006087CA00608CC
:102820003D450008D0EAF0000CDE06082CB1060891
:10283000386829B0BDE8F08F1D4A1E48137813B9D7
:102840000378002B33D030B587B0002101240DF17F
:102850001703642502958DF817101170CDE9003427
:102860003022017023461448A62105F085F89DF812
:102870001720D00604D51148114B0470022119709D
:10288000110705D50F480E4B012403210470197060
:10289000930608D50C4A0D491378B3FA83F3012047
:1028A0005B090870137001F09FFE07B030BD7047E0
:1028B000F6070020F5070020B0080020F8070020E8
:1028C0000C080020F7070020F4070020F90700207B
:1028D00070B5434EBEB00124642509AB0093CDE929
:1028E000014523460022A621304605F045F80DF1AA
:1028F00025038DE838001D222346A621304605F029
:102900003BF80DF126038DE8380021222346A6214D
:10291000304605F031F80DF127038DE8380022220A
:102920002346A621304605F027F80AAB8DE838008B
:102930002A222346A621304605F01EF80DF1290370
:102940008DE838002D222346A621304605F014F8E4
:102950000DF12A038DE838002E222346A6213046A9
:1029600005F00AF80DF12B038DE838002F222346DD
:10297000A621304605F000F80BAB8DE83800302278
:102980002346A621304604F0F7FF9DF82C009DF861
:102990002B30144ACDE906309DF82A3005939DF876
:1029A000293004939DF8283003939DF82730029333
:1029B0009DF8263001939DF825300093C8219DF89D
:1029C00024300CA865F0B8F80CA8FDF729FC0246E5
:1029D0002B4692B20CA9044809F04CF93EB070BDE8
:1029E000B008002080A00608B01500202DE9F043B3
:1029F000604D89B0012464260DF113032822009351
:102A00008DF813202346CDE901462D22A621284624
:102A100004F0B6FE10238DF8153050238DF81630D3
:102A2000F0238DF8173005AB4FF018090093CDE96E
:102A3000014623461D22A62128468DF814908DF8C4
:102A4000184004F09DFE0DF115030093CDE90146F9
:102A500023462122A621284604F092FE0DF11603FA
:102A60000093CDE9014623462222A621284604F000
:102A700087FE0DF117030093CDE90146234623227B
:102A8000A621284604F07CFE0DEB09030093CDE956
:102A9000014623462A22A621284604F071FE0DF1A4
:102AA0001903009303238DF81A30FF234FF03008E9
:102AB00078278DF81C30CDE9014623462422A62133
:102AC00028468DF819808DF81B7004F059FE0DF121
:102AD0001A030093CDE9014623462522A621284664
:102AE00004F04EFE0DF11B030093CDE90146234691
:102AF0002622A621284604F043FE07AB0093CDE929
:102B0000014623462722A621284604F039FE0DF16E
:102B10001D03009338238DF81D30CDE9014623466F
:102B20002E22A621284604F02BFE0DF11E03009351
:102B3000CDE9014623462F22A62128468DF81E9076
:102B400004F01EFE0DF11F0300214246CDE90034C2
:102B50008DF81F102346A6210296284604F00CFF8C
:102B6000FFF7B6FE044A054B14701F7009B0BDE8AC
:102B7000F08300BFB0080020FB070020FA07002008
:102B800010B50B4C0FCC88B00DF1040CACE80F0065
:102B900094E80700ACE803002CF8022B130C8CF827
:102BA00000300CF001FD01A80CF092F908B010BD46
:102BB000F09E0608704700BF4368B3F80B30B3F5CA
:102BC000124F00D0704730B589B0044668460CF00B
:102BD0009DF90023CDE90433CDE906336268557BC6
:102BE00025B1012D08BF237009B030BDFFF7C8FF24
:102BF0000F210C4B8DF810107F228DF812201A68CF
:102C00001B68120CC3F30B0304A8ADF81C20ADF82D
:102C10001E300CF06DF90CF071FD294601200DF00D
:102C2000B9FDE1E7002004E008B50B4B4FF400428A
:102C30001A6100200CF0DEFC68B14FF0B042074B87
:102C40008179C2F89C30D2F89C3023F47C5343EA5B
:102C50000123C2F89C3008BD00400058FECAFECADD
:102C600010B52449244BD1F89020CA2442F05002D8
:102C7000532088B0C1F890205C6258629A681F4C5B
:102C80004FF0B04122F00702FF209A6058628B6833
:102C900043F400438B600DF073FD194A1949D2F8D3
:102CA000803023F0070343F00403C2F88030002093
:102CB00000F09EFA0CF07AFB134A00214FF40070EA
:102CC0000DF082FD114A124B12486946CDE90023EE
:102CD0000CF08CFA1049114A40F23C5302A8CDE99D
:102CE0000241CDE904230CF031FC0CF05DFB08B08F
:102CF00010BD00BF0008005800280040F801032064
:102D000000040058C013002059F2000810040320EA
:102D1000B52B0008B92B0008040303201C05032071
:102D200070B5054603F09EF86B1C064602D003F012
:102D3000A5F80544064C04E0236923F0040323614D
:102D400030BF03F08FF8801BA842F5D370BD00BFE1
:102D500000ED00E04FF0FF300DF08CBD704700BF7C
:102D600000214FF400700DF047BD00BF02200DF0B0
:102D700071BD00BF02200DF019BE00BF10B5064C9A
:102D80000021204608F0FCF80449054A2068002389
:102D90000B704363136010BD641500200C08002005
:102DA00008080020204B1B78032B07D8DFE803F02E
:102DB000281F16021D4B1B68002B2FD01C4B1A68B6
:102DC0001C490B68934208D023DA0133934223DC79
:102DD0001A4619480B6003685A637047134B1B6807
:102DE000002BEBD1154A124B12681A60E8E70F4B23
:102DF0001B68002BE2D1124A0D4B12681A60DFE704
:102E00000A4B1B68002BD9D10E4A094B12681A6075
:102E1000D6E7013B9342DBDA1346DAE70A4A044B72
:102E200012681A60CCE700BF0C08002008080020D8
:102E30000008002004080020641500201000002075
:102E40001400002018000020FC07002010B54FF0EF
:102E5000B04382B0986C40F0040098649C6C04F01D
:102E600004040194019C9C6C44F001049C649B6CE0
:102E7000002203F00103009311460B20009B03F096
:102E800015F80B2002B0BDE8104003F04BB800BFAE
:102E90002DE9F04700248AB0CDE90444CDE9064489
:102EA0004FF0B0430894DA6C564F574E42F004028C
:102EB000DA64DA6C02F004020392039ADA6C42F0EC
:102EC0000202DA64DA6C02F002020292029ADA6C0E
:102ED00042F00102DA64DB6C03F00103019338462F
:102EE00001220221019B03F0FDFD224616214FF035
:102EF000904003F0F7FD2246304641F2240103F0F2
:102F0000F1FD012501224FF4041304A93846CDE94F
:102F100004234FF00209069503F042FC04A9384649
:102F20004FF00608CDE905540794CDF8109003F052
:102F300037FC04A94FF09040CDE905540794CDF833
:102F4000108003F02DFC10230DEB03014FF0030A5A
:102F50004FF090400493CDE90554CDF81CA003F048
:102F60001FFC242304A930460493CDE9055407949B
:102F700003F016FC04A9304601220023CDE9042306
:102F8000069403F00DFC102204A930460023CDE97D
:102F90000423069403F004FC30464FF4805304A944
:102FA0000493CDE90554CDF81CA003F0F9FB04A966
:102FB0004FF480624FF404134FF09040CDE90423A6
:102FC000069503F0EDFB4FF4881304A938464FF43F
:102FD000C052CDE90423CDF8189003F0E1FB22465E
:102FE0002146404602F062FF404602F09BFF224627
:102FF0002146282002F05AFF282002F093FF0AB051
:10300000BDE8F08700080048000400482DE9F843B7
:103010006C4B6D4D9B682E68590500F18A80B36832
:103020006A4A6B4F6B4C23F48063B360137803EBF5
:10303000430107EBC101DAB2D1F808802168013100
:103040004FEA430300F09280DFF878E1DEF82800D1
:10305000DEF8281080B289B2884206D0DEF828C097
:1030600008461FFA8CF18142F8D12168814268D26A
:103070005949D4F800C009886144081A57490978A9
:1030800001FB00F056490978C84081B2884580F0BC
:10309000958054484FF0010C062A80F800C018BFF4
:1030A000002051D04FF0000C06E0C3F808C05B7D53
:1030B000062BDAB20DD05300134407EBC3039A6812
:1030C0008A42F2D39A68521A9A605B7D062BDAB272
:1030D000F1D1002838D001286AD0013887B2F368CE
:1030E0005B07FCD5F368DBB263F49063F3603E4B9F
:1030F0004FF40022DA60032002F05CFF314843699C
:103100006FF30F033B434361826A836A92B29BB2BF
:103110009A4204D0816A1A468BB29342FAD1296846
:1031200022608B6843F480638B60AFF30080BDE85E
:10313000F883F3685A077FF572AFF3685A07F8D43B
:103140006DE72168081A99E71E48826A836A92B27D
:103150009BB29A4204D0816A1A468BB29342FAD14A
:1031600022600320BDE8F84302F016BF4FF0000EC6
:1031700071467046DFF87490B9F800C01EFA8CFCF6
:10318000C4450BD2B9F80000DFF858C04FF0000E6C
:1031900080B28CF800E0062A84D19AE7DFF844C0B8
:1031A000A8EB00004FF0010E80B28CF800E0F2E7CF
:1031B0000B4B1B78012B90D1074690E708468E46B3
:1031C000D8E700BF00280040C01300201D080020E1
:1031D00020080020180800201008002012080020F5
:1031E0001308002014080020000800580E080020D2
:1031F000F8B5474C474B2268474DCA2151625321CD
:103200005162996841F020019960996801F00701C5
:10321000C1F10401C9B229701B694FF4FE0595FA8A
:10322000A5F5002D71D0B5FA85F503F4FE03EB404A
:103230000133DBB21D46394E3370364B1B69C3F385
:103240000E0C634605FB03F3A3F5A073CB40344992
:103250000CF1010CA1F800C04FF6FE718B4248D969
:10326000304B4FF6FF7119802F4B196841F4002144
:103270001960D3F8801041F40021C3F880100028B1
:103280003BD12A4F2A492B4E2B4D4FF0010C87F88A
:1032900000C04FF0FF373760087381F8240081F8D1
:1032A0003C0081F8540081F86C0081F8840006210C
:1032B0002970916821F480619160D168C9B261F48C
:1032C00090614FF40025D1600320DD6002F072FEB2
:1032D0002268936843F480439360FF230321536281
:1032E0000846002202F0E2FDBDE8F840032002F0AB
:1032F00019BE0C499BB20B80B6E7D3685B05ECD5D1
:10330000032002F049FE2268E7E701252B4692E7F9
:10331000C0130020002800401308002012080020DD
:10332000100800200E080020000800581408002093
:1033300020080020180800201D080020F0B5EFF339
:10334000108672B61F4C257B95B194F8245025B396
:1033500094F83C502DB394F8545035B394F86C5015
:103360003DB394F8845045B386F310880120F0BD36
:1033700005F0FF0EF4460CEB4C0C04EBCC050127DA
:103380004FEACC0C2F7386F3108828616A730020F3
:1033900044F80C3081F800E0F0BD4FF0010EF44627
:1033A000E9E74FF0020EF446E5E74FF0030EF4466E
:1033B000E1E74FF0040EF446DDE74FF0050EF4466A
:1033C000D9E700BF200800202DE9F0410446EFF3C3
:1033D000108572B63D4E032002F0B2FD30683C49C4
:1033E000CA23436204EB4403532201EBC30342624A
:1033F0001A7B022A08D0FF234362032002F092FDC9
:1034000085F31088BDE8F081324A1778BC424FEA54
:10341000440C30D093F814E093F815805F7D0EEBE8
:103420004E0E01EBCE0EFFB2B8F1060F8EF81570FE
:103430005FFA88FE07D01B7D0EEB4E0E01EBCE0E21
:10344000DBB28EF81430A44401EBCC0301211973D4
:103450001378062B03D1204B4FF0FF3119601378FE
:10346000062BDAB211D01D4B1B789342C3D0FFF765
:10347000CDFD3068BFE71778DFF860E0FFB28EF867
:1034800000705B7DDBB21370DDE7154B9B6859055F
:1034900014D4836823F480638360C3685B07FCD51E
:1034A000C368104ADBB263F49063C3604FF4002337
:1034B0000320D36002F07EFD30689CE7C3685A07A2
:1034C000E7D5C3685A07F9D4E3E700BFC01300206B
:1034D000200800201D080020180800201C080020DB
:1034E00000280040000800582DE9F047894D00EB06
:1034F000400305EBC30306461B7B022B89464FEABC
:10350000400700F0D280EFF3108472B6DFF81C821F
:10351000032002F015FDD8F800107F48CA22BB191D
:103520004A6205EBC30353224A6202221A73C3F8AC
:103530000890C3F804900278062A5FFA82FC24D12E
:103540000278DFF8EC91D2B289F80020067083F897
:1035500015C0724B4FF0FF321A604FF0000E037827
:1035600099F800209A4240F09B80374405EBC70051
:103570008368A3EB0E038360FF234B62032002F0FA
:10358000D1FC84F31088BDE8F087DFF890E1DEF825
:103590000030013300F0B380DFF898C1DCF8282058
:1035A000DCF8283092B29BB29A4205D01A46DCF879
:1035B00028309BB29342F9D1DEF800309A4277D995
:1035C000574BDEF800C01B8863449A1A554B93F89A
:1035D00000E0554B1B7802FB0EFE2EFA03FE1FFA8D
:1035E0008EFEBA1905EBC202936873449360D2F859
:1035F0000890037803EB430305EBC3039B689945ED
:103600005AD3037803EB430205EBC2025FFA83FC53
:1036100092F815A0BAF1060F4FEA43025FFA8AF357
:1036200011D11BE09AF8153003EB430205EBC202FF
:103630005FFA83FC92F815A0BAF1060F4FEA430235
:103640005FFA8AF30AD003EB430305EBC30302EBF3
:103650000C0A9B68994505EBCA0AE3D202EB0C03FE
:1036600005EBC3035B7D062B5FFA83F904D009EBFE
:10367000490305EBC3031E7502EB0C03BA1905EBF6
:10368000C20205EBC30382F81590DFF8A49082F81C
:1036900014C05E75037899F800209A423FF465AF34
:1036A000FFF7B4FCD8F8001066E7FFF78DFE2AE7B5
:1036B000DEF800309A1A89E790F800C090F8009080
:1036C000CC455FFA8CF31DD003EB430905EBC90928
:1036D00099F814C00CEB4C0A05EBCA0A5FFA8CFC93
:1036E0008AF81560537582F814C089F8146003785D
:1036F000DFF83C90DBB289F8003006702FE74FF01E
:10370000000E6EE7537503EB430305EBC3031E7511
:10371000EDE700BF200800201D0800201808002049
:10372000100800201208002013080020C0130020F9
:103730001C08002000280040104700BF2DE9F84F6A
:10374000EFF3108872B6464C46482368464DCA27A8
:1037500053265F625E629A6822F480629A60027801
:1037600002EB420105EBC10C9CF80CA0BAF1020F70
:1037700012D0DA685207FCD5DA683C49D2B262F45A
:103780009062DA604FF40023CB6088F310882368DE
:10379000FF225A62BDE8F88F354B4FEAC10E55F84B
:1037A0000EB0DCF810A01B78002B46D09CF80D3032
:1037B000012B5FFA82F911D088F310884846FFF791
:1037C00003FE23685F625E625A4649465046FFF731
:1037D000B3FF2368FF225A62BDE8F88F037899454A
:1037E0004FEA420132D09CF814309CF815609CF8E6
:1037F000152003EB430305EBC303D2B2062E5A7523
:10380000F3B207D09CF8142003EB430305EBC3038A
:10381000D2B21A7501EB090205EBC20501232B7325
:10382000037888F3108869684846FFF75DFE2368CF
:10383000CA225A6253225A62C6E7FFF7E7FB88F3AF
:1038400010882368FF225A62BDE8F88F0378094A7E
:10385000DBB213709CF81530DBB20370DAE700BFFF
:10386000C01300201D080020200800200008005878
:10387000140800201C08002010B51848184C1949DD
:1038800000230122C0E90041C0E90232C0E904334B
:10389000C0E90633036203F0F1FC50B90F48002180
:1038A00004F068F968B90D48002104F08DF980B979
:1038B00010BD00F041FC0948002104F05BF900282C
:1038C000F1D000F039FC0548002104F07DF9002812
:1038D000EED0BDE8104000F02FBC00BFB0080020C3
:1038E00000540040B57DB11010B504469CB00021D5
:1038F000502208A8CDE90211CDE90411069164F027
:103900000DFA1D4B22689A4201D01CB010BD042252
:103910004FF4403308A80892109306F015F818BB2E
:103920004FF0B0449FED127BE36C144843F0020368
:10393000E364E36C03F0020301930423019A06930A
:103940000022002302A9CDE904238DED027B02F0C1
:1039500027FFA36D43F40013A365A36D03F40013C5
:103960000093009B1CB010BD00F0E6FBD8E700BF41
:103970000003000012000000005400400004004852
:10398000054808B5054B036004F04EF900B908BDC1
:10399000BDE8084000F0D0BB04090020000C00582E
:1039A000124B02689A4200D0704700B54FF0B04306
:1039B00083B0186D40F4801018651B6D002203F46D
:1039C0008013114601932C20019B02F06FFA2C20EA
:1039D00002F0A8FA002211462D2002F067FA2D20ED
:1039E00003B05DF804EB02F09DBA00BF000C005874
:1039F0002DE9F843DDF820901C480E4617469846FE
:103A00000468002CFCD11A4D4FF4E0632846EB60AB
:103A100006F092FC224604214FF0904003F062F839
:103A2000224610214FF0904003F05CF8BAB23146C4
:103A30004FF48053284606F0FBFC08B1BDE8F8833C
:103A4000012204214FF0904003F04CF81FFA89F254
:103A500041464FF48053284606F0EAFCBDE8F8439F
:103A6000012210214FF0904003F03CB8580900208B
:103A7000B01400202DE9F047DDF820A01A4D0F46C4
:103A8000904699462C68002CFCD1184E4FF4E06308
:103A90003046F36006F050FC224604214FF090407F
:103AA00003F020F8224610214FF0904003F01AF85E
:103AB0001FFA88F239464FF48053304606F0B8FCBE
:103AC00008B1BDE8F087012204214FF0904003F0D7
:103AD00009F801231FFA8AF2494630462B60BDE8F7
:103AE000F04706F0BDBF00BF58090020B014002009
:103AF0000FB400B5A3B025AB084A0193802102A8FA
:103B000064F0E4F8002803DD81B202A80CF08EFB1B
:103B100023B05DF804EB04B0704700BF6C090020CF
:103B200008B5012202214FF0904002F0DBFF012096
:103B3000FFF7F6F8002202214FF0904002F0D2FF8A
:103B40000A20FFF7EDF8012202214FF0904002F029
:103B5000C9FF7820FFF7E4F8012210214FF09040D0
:103B600002F0C0FF012204214FF0904002F0BAFFA2
:103B7000002008BD184B02689A4200D0704730B44C
:103B8000164B1B78242B10D015490A78BAB1154C66
:103B9000154D22880A2BAB5402D12B78242B13D03D
:103BA000FD2A0CD8013292B208E00D4C0F490122D7
:103BB000227000240C700C490A4C0B70228030BC1F
:103BC0000649012208F03AB915440023074C0B704E
:103BD0006B7001232370F2E700380140690900206F
:103BE00040090020420900206C0A002068090020DA
:103BF000284B834200D0704710B5274C27482268D5
:103C0000274B013222602168264A00FB0133B2EBC8
:103C1000730F2ED8244BD3F8C42222B1D3F8C42278
:103C2000013AC3F8C422214A13680BB1013B136067
:103C300023681F4923681F4A01FB03F303F551134F
:103C400003F53753B2EB331F12D31B491B4B0A68E2
:103C50001B481A604FF0010C00221A4B0A6080F8D2
:103C600000C022601A781AB11A78013AD2B21A70DA
:103C700010BD012052F0E8FC1348144B2168144A8F
:103C800000FB0133B2EBF30FC4D3124B01221A60D5
:103C9000C0E700BF1815002054090020CDCCCCCCC3
:103CA0009899991999999919400400206C0B002052
:103CB000917EFB3AB88D06004C090020480900208F
:103CC00044090020FA070020295C8FC250B81E0565
:103CD00014AE47015009002008B5094B834200D0BB
:103CE00008BD012210214FF0904002F0FBFE054B71
:103CF000054900221A600868BDE8084017F084BD35
:103D0000B0140020580900205C090020044B026810
:103D10009A4200D07047034B01221A60704700BFDF
:103D20000038014064090020B0F5006F01460BD057
:103D3000B0F5805F04D001280AD10948FEF722B807
:103D4000084B01221A707047074B01221A70704706
:103D5000B0F5806F02D1054B01221A60704700BF99
:103D6000D0030020F5070020F6070020B007002050
:103D7000034BD3F8500E431C08BF0020704700BF10
:103D800000F00B0810B584B0044602F0C7FA0A4BE5
:103D900093E8070001AB83E807006946184602F084
:103DA00081FB064922460023012002F02FFB02F08E
:103DB000C9FA04B010BD00BF0C9F060850FE0B08E6
:103DC00000B595B04C220021684663F0A7FF02F0D1
:103DD000A5FA02F0C3FA04214FF0406200236846BE
:103DE000CDE90523009102F0DDFB02F0CBFA15B01E
:103DF0005DF804FB0000000010B59CB000244822D0
:103E000000210AA863F08AFFCDE90244CDE9044409
:103E1000CDE90644089404F04BFF4FF0B04227214F
:103E2000D2F8903023F0180343F01003C2F890301A
:103E3000D2F8003423F4C06343F40073C2F80034B2
:103E4000D2F8003412944FF48032CDE90A1203F410
:103E5000C063402201934FF4807101230E9202222D
:103E6000CDE90C3115926021202211931391169304
:103E70004FF0005118924FF000734FF400320AA82F
:103E80001794CDE91923019C1B9104F0D9FF08B1C7
:103E900072B6FEE79FED0A7B034603216F2202A85C
:103EA0008DED067BCDE9031302920593089305F08F
:103EB0001DFB08B172B6FEE705F032FF1CB010BD65
:103EC000000000008000000010B594B040220021E6
:103ED00001A863F023FF4FF440544FF480410222C5
:103EE00010236846CDE911120094139305F02CFDC0
:103EF00008B172B6FEE7024BD3F8943014B010BD8F
:103F0000001400582DE9804883B001F087FF734BFF
:103F1000734AD3F8503E591C08BF00231360FFF7C3
:103F20006BFFFFF7D1FFFEF77FFEFFF729FDFEF7DE
:103F3000AFFFFEF78BFF01F035FBFFF79DFC01F0B3
:103F40009DFB01F0C1FB01F063FD01F019FE01F0E2
:103F5000C9FD01F0E9FA01F0E9FA6420FEF7E0FE9C
:103F60000CF006F86420FEF7DBFE5E4806F072FFF8
:103F700000221146192001F099FF192001F0D2FF0B
:103F8000FEF76EFEFEF732FD5748FEF77BF8FDF7B1
:103F900001FFFDF7CBFD47F0DBFFFFF7C1FDD0B917
:103FA000524A534B0092044602464FF4A071F0204F
:103FB0003FF098FE4F4D0221286017F0E1FE28687F
:103FC0001B2117F0F7FB28684B4A4C4900944FF42B
:103FD000164317F065FB4A484A4C4B4E4B4DDFF8F1
:103FE0004C91DFF84CB1DFF84C81494FDFF8F8A075
:103FF00052F0AEFB40F046FB0121206040F086FB12
:1040000044492068444C40F089FB002001F050FEF8
:10401000FEF7B4FE0FCC0FC694E8030086E8030059
:10402000A6F11000FCF7FCF8A6F1100182B23B48A3
:104030003B4C07F0ADFE3B493848012207F0FEFE3D
:10404000A6F11000FCF7ECF881B2A6F110000CF01C
:10405000EDF8103E236801332360FEF77BFE2B78DA
:10406000002203B12A70FEF7E7FBFEF79BFE5046E5
:10407000FEF7CAF899F80030BBB9D8F800303BB168
:104080003B68002BE6D000233B604DF077F9E1E779
:10409000A723C8F800300BF04BFE3B68002BD9D0AB
:1040A00000233B604DF06AF9D4E7002389F8003023
:1040B000DBF800301C4A4021304663F03DFD3046BD
:1040C000FCF7AEF802461E2392B23146134807F0C1
:1040D000D1FD3046FFF70CFDCFE700BF00F00B0825
:1040E0001C0000201815002040040020753A00082C
:1040F000F13900085C0900207C1600207CAC00200F
:10410000655E0008600900206C0900206809002035
:10411000500900204D1E0008D8A00608B015002048
:104120004C09002069090020F0A00608440900207D
:10413000480900206C0B002072B6FEE708B50BF0B2
:10414000D3FCBDE80840002001F0B2BD022001F020
:10415000AFBD00BF002001F0ABBD00BF2DE9F04FA7
:1041600000208FB00DF0F6FAE74FE84D38600221DD
:104170000DF008FB3868DFF8B483DFF8B4A3DFF88C
:10418000B49310210DF0FEFA38680022FF2115F0DB
:10419000EBF828463C6849F065FEC0F307238DF82C
:1041A0000800C0F307408DF809308DF80A0000229E
:1041B0000299204615F0C4F83868D54C0DF0CAFABB
:1041C000022120600DF0DEFA206810210DF0DAFAED
:1041D000386826680FF036FEA0F1140130460FF063
:1041E000D5FC20686FF040410FF0EAFC2068002207
:1041F000022115F0DDF84046266849F033FE0346FB
:10420000C3F30722C3F307438DF80E308DF80C007B
:104210008DF80D2003993046002215F0B5F8284698
:10422000256849F01FFE0346C3F30722C3F3074383
:104230008DF812308DF810008DF811200499284661
:10424000002215F07DF820680022052115F024F9E0
:104250002568002228460A2115F062F82846002227
:104260000A2115F065F8284600220A2115F048F8C1
:10427000284600220A2115F04BF800231A46206830
:1042800009210FF00BFD206853F0D4FE32220646C0
:10429000B4210FF04FFC00220821304615F0FCF845
:1042A000404649F0DFFDC0F307238DF81400C0F34A
:1042B00007408DF815308DF816000599304600221C
:1042C00015F03EF800220A21304615F079F800205A
:1042D00049F0C8FDC0F307238DF81800C0F307406C
:1042E0008DF819308DF81A0006993046002215F025
:1042F0006FF800224C21304615F07EF8504649F008
:10430000B1FD8DF81C00C0F30723C0F307408DF802
:104310001D308DF81E0007993046202215F010F848
:1043200000231A46304602210FF0B8FC00230A226F
:10433000784930460EF044FE30465AF0CBFD7649BF
:1043400005465AF0D3FD49460022284615F094F858
:10435000284611F079F8206853F06CFE32220546A9
:10436000B4210FF0E7FB00220821284615F094F84D
:10437000404649F077FDC0F307238DF82000C0F3D5
:1043800007408DF821308DF8220008992846002238
:1043900014F0D6FF00220A21284615F011F800205B
:1043A00049F060FDC0F307238DF82400C0F30740F7
:1043B0008DF825308DF8260009992846002215F041
:1043C00007F800224C21284615F016F8504649F00F
:1043D00049FD8DF82800C0F30723C0F307408DF88E
:1043E00029308DF82A000A992846202214F0A8FFC7
:1043F00031460F262846009600230E2210F0F2FBCD
:1044000000230A22454928460EF0DAFD28465AF0D4
:1044100061FD434983465AF069FD494600225846EA
:1044200015F02AF8584611F00FF8206853F002FEF4
:1044300032220446B4210FF07DFB002208212046E1
:1044400015F02AF8404649F00DFDC0F307238DF81A
:104450002C00C0F307408DF82D308DF82E000B99FD
:104460002046002214F06CFF00220A21204614F09E
:10447000A7FF002049F0F6FCC0F307238DF83000B9
:10448000C0F307408DF831308DF832000C9920468A
:10449000002214F09DFF00224C21204614F0ACFFB6
:1044A000504649F0DFFC8DF83400C0F30723C0F319
:1044B00007408DF835308DF836000D9920462022C2
:1044C00014F03EFF29462046009600230E2210F0ED
:1044D00089FB00230A22134920460EF071FD204675
:1044E0005AF0F8FC104904465AF000FD00224946F3
:1044F000204614F0C1FF204610F0A6FF38460DF00C
:1045000035FD38680FB017E0740B0020D0EAF000DA
:10451000700B00204D41000804A106085541000819
:104520000CA106083D41000814A106084F453600BD
:10453000D27619000CDE0608BDE8F08F012001F0EC
:10454000B7BB00BF0B4B1B6893B110B590B00446CE
:10455000402168460BF004FB6946074863F0DAFA2D
:1045600020464CF089FF69465AF0C0FC10B010BDDF
:10457000704700BF6813002024A10608164B1B6873
:1045800043B370B58AB00446FDF718FB0546FDF746
:104590002FFB064620464CF06FFF044666B902AE7C
:1045A0000E4A2B462021304663F0C6FA314620469B
:1045B0005AF09CFC0AB070BD02AE094B094A009546
:1045C0002021304663F0B8FA314620465AF08EFC7E
:1045D0000AB070BD704700BF6813002040A10608F4
:1045E00034A1060838A106080C4B1B68ABB100B516
:1045F0000B4A0C4910780C4B0C4A89B0002818BFA4
:104600000B462021684663F097FA094B6946186803
:104610005AF06CFC09B05DF804FB70476813002089
:10462000F407002048A1060850A1060854A1060876
:10463000A4130020000000006B4B1B68002B77D0F8
:104640006A4BF0B5D3ED007A694D6A4B2A68FDEEEE
:10465000E77A2DED048B17EE904A944283B0C3EDB8
:10466000007A61D0F8EEE77A9FED637AF4EEC77ACC
:10467000F1EE10FA5DD59FED619A4FF48074F0EE83
:10468000490A1C6062260027B3EE058AB0EE480A8C
:104690009FED5B2ADFED5B1A9FED5B1A2C6001A991
:1046A000684601F043FBDDED007A584C5849594B00
:1046B00020684F60F4EEC87AF1EE10FA8CBFF0EE8D
:1046C000488AF0EE678A38EE688A77EEE87ABDEEBF
:1046D000C88AFDEEE77A022281ED008AC1ED027AF6
:1046E000CE6001935BF016FB206815F027FA0546B3
:1046F0000FF012FB08EE100A28460FF039FB07EE08
:10470000900AF8EEE77AB8EEC88A39EE679A78EE42
:10471000C88AFDEEC97A206817EE902AFDEEE87A85
:1047200017EE901A0FF0A6F903B0BDEC048BF0BDA4
:1047300070479FED397AF4EEC77AF1EE10FA0BDD8F
:104740009FED2E9A9FED358A4FF48E74F0EE490A54
:104750001C606226002799E72046FBF7BBFE20A3DA
:10476000D3E90023FBF720FFFCF7F6F908EE900AE7
:10477000B0EE680A61F0A6FE9FED299ADFED227A7D
:10478000E0EE097AB0EE670A61F026FFB0EE408AEB
:10479000B0EE680A61F0DAFEDFED227AE0EE097A27
:1047A000B0EE670A61F018FFDFED1F7AB4EEE70A9A
:1047B000F1EE10FA8CBFB0EE679AB0EE409A30EE90
:1047C000497A77EEC97ABDEEC77AFDEEE77A17EE41
:1047D000107A17EE906AF0EE400A57E7AFF30080C8
:1047E000399D52A246DF913F68130020EC0700205C
:1047F000880B00208C0B00200000804300007842D2
:104800000000C842000048430000F0427C13002032
:10481000780B00200000204300008E4300005B4323
:104820000000CD430000E643000020432DE9F041A5
:104830008F4E904C3068904F94B00CF08BFF02215B
:1048400020600CF09FFF102120680CF09BFF306867
:1048500025680FF0F7FA011F28460FF097F9206836
:104860006FF040410FF0ACF900220221206814F0F3
:104870009FFD8248256849F0F5FAC0F307238DF8BB
:104880000800C0F307408DF809308DF80A0002993E
:104890002846002214F078FD20680022052114F03B
:1048A000FBFD256800222846032114F039FD284627
:1048B0000022032114F03CFD28460022032114F0BD
:1048C0001FFD00220321284614F022FD6B482568B5
:1048D00049F0C8FAC0F307238DF80C00C0F3074075
:1048E0008DF80D308DF80E0003992846002214F043
:1048F00027FD0223194600222068614D0FF0CEF9F2
:1049000020685AF0E7FA022128600CF03BFF286883
:1049100010210CF037FF5B4928685AF0E7FA6FF076
:104920004042114628680FF005F92868002203214B
:1049300014F0AAFD002328681A4608210FF0AEF9EA
:104940003868002800F0818029684CF087FD3D68B8
:104950003368C3B1FDF732F90746FDF749F98046E0
:1049600028464CF089FD0546B8F1000F63D10DF1E2
:104970001008454A3B462021404663F0DDF8414699
:1049800028465AF0B3FA2068404D414F5AF0A2FA37
:10499000022128600CF0F6FE286810210CF0F2FECF
:1049A0003C4928685AF0A2FA6FF040421146286844
:1049B0000FF0C0F828680022032114F065FD0023E1
:1049C00028681A4609210FF069F93868002845D08F
:1049D00029684CF043FD3D6833686BB1402104A861
:1049E0000BF0BEF804A92C4863F094F828464CF06C
:1049F00043FD04A95AF07AFA2068284C5AF06AFA62
:104A0000022120600CF0BEFE206810210CF0BAFEDE
:104A1000206823495AF06AFA6FF040422068114634
:104A20000FF088F8002320681A46072114B0BDE86B
:104A3000F0410FF033B90DF110081A4B1A4A0097E4
:104A40002021404663F078F899E72A6817484FF428
:104A50007A714CF0A5FC0546386079E72A6814485D
:104A60004FF47A714CF09CFC05463860B4E700BF07
:104A7000681300208C13002064130020D0EAF0009B
:104A8000A013002058A1060840A106089C1300208E
:104A90006013002060A1060824A10608A4130020CA
:104AA00050A1060834A1060838A106087D45000873
:104AB00045450008000000002DE9F0472DED0C8B66
:104AC000834CDFF854A22068824D9FED83DA9FED7E
:104AD000838A9FED83CADFED83BA9FED83BADFED52
:104AE00083AA9FED83AA88B00CF034FE0221CAF895
:104AF00000000CF047FE1021DAF800000CF042FE36
:104B00002068DAF800400FF09DF9011F20460FF0F1
:104B10003DF8DAF8000082210FF052F8002202215D
:104B2000DAF8000014F044FC7248DAF8004049F06A
:104B300099F9C0F30743C0F307228DF80E308DF8C2
:104B40000C008DF80D2020460399002214F01CFC67
:104B5000DAF800000022052114F09EFCDAF800408B
:104B600000221146204614F0DBFB002211462046AD
:104B700014F0DEFB00221146204614F0C1FB002297
:104B80001146204614F0C4FB5B48DAF8004049F0B7
:104B900069F9C0F30743C0F307228DF810008DF8C0
:104BA00011208DF8123020460499002214F0C8FB21
:104BB00002231946DAF8000000220FF06FF84F4B7D
:104BC00002241968009400230E22DAF8000010F085
:104BD00009F8DAF8000010F01DFBDAF800000FF019
:104BE0009BF809EE900ADAF800000FF0C1F809EE20
:104BF000100ADAF800005AF06DF9214628600CF02E
:104C0000C1FD286810210CF0BDFD28683C495AF010
:104C10006DF928682146002214F036FC6FF04042FE
:104C2000286811460EF086FF0523002221462868D9
:104C3000344D0FF033F8DAF800005AF04BF9214602
:104C400028600CF09FFD286810210CF09BFD28685F
:104C50002D495AF04BF928682146002214F014FC23
:104C60006FF04042286811460EF064FF0A23642268
:104C700021462868254D0FF011F8DAF800005AF0A7
:104C800029F9214628600CF07DFD286810210CF0E0
:104C900079FD28681C495AF029F928682146002224
:104CA00014F0F2FB6FF04042286811460EF042FF0C
:104CB0002868174D21460A236FF063020EF0EEFFBD
:104CC000144CF8EEE99AB8EEC99A4FF000084EE09D
:104CD00068130020741300204D6578BF62BA77BE58
:104CE0000000CD430000C9430000F0420000E6434D
:104CF000000048434F453600D0EAF0008C130020F6
:104D0000A8A206087013002064A106086C130020F6
:104D1000900B0020CC110020781300203333333F58
:104D20000000804307EE908A5FED046A1FED047A6D
:104D3000F8EEE77AA7EEA67A17EE100AFBF7DCFB8F
:104D400093A3D3E90023FBF72FFCFBF705FF08EE45
:104D5000100AB0EE480A61F0B5FBF0EE407AB0EE12
:104D6000480AB0EE678A61F0F1FBB0EE40DA824BA0
:104D700003FB08F3B3F1333F8CBFF0EE6BDAF0EED8
:104D80004CDAB0EE4B0AF0EE007AADEE880A08F18C
:104D90000108F2EE04CA88BFF0EE67CA61F01CFC9D
:104DA000F0EE408AB0EE6A0AADEE8D0A61F014FCB6
:104DB000B0EE6C2AF0EE400A9FED701AF0EE4A1A3F
:104DC000B0EE408A07A9B0EE680A06A800F0AEFF70
:104DD0009DED067ADDED077ADAF80000B4EEE87AA8
:104DE000F1EE10FAF4EEC87A8CBFF0EE68CAF0EE7D
:104DF00047CAF1EE10FAB4EEE87A8CBFB0EE48DAAA
:104E0000B0EE67DAF1EE10FAB4BFB0EE686AB0EE59
:104E1000476AF4EEC87AF1EE10FAB4EE6C6AB4BFE9
:104E2000F0EE486AF0EE676AF1EE10FA18BF36EE5F
:104E30006C6AF4EE4D6A18BFBDEEC66A78EEEC8A75
:104E400018BF16EE106A38EE4D8A37EE6C7A77EEA0
:104E5000CD7A08BF0126F1EE10FA18BF76EECD6AC2
:104E6000BDEEC77AFDEEE77AFDEEE88ABDEEC88AB0
:104E700018BFFDEEE66A85ED027AC5ED037AC5ED51
:104E8000008A85ED018A14BF16EE907A01275AF048
:104E900035FF44F8040F294602225AF03BFF002256
:104EA0000221206814F0B0FA3548D4F8009048F098
:104EB000D9FFC0F307238DF81400C0F307408DF825
:104EC00015308DF816000599002248463DEE49DA66
:104ED00014F0AAFA20680022012114F09DFA7CEE59
:104EE000E9CAFDEECD7A206817EE902AFDEEEC7A45
:104EF000103517EE901A0EF0BDFD20683A46314687
:104F00000EF018FEB8F1290F7FF40CAFDAF80000AC
:104F10001C4C5AF0F3FE022120600CF033FC206898
:104F200010210CF02FFC20680022032114F06CFAF1
:104F30001548256848F096FFC0F30743C0F30722E1
:104F40008DF81E308DF81C008DF81D20079928461D
:104F5000002214F069FA00221146206814F05CFA6D
:104F60000A4B4FF487721A6008B0BDEC0C8BBDE899
:104F7000F047FFF761BB00BFCDCCCCCC0000F042C6
:104F80004F4536007C1300201D57DF00880B0020A2
:104F9000399D52A246DF913F30B5474D474C2868B6
:104FA0008DB00CF0D7FB022120600CF0EBFB2068E9
:104FB00010210CF0E7FB286825680EF043FF011F65
:104FC00028460EF0E3FD20686FF040410EF0F8FD3A
:104FD00020680022022114F0EBF93948256848F0D6
:104FE00041FFC0F30743C0F307228DF80A308DF864
:104FF00008008DF8092002990022284614F0C4F90F
:105000003048256848F02EFFC0F30743C0F307225D
:105010008DF80E308DF80C008DF80D200399284680
:10502000002214F08DF920680022052114F034FAD2
:10503000256800222846032114F072F92846002230
:10504000032114F075F928460022032114F058F9C1
:1050500028460022032114F05BF91B4B0225196836
:10506000009500230E2220680FF0BCFD2068174C2D
:1050700059F030FF294620600CF084FB2068102195
:105080000CF080FB124B134A1B68202104A862F02D
:1050900053FD206804A959F029FF6FF040422068B1
:1050A00011460EF047FD002320681A4607210EF036
:1050B000F5FD0DB030BD00BF68130020881300203F
:1050C0004F453600D0EAF0007813002098130020F6
:1050D0001C00002068A106082DE9F041764D774CB0
:1050E0002868774F86B00CF035FB022120600CF069
:1050F00049FB206810210CF045FB286825680EF05C
:10510000A1FE011F28460EF041FD20686FF04041CE
:105110000EF056FD20680022022114F049F93846AD
:10512000256848F09FFEC0F307238DF80800C0F300
:1051300007408DF809308DF80A00029900222846B0
:1051400014F022F95F48256848F08CFEC0F307236D
:105150008DF80C00C0F307408DF80D308DF80E006F
:1051600003992846002214F0EBF82068002205215C
:1051700014F092F9256800222846032114F0D0F893
:1051800028460022032114F0D3F8284600220321E8
:1051900014F0B6F828460022032114F0B9F84A4B5F
:1051A0004A4D19680226009600230E2220680FF04F
:1051B00019FD206859F08EFE314628600CF0E2FAA5
:1051C000286810210CF0DEFA6FF040421146286882
:1051D0000EF0B0FC28683E4959F088FE2868314638
:1051E000002214F051F900221146286814F0E0F86A
:1051F0003846D5F8008048F035FE0346C3F3072251
:10520000C3F307438DF812308DF810008DF811208C
:1052100004994046002214F01BF928682D49002209
:1052200014F02AF900231A46314628680EF036FD9C
:105230002068294C59F04EFE314620600CF0A2FA4D
:10524000206810210CF09EFA6FF040421146206851
:105250000EF070FC2068214959F048FE2068314664
:10526000002214F011F900221146206814F0A0F871
:105270003846276848F0F6FD0346C3F30722C3F318
:1052800007438DF816308DF814008DF81520059918
:105290003846002214F0DCF820681149002214F08E
:1052A000EBF829682068009600230E220FF09AFC84
:1052B00006B0BDE8F08100BF681300208413002011
:1052C0004F453600D0EAF0008813002094130020E8
:1052D000E49F06080CDE06089013002074A106085F
:1052E0002CB1060870B56A4D6A4C286888B00CF07D
:1052F00031FA022120600CF045FA206810210CF0F0
:1053000041FA286825680EF09DFD011F28460EF021
:105310003DFC614D206834210EF052FC20680022D3
:10532000022114F045F82846266848F09BFDC0F39A
:1053300007238DF80C00C0F307408DF80D308DF871
:105340000E0003990022304614F01EF82846256806
:1053500048F088FDC0F30743C0F307228DF81230F0
:105360008DF810008DF8112004992846002213F0C2
:10537000E7FF20680022052114F08EF8256800223E
:105380002846032113F0CCFF28460022032113F006
:10539000CFFF28460022032113F0B2FF2846002247
:1053A000032113F0B5FF3D4A2068116802230093E2
:1053B0000E2200230FF016FC206852F03BFE28223C
:1053C000114604460EF0B6FB00231A46204607217C
:1053D0000EF064FC00220821204614F05DF83048ED
:1053E00048F040FDC0F30743C0F307228DF81630A4
:1053F0008DF814008DF8152005992046002213F031
:105400009FFF00220A21204613F0DAFF002048F017
:1054100029FDC0F30743C0F307228DF81A308DF839
:1054200018008DF8192006992046002213F0D0FFAD
:1054300000224C21204613F0DFFF1A4848F012FDED
:10544000C0F30743C0F307228DF81E308DF81C000F
:105450008DF81D2007992022204613F071FF204669
:1054600059F038FD1049054659F040FD28460FF027
:10547000EBFF28460D49002213F0FEFF0C490023E4
:105480000A22204608B0BDE870400DF099BD00BF6B
:105490006813002080130020D0EAF000841300205D
:1054A0004F453600D27619007CA006080CDE0608AF
:1054B0003D45000830B5002083B00CF04BF9184C86
:1054C000022120600CF05EF9206810210CF05AF9DE
:1054D00020680022FF2113F047FF1248256848F09A
:1054E000C1FCC0F30743C0F307228DF806308DF8E6
:1054F00004008DF8052001990022284613F020FFB2
:10550000FFF794F9FFF7D8FAFFF746FDFFF7E4FD40
:10551000FFF7E8FE20460CF029FD206803B030BDFF
:1055200068130020D0EAF000704700BF0648074A21
:1055300008B50023C0E9002304F0FAFB00B908BD58
:10554000BDE80840FEF7F8BDA81300200010005881
:1055500010B5044696B05022002102A862F0DEFB8E
:105560000F4B22689A4201D016B010BD4FF4007262
:105570004FF0804302A80292109304F0E5F960B95D
:105580004FF0B0431A6D42F480221A651B6D03F48C
:1055900080230193019B16B010BDFEF7CDFDEFE710
:1055A0000010005810B51248124C00230F2147F686
:1055B000FF72C0E90043C0E90212C0E9053303618C
:1055C000C36104F0D5FB30B900220948114604F04C
:1055D0004FFC48B910BDFEF7AFFD0022044811464C
:1055E00004F046FC0028F5D0BDE81040FEF7A4BD4D
:1055F000C01300200028004010B5044696B0502289
:10560000002102A862F08AFB164B22689A4201D060
:1056100016B010BD4FF400624FF4807302A80292DE
:10562000129304F091F9D0B94FF0B0430022D3F8AF
:10563000900040F40040C3F890009C6D44F48064F6
:105640009C659B6D03F48063114601930320019BCD
:1056500000F02CFC032000F065FC16B010BDFEF736
:105660006BFDE1E70028004010B5034C20460CF02C
:105670007DFC206810BD00BFE413002010481149D4
:105680004FF4827210B5C0E900124FF4007200238B
:105690004FF4E064072182610822C0E90234C0E9C6
:1056A0000433C0E90733C0E90933C0E90B1342638F
:1056B00004F042FE00B910BDBDE81040FEF73CBD4D
:1056C000B01400200030014010B51148114C4FF4C7
:1056D0008272C0E90042022200234FF4E0610124FB
:1056E00002614FF40072C0E90231C0E905420821AD
:1056F0000722C0E90713C0E90933C0E90B2343635C
:1057000004F01AFE00B910BDBDE81040FEF714BD4C
:10571000481400200038004070B50368414A8AB040
:1057200000249342CDE90444CDE90644089404D012
:105730003D4A934244D00AB070BD4FF0B043054695
:105740001A6E3A4E42F480521A661A6E02F4805271
:105750000192019ADA6C42F00102DA64DB6C03F028
:1057600001030093E0220223CDE9042300980322E1
:1057700005234FF0904004A9CDE9072301F010F86C
:105780002B4A0723C6E900238023102233613046C9
:105790004FF40053C6E90224C6E90544C6E90743AD
:1057A00000F016FC00283AD1002211466E65222036
:1057B000B56200F07BFB222000F0B4FB0AB070BDA4
:1057C0004FF0B0434FF420409A6D42F480429A6506
:1057D0009A6D02F480420392039ADA6C42F002025C
:1057E000DA64DB6C022103F00203CDE904010293C9
:1057F0000525032304A90F48029ACDE9073500F0D7
:10580000CFFF4FF4804202230A48089504A9CDE94E
:105810000423CDE9064400F0C3FF0AB070BDFEF7D3
:105820008BFCC1E70030014000380040E813002045
:10583000080002400004004800B54FF0B04383B0B8
:10584000186D40F4002018651B6D002203F400233E
:10585000019311462E20019B00F028FB2E2003B05F
:105860005DF804EB00F05EBBFEE700BFFEE700BFA3
:10587000FEE700BFFEE700BFFEE700BF704700BFC6
:10588000704700BF704700BF00F0E0BAFDF756BF99
:10589000012001F02DB900BF014800F0F1BC00BFAC
:1058A000E8130020014802F0EFBA00BFAC5A012013
:1058B000014805F091BD00BF18150020014805F012
:1058C000A9B900BFB0140020014806F071BB00BFA9
:1058D000B015002008B54FF4806001F009F94FF4CD
:1058E000006001F005F9BDE808404FF4805001F078
:1058F000FFB800BF0AF014BB0AF0A8BA01F006B95D
:105900000120704708B562F081FA162303604FF05A
:10591000FF3008BD08B562F079FA16230360FEE790
:1059200010B50C46AFF3008003462370012010BD74
:1059300070B5161E07DD0C468D1914F8010BAFF378
:105940000080A542F9D1304670BD00BF4FF0FF3056
:10595000704700BF4FF400534B600020704700BFFA
:1059600001207047002070470C490D4A0B6810B5A4
:105970000C4C121B2BB11844904207D808601846F3
:1059800010BD094B0B6018449042F7D962F03EFA03
:105990000C2303604FF0FF33184610BD1415002090
:1059A000000003200010000080E101201449D1F81C
:1059B00088204FF0B04342F47002C1F88820196883
:1059C000104A4FF4E02041F0010119609860186816
:1059D0000D4902401A60D3F8942022F00502C3F862
:1059E0009420D3F8982022F00102C3F89820D960BF
:1059F00019611A68002122F480221A6099617047A7
:105A000000ED00E0FBFEF6FA0010042200000000AA
:105A100010B5334C4FF0804292B022601F22002319
:105A20006260204640F2E732CDE90133CDE90A3326
:105A3000CDE90C33CDE90E33C4E902320393109360
:105A40002361A36105F02EFAF8B9002324480193DD
:105A500001A9039305F06AFDE8B99FED1D7B0022C3
:105A60001F480C920AA98DED0A7B0E9205F00AFBE5
:105A700070B922680023B2F1804FCDE90433CDE93B
:105A8000063308930AD012B010BDFEF755FBDCE7D1
:105A9000FEF752FBEDE7FEF74FFBDEE74FF0B043BA
:105AA0009FED0D7BDA6C42F00102DA64DB6C03F0EF
:105AB0000103009304A901234FF090408DED047B76
:105AC000009A089300F06CFE12B010BDAFF3008096
:105AD0006000000000000000010000000200000063
