:020000040800F2
:10000000000003201D5C0008115700081557000868
:10001000195700081D57000821570008000000006C
:10002000000000000000000000000000255700084C
:1000300029570008000000002D570008315700081C
:10004000755C0008755C0008755C00083557000891
:10005000755C0008755C000839570008755C00087D
:10006000755C0008755C0008755C00084157000865
:10007000755C0008755C0008755C0008755C00081C
:10008000755C0008755C0008755C0008755C00080C
:100090004D570008755C0008755C0008755C000829
:1000A000755C000859570008755C0008755C00080D
:1000B000755C0008755C0008755C0008755C0008DC
:1000C000755C0008755C000865570008755C0008E1
:1000D00071570008755C0008755C0008755C0008C5
:1000E0007D570008755C0008755C0008755C0008A9
:1000F0009D570008A1570008A5570008755C000827
:10010000755C0008755C0008755C0008755C00088B
:10011000755C0008755C0008755C0008755C00087B
:10012000755C0008755C0008755C0008755C00086B
:0C013000755C0008755C0008755C000838
:1001400010B5054C237833B9044B13B10448AFF311
:1001500000800123237010BD8803002000000000F0
:100160008C94060808B5034B1BB103490348AFF351
:10017000008008BD000000008C0300208C9406085D
:1001800001F0FF01102A2BDB10F0070F08D010F848
:10019000013B013A8B422DD010F0070F42B3F6D14C
:1001A000F0B441EA012141EA014122F007047FF065
:1001B00000070023F0E80256083C85EA010586EABC
:1001C000010685FA47F5A3FA87F586FA47F6A5FAF8
:1001D00087F68EB9EED1F0BC01F0FF0102F0070204
:1001E00032B110F8013B013A83EA010313B1F8D1AF
:1001F0000020704701387047002D06BF3546033890
:10020000073815F0010F07D1013015F4807F02BFC8
:10021000013015F4C03F0130F0BC0138704700BF19
:10022000034613F8012B002AFBD1181A0138704736
:1002300081F0004102E000BF83F0004330B54FEA97
:1002400041044FEA430594EA050F08BF90EA020F04
:100250001FBF54EA000C55EA020C7FEA645C7FEA97
:10026000655C00F0E2804FEA5454D4EB5555B8BFBA
:100270006D420CDD2C4480EA020281EA030382EA2B
:10028000000083EA010180EA020281EA0303362DBD
:1002900088BF30BD11F0004F4FEA01314FF4801C90
:1002A0004CEA113102D0404261EB410113F0004FA2
:1002B0004FEA03334CEA133302D0524263EB430359
:1002C00094EA050F00F0A780A4F10104D5F1200EF7
:1002D0000DDB02FA0EFC22FA05F2801841F1000152
:1002E00003FA0EF2801843FA05F359410EE0A5F126
:1002F00020050EF1200E012A03FA0EFC28BF4CF057
:10030000020C43FA05F3C01851EBE37101F000450C
:1003100007D54FF0000EDCF1000C7EEB00006EEB19
:100320000101B1F5801F1BD3B1F5001F0CD34908A3
:100330005FEA30004FEA3C0C04F101044FEA4452FA
:1003400012F5800F80F09A80BCF1004F08BF5FEA81
:10035000500C50F1000041EB045141EA050130BD61
:100360005FEA4C0C404141EB0101013C28BFB1F573
:10037000801FE9D291F0000F04BF01460020B1FABE
:1003800081F308BF2033A3F10B03B3F120020CDA91
:100390000C3208DD02F1140CC2F10C0201FA0CF06F
:1003A00021FA02F10CE002F11402D8BFC2F1200CD4
:1003B00001FA02F120FA0CFCDCBF41EA0C0190408A
:1003C000E41AA2BF01EB0451294330BD6FEA0404D3
:1003D0001F3C1CDA0C340EDC04F11404C4F12002BE
:1003E00020FA04F001FA02F340EA030021FA04F3D0
:1003F00045EA030130BDC4F10C04C4F1200220FA27
:1004000002F001FA04F340EA0300294630BD21FA64
:1004100004F0294630BD94F0000F83F4801306BF2A
:1004200081F480110134013D4EE77FEA645C18BF1E
:100430007FEA655C29D094EA050F08BF90EA020FB5
:1004400005D054EA000C04BF1946104630BD91EAAD
:10045000030F1EBF0021002030BD5FEA545C05D1B0
:100460004000494128BF41F0004130BD14F58004EF
:100470003CBF01F5801130BD01F0004545F0FE4163
:1004800041F470014FF0000030BD7FEA645C1ABF98
:10049000194610467FEA655C1CBF0B46024650EACF
:1004A000013406BF52EA033591EA030F41F40021FB
:1004B00030BD00BF90F0000F04BF0021704730B581
:1004C0004FF4806404F132044FF000054FF0000156
:1004D00050E700BF90F0000F04BF0021704730B517
:1004E0004FF4806404F1320410F0004548BF4042EC
:1004F0004FF000013EE700BF42004FEAE2014FEA41
:1005000031014FEA02701FBF12F07F4393F07F4F1B
:1005100081F06051704732F07F4208BF704793F01E
:100520007F4F04BF41F40021704730B54FF4607431
:1005300001F0004521F000411CE700BF50EA010234
:1005400008BF704730B54FF000050AE050EA0102DD
:1005500008BF704730B511F0004502D5404261EB4D
:1005600041014FF4806404F132045FEA915C3FF48E
:10057000D8AE4FF003025FEADC0C18BF03325FEA2B
:10058000DC0C18BF033202EBDC02C2F1200300FADC
:1005900003FC20FA02F001FA03FE40EA0E0021FA01
:1005A00002F11444BDE600BF70B54FF0FF0C4CF4EF
:1005B000E06C1CEA11541DBF1CEA135594EA0C0FA1
:1005C00095EA0C0F00F0DEF82C4481EA030621EADC
:1005D0004C5123EA4C5350EA013518BF52EA033517
:1005E00041F4801143F4801338D0A0FB02CE4FF0C9
:1005F0000005E1FB02E506F00042E0FB03E54FF0F9
:100600000006E1FB03569CF0000F18BF4EF0010EF0
:10061000A4F1FF04B6F5007F64F5407404D25FEAEC
:100620004E0E6D4146EB060642EAC62141EA55519F
:100630004FEAC52040EA5E504FEACE2EB4F1FD0CE1
:1006400088BFBCF5E06F1ED8BEF1004F08BF5FEA5F
:10065000500E50F1000041EB045170BD06F0004611
:1006600046EA010140EA020081EA0301B4EB5C04BE
:10067000C2BFD4EB0C0541EA045170BD41F48011B6
:100680004FF0000E013C00F3AB8014F1360FDEBFDB
:10069000002001F0004170BDC4F10004203C35DAB7
:1006A0000C341BDC04F11404C4F1200500FA05F33A
:1006B00020FA04F001FA05F240EA020001F00042DB
:1006C00021F0004110EBD37021FA04F642EB060151
:1006D0005EEA430E08BF20EAD37070BDC4F10C047B
:1006E000C4F1200500FA04F320FA05F001FA04F23F
:1006F00040EA020001F0004110EBD37041F100012B
:100700005EEA430E08BF20EAD37070BDC4F1200535
:1007100000FA05F24EEA020E20FA04F301FA05F29D
:1007200043EA020321FA04F001F0004121FA04F245
:1007300020EA020000EBD3705EEA430E08BF20EA15
:10074000D37070BD94F0000F0FD101F0004640004F
:1007500041EB010111F4801F08BF013CF7D041EAD1
:10076000060195F0000F18BF704703F000465200D5
:1007700043EB030313F4801F08BF013DF7D043EAA6
:100780000603704794EA0C0F0CEA135518BF95EA5C
:100790000C0F0CD050EA410618BF52EA4306D1D1E3
:1007A00081EA030101F000414FF0000070BD50EA02
:1007B000410606BF1046194652EA430619D094EA8C
:1007C0000C0F02D150EA013613D195EA0C0F05D176
:1007D00052EA03361CBF104619460AD181EA0301CA
:1007E00001F0004141F0FE4141F470014FF0000082
:1007F00070BD41F0FE4141F4780170BD70B54FF01D
:10080000FF0C4CF4E06C1CEA11541DBF1CEA13559C
:1008100094EA0C0F95EA0C0F00F0A7F8A4EB05047E
:1008200081EA030E52EA03354FEA013100F0888075
:100830004FEA03334FF0805545EA131343EA12633E
:100840004FEA022245EA111545EA10654FEA0026F3
:100850000EF000419D4208BF964244F1FD0404F5AC
:10086000407402D25B084FEA3202B61A65EB030508
:100870005B084FEA32024FF480104FF4002CB6EBC5
:10088000020E75EB030E22BFB61A754640EA0C0045
:100890005B084FEA3202B6EB020E75EB030E22BF85
:1008A000B61A754640EA5C005B084FEA3202B6EBC6
:1008B000020E75EB030E22BFB61A754640EA9C0085
:1008C0005B084FEA3202B6EB020E75EB030E22BF55
:1008D000B61A754640EADC0055EA060E18D04FEA13
:1008E000051545EA16754FEA06164FEAC30343EAB3
:1008F00052734FEAC2025FEA1C1CC0D111F4801F80
:100900000BD141EA00014FF000004FF0004CB6E778
:1009100011F4801F04BF01430020B4F1FD0C88BF17
:10092000BCF5E06F3FF6AFAEB5EB030C04BFB6EB22
:10093000020C5FEA500C50F1000041EB045170BD15
:100940000EF0004E4EEA113114EB5C04C2BFD4EB42
:100950000C0541EA045170BD41F480114FF0000EC6
:10096000013C90E645EA060E8DE60CEA135594EA42
:100970000C0F08BF95EA0C0F3FF43BAF94EA0C0F45
:100980000AD150EA01347FF434AF95EA0C0F7FF4BA
:1009900025AF104619462CE795EA0C0F06D152EA0E
:1009A00003353FF4FDAE1046194622E750EA4106F2
:1009B00018BF52EA43067FF4C5AE50EA41047FF403
:1009C0000DAF52EA43057FF4EBAE12E74FF0FF3C68
:1009D00006E000BF4FF0010C02E000BF4FF0010C39
:1009E0004DF804CD4FEA410C7FEA6C5C4FEA430CB2
:1009F00018BF7FEA6C5C1BD001B050EA410C0CBF01
:100A000052EA430C91EA030F02BF90EA020F002062
:100A1000704710F1000F91EA030F58BF994208BFC9
:100A200090422CBFD8176FEAE37040F00100704786
:100A30004FEA410C7FEA6C5C02D150EA013C07D1DD
:100A40004FEA430C7FEA6C5CD6D152EA033CD3D028
:100A50005DF8040B704700BF8446104662468C4622
:100A60001946634600E000BF01B5FFF7B7FF002855
:100A700048BF10F1000F01BD4DF808EDFFF7F4FF7E
:100A80000CBF012000205DF808FB00BF4DF808ED09
:100A9000FFF7EAFF34BF012000205DF808FB00BF2C
:100AA0004DF808EDFFF7E0FF94BF012000205DF84E
:100AB00008FB00BF4DF808EDFFF7CEFF94BF012003
:100AC00000205DF808FB00BF4DF808EDFFF7C4FFFC
:100AD00034BF012000205DF808FB00BF4FEA410C45
:100AE0007FEA6C5C02D150EA013C0AD14FEA430C28
:100AF0007FEA6C5C02D152EA033C02D14FF0000065
:100B000070474FF0010070474FEA410212F50012A2
:100B100015D211D56FF47873B3EB625212D94FEA44
:100B2000C12343F0004343EA505311F0004F23FA2E
:100B300002F018BF404270474FF00000704750EA83
:100B4000013005D111F0004008BF6FF00040704740
:100B50004FF00000704700BF4FEA4102B2F1E0439E
:100B600024BFB3F5001CDCF1FE5C0DD901F0004C94
:100B70004FEAC0024CEA5070B2F1004F40EB8300E4
:100B800008BF20F00100704711F0804F21D113F110
:100B90003872BCBF01F00040704741F480114FEA49
:100BA0005252C2F11802C2F1200C10FA0CF320FAD2
:100BB00002F018BF40F001004FEAC1234FEAD323EF
:100BC00003FA0CFC40EA0C0023FA02F34FEA430359
:100BD000CCE77FEA625307D150EA01331EBF4FF0E2
:100BE000FE4040F44000704701F0004040F0FE40FD
:100BF00040F40000704700BF7BB972B90029BEBF46
:100C000000204FF0004106E008BF00281CBF6FF035
:100C100000414FF0FF3000F0D3B9ADF1080C6DE9A1
:100C200004CE002909DB002B1ADB00F04DF8DDF8BB
:100C300004E0DDE9022304B07047404261EB41016A
:100C4000002B1BDB00F040F8DDF804E0DDE90223B7
:100C500004B0404261EB4101524263EB43037047F1
:100C6000524263EB430300F02FF8DDF804E0DDE9C6
:100C7000022304B0404261EB41017047524263EBF2
:100C8000430300F021F8DDF804E0DDE9022304B0BD
:100C9000524263EB4303704753B94AB9002908BF76
:100CA00000281CBF4FF0FF314FF0FF3000F088B933
:100CB000ADF1080C6DE904CE00F006F8DDF804E0B3
:100CC000DDE9022304B070472DE9F047089D8E4608
:100CD00004468846002B4AD18A42174662D9B2FAA6
:100CE00082F64EB1C6F1200301FA06F820FA03F3AA
:100CF000B74043EA0808B4404FEA174E1FFA87FC92
:100D0000B8FBFEF1230C0EFB118843EA084301FBFC
:100D10000CF29A4209D9FB1801F1FF3080F0EA8009
:100D20009A4240F2E78002393B449A1AA3B2B2FBDE
:100D3000FEF00EFB102243EA024300FB0CFC9C4534
:100D400009D9FB1800F1FF3280F0D6809C4540F2B3
:100D5000D3803B44023840EA0140A3EB0C0300215E
:100D60001DB1F3400022C5E90032BDE8F0878B4297
:100D700005D90DB1C5E9000100210846F5E7B3FA30
:100D800083F1002946D1734502D3824200F20581E6
:100D9000841A6EEB030201209046002DE5D0C5E9D0
:100DA0000048E2E7002A00F09080B2FA82F6002EB6
:100DB00040F0A4808A1A030C4FEA174E80B2BCB2EE
:100DC0000121B2FBFEFC0EFB1C2243EA024304FBA2
:100DD0000CF29A4207D9FB180CF1FF3802D29A4262
:100DE00000F2E080C4469B1AB3FBFEF20EFB123306
:100DF00040EA034302FB04F49C4207D9FB1802F1CA
:100E0000FF3002D29C4200F2CA8002461B1B42EA1B
:100E10000C40A5E7C1F120068B4022FA06F71F43DC
:100E20000EFA01F420FA06F32EFA06FE4FEA1749ED
:100E3000234300FA01F81FFA87FCBEFBF9F01C0CF3
:100E400009FB10EE44EA0E4400FB0CFEA64502FA34
:100E500001F209D93C1900F1FF3A80F09C80A645C7
:100E600040F2998002383C44A4EB0E041FFA83FE42
:100E7000B4FBF9F309FB13444EEA044403FB0CFCF6
:100E8000A44508D93C1903F1FF3E80F08280A445B7
:100E90007FD9023B3C4443EA0040A4EB0C04A0FB96
:100EA00002EC64457346E14662D35FD05DB1B8EBB6
:100EB000030264EB090404FA06F622FA01F31E4366
:100EC000CC40C5E9006400214FE7B1FBF2FC010C06
:100ED00041EA0E4180B240EA01423B4638463C4678
:100EE000B846BE462026B1FBF7F1A2EB080241EA64
:100EF0000C4166E7014618E710462CE7C6F12002D0
:100F00002EFA02F3B740B14020FA02F24FEA174E30
:100F10000A43B3FBFEF8BCB20EFB1833110C41EAD6
:100F2000034108FB04F9B04089454FEA104380B201
:100F30003ED9791808F1FF3C01D289451FD8A1EBB1
:100F40000901B1FBFEF909FB04F80EFB191192B27D
:100F500042EA0142424529D2BA1809F1FF31C4D20E
:100F60004245C2D2A9F102013A44BEE7F0459DD202
:100F7000BEEB02036CEB070C0138E14696E7A7EBEA
:100F800009094944A8F1020CB1FBFEF909FB04F878
:100F9000DBE773467FE7504666E70846FDE63B44DD
:100FA000023A33E7ACF1020C3B441CE749469CE7AC
:100FB000A1EB0901C446B1FBFEF909FB04F8C4E743
:100FC000704700BF38B504461D4621700448012211
:100FD0004FF4805105F098FA0120656038BD00BFDC
:100FE00000040048F0B583B0144602AF15480D4622
:100FF00000224FF4805105F087FAE31D03F4FC73DF
:10100000ADEB030D02AE24B122462946304666F010
:1010100006FA4FF0FF3300932A46234631460A482A
:1010200009F018F8012205464FF48051054805F0F3
:101030006BFA002D0CBF20464FF0FF300437BD4641
:10104000F0BD00BF000400482814002038B50E4849
:1010500014460D4600224FF4805105F055FA4FF02A
:10106000FF3322462946094808F0CCFE01220546F6
:101070004FF48051044805F047FA002D0CBF20467C
:101080004FF0FF3038BD00BF000400482814002096
:1010900008B5084601F03EFE002008BD30B500232B
:1010A00085B0CDE90033CDE90233002900F0988006
:1010B0000B780A7A03F03F0343F040038DF80030C9
:1010C000037C05460C46002B40F087800132D2B2EB
:1010D00069462846FFF786FF00287CDB2B7C257AB3
:1010E000002B67D0227802F03F02012342F0400239
:1010F0008DF8082005EB030E1A4610326A440133BE
:10110000DBB212F8101C02F8081C73451A46F4DD15
:101110000DF109030DF1080C53FA8EFE00221CF8A4
:10112000013B51005A40C9B2120648BF81F0070185
:10113000C3F380104A00D2B2B0EBD11F18BF82F0C7
:101140000702C3F340105100C9B2B0EBD21F18BF61
:1011500081F00701C3F300104A00D2B2B0EBD11FF7
:1011600018BF82F00702C3F3C0005100C9B2B0EB50
:10117000D21F18BF81F00701C3F380004A00D2B22A
:10118000B0EBD11F18BF82F007025000C3F340013B
:10119000C0B2B1EBD21F18BF80F00700420003F0CD
:1011A0000103B3EBD01FD2B218BF82F00702E645AD
:1011B000B5D1C2B90022626001235DB103F1100113
:1011C0006944013311F8101CDBB2AB4201EB02227F
:1011D000F4D96260002005B030BD0232D2B277E7A8
:1011E0004FF0FF30F7E76FF00100F4E770B586B01D
:1011F00001AC84E80E009DF804309DF80C400022FC
:1012000003F03F03CDE904228DF81030027C029BED
:10121000002C00F08F8004F118010DEB0105012C6A
:1012200005F8083C4FEA232120D0022C05F8091CC0
:101230004FEA23411AD0032C05F80A1C4FEA236118
:1012400014D0042C05F80B1C4FEAE3730ED0DBB26C
:10125000052C05F80C3C09D0062C05F80D3C05D0F2
:10126000072C05F80E3C01D005F80F3C002A58D099
:10127000631CDBB20DF11102013B52FA83FE0DF14A
:10128000100C00221CF8013B51005A40C9B2120652
:1012900048BF81F00701C3F380164A00D2B2B6EB13
:1012A000D11F18BF82F00702C3F340165100C9B224
:1012B000B6EBD21F18BF81F00701C3F300164A0036
:1012C000D2B2B6EBD11F18BF82F00702C3F3C0063B
:1012D0005100C9B2B6EBD21F18BF81F00701C3F3AA
:1012E00080064A00D2B2B6EBD11F18BF82F00702C7
:1012F0005100C3F34006C9B2B6EBD21F18BF81F04C
:1013000007014A0003F00103B3EBD11FD2B218BFAB
:1013100082F00702F445B5D1023405F8072CE2B299
:1013200001E0621CD2B204A9FFF790FE00EAE0706F
:1013300006B070BD002AF4D0012306AD9AE700BFC5
:10134000F8B50F4605460E46EC6894F84830062B73
:1013500004F1480401D06B7C13BB21462846FFF7FB
:101360009DFE0346002B4FF00101284611DBEB6880
:10137000DC6C04F0400446B1FFF78AFE013EB4B1D4
:10138000002EE1D147B93B4603E02FB9B4FA84F30C
:101390005B091846F8BD66B96FF002031846F8BD40
:1013A00069692846FFF7CCFF031ED6DAF1E7002F64
:1013B000F1D10123EDE700BF38B50B78062B0D46C0
:1013C000044601D0437C2BB929462046BDE838406D
:1013D000FFF764BE4169FFF7B3FF0028F4DA38BDB8
:1013E00030B585B001AC84E80E00437C054623B1DE
:1013F0004169FFF7A5FF002807DB94E80E002846A7
:1014000005B0BDE83040FFF7F1BE05B030BD00BF0C
:10141000F8B51E4EA6FB01360F460546F608EC68E9
:101420002378062B01D06B7CFBB921462846FFF7B9
:1014300035FE0346002B4FF00A01284613DBEB680C
:101440005C6804F010044EB1FFF722FE013ECCB1FF
:10145000002EE4D1092F11D8334604E0092F0DD80E
:10146000B4FA84F35B091846F8BD69692846FFF7AA
:1014700067FF031ED9DA1846F8BD2EB96FF00203D4
:101480001846F8BD092FF8D80123ECE7CDCCCCCC19
:1014900038B5C5682B78062B044601D0437C6BB960
:1014A00029462046FFF7FAFD002806DBE3685B6863
:1014B00013F0800F0CBF0120002038BD4169FFF7F9
:1014C0003FFF0028ECDA38BD70B5C36803F1180699
:1014D0001B7E062B04460D4601D0437C3BB93146AA
:1014E0002046FFF7DBFDE368DB692B6070BD4169D7
:1014F000FFF726FF0028F2DAF5E700BFF0B587B066
:1015000000240127C2602B4B0194C9B200972246E8
:101510000546FFF757FD002849D0274B93E8030005
:1015200003AE86E80300082231462846FFF78EFD09
:1015300000283ADB69692846FFF76AFF002834DB98
:101540006F7401E0292C2ED0EB6804EB440203EB0E
:1015500082035A7A012A13D0072C04F10104F1D135
:10156000EB689A6D0824C2F38001C2F380126A749A
:1015700004EB440203EB820329745A7A012AEBD16B
:1015800093E807006B7C86E80700284623B1696969
:10159000FFF7D6FE002806DB96E80E002846FFF788
:1015A00025FE0028D8DA00EAE07007B0F0BD6FF041
:1015B0000300FAE740420F003895060800224FF476
:1015C0007A71C26002824161704700BF704700BFFC
:1015D00002494FF42B7265F022BF00BFC0A006087D
:1015E00070B500F1180604460D463046FFF7F0FFCF
:1015F000324629462046FFF781FF00280ADB41F2E8
:101600000803A36204F1240320460ECBBDE870401A
:10161000FFF7E6BE70BD00BF10B500F1180104462B
:10162000FFF7CAFE002804DBE0690028A8BF00F02D
:101630000F0010BD10B50F299DF808C09DF80CE0F3
:101640001AD8072A18D80931C9B20CF01F0C4CEA75
:10165000CE3C01EB41014FEA431E00EB81030EF447
:1016600078714CEA010C4CEA0232DA611833BDE8B9
:1016700010400ECBFFF7B4BE4FF0FF3010BD00BFDF
:101680000F2925D8093170B5CCB20C2101FB04011A
:10169000183105461646FFF78FFE002817DB04EBCE
:1016A000440205EB82026300D1696EB921F4004166
:1016B000234405EB830303F11802D96128460ECABF
:1016C000BDE87040FFF78CBE41F40041F0E770BD0B
:1016D0004FF0FF30704700BF10B507299DF8084054
:1016E0009DF80CE01DD81931D2004FEA4E2E02F0C1
:1016F0001802C9B203F007030EF4C06E13434EEA9A
:10170000C42E01EB410100EB810243EA0E0343F4D6
:10171000F073D36102F11803BDE810400ECBFFF760
:101720005FBE4FF0FF3010BD30B507299DF80C406B
:101730009DF810C09DF814501ED821314FEA0C5C62
:101740004CEA054CC3F30A03C9B264044CEA030C27
:1017500001EB410104F46024520500EB81034CEAE3
:10176000040C02F460024CEA0202DA611833BDE8AC
:1017700030400ECBFFF734BE4FF0FF3030BD00BF1E
:1017800000B589009DF804E001F03C0141EA032125
:101790000EF0030E9201D2B241EA0E01114341F460
:1017A000805100F1240C81629CE80E005DF804EB8E
:1017B000FFF716BEFFF76CBE00B583B001A9FFF7B7
:1017C00083FE0028A8BF019803B05DF804FB00BFAA
:1017D000F8B5174655EC104B0E46FEF77BFED7B119
:1017E000134A4FF07A53FEF7DFFE124B0022FEF74A
:1017F00023FD22462B46FEF7D7FE044630460D4613
:10180000FEF768FE02460B4620462946FEF7F6FF25
:1018100041EC100BF8BD04A3D3E90023FEF7C4FE8E
:10182000E7E700BFAFF30080100000100000703E3B
:10183000400000200000F03F10B400246C214FF461
:101840007A72046081805DF8044B8260704700BF4B
:10185000F0B585B08368009345F2FE428188ADF80B
:101860000C20032303AA0446002700688DF80E709D
:1018700005F070FA642001F04DFA03251A26A368DA
:10188000A188206800930DF10B0201238DF80B60F5
:101890008DF80C7005F05EFA012303AA08BBA1685D
:1018A0000091A188206805F0C3FB9DF80CC00CF0E6
:1018B000FE0CA268A18820680092022303AA8DF87A
:1018C0000C608DF80DC005F045FA034632205BB17F
:1018D00001F020FA681E10F0FF05D0D1284605B0AF
:1018E000F0BD4FF0000CE4E7012005B0F0BD00BFF3
:1018F00070B5044684B05200082308468DF80B30BA
:1019000091B20023A2680092ADF80C302060A18053
:1019100001230DF10B0205F01DFA18B10025284630
:1019200004B070BDA3680093A1882068022303AAB5
:1019300005F07EFB06460028F0D1BDF80C305BBAFE
:1019400023F00F031B041B0C102BE7D12046FFF7DD
:101950007FFF05460028E1D0A368009306238DF899
:101960000B30A18820688DF80C6001230DF10B026B
:1019700005F0F0F9002845D1A3680093A1882068FC
:10198000012303AA05F054FB9DF80C3003F0DF039C
:101990008DF80D30A36800930623A1888DF80C30D4
:1019A00003AA0223206805F0D5F9A36800930C234D
:1019B0008DF80B3000238DF80C30A18820680DF1D4
:1019C0000B02012305F0C6F958B9A3680093A1885A
:1019D0002068012303AA05F02BFB9DF80C0000F002
:1019E0007F060C230DEB03028DF80C30A3680093E7
:1019F000A18820688DF80D60022305F0ABF9284618
:101A000004B070BD3346C3E710B584B0836800935B
:101A10000821002204468DF80B10ADF80C208188B7
:101A2000006801230DF10B0205F094F918B19FED48
:101A3000220A04B010BDA3680093A1882068022385
:101A400003AA05F0F5FA0028F1D1BDF80C305BBA15
:101A500023F00F031B041B0C102BE8D104238DF87B
:101A60000B30A3680093ADF80C00A18820680DF13D
:101A70000B02012305F06EF918B19FED100A04B0B6
:101A800010BDA368A1882068009303AA022305F073
:101A9000CFFA0028F1D1BDF80C0040BA80B2FEF7B1
:101AA00019FD074B0022FEF77FFDFFF755F800EE0A
:101AB000100A04B010BD00BF0000C07F000000008D
:101AC0000000703F30B5044685B0A368A18800933C
:101AD000062000228DF80B008DF80C2020680123D1
:101AE0000DF10B0205F036F980B1402103ADA3687A
:101AF000009306208DF80C008DF80D102068A18849
:101B000002232A4605F026F905B030BDA368A18856
:101B10002068009303AD01232A4605F089FA9DF859
:101B20000C1021F0400141F04001E0E72DE9F041C7
:101B3000DFF884801C4F1D4E362241463846FFF7A1
:101B4000D7FE60BB1A4D194C05F1200EAC46BCE81F
:101B50000F00F44504F11004654644F8100C44F8F5
:101B60000C1C44F8082C44F8043CEFD1BCF80030BD
:101B700023803046FEF754FB024692B231464FF4C2
:101B800096730C4809F060FD4FF47A7001F0C2F8CA
:101B9000362241463846FFF7ABFE0028D2D0BDE8DA
:101BA000F0410148FFF78EBFA40300204C0900203C
:101BB00044950608901500209008002008B50A48B2
:101BC000FFF722FFDFED097AB4EEE70AF1EE10FA33
:101BD00008DA0548FFF718FFBCEEC00A10EE103A0D
:101BE00098B208BD642008BDA40300200000C842CC
:101BF00008B51021034804F081FCB0FA80F04009D8
:101C000008BD00BF000400480148FFF715BE00BF33
:101C1000A40300202DE9F04F8BB06425002100952E
:101C200004468DF82710006801230DF1270270216A
:101C300005F090F810B10BB0BDE8F08F224600958A
:101C400052F8480B2123702105F0F2F90028F2D157
:101C500094F85430039394F85F3094F84BA094F8C0
:101C600058B094F85190CDF814B01B0294F85780F6
:101C700094F8636094F94D5094F953E094F959C085
:101C800094F84C20049203F4706B4FEA0A2A03463E
:101C90004FEA09296AF30F034FEA082869F31F4343
:101CA0008146360268F30F0980462D0266F30F085D
:101CB00065F31F484FEA0E2E05464FEA0C2C6EF3D3
:101CC0000F056CF31F4594F812C094F84A1094F86D
:101CD000652094F85D70CDF818B0BCF1050F01F0E7
:101CE0000F0128BF4FF0050C120261454FEA07278C
:101CF00002F4706228BF6146079267F31F49049A95
:101D0000217509F00F27014694F8529094F864B0B9
:101D100094F84EE094F85AC062F30F0169F31F4142
:101D200003F00F23059A0B43C4F8163008F00F2672
:101D3000034694F85E8062F30F0368F31F431F436A
:101D400003466BF30F036EF31F431E43039BC4F85C
:101D50001A70C4F81E6063F30F0094F86630079A97
:101D600013432385069A94F860306CF31F4005F006
:101D70000F2505431343C4F82250E3840BB0BDE89C
:101D8000F08F00BF038A8B4204BF012380F84230EA
:101D9000704700BF2DE9F041284C294F29494FF0E9
:101DA000FF3384B000260225C4E90B33C4E90D33A8
:101DB000C4F81630C4F81A30C4F81E30C4F8223003
:101DC000C4F82630E363204B2160324629464FF0A9
:101DD00001083846C4E90373676084F82A6084F810
:101DE000406026752581A4F8418004F08DFB0A200F
:101DF00000F090FF42462946384604F085FB6427F0
:101E0000642000F087FF00972B4603AA2068ADF8F6
:101E10000C60702104F09EFF009740F688602B460E
:101E2000ADF80C0003AA2068702104F093FF40F283
:101E30000153638204B0BDE8F08100BFB00300200D
:101E40000008004890080020010005052DE9F8432E
:101E50008A4CE3680D46A3B194F842308BB9884FA1
:101E60003B780BB100233B70B4F94410B4F94660E1
:101E7000002384F8433085F82030C5E90916BDE811
:101E8000F8837E48FFF7C6FE237D94F82AE00022FF
:101E9000734584F8422084F84020C0F0C380784F16
:101EA0003A78002B00F0E280B4F91610B4F92C2037
:101EB000E07C521A002AB8BF5242824200F3C68028
:101EC000B4F93620B4F92060921B002AB8BF524200
:101ED0009042ACBF00220122B4F92060A185012B01
:101EE000E68600F08A80B4F91880B4F92EC0ACEB15
:101EF000080CBCF1000FB8BFCCF1000C6045C0F27B
:101F0000A780B4F938C0B4F92290ACEB090CBCF14D
:101F1000000FB8BFCCF1000C8445C8BF0122B4F853
:101F200022C0A4F82E80022BA4F838C065D0B4F9E2
:101F30001A80B4F930C0ACEB080CBCF1000FB8BF8C
:101F4000CCF1000C6045C0F28580B4F93AC0B4F918
:101F50002490ACEB090CBCF1000FB8BFCCF1000C25
:101F60006045B8BF0122B4F824C0A4F83080032B28
:101F7000A4F83AC041D0B4F91C80B4F932C0ACEB3B
:101F8000080CBCF1000FB8BFCCF1000C604569DB58
:101F9000B4F93CC0B4F92690ACEB090CBCF1000FCD
:101FA000B8BFCCF1000C6045B8BF0122B4F826C020
:101FB000A4F83280042BA4F83CC01ED0B4F91E80D3
:101FC000B4F934C0ACEB080CBCF1000FB8BFCCF1D5
:101FD000000C604548DBB4F93EC0B4F92890ACEB86
:101FE000090CBCF1000FB8BFCCF1000C8445C8BF90
:101FF0000122208DA4F83480E0877345387884F876
:102000002A3029D000287FF42DAF0123A4F84410F2
:10201000A4F8466084F8433085F82030C5E90916F5
:10202000BDE8F883AEEB0302154F84F84020002B87
:102030007FF43AAF002384F82A303B78B4F9441097
:10204000B4F94660002B3FF414AF0BE7012243E7DD
:10205000012264E7012286E700287FF403AF002A0B
:10206000D3D101E70122A1E70122C2E7BEF1000FAF
:10207000E0D1002A7FF4F6AEF6E600BFB003002000
:1020800008000020F0B5642385B00021C0F8D032EC
:102090000446FFF7A5FA002808DA642000F03AFEAB
:1020A00000212046FFF79CFA0028F6DB00250126D8
:1020B0002946CDE90065072302222046FFF70CFBE5
:1020C000B4F8D03200952946CDE9015504222046C6
:1020D000FFF72AFB2B463146CDE900650222204658
:1020E000FFF7FAFAB4F8D03200953146CDE9015540
:1020F00004222046FFF718FB03272B462A462946D1
:10210000CDE900662046FFF795FA2A463146CDE92B
:10211000007602232046FFF78DFA33462946022235
:1021200000952046FFF72CFBC82000F0F3FD324657
:1021300029462046FFF7A4FA324631462046FFF7EB
:102140009FFA2A4602212046FFF79AFA2A46394684
:102150002046FFF795FA2A4604212046FFF790FA19
:102160002A4605212046FFF78BFA2A4606212046FB
:10217000FFF786FA2A4607212046FFF781FA2A460A
:1021800008212046FFF77CFA2A4609212046FFF75E
:1021900077FA2A460A212046FFF772FA2A460B21CF
:1021A0002046FFF76DFA2A460C212046FFF768FA11
:1021B0002A460D212046FFF763FA2A460E212046C3
:1021C000FFF75EFA2A460F212046FFF759FAC8208A
:1021D00000F0A0FD094B0A49996100224FF07E50A2
:1021E0009A601A615861074B9A601A615861996147
:1021F00003F08CFDC4F8540305B0F0BDB007002017
:102200000000A04094070020F8B52DED048B044693
:10221000FFF7D0FA10B9BDEC048BF8BD2046FFF7EC
:10222000CBFAC4F8C8022046FFF7F6F90246C4F814
:10223000CC02002800F09F80012A00F0AB80D4E996
:10224000BC67D4E9BA01FEF787FC5F4C5F4D08EE2E
:10225000100A394684ED008A3046FEF77DFCD5ED44
:10226000028A95ED057AD5ED066A95ED049A286007
:1022700078EE878A07EE900A78EEA66A37EEC96A8A
:1022800088EEA67AA7EE069A85ED037A17EE100A75
:1022900085ED049AFEF730F902460B4600204C49C2
:1022A000FDF7CAFF064618EE900A0F46FEF724F91E
:1022B00002460B4630463946FEF776F9FEF74CFCEF
:1022C000D4ED029AD4ED057A94ED067AD4ED048A21
:1022D000A86079EEA79A38EE688A39EE877AC9EE57
:1022E000877AE7EE888AC4ED037A17EE900AC4ED88
:1022F000048AFEF701F902460B4600203449FDF737
:102300009BFF064619EE900A0F46FEF7F5F80246C7
:102310000B4630463946FEF747F9FEF71DFC2D4ABD
:102320002D4E0346A3601068FEF7E6F820A3D3E91C
:102330000023FEF739F979EE687A044617EE900A21
:102340000D46FEF7D9F802460B4620462946FEF711
:102350002BF919A3D3E90023FDF770FFFEF7FCFB6F
:10236000306002F0C1F8BDEC048B96ED000ABDE8C8
:10237000F8400DF0D1B9D4F8C802C4F8D80201224F
:102380009FED0F0B8021FFF723FAD4F8CC2284EDC8
:10239000BA0B51E7D4F8C802C4F8DC029FED080B71
:1023A0008021FFF715FA84EDBC0B57EC106B48E762
:1023B0000000000080842E410000000000E070401A
:1023C000000000000000044094070020B007002037
:1023D0000000F03F0C000020CC07002038B50A4C6C
:1023E0002046FFF7EBF8012508480949094A0A4B3E
:1023F000C4F8C452C4F81C03C4F82013C4F824233E
:10240000C4F8303338BD00BF200400200000FA4477
:102410003313954300B056456AF72B380148FFF750
:10242000D5B800BF200400202DE9F04F0020A9B04E
:102430000EF036FDDFF8E893EE4FEF4DDFF8E4A342
:10244000044648463C604BF0B1F8C0F30743C0F384
:1024500007228DF80A308DF808008DF809200299BE
:102460000022204616F010FB38680EF019FD4FF4DC
:1024700096720446DC2110F003FF204612F088FB20
:1024800048464BF093F8C0F307238DF80C00C0F3D7
:1024900007408DF80D308DF80E000399002220467C
:1024A00016F0F2FA28464BF081F8C0F307238DF8B6
:1024B0001000C0F307408DF811308DF81200049918
:1024C0002046002216F004FB20460022022116F0CE
:1024D00013FB20460022052116F082FB2046002235
:1024E000052116F0C1FA20460022052116F0C4FA93
:1024F00020460022052116F0A7FA002220460521D9
:1025000016F0AAFA102120460EF0E2FC20465CF0FC
:1025100085F8BA4980465CF08DF8002202214046D9
:1025200016F056FB28464BF041F8C0F307238DF810
:102530001400C0F307408DF815308DF8160005998A
:102540004046002216F028FB51464046002216F075
:1025500037FB052300220221404610F045FF2046AC
:102560005CF05CF8A64906465CF064F8514600222F
:10257000304616F025FB28464BF018F88DF8180069
:10258000C0F30723C0F307408DF819308DF81A0007
:102590000699DFF894A23046002216F0FDFA414673
:1025A0004FF0050800230E223046CDF8008011F0D0
:1025B000BDFE20465CF032F80222834691490FA806
:1025C00064F01CFE0FA958465CF034F828464AF027
:1025D000EDFFC0F307238DF81C00C0F307408DF812
:1025E0001D308DF81E0007995846002216F0D4FAC7
:1025F00051465846002216F0E3FA00230E223146D7
:102600005846CDF8008011F091FE20465CF006F8A7
:102610007D4906465CF00EF828464AF0C7FFC0F335
:1026200007238DF82000C0F307408DF821308DF886
:10263000220008993046002216F0AEFA5146304684
:10264000002216F0BDFA00230E2259463046CDF87E
:10265000008011F06BFE20465BF0E0FF6B49834683
:102660005BF0E8FF28464AF0A1FFC0F307238DF88E
:102670002400C0F307408DF825308DF82600099915
:102680005846002216F088FA51465846002216F0A5
:1026900097FA0E22002331465846CDF8008011F0FB
:1026A00045FE204646F052FE6421064646F05AFE9C
:1026B00028464AF07BFFC0F307238DF82800C0F3BB
:1026C00007408DF829308DF82A000A99304646F0E7
:1026D00069FE48464AF06AFFC0F307238DF82C00D4
:1026E000C0F307408DF82D308DF82E000B99304641
:1026F00046F062FE46492522304646F06BFE1E2318
:1027000000220921304610F06FFE20465BF086FF64
:10271000404981465BF08EFF28464AF047FFC0F3F0
:1027200007238DF83000C0F307408DF831308DF865
:1027300032000C994846002216F02EFA51464846BF
:10274000002216F03DFA31460026334648460E2256
:10275000009611F0EBFD204655F010F828221146A6
:10276000044610F08DFD28464AF020FFC0F30723F1
:102770008DF83400C0F307408DF835308DF8360001
:102780000D993246204616F07FF9324641462046E2
:1027900016F026FA334632460421204610F024FE75
:1027A00020465BF03BFF1C4905465BF043FF284693
:1027B00012F0EEF96FF07F404AF0F8FE0346C3F3E3
:1027C0000722C3F307438DF838008DF839208DF8C0
:1027D0003A300E992846324616F0DEF90F49334654
:1027E0000A2220460FF092FF38460EF065FF386847
:1027F00029B01BE0D00700204F4536006895060839
:1028000090950608A0950608B4950608CC9506088C
:10281000E49506080C960608289606083D4400082C
:10282000D0EAF0007CD306089CA60608BDE8F08F2D
:102830001C4A1D4813780BB903788BB330B587B0A9
:10284000002101240DF11703642502958DF817105E
:102850001170CDE900343022017023461348A621BF
:1028600004F09CFD9DF81720D00604D51048114BAC
:10287000047002211970110705D50F480D4B012472
:10288000032104701970930608D50C4A0C4913787B
:10289000B3FA83F301205B090870137007B030BDF1
:1028A000704700BFD6070020D50700209008002001
:1028B000D8070020EC070020D7070020D40700200D
:1028C000D907002070B5434EBEB00124642509AB82
:1028D0000093CDE9014523460022A621304604F0AD
:1028E0005DFD0DF125038DE838001D222346A6214C
:1028F000304604F053FD0DF126038DE83800212207
:102900002346A621304604F049FD0DF127038DE84A
:10291000380022222346A621304604F03FFD0AABB0
:102920008DE838002A222346A621304604F036FDE1
:102930000DF129038DE838002D222346A6213046CB
:1029400004F02CFD0DF12A038DE838002E222346D9
:10295000A621304604F022FD0DF12B038DE838004E
:102960002F222346A621304604F018FD0BAB8DE83C
:10297000380030222346A621304604F00FFD9DF892
:102980002C009DF82B30144ACDE906309DF82A30F2
:1029900005939DF8293004939DF8283003939DF802
:1029A000273002939DF8263001939DF8253000933F
:1029B000C8219DF824300CA864F0EAFB0CA8FDF7B0
:1029C0002FFC02462B4692B20CA9044808F03CFEAC
:1029D0003EB070BD900800202C960608901500208F
:1029E0002DE9F043604D89B0012464260DF11303F5
:1029F000282200938DF813202346CDE901462D228D
:102A0000A621284604F0CEFB10238DF81530502364
:102A10008DF81630F0238DF8173005AB4FF01809FC
:102A20000093CDE9014623461D22A62128468DF8B4
:102A300014908DF8184004F0B5FB0DF115030093C8
:102A4000CDE9014623462122A621284604F0AAFB0F
:102A50000DF116030093CDE9014623462222A6215B
:102A6000284604F09FFB0DF117030093CDE90146C2
:102A700023462322A621284604F094FB0DEB0903EC
:102A80000093CDE9014623462A22A621284604F0D8
:102A900089FB0DF11903009303238DF81A30FF23EE
:102AA0004FF0300878278DF81C30CDE901462346D9
:102AB0002422A62128468DF819808DF81B7004F079
:102AC00071FB0DF11A030093CDE90146234625223F
:102AD000A621284604F066FB0DF11B030093CDE907
:102AE000014623462622A621284604F05BFB07ABBD
:102AF0000093CDE9014623462722A621284604F06B
:102B000051FB0DF11D03009338238DF81D30CDE9E5
:102B1000014623462E22A621284604F043FB0DF150
:102B20001E030093CDE9014623462F22A621284605
:102B30008DF81E9004F036FB0DF11F030021424674
:102B4000CDE900348DF81F102346A62102962846B1
:102B500004F024FCFFF7B6FE044A054B14701F7006
:102B600009B0BDE8F08300BF90080020DB0700201B
:102B7000DA07002010B50B4C0FCC88B00DF1040C17
:102B8000ACE80F0094E80700ACE803002CF8022B37
:102B9000130C8CF800300CF0FBF901A80BF08CFE44
:102BA00008B010BDA8940608704700BF4368B3F88A
:102BB0000B30B3F5124F00D0704730B589B00446E2
:102BC00068460BF097FE0023CDE90433CDE90633C8
:102BD0006268557B25B1012D08BF237009B030BD57
:102BE000FFF7C8FF0F210C4B8DF810107F228DF8D6
:102BF00012201A681B68120CC3F30B0304A8ADF86B
:102C00001C20ADF81E300BF067FE0CF06BFA294665
:102C100001200DF065F9E1E7002004E008B50B4B59
:102C20004FF400421A6100200CF0D8F968B14FF05F
:102C3000B042074B8179C2F89C30D2F89C3023F423
:102C40007C5343EA0123C2F89C3008BD0040005881
:102C5000FECAFECA10B52449244BD1F89020CA24DC
:102C600042F05002532088B0C1F890205C62586254
:102C70009A681F4C4FF0B04122F00702FF209A6083
:102C800058628B6843F400438B600DF01FF9194ABA
:102C90001949D2F8803023F0070343F00403C2F847
:102CA0008030002000F09EFA0CF074F8134A0021E6
:102CB0004FF400700DF02EF9114A124B124869467C
:102CC000CDE900230BF086FF1049114A40F23C5336
:102CD00002A8CDE90241CDE904230CF02BF90CF058
:102CE00057F808B010BD00BF000800580028004089
:102CF000F801032000040058A013002041EC000854
:102D000010040320A92B0008AD2B000804030320A6
:102D10001C05032070B5054602F0F8FF6B1C064643
:102D200002D002F0FFFF0544064C04E0236923F0C3
:102D30000403236130BF02F0E9FF801BA842F5D3F2
:102D400070BD00BF00ED00E04FF0FF300DF038B96E
:102D5000704700BF00214FF400700DF0F3B800BFC2
:102D600002200DF01DB900BF02200DF0C5B900BF53
:102D700010B5064C0021204607F0ECFD0449054A39
:102D8000206800230B704363136010BD44150020BE
:102D9000EC070020E8070020204B1B78032B07D806
:102DA000DFE803F0281F16021D4B1B68002B2FD0F5
:102DB0001C4B1A681C490B68934208D023DA013374
:102DC000934223DC1A4619480B6003685A63704724
:102DD000134B1B68002BEBD1154A124B12681A607B
:102DE000E8E70F4B1B68002BE2D1124A0D4B12682B
:102DF0001A60DFE70A4B1B68002BD9D10E4A094B3A
:102E000012681A60D6E7013B9342DBDA1346DAE731
:102E10000A4A044B12681A60CCE700BFEC07002096
:102E2000E8070020E0070020E40700204415002008
:102E3000100000201400002018000020DC070020F3
:102E400010B54FF0B04382B0986C40F00400986425
:102E50009C6C04F004040194019C9C6C44F00104FB
:102E60009C649B6C002203F00103009311460B202D
:102E7000009B02F06FFF0B2002B0BDE8104002F093
:102E8000A5BF00BF2DE9F04700248AB0CDE9044476
:102E9000CDE906444FF0B0430894DA6C564F574ED4
:102EA00042F00402DA64DA6C02F004020392039A3C
:102EB000DA6C42F00202DA64DA6C02F00202029288
:102EC000029ADA6C42F00102DA64DB6C03F001036F
:102ED0000193384601220221019B03F015FB224693
:102EE00016214FF0904003F00FFB2246304641F28E
:102EF000240103F009FB012501224FF4041304A966
:102F00003846CDE904234FF00209069503F05AF93B
:102F100004A938464FF00608CDE905540794CDF8CA
:102F2000109003F04FF904A94FF09040CDE90554FB
:102F30000794CDF8108003F045F910230DEB030141
:102F40004FF0030A4FF090400493CDE90554CDF8BB
:102F50001CA003F037F9242304A930460493CDE9DB
:102F60000554079403F02EF904A9304601220023EA
:102F7000CDE90423069403F025F9102204A9304674
:102F80000023CDE90423069403F01CF930464FF4E6
:102F9000805304A90493CDE90554CDF81CA003F097
:102FA00011F904A94FF480624FF404134FF09040DC
:102FB000CDE90423069503F005F94FF4881304A91D
:102FC00038464FF4C052CDE90423CDF8189003F0F1
:102FD000F9F822462146404602F0BCFE404602F087
:102FE000F5FE22462146282002F0B4FE282002F0F9
:102FF000EDFE0AB0BDE8F087000800480004004874
:103000002DE9F8436C4B6D4D9B682E68590500F116
:103010008A80B3686A4A6B4F6B4C23F48063B36059
:10302000137803EB430107EBC101DAB2D1F8088052
:10303000216801314FEA430300F09280DFF878E124
:10304000DEF82800DEF8281080B289B2884206D067
:10305000DEF828C008461FFA8CF18142F8D12168B9
:10306000814268D25949D4F800C009886144081ADD
:103070005749097801FB00F056490978C84081B2E8
:10308000884580F0958054484FF0010C062A80F85E
:1030900000C018BF002051D04FF0000C06E0C3F86C
:1030A00008C05B7D062BDAB20DD05300134407EB4A
:1030B000C3039A688A42F2D39A68521A9A605B7D77
:1030C000062BDAB2F1D1002838D001286AD00138B5
:1030D00087B2F3685B07FCD5F368DBB263F49063F7
:1030E000F3603E4B4FF40022DA60032002F0B6FE9C
:1030F000314843696FF30F033B434361826A836A3C
:1031000092B29BB29A4204D0816A1A468BB2934221
:10311000FAD1296822608B6843F480638B60AFF337
:103120000080BDE8F883F3685A077FF572AFF36853
:103130005A07F8D46DE72168081A99E71E48826A91
:10314000836A92B29BB29A4204D0816A1A468BB2C9
:103150009342FAD122600320BDE8F84302F070BE2A
:103160004FF0000E71467046DFF87490B9F800C059
:103170001EFA8CFCC4450BD2B9F80000DFF858C029
:103180004FF0000E80B28CF800E0062A84D19AE756
:10319000DFF844C0A8EB00004FF0010E80B28CF8BD
:1031A00000E0F2E70B4B1B78012B90D1074690E72C
:1031B00008468E46D8E700BF00280040A013002034
:1031C000FD07002000080020F8070020F00700207D
:1031D000F2070020F3070020F40700200008005841
:1031E000EE070020F8B5474C474B2268474DCA21EF
:1031F000516253215162996841F0200199609968A8
:1032000001F00701C1F10401C9B229701B694FF433
:10321000FE0595FAA5F5002D71D0B5FA85F503F4F4
:10322000FE03EB400133DBB21D46394E3370364BA3
:103230001B69C3F30E0C634605FB03F3A3F5A073F0
:10324000CB4034490CF1010CA1F800C04FF6FE71DF
:103250008B4248D9304B4FF6FF7119802F4B1968BC
:1032600041F400211960D3F8801041F40021C3F823
:10327000801000283BD12A4F2A492B4E2B4D4FF06E
:10328000010C87F800C04FF0FF373760087381F8F2
:10329000240081F83C0081F8540081F86C0081F82A
:1032A000840006212970916821F480619160D168C1
:1032B000C9B261F490614FF40025D1600320DD6054
:1032C00002F0CCFD2268936843F480439360FF23AF
:1032D000032153620846002202F03CFDBDE8F8409D
:1032E000032002F073BD0C499BB20B80B6E7D36894
:1032F0005B05ECD5032002F0A3FD2268E7E701257A
:103300002B4692E7A013002000280040F30700207E
:10331000F2070020F0070020EE0700200008005808
:10332000F407002000080020F8070020FD07002017
:10333000F0B5EFF3108672B61F4C257B95B194F86B
:10334000245025B394F83C502DB394F8545035B321
:1033500094F86C503DB394F8845045B386F31088CC
:103360000120F0BD05F0FF0EF4460CEB4C0C04EB15
:10337000CC0501274FEACC0C2F7386F31088286107
:103380006A73002044F80C3081F800E0F0BD4FF083
:10339000010EF446E9E74FF0020EF446E5E74FF080
:1033A000030EF446E1E74FF0040EF446DDE74FF07C
:1033B000050EF446D9E700BF000800202DE9F041D2
:1033C0000446EFF3108572B63D4E032002F00CFD6B
:1033D00030683C49CA23436204EB4403532201EBA7
:1033E000C30342621A7B022A08D0FF2343620320F0
:1033F00002F0ECFC85F31088BDE8F081324A1778C2
:10340000BC424FEA440C30D093F814E093F8158096
:103410005F7D0EEB4E0E01EBCE0EFFB2B8F1060F44
:103420008EF815705FFA88FE07D01B7D0EEB4E0EEE
:1034300001EBCE0EDBB28EF81430A44401EBCC03CA
:10344000012119731378062B03D1204B4FF0FF3164
:1034500019601378062BDAB211D01D4B1B789342FA
:10346000C3D0FFF7CDFD3068BFE71778DFF860E025
:10347000FFB28EF800705B7DDBB21370DDE7154B99
:103480009B68590514D4836823F480638360C36800
:103490005B07FCD5C368104ADBB263F49063C3607A
:1034A0004FF400230320D36002F0D8FC30689CE77F
:1034B000C3685A07E7D5C3685A07F9D4E3E700BFE2
:1034C000A013002000080020FD070020F8070020BE
:1034D000FC07002000280040000800582DE9F047B4
:1034E000894D00EB400305EBC30306461B7B022B13
:1034F00089464FEA400700F0D280EFF3108472B69D
:10350000DFF81C82032002F06FFCD8F800107F481F
:10351000CA22BB194A6205EBC30353224A62022244
:103520001A73C3F80890C3F804900278062A5FFA69
:1035300082FC24D10278DFF8EC91D2B289F8002025
:10354000067083F815C0724B4FF0FF321A604FF0CF
:10355000000E037899F800209A4240F09B8037448F
:1035600005EBC7008368A3EB0E038360FF234B6268
:10357000032002F02BFC84F31088BDE8F087DFF80D
:1035800090E1DEF80030013300F0B380DFF898C13D
:10359000DCF82820DCF8283092B29BB29A4205D0A1
:1035A0001A46DCF828309BB29342F9D1DEF800309D
:1035B0009A4277D9574BDEF800C01B8863449A1AA9
:1035C000554B93F800E0554B1B7802FB0EFE2EFA8C
:1035D00003FE1FFA8EFEBA1905EBC202936873440C
:1035E0009360D2F80890037803EB430305EBC30321
:1035F0009B6899455AD3037803EB430205EBC2025B
:103600005FFA83FC92F815A0BAF1060F4FEA430265
:103610005FFA8AF311D11BE09AF8153003EB4302ED
:1036200005EBC2025FFA83FC92F815A0BAF1060F0F
:103630004FEA43025FFA8AF30AD003EB430305EB38
:10364000C30302EB0C0A9B68994505EBCA0AE3D257
:1036500002EB0C0305EBC3035B7D062B5FFA83F9DA
:1036600004D009EB490305EBC3031E7502EB0C0301
:10367000BA1905EBC20205EBC30382F81590DFF817
:10368000A49082F814C05E75037899F800209A42DD
:103690003FF465AFFFF7B4FCD8F8001066E7FFF71A
:1036A0008DFE2AE7DEF800309A1A89E790F800C00C
:1036B00090F80090CC455FFA8CF31DD003EB4309E2
:1036C00005EBC90999F814C00CEB4C0A05EBCA0AC2
:1036D0005FFA8CFC8AF81560537582F814C089F87B
:1036E00014600378DFF83C90DBB289F80030067094
:1036F0002FE74FF0000E6EE7537503EB430305EB26
:10370000C3031E75EDE700BF00080020FD07002081
:10371000F8070020F0070020F2070020F307002040
:10372000A0130020FC07002000280040104700BF25
:103730002DE9F84FEFF3108872B6464C46482368DF
:10374000464DCA2753265F625E629A6822F4806201
:103750009A60027802EB420105EBC10C9CF80CA0C8
:10376000BAF1020F12D0DA685207FCD5DA683C4988
:10377000D2B262F49062DA604FF40023CB6088F337
:1037800010882368FF225A62BDE8F88F354B4FEA54
:10379000C10E55F80EB0DCF810A01B78002B46D0F7
:1037A0009CF80D30012B5FFA82F911D088F3108854
:1037B0004846FFF703FE23685F625E625A46494649
:1037C0005046FFF7B3FF2368FF225A62BDE8F88F27
:1037D000037899454FEA420132D09CF814309CF8A6
:1037E00015609CF8152003EB430305EBC303D2B22D
:1037F000062E5A75F3B207D09CF8142003EB43034E
:1038000005EBC303D2B21A7501EB090205EBC20541
:1038100001232B73037888F3108869684846FFF703
:103820005DFE2368CA225A6253225A62C6E7FFF736
:10383000E7FB88F310882368FF225A62BDE8F88FFF
:103840000378094ADBB213709CF81530DBB20370C1
:10385000DAE700BFA0130020FD07002000080020C9
:1038600000080058F4070020FC07002010B5184895
:10387000184C194900230122C0E90041C0E9023275
:10388000C0E90433C0E90633036203F009FA50B912
:103890000F48002103F080FE68B90D48002103F0B5
:1038A000A5FE80B910BD00F0C7FB0948002103F058
:1038B00073FE0028F1D000F0BFFB0548002103F0A3
:1038C00095FE0028EED0BDE8104000F0B5BB00BF6B
:1038D0009008002000540040B57DB11000000000A9
:1038E00010B504469CB00021502208A8CDE9021171
:1038F000CDE90411069163F000FD1D4B22689A4248
:1039000001D01CB010BD04224FF4403308A8089227
:10391000109305F003FD18BB4FF0B0449FED127BF0
:10392000E36C144843F00203E364E36C03F0020326
:1039300001930423019A06930022002302A9CDE9F2
:1039400004238DED027B02F03DFCA36D43F40013D4
:10395000A365A36D03F400130093009B1CB010BD7E
:1039600000F06AFBD8E700BF00030000120000006F
:103970000054004000040048054808B5054B0360AA
:1039800003F064FE00B908BDBDE8084000F054BB78
:10399000E4080020000C0058124B02689A4200D044
:1039A000704700B54FF0B04383B0186D40F48010FD
:1039B00018651B6D002203F48013114601932C201F
:1039C000019B02F0C7F92C2002F000FA00221146F8
:1039D0002D2002F0BFF92D2003B05DF804EB02F0BA
:1039E000F5B900BF000C00582DE9F843DDF8209030
:1039F0001C480E46174698460468002CFCD11A4D08
:103A00004FF4E0632846EB6006F080F9224604217B
:103A10004FF0904002F078FD224610214FF0904088
:103A200002F072FDBAB231464FF48053284606F0D8
:103A3000E9F908B1BDE8F883012204214FF0904074
:103A400002F062FD1FFA89F241464FF48053284686
:103A500006F0D8F9BDE8F843012210214FF090405C
:103A600002F052BD38090020901400202DE9F047E3
:103A7000DDF820A01A4D0F46904699462C68002C80
:103A8000FCD1184E4FF4E0633046F36006F03EF987
:103A9000224604214FF0904002F036FD22461021CC
:103AA0004FF0904002F030FD1FFA88F239464FF493
:103AB0008053304606F0A6F908B1BDE8F087012230
:103AC00004214FF0904002F01FFD01231FFA8AF2FB
:103AD000494630462B60BDE8F04706F0ABBC00BF5E
:103AE000380900209014002008B5012202214FF06F
:103AF000904002F009FD0120FFF70CF9002202219D
:103B00004FF0904002F000FD0A20FFF703F9012278
:103B100002214FF0904002F0F7FC7820FFF7FAF80E
:103B2000012210214FF0904002F0EEFC012204210E
:103B30004FF0904002F0E8FC002008BD184B0268EE
:103B40009A4200D0704730B4164B1B78242B10D00B
:103B500015490A78BAB1154C154D22880A2BAB5479
:103B600002D12B78242B13D0FD2A0CD8013292B22B
:103B700008E00D4C0F490122227000240C700C4902
:103B80000A4C0B70228030BC0649012207F040BE6F
:103B900015440023074C0B706B7001232370F2E770
:103BA0000038014049090020200900202209002096
:103BB0004C0A002048090020284B834200D070475F
:103BC00010B5274C27482268274B01322260216814
:103BD000264A00FB0133B2EB730F2ED8244BD3F8E7
:103BE000C42222B1D3F8C422013AC3F8C422214A24
:103BF00013680BB1013B136023681F4923681F4AF8
:103C000001FB03F303F5511303F53753B2EB331FF5
:103C100012D31B491B4B0A681B481A604FF0010C5A
:103C200000221A4B0A6080F800C022601A781AB18C
:103C30001A78013AD2B21A7010BD012052F0A8F8D9
:103C40001348144B2168144A00FB0133B2EBF30F05
:103C5000C4D3124B01221A60C0E700BFF814002041
:103C600034090020CDCCCCCC9899991999999919FF
:103C7000200400204C0B0020917EFB3AB88D0600FA
:103C80002C0900202809002024090020DA07002040
:103C9000295C8FC250B81E0514AE470130090020C0
:103CA00008B5094B834200D008BD012210214FF016
:103CB000904002F029FC054B054900221A60086873
:103CC000BDE8084017F044B99014002038090020DE
:103CD0003C090020044B02689A4200D07047034B15
:103CE00001221A60704700BF0038014044090020DB
:103CF000B0F5006F01460BD0B0F5805F04D001280D
:103D00000AD10948FEF73EB8084B01221A707047E5
:103D1000074B01221A707047B0F5806F02D1054B36
:103D200001221A60704700BFB0030020D5070020B1
:103D3000D60700209007002010B59CB00024482230
:103D400000210AA863F0D9FACDE90244CDE9044480
:103D5000CDE90644089404F095FC4FF0B0422721C9
:103D6000D2F8903023F0180343F01003C2F89030DB
:103D7000D2F8003423F4C06343F40073C2F8003473
:103D8000D2F8003412944FF48032CDE90A1203F4D1
:103D9000C063402201934FF4807101230E920222EE
:103DA000CDE90C31159260212022119313911693C5
:103DB0004FF0005118924FF000734FF400320AA8F0
:103DC0001794CDE91923019C1B9104F023FD08B140
:103DD00072B6FEE79FED0A7B034603216F2202A81D
:103DE0008DED067BCDE9031302920593089305F050
:103DF00067F808B172B6FEE705F07CFC1CB010BD98
:103E0000000000008000000010B594B040220021A6
:103E100001A863F072FA4FF440544FF4804102223B
:103E200010236846CDE911120094139305F076FA39
:103E300008B172B6FEE714B010BD00BF2DE980488E
:103E400083B001F03FFFFFF777FFFFF7DDFFFEF7DD
:103E5000E5FEFFF791FDFFF715F8FEF7F1FF01F022
:103E6000F5FAFFF703FD01F05DFB01F081FB01F0C6
:103E700023FD01F0D9FD01F089FD01F0A9FA01F05F
:103E8000A9FA6420FEF746FF0BF060FD6420FEF700
:103E900041FF544806F0C8FC00221146192001F0E9
:103EA00059FF192001F092FFFEF7D4FEFEF798FDAE
:103EB0004D48FEF7E7F8FDF76DFFFDF737FE47F0D9
:103EC000EBFBFFF711FED0B9484A494B009204467C
:103ED00002464FF4A071F0203FF0A8FA454D0221B0
:103EE000286017F0F1FA28681B2117F007F82868F6
:103EF000414A424900944FF4164316F075FF40487A
:103F0000404C414E414DDFF82881DFF828B1404F49
:103F1000DFF8D4A051F0C0FF3FF058FF012120602E
:103F20003FF098FF3B4920683B4C3FF09BFF00204F
:103F300001F012FEFEF71CFF0FCC0FC630462368BF
:103F400000F81039FCF76CF9A6F1100182B2334881
:103F5000334C07F007FC33493048012207F058FC86
:103F6000A6F11009304E236801332360FEF7ECFE02
:103F70002B78002203B12A70FEF75AFCFEF70CFFE3
:103F80005046FEF741F998F80030ABB93B683BB1B9
:103F90003368002BE7D0002333604CF093FDE2E759
:103FA00014233B600BF0B2FB3368002BDBD0002303
:103FB00033604CF087FDD6E7002388F80030DBF84B
:103FC00000301A4A4021484663F0E2F84846FCF7C0
:103FD00027F902461E2392B24946104807F034FBE7
:103FE000D4E700BFF8140020200400206D3A000838
:103FF000E93900083C0900205C1600205CAC002078
:104000000D5D0008400900204C09002048090020EF
:104010004C0B00204D1E00088496060890150020C9
:104020002C09002049090020300900209896060834
:10403000240900202809002072B6FEE708B50BF01D
:1040400041FABDE80840002001F086BD022001F0E1
:1040500083BD00BF002001F07FBD00BF2DE9F04F00
:1040600000208FB00CF01CFFE74FE84D38600221B4
:104070000CF02EFF3868DFF8B483DFF8B4A3DFF864
:10408000B49310210CF024FF38680022FF2114F0B3
:104090000FFD28463C6849F089FAC0F307238DF8E4
:1040A0000800C0F307408DF809308DF80A0000229F
:1040B0000299204614F0E8FC3868D54C0CF0F0FE6C
:1040C000022120600CF004FF206810210CF000FF9A
:1040D000386826680FF05CFAA0F1140130460FF042
:1040E000FBF820686FF040410FF010F920680022C3
:1040F000022114F001FD4046266849F057FA0346B4
:10410000C3F30722C3F307438DF80E308DF80C007C
:104110008DF80D2003993046002214F0D9FC284672
:10412000256849F043FA0346C3F30722C3F3074364
:104130008DF812308DF810008DF811200499284662
:10414000002214F0A1FC20680022052114F048FD93
:104150002568002228460A2114F086FC2846002201
:104160000A2114F089FC284600220A2114F06CFC74
:10417000284600220A2114F06FFC00231A4620680A
:1041800009210FF031F9206853F0F8FA322206467F
:10419000B4210FF075F800220821304614F020FDFC
:1041A000404649F003FAC0F307238DF81400C0F32A
:1041B00007408DF815308DF816000599304600221D
:1041C00014F062FC00220A21304614F09DFC00200D
:1041D00049F0ECF9C0F307238DF81800C0F307404D
:1041E0008DF819308DF81A0006993046002214F027
:1041F00093FC00224C21304614F0A2FC504649F0BA
:10420000D5F98DF81C00C0F30723C0F307408DF8E3
:104210001D308DF81E0007993046202214F034FC22
:1042200000231A46304602210FF0DEF800230A224E
:10423000784930460EF06AFA30465AF0EFF976497E
:1042400005465AF0F7F949460022284614F0B8FC12
:10425000284610F09DFC206853F090FA3222054663
:10426000B4210FF00DF800220821284614F0B8FC04
:10427000404649F09BF9C0F307238DF82000C0F3B6
:1042800007408DF821308DF8220008992846002239
:1042900014F0FAFB00220A21284614F035FC002015
:1042A00049F084F9C0F307238DF82400C0F30740D8
:1042B0008DF825308DF8260009992846002214F043
:1042C0002BFC00224C21284614F03AFC504649F0C1
:1042D0006DF98DF82800C0F30723C0F307408DF86F
:1042E00029308DF82A000A992846202214F0CCFBA8
:1042F00031460F262846009600230E2210F016F8AD
:1043000000230A22454928460EF000FA28465AF0B2
:1043100085F9434983465AF08DF9494600225846AB
:1043200014F04EFC584610F033FC206853F026FA87
:1043300032220446B4210EF0A3FF002208212046B9
:1043400014F04EFC404649F031F9C0F307238DF8D4
:104350002C00C0F307408DF82D308DF82E000B99FE
:104360002046002214F090FB00220A21204614F07F
:10437000CBFB002049F01AF9C0F307238DF8300079
:10438000C0F307408DF831308DF832000C9920468B
:10439000002214F0C1FB00224C21204614F0D0FB77
:1043A000504649F003F98DF83400C0F30723C0F3F9
:1043B00007408DF835308DF836000D9920462022C3
:1043C00014F062FB29462046009600230E220FF0CF
:1043D000ADFF00230A22134920460EF097F920462C
:1043E0005AF01CF9104904465AF024F900224946B3
:1043F000204614F0E5FB204610F0CAFB38460DF0CD
:104400005BF938680FB017E0540B0020D0EAF000D9
:10441000500B00204D400008AC960608554000089F
:10442000B49606083D400008BC9606084F45360085
:10443000D27619007CD30608BDE8F08F012001F088
:104440008BBB00BF0B4B1B6893B110B590B00446FB
:10445000402168460BF072F86946074862F086FE14
:1044600020464CF0ADFB69465AF0E4F810B010BDA0
:10447000704700BF48130020CC960608164B1B68F7
:1044800043B370B58AB00446FDF798FB0546FDF7C7
:10449000AFFB064620464CF093FB044666B902AEDD
:1044A0000E4A2B462021304662F072FE31462046ED
:1044B0005AF0C0F80AB070BD02AE094B094A009527
:1044C0002021304662F064FE314620465AF0B2F8B0
:1044D0000AB070BD704700BF48130020E896060878
:1044E000DC960608E09606086B4B1B68002B77D01D
:1044F0006A4BF0B5D3ED007A694D6A4B2A68FDEE40
:10450000E77A2DED048B17EE904A944283B0C3ED09
:10451000007A61D0F8EEE77A9FED637AF4EEC77A1D
:10452000F1EE10FA5DD59FED619A4FF48074F0EED4
:10453000490A1C6062260027B3EE058AB0EE480ADD
:104540009FED5B2ADFED5B1A9FED5B1A2C6001A9E2
:10455000684601F03FFBDDED007A584C5849594B55
:1045600020684F60F4EEC87AF1EE10FA8CBFF0EEDE
:10457000488AF0EE678A38EE688A77EEE87ABDEE10
:10458000C88AFDEEE77A022281ED008AC1ED027A47
:10459000CE6001935AF062FF206814F073FE054666
:1045A0000EF060FF08EE100A28460EF087FF07EEB7
:1045B000900AF8EEE77AB8EEC88A39EE679A78EE94
:1045C000C88AFDEEC97A206817EE902AFDEEE87AD7
:1045D00017EE901A0EF0F4FD03B0BDEC048BF0BDA5
:1045E00070479FED397AF4EEC77AF1EE10FA0BDDE1
:1045F0009FED2E9A9FED358A4FF48E74F0EE490AA6
:104600001C606226002799E72046FBF763FF20A382
:10461000D3E90023FBF7C8FFFCF79EFA08EE900AE7
:10462000B0EE680A61F0F2FA9FED299ADFED227A86
:10463000E0EE097AB0EE670A61F072FBB0EE408AF4
:10464000B0EE680A61F026FBDFED227AE0EE097A2F
:10465000B0EE670A61F064FBDFED1F7AB4EEE70AA3
:10466000F1EE10FA8CBFB0EE679AB0EE409A30EEE1
:10467000497A77EEC97ABDEEC77AFDEEE77A17EE92
:10468000107A17EE906AF0EE400A57E7AFF3008019
:10469000399D52A246DF913F48130020CC070020ED
:1046A000680B00206C0B0020000080430000784263
:1046B0000000C842000048430000F0425C130020A4
:1046C000580B00200000204300008E4300005B4395
:1046D0000000CD430000E643000020432DE9F041F7
:1046E0008F4E904C3068904F94B00CF0D9FB022163
:1046F00020600CF0EDFB102120680CF0E9FB306825
:1047000025680EF045FF011F28460EF0E5FD2068E4
:104710006FF040410EF0FAFD00220221206814F0F3
:10472000EBF98248256848F041FFC0F307238DF874
:104730000800C0F307408DF809308DF80A0002998F
:104740002846002214F0C4F920680022052114F044
:1047500047FA256800222846032114F085F92846E7
:104760000022032114F088F928460022032114F0C6
:104770006BF900220321284614F06EF96B48256876
:1047800048F014FFC0F307238DF80C00C0F3074076
:104790008DF80D308DF80E0003992846002214F094
:1047A00073F90223194600222068614D0EF01CFEA9
:1047B000206859F033FF022128600CF089FB28683B
:1047C00010210CF085FB5B49286859F033FF6FF02E
:1047D0004042114628680EF053FD2868002203214C
:1047E00014F0F6F9002328681A4608210EF0FCFDA3
:1047F0003868002800F0818029684CF0D3F93D68C2
:104800003368C3B1FDF7DAF90746FDF7F1F98046E1
:1048100028464CF0D5F90546B8F1000F63D10DF1EB
:104820001008454A3B462021404662F0B1FC414613
:10483000284659F0FFFE2068404D414F59F0EEFEEA
:10484000022128600CF044FB286810210CF040FB8A
:104850003C49286859F0EEFE6FF040421146286846
:104860000EF00EFD28680022032114F0B1F9002398
:1048700028681A4609210EF0B7FD3868002845D08F
:1048800029684CF08FF93D6833686BB1402104A86A
:104890000AF054FE04A92C4862F068FC28464CF04B
:1048A0008FF904A959F0C6FE2068284C59F0B6FECD
:1048B000022120600CF00CFB206810210CF008FB9A
:1048C0002068234959F0B6FE6FF040422068114637
:1048D0000EF0D6FC002320681A46072114B0BDE86C
:1048E000F0410EF081BD0DF110081A4B1A4A0097E5
:1048F0002021404662F04CFC99E72A6817484FF4A3
:104900007A714CF0F1F80546386079E72A68144866
:104910004FF47A714CF0E8F805463860B4E700BF10
:10492000481300206C13002044130020D0EAF0004C
:104930008013002000970608E89606087C130020E4
:104940004013002008970608CC9606088413002020
:10495000F8960608DC960608E09606087D440008EE
:1049600045440008000000002DE9F0472DED0C8BB8
:10497000834CDFF854A22068824D9FED83DA9FEDCF
:10498000838A9FED83CADFED83BA9FED83BADFEDA3
:1049900083AA9FED83AA88B00CF082FA0221CAF89C
:1049A00000000CF095FA1021DAF800000CF090FAF3
:1049B0002068DAF800400EF0EBFD011F20460EF0F3
:1049C0008BFCDAF8000082210EF0A0FC002202210C
:1049D000DAF8000014F090F87248DAF8004048F075
:1049E000E5FDC0F30743C0F307228DF80E308DF8C4
:1049F0000C008DF80D2020460399002214F068F871
:104A0000DAF800000022052114F0EAF8DAF8004094
:104A100000221146204614F027F8002211462046B5
:104A200014F02AF800221146204614F00DF8002256
:104A30001146204614F010F85B48DAF8004048F0C0
:104A4000B5FDC0F30743C0F307228DF810008DF8C1
:104A500011208DF8123020460499002214F014F829
:104A600002231946DAF8000000220EF0BDFC4F4B7D
:104A700002241968009400230E22DAF800000FF0D7
:104A800055FCDAF800000FF069FFDAF800000EF0CC
:104A9000E9FC09EE900ADAF800000EF00FFD09EECD
:104AA000100ADAF8000059F0B9FD214628600CF030
:104AB0000FFA286810210CF00BFA28683C4959F0CD
:104AC000B9FD28682146002214F082F86FF04042B8
:104AD000286811460EF0D4FB0523002221462868E1
:104AE000344D0EF081FCDAF8000059F097FD2146B4
:104AF00028600CF0EDF9286810210CF0E9F928681D
:104B00002D4959F097FD28682146002214F060F8DD
:104B10006FF04042286811460EF0B2FB0A2364226F
:104B200021462868254D0EF05FFCDAF8000059F0A8
:104B300075FD214628600CF0CBF9286810210CF097
:104B4000C7F928681C4959F075FD286821460022DC
:104B500014F03EF86FF04042286811460EF090FBCA
:104B60002868174D21460A236FF063020EF03CFCC3
:104B7000144CF8EEE99AB8EEC99A4FF000084EE0EE
:104B800048130020541300204D6578BF62BA77BEE9
:104B90000000CD430000C9430000F0420000E6439E
:104BA000000048434F453600D0EAF0006C13002067
:104BB0000C97060850130020109706084C1300208D
:104BC000700B0020AC110020581300203333333F0A
:104BD0000000804307EE908A5FED046A1FED047ABF
:104BE000F8EEE77AA7EEA67A17EE100AFBF784FC38
:104BF00093A3D3E90023FBF7D7FCFBF7ADFF08EE47
:104C0000100AB0EE480A61F001F8F0EE407AB0EE1A
:104C1000480AB0EE678A61F03DF8B0EE40DA824BA8
:104C200003FB08F3B3F1333F8CBFF0EE6BDAF0EE29
:104C30004CDAB0EE4B0AF0EE007AADEE880A08F1DD
:104C40000108F2EE04CA88BFF0EE67CA61F068F8A6
:104C5000F0EE408AB0EE6A0AADEE8D0A61F060F8BF
:104C6000B0EE6C2AF0EE400A9FED701AF0EE4A1A90
:104C7000B0EE408A07A9B0EE680A06A800F0AAFFC5
:104C80009DED067ADDED077ADAF80000B4EEE87AF9
:104C9000F1EE10FAF4EEC87A8CBFF0EE68CAF0EECE
:104CA00047CAF1EE10FAB4EEE87A8CBFB0EE48DAFB
:104CB000B0EE67DAF1EE10FAB4BFB0EE686AB0EEAB
:104CC000476AF4EEC87AF1EE10FAB4EE6C6AB4BF3B
:104CD000F0EE486AF0EE676AF1EE10FA18BF36EEB1
:104CE0006C6AF4EE4D6A18BFBDEEC66A78EEEC8AC7
:104CF00018BF16EE106A38EE4D8A37EE6C7A77EEF2
:104D0000CD7A08BF0126F1EE10FA18BF76EECD6A13
:104D1000BDEEC77AFDEEE77AFDEEE88ABDEEC88A01
:104D200018BFFDEEE66A85ED027AC5ED037AC5EDA2
:104D3000008A85ED018A14BF16EE907A01275AF099
:104D400081FB44F8040F294602225AF087FB002217
:104D50000221206813F0FCFE3548D4F8009048F09A
:104D600025FCC0F307238DF81400C0F307408DF82D
:104D700015308DF816000599002248463DEE49DAB7
:104D800013F0F6FE20680022012113F0E9FE7CEE0C
:104D9000E9CAFDEECD7A206817EE902AFDEEEC7A96
:104DA000103517EE901A0EF00BFA20683A4631468D
:104DB0000EF066FAB8F1290F7FF40CAFDAF80000B4
:104DC0001C4C5AF03FFB022120600CF081F8206857
:104DD00010210CF07DF820680022032113F0B8FEAA
:104DE0001548256848F0E2FBC0F30743C0F30722EB
:104DF0008DF81E308DF81C008DF81D20079928466F
:104E0000002213F0B5FE00221146206813F0A8FE20
:104E10000A4B4FF487721A6008B0BDEC0C8BBDE8EA
:104E2000F047FFF761BB00BFCDCCCCCC0000F04217
:104E30004F4536005C1300201D57DF00680B002033
:104E4000399D52A246DF913F30B5464D464C286809
:104E50008DB00CF025F8022120600CF039F82068A4
:104E600010210CF035F8286825680EF091FB011F21
:104E700028460EF031FA20686FF040410EF046FAF5
:104E800020680022022113F037FE3848256848F0D8
:104E90008DFBC0F30743C0F307228DF80A308DF86D
:104EA00008008DF8092002990022284613F010FE10
:104EB0002F48256848F07AFBC0F30743C0F3072268
:104EC0008DF80E308DF80C008DF80D2003992846D2
:104ED000002213F0D9FD20680022052113F080FE86
:104EE000256800222846032113F0BEFD2846002233
:104EF000032113F0C1FD28460022032113F0A4FD75
:104F000028460022032113F0A7FD1A4B0225196839
:104F1000009500230E2220680FF008FA2068164C36
:104F200059F07CFB294620600BF0D2FF206810214D
:104F30000BF0CEFF2B46114A202104A862F028F97D
:104F4000206804A959F076FB6FF0404220681146B2
:104F50000EF096F9002320681A4607210EF044FA55
:104F60000DB030BD48130020681300204F453600B7
:104F7000D0EAF00058130020781300201497060898
:104F80002DE9F041764D774C2868774F86B00BF0CD
:104F900087FF022120600BF09BFF206810210BF09F
:104FA00097FF286825680EF0F3FA011F28460EF0D7
:104FB00093F920686FF040410EF0A8F920680022B4
:104FC000022113F099FD3846256848F0EFFAC0F346
:104FD00007238DF80800C0F307408DF809308DF8DD
:104FE0000A0002990022284613F072FD5F482568E6
:104FF00048F0DCFAC0F307238DF80C00C0F307403B
:105000008DF80D308DF80E0003992846002213F01C
:105010003BFD20680022052113F0E2FD25680022F7
:105020002846032113F020FD28460022032113F017
:1050300023FD28460022032113F006FD2846002206
:10504000032113F009FD4A4B4A4D196802260096C8
:1050500000230E2220680FF069F9206859F0DEFA6B
:10506000314628600BF034FF286810210BF030FF28
:105070006FF04042114628680EF002F928683E4958
:1050800059F0D8FA28683146002213F0A1FD002219
:105090001146286813F030FD3846D5F8008048F0F6
:1050A00085FA0346C3F30722C3F307438DF8123092
:1050B0008DF810008DF8112004994046002213F05D
:1050C0006BFD28682D49002213F07AFD00231A4653
:1050D000314628680EF088F92068294C59F09EFA6C
:1050E000314620600BF0F4FE206810210BF0F0FE3A
:1050F0006FF04042114620680EF0C2F82068214946
:1051000059F098FA20683146002213F061FD002220
:105110001146206813F0F0FC3846276848F046FA3C
:105120000346C3F30722C3F307438DF816308DF807
:1051300014008DF8152005993846002213F02CFD37
:1051400020681149002213F03BFD29682068009671
:1051500000230E220FF0EAF806B0BDE8F08100BF90
:1051600048130020641300204F453600D0EAF000B9
:105170006813002074130020909506087CD306085D
:1051800070130020209706089CA6060870B56A4D8B
:105190006A4C286888B00BF083FE022120600BF077
:1051A00097FE206810210BF093FE286825680EF00A
:1051B000EFF9011F28460EF08FF8614D2068342169
:1051C0000EF0A4F820680022022113F095FC284676
:1051D000266848F0EBF9C0F307238DF80C00C0F304
:1051E00007408DF80D308DF80E00039900223046EF
:1051F00013F06EFC2846256848F0D8F9C0F3074341
:10520000C0F307228DF812308DF810008DF81120B0
:1052100004992846002213F037FC2068002205215B
:1052200013F0DEFC256800222846032113F01CFC45
:1052300028460022032113F01FFC284600220321E8
:1052400013F002FC28460022032113F005FC3D4A1E
:1052500020681168022300930E2200230FF066F8E5
:10526000206852F08BFA2822114604460EF008F806
:1052700000231A46204607210EF0B6F80022082126
:10528000204613F0ADFC304848F090F9C0F30743D6
:10529000C0F307228DF816308DF814008DF8152014
:1052A00005992046002213F0EFFB00220A21204638
:1052B00013F02AFC002048F079F9C0F30743C0F34B
:1052C00007228DF81A308DF818008DF819200699EC
:1052D0002046002213F020FC00224C21204613F02F
:1052E0002FFC1A4848F062F9C0F30743C0F30722C5
:1052F0008DF81E308DF81C008DF81D200799202296
:10530000204613F0C1FB204659F088F910490546A4
:1053100059F090F928460FF03BFC28460D49002231
:1053200013F04EFC0C4900230A22204608B0BDE8C9
:1053300070400DF0EBB900BF48130020601300204F
:10534000D0EAF000641300204F453600D2761900F1
:10535000289606087CD306083D44000830B5002096
:1053600083B00BF09DFD184C022120600BF0B0FDC6
:10537000206810210BF0ACFD20680022FF2113F003
:1053800097FB1248256848F011F9C0F30743C0F3B2
:1053900007228DF806308DF804008DF8052001995C
:1053A0000022284613F070FBFFF798F9FFF7DCFAAC
:1053B000FFF74AFDFFF7E4FDFFF7E8FE20460CF09B
:1053C0007BF9206803B030BD48130020D0EAF0001C
:1053D000704700BF0648074A08B50023C0E900230C
:1053E00004F090F900B908BDBDE80840FEF724BEFE
:1053F000881300200010005810B5044696B05022C3
:10540000002102A861F079FF0F4B22689A4201D077
:1054100016B010BD4FF400724FF0804302A8029204
:10542000109303F07BFF60B94FF0B0431A6D42F464
:1054300080221A651B6D03F480230193019B16B033
:1054400010BDFEF7F9FDEFE70010005810B5124847
:10545000124C00230F2147F6FF72C0E90043C0E958
:105460000212C0E905330361C36104F06BF930B97E
:1054700000220948114604F0E5F948B910BDFEF7CD
:10548000DBFD00220448114604F0DCF90028F5D0C9
:10549000BDE81040FEF7D0BDA0130020002800405A
:1054A00010B5044696B05022002102A861F025FFF5
:1054B000164B22689A4201D016B010BD4FF400621C
:1054C0004FF4807302A80292129303F027FFD0B921
:1054D0004FF0B0430022D3F8900040F40040C3F8EE
:1054E00090009C6D44F480649C659B6D03F4806324
:1054F000114601930320019B00F02CFC032000F0D7
:1055000065FC16B010BDFEF797FDE1E700280040EE
:1055100010B5034C20460CF0CFF8206810BD00BF3A
:10552000C4130020104811494FF4827210B5C0E92D
:1055300000124FF4007200234FF4E06407218261EF
:105540000822C0E90234C0E90433C0E90733C0E9E6
:105550000933C0E90B13426304F0D8FB00B910BD56
:10556000BDE81040FEF768BD9014002000300140F7
:1055700010B51148114C4FF48272C0E9004202226A
:1055800000234FF4E061012402614FF40072C0E98E
:105590000231C0E9054208210722C0E90713C0E92A
:1055A0000933C0E90B23436304F0B0FB00B910BD1D
:1055B000BDE81040FEF740BD281400200038004030
:1055C00070B50368414A8AB000249342CDE904448F
:1055D000CDE90644089404D03D4A934244D00AB031
:1055E00070BD4FF0B04305461A6E3A4E42F48052F9
:1055F0001A661A6E02F480520192019ADA6C42F035
:105600000102DA64DB6C03F001030093E022022361
:10561000CDE904230098032205234FF0904004A90C
:10562000CDE9072300F0CEFD2B4A0723C6E900236E
:1056300080231022336130464FF40053C6E9022420
:10564000C6E90544C6E9074300F016FC00283AD134
:10565000002211466E652220B56200F07BFB2220FD
:1056600000F0B4FB0AB070BD4FF0B0434FF42040DF
:105670009A6D42F480429A659A6D02F480420392D8
:10568000039ADA6C42F00202DA64DB6C022103F066
:105690000203CDE9040102930525032304A90F4861
:1056A000029ACDE9073500F08DFD4FF480420223C8
:1056B0000A48089504A9CDE90423CDE9064400F081
:1056C00081FD0AB070BDFEF7B7FCC1E700300140B4
:1056D00000380040C81300200800024000040048C1
:1056E00000B54FF0B04383B0186D40F4002018654A
:1056F0001B6D002203F40023019311462E20019B11
:1057000000F028FB2E2003B05DF804EB00F05EBB38
:10571000FEE700BFFEE700BFFEE700BFFEE700BFF9
:10572000FEE700BF704700BF704700BF704700BF73
:1057300000F0E0BAFDF7FCBF012000F0EBBE00BFB7
:10574000014800F0F1BC00BFC8130020014802F07E
:10575000C3B800BF784D0120014805F027BB00BF4A
:10576000F8140020014804F03FBF00BF901400204F
:10577000014806F007B900BF9015002008B54FF4A6
:10578000806000F0C7FE4FF4006000F0C3FEBDE88B
:1057900008404FF4805000F0BDBE00BF0AF0AEB824
:1057A0000AF042B800F0C4BE0120704708B561F0AD
:1057B00009FE162303604FF0FF3008BD08B561F005
:1057C00001FE16230360FEE710B50C46AFF3008020
:1057D00003462370012010BD70B5161E07DD0C4670
:1057E0008D1914F8010BAFF30080A542F9D13046B2
:1057F00070BD00BF4FF0FF30704700BF4FF4005343
:105800004B600020704700BF0120704700207047A8
:105810000C490D4A0B6810B50C4C121B2BB11844E7
:10582000904207D80860184610BD094B0B60184419
:105830009042F7D961F0C6FD0C2303604FF0FF33AF
:10584000184610BDF41400200000032000100000D2
:1058500048D401201449D1F888204FF0B04342F4D5
:105860007002C1F888201968104A4FF4E02041F016
:1058700001011960986018680D4902401A60D3F858
:10588000942022F00502C3F89420D3F8982022F047
:105890000102C3F89820D96019611A68002122F426
:1058A00080221A609961704700ED00E0FBFEF6FA75
:1058B000001004220000000010B5334C4FF080426D
:1058C00092B022601F2200236260204640F2E7323D
:1058D000CDE90133CDE90A33CDE90C33CDE90E33FF
:1058E000C4E90232039310932361A36104F0C4FF5F
:1058F000F8B900232448019301A9039305F000FBA4
:10590000E8B99FED1D7B00221F480C920AA98DED7E
:105910000A7B0E9205F0A0F870B922680023B2F15C
:10592000804FCDE90433CDE9063308930AD012B095
:1059300010BDFEF781FBDCE7FEF77EFBEDE7FEF72F
:105940007BFBDEE74FF0B0439FED0D7BDA6C42F05E
:105950000102DA64DB6C03F00103009304A9012364
:105960004FF090408DED047B009A089300F02AFCE4
:1059700012B010BDAFF30080600000000000000016
:1059800001000000020000004415002010B50A4884
:105990000A4C3F220023C0E9004263218022C0E973
:1059A0000231C0E90433826104F0D0FE00B910BDB9
:1059B000BDE81040FEF740BBF81400200044014051
:1059C0000368B3F1804F00D070474FF0B04382B00E
:1059D0009A6D42F001029A659B6D03F001030193F9
:1059E000019B02B0704700BF0E4B02689A4200D084
:1059F000704700B54FF0B04383B0186E40F40030EC
:105A000018661B6E002203F400330193114619201F
:105A1000019B00F09FF9192003B05DF804EB00F042
:105A2000D5B900BF0044014010B51F481F4C0023EA
:105A30004FF4E1310C22C0E90041C0E90233C0E972
:105A40000432C0E90633C0E90833836206F000FB84
:105A500070B91548002106F08FFC88B91248002162
:105A600006F0CCFCA0B9104806F068FCB8B910BD2F
:105A7000FEF7E2FA0C48002106F07EFC0028EDD08B
:105A8000FEF7DAFA0848002106F0B8FC0028EAD050
:105A9000FEF7D2FA044806F051FC0028E7D0BDE832
:105AA0001040FEF7C9BA00BF901500200038014031
:105AB00010B504469CB00021502208A8CDE902117F
:105AC000CDE90411069161F018FC214B22689A423D
:105AD00001D01CB010BD012308A8089303F01EFCE0
