:020000040800F2
:1000000000000320A55F00089D5A0008A15A0008BF
:10001000A55A0008A95A0008AD5A000800000000BF
:10002000000000000000000000000000B15A0008BD
:10003000B55A000800000000B95A0008BD5A00086F
:10004000FD5F0008FD5F0008FD5F0008C15A000861
:10005000FD5F0008FD5F0008C55A0008FD5F00084D
:10006000FD5F0008FD5F0008FD5F0008CD5A000835
:10007000FD5F0008FD5F0008FD5F0008FD5F0008F0
:10008000FD5F0008FD5F0008FD5F0008FD5F0008E0
:10009000D95A0008FD5F0008FD5F0008FD5F0008F9
:1000A000FD5F0008E55A0008FD5F0008FD5F0008DD
:1000B000FD5F0008FD5F0008FD5F0008FD5F0008B0
:1000C000FD5F0008FD5F0008F15A0008FD5F0008B1
:1000D000FD5A0008FD5F0008FD5F0008FD5F000895
:1000E000095B0008FD5F0008FD5F0008FD5F000878
:1000F000295B00082D5B0008315B0008FD5F0008EC
:10010000FD5F0008FD5F0008FD5F0008FD5F00085F
:10011000FD5F0008FD5F0008FD5F0008FD5F00084F
:10012000FD5F0008FD5F0008FD5F0008FD5F00083F
:0C013000FD5F0008FD5F0008FD5F000897
:1001400010B5054C237833B9044B13B10448AFF311
:1001500000800123237010BDA803002000000000D0
:10016000ECB6060808B5034B1BB103490348AFF3CF
:10017000008008BD00000000AC030020ECB60608BB
:1001800001F0FF01102A2BDB10F0070F08D010F848
:10019000013B013A8B422DD010F0070F42B3F6D14C
:1001A000F0B441EA012141EA014122F007047FF065
:1001B00000070023F0E80256083C85EA010586EABC
:1001C000010685FA47F5A3FA87F586FA47F6A5FAF8
:1001D00087F68EB9EED1F0BC01F0FF0102F0070204
:1001E00032B110F8013B013A83EA010313B1F8D1AF
:1001F0000020704701387047002D06BF3546033890
:10020000073815F0010F07D1013015F4807F02BFC8
:10021000013015F4C03F0130F0BC0138704700BF19
:10022000034613F8012B002AFBD1181A0138704736
:1002300081F0004102E000BF83F0004330B54FEA97
:1002400041044FEA430594EA050F08BF90EA020F04
:100250001FBF54EA000C55EA020C7FEA645C7FEA97
:10026000655C00F0E2804FEA5454D4EB5555B8BFBA
:100270006D420CDD2C4480EA020281EA030382EA2B
:10028000000083EA010180EA020281EA0303362DBD
:1002900088BF30BD11F0004F4FEA01314FF4801C90
:1002A0004CEA113102D0404261EB410113F0004FA2
:1002B0004FEA03334CEA133302D0524263EB430359
:1002C00094EA050F00F0A780A4F10104D5F1200EF7
:1002D0000DDB02FA0EFC22FA05F2801841F1000152
:1002E00003FA0EF2801843FA05F359410EE0A5F126
:1002F00020050EF1200E012A03FA0EFC28BF4CF057
:10030000020C43FA05F3C01851EBE37101F000450C
:1003100007D54FF0000EDCF1000C7EEB00006EEB19
:100320000101B1F5801F1BD3B1F5001F0CD34908A3
:100330005FEA30004FEA3C0C04F101044FEA4452FA
:1003400012F5800F80F09A80BCF1004F08BF5FEA81
:10035000500C50F1000041EB045141EA050130BD61
:100360005FEA4C0C404141EB0101013C28BFB1F573
:10037000801FE9D291F0000F04BF01460020B1FABE
:1003800081F308BF2033A3F10B03B3F120020CDA91
:100390000C3208DD02F1140CC2F10C0201FA0CF06F
:1003A00021FA02F10CE002F11402D8BFC2F1200CD4
:1003B00001FA02F120FA0CFCDCBF41EA0C0190408A
:1003C000E41AA2BF01EB0451294330BD6FEA0404D3
:1003D0001F3C1CDA0C340EDC04F11404C4F12002BE
:1003E00020FA04F001FA02F340EA030021FA04F3D0
:1003F00045EA030130BDC4F10C04C4F1200220FA27
:1004000002F001FA04F340EA0300294630BD21FA64
:1004100004F0294630BD94F0000F83F4801306BF2A
:1004200081F480110134013D4EE77FEA645C18BF1E
:100430007FEA655C29D094EA050F08BF90EA020FB5
:1004400005D054EA000C04BF1946104630BD91EAAD
:10045000030F1EBF0021002030BD5FEA545C05D1B0
:100460004000494128BF41F0004130BD14F58004EF
:100470003CBF01F5801130BD01F0004545F0FE4163
:1004800041F470014FF0000030BD7FEA645C1ABF98
:10049000194610467FEA655C1CBF0B46024650EACF
:1004A000013406BF52EA033591EA030F41F40021FB
:1004B00030BD00BF90F0000F04BF0021704730B581
:1004C0004FF4806404F132044FF000054FF0000156
:1004D00050E700BF90F0000F04BF0021704730B517
:1004E0004FF4806404F1320410F0004548BF4042EC
:1004F0004FF000013EE700BF42004FEAE2014FEA41
:1005000031014FEA02701FBF12F07F4393F07F4F1B
:1005100081F06051704732F07F4208BF704793F01E
:100520007F4F04BF41F40021704730B54FF4607431
:1005300001F0004521F000411CE700BF50EA010234
:1005400008BF704730B54FF000050AE050EA0102DD
:1005500008BF704730B511F0004502D5404261EB4D
:1005600041014FF4806404F132045FEA915C3FF48E
:10057000D8AE4FF003025FEADC0C18BF03325FEA2B
:10058000DC0C18BF033202EBDC02C2F1200300FADC
:1005900003FC20FA02F001FA03FE40EA0E0021FA01
:1005A00002F11444BDE600BF70B54FF0FF0C4CF4EF
:1005B000E06C1CEA11541DBF1CEA135594EA0C0FA1
:1005C00095EA0C0F00F0DEF82C4481EA030621EADC
:1005D0004C5123EA4C5350EA013518BF52EA033517
:1005E00041F4801143F4801338D0A0FB02CE4FF0C9
:1005F0000005E1FB02E506F00042E0FB03E54FF0F9
:100600000006E1FB03569CF0000F18BF4EF0010EF0
:10061000A4F1FF04B6F5007F64F5407404D25FEAEC
:100620004E0E6D4146EB060642EAC62141EA55519F
:100630004FEAC52040EA5E504FEACE2EB4F1FD0CE1
:1006400088BFBCF5E06F1ED8BEF1004F08BF5FEA5F
:10065000500E50F1000041EB045170BD06F0004611
:1006600046EA010140EA020081EA0301B4EB5C04BE
:10067000C2BFD4EB0C0541EA045170BD41F48011B6
:100680004FF0000E013C00F3AB8014F1360FDEBFDB
:10069000002001F0004170BDC4F10004203C35DAB7
:1006A0000C341BDC04F11404C4F1200500FA05F33A
:1006B00020FA04F001FA05F240EA020001F00042DB
:1006C00021F0004110EBD37021FA04F642EB060151
:1006D0005EEA430E08BF20EAD37070BDC4F10C047B
:1006E000C4F1200500FA04F320FA05F001FA04F23F
:1006F00040EA020001F0004110EBD37041F100012B
:100700005EEA430E08BF20EAD37070BDC4F1200535
:1007100000FA05F24EEA020E20FA04F301FA05F29D
:1007200043EA020321FA04F001F0004121FA04F245
:1007300020EA020000EBD3705EEA430E08BF20EA15
:10074000D37070BD94F0000F0FD101F0004640004F
:1007500041EB010111F4801F08BF013CF7D041EAD1
:10076000060195F0000F18BF704703F000465200D5
:1007700043EB030313F4801F08BF013DF7D043EAA6
:100780000603704794EA0C0F0CEA135518BF95EA5C
:100790000C0F0CD050EA410618BF52EA4306D1D1E3
:1007A00081EA030101F000414FF0000070BD50EA02
:1007B000410606BF1046194652EA430619D094EA8C
:1007C0000C0F02D150EA013613D195EA0C0F05D176
:1007D00052EA03361CBF104619460AD181EA0301CA
:1007E00001F0004141F0FE4141F470014FF0000082
:1007F00070BD41F0FE4141F4780170BD70B54FF01D
:10080000FF0C4CF4E06C1CEA11541DBF1CEA13559C
:1008100094EA0C0F95EA0C0F00F0A7F8A4EB05047E
:1008200081EA030E52EA03354FEA013100F0888075
:100830004FEA03334FF0805545EA131343EA12633E
:100840004FEA022245EA111545EA10654FEA0026F3
:100850000EF000419D4208BF964244F1FD0404F5AC
:10086000407402D25B084FEA3202B61A65EB030508
:100870005B084FEA32024FF480104FF4002CB6EBC5
:10088000020E75EB030E22BFB61A754640EA0C0045
:100890005B084FEA3202B6EB020E75EB030E22BF85
:1008A000B61A754640EA5C005B084FEA3202B6EBC6
:1008B000020E75EB030E22BFB61A754640EA9C0085
:1008C0005B084FEA3202B6EB020E75EB030E22BF55
:1008D000B61A754640EADC0055EA060E18D04FEA13
:1008E000051545EA16754FEA06164FEAC30343EAB3
:1008F00052734FEAC2025FEA1C1CC0D111F4801F80
:100900000BD141EA00014FF000004FF0004CB6E778
:1009100011F4801F04BF01430020B4F1FD0C88BF17
:10092000BCF5E06F3FF6AFAEB5EB030C04BFB6EB22
:10093000020C5FEA500C50F1000041EB045170BD15
:100940000EF0004E4EEA113114EB5C04C2BFD4EB42
:100950000C0541EA045170BD41F480114FF0000EC6
:10096000013C90E645EA060E8DE60CEA135594EA42
:100970000C0F08BF95EA0C0F3FF43BAF94EA0C0F45
:100980000AD150EA01347FF434AF95EA0C0F7FF4BA
:1009900025AF104619462CE795EA0C0F06D152EA0E
:1009A00003353FF4FDAE1046194622E750EA4106F2
:1009B00018BF52EA43067FF4C5AE50EA41047FF403
:1009C0000DAF52EA43057FF4EBAE12E74FF0FF3C68
:1009D00006E000BF4FF0010C02E000BF4FF0010C39
:1009E0004DF804CD4FEA410C7FEA6C5C4FEA430CB2
:1009F00018BF7FEA6C5C1BD001B050EA410C0CBF01
:100A000052EA430C91EA030F02BF90EA020F002062
:100A1000704710F1000F91EA030F58BF994208BFC9
:100A200090422CBFD8176FEAE37040F00100704786
:100A30004FEA410C7FEA6C5C02D150EA013C07D1DD
:100A40004FEA430C7FEA6C5CD6D152EA033CD3D028
:100A50005DF8040B704700BF8446104662468C4622
:100A60001946634600E000BF01B5FFF7B7FF002855
:100A700048BF10F1000F01BD4DF808EDFFF7F4FF7E
:100A80000CBF012000205DF808FB00BF4DF808ED09
:100A9000FFF7EAFF34BF012000205DF808FB00BF2C
:100AA0004DF808EDFFF7E0FF94BF012000205DF84E
:100AB00008FB00BF4DF808EDFFF7CEFF94BF012003
:100AC00000205DF808FB00BF4DF808EDFFF7C4FFFC
:100AD00034BF012000205DF808FB00BF4FEA410C45
:100AE0007FEA6C5C02D150EA013C0AD14FEA430C28
:100AF0007FEA6C5C02D152EA033C02D14FF0000065
:100B000070474FF0010070474FEA410212F50012A2
:100B100015D211D56FF47873B3EB625212D94FEA44
:100B2000C12343F0004343EA505311F0004F23FA2E
:100B300002F018BF404270474FF00000704750EA83
:100B4000013005D111F0004008BF6FF00040704740
:100B50004FF00000704700BF4A0011D212F500129A
:100B600011D20DD56FF47873B3EB62520ED44FEA05
:100B7000C12343F0004343EA505323FA02F0704785
:100B80004FF00000704750EA013002D14FF0FF30C3
:100B900070474FF0000070474FEA4102B2F1E04366
:100BA00024BFB3F5001CDCF1FE5C0DD901F0004C54
:100BB0004FEAC0024CEA5070B2F1004F40EB8300A4
:100BC00008BF20F00100704711F0804F21D113F1D0
:100BD0003872BCBF01F00040704741F480114FEA09
:100BE0005252C2F11802C2F1200C10FA0CF320FA92
:100BF00002F018BF40F001004FEAC1234FEAD323AF
:100C000003FA0CFC40EA0C0023FA02F34FEA430318
:100C1000CCE77FEA625307D150EA01331EBF4FF0A1
:100C2000FE4040F44000704701F0004040F0FE40BC
:100C300040F40000704700BF7BB972B90029BEBF05
:100C400000204FF0004106E008BF00281CBF6FF0F5
:100C500000414FF0FF3000F009BAADF1080C6DE92A
:100C600004CE002909DB002B1ADB00F083F8DDF845
:100C700004E0DDE9022304B07047404261EB41012A
:100C8000002B1BDB00F076F8DDF804E0DDE9022341
:100C900004B0404261EB4101524263EB43037047B1
:100CA000524263EB430300F065F8DDF804E0DDE950
:100CB000022304B0404261EB41017047524263EBB2
:100CC000430300F057F8DDF804E0DDE9022304B047
:100CD000524263EB4303704753B94AB9002908BF36
:100CE00000281CBF4FF0FF314FF0FF3000F0BEB9BD
:100CF000ADF1080C6DE904CE00F03CF8DDF804E03D
:100D0000DDE9022304B0704738B500220023044611
:100D10000D46FFF7BBFE28B920462946BDE83840FE
:100D200000F00AB8204605F1004100F005F8404205
:100D300061EB410138BD00BFD0B50C4B0022064627
:100D40000F46FFF731FCFFF707FF0446FFF7B2FB42
:100D5000074B0022FFF728FC02460B463046394677
:100D6000FFF76AFAFFF7F8FE2146D0BD0000F03D1C
:100D70000000F0412DE9F047089D8E460446884664
:100D8000002B4AD18A42174662D9B2FA82F64EB196
:100D9000C6F1200301FA06F820FA03F3B74043EA4C
:100DA0000808B4404FEA174E1FFA87FCB8FBFEF163
:100DB000230C0EFB118843EA084301FB0CF29A4214
:100DC00009D9FB1801F1FF3080F0EA809A4240F225
:100DD000E78002393B449A1AA3B2B2FBFEF00EFB45
:100DE000102243EA024300FB0CFC9C4509D9FB1886
:100DF00000F1FF3280F0D6809C4540F2D3803B4426
:100E0000023840EA0140A3EB0C0300211DB1F3407E
:100E10000022C5E90032BDE8F0878B4205D90DB14B
:100E2000C5E9000100210846F5E7B3FA83F100297E
:100E300046D1734502D3824200F20581841A6EEBDB
:100E4000030201209046002DE5D0C5E90048E2E705
:100E5000002A00F09080B2FA82F6002E40F0A480C2
:100E60008A1A030C4FEA174E80B2BCB20121B2FBC2
:100E7000FEFC0EFB1C2243EA024304FB0CF29A42E6
:100E800007D9FB180CF1FF3802D29A4200F2E08039
:100E9000C4469B1AB3FBFEF20EFB123340EA034337
:100EA00002FB04F49C4207D9FB1802F1FF3002D286
:100EB0009C4200F2CA8002461B1B42EA0C40A5E796
:100EC000C1F120068B4022FA06F71F430EFA01F407
:100ED00020FA06F32EFA06FE4FEA1749234300FADA
:100EE00001F81FFA87FCBEFBF9F01C0C09FB10EEA1
:100EF00044EA0E4400FB0CFEA64502FA01F209D9B1
:100F00003C1900F1FF3A80F09C80A64540F29980A0
:100F100002383C44A4EB0E041FFA83FEB4FBF9F341
:100F200009FB13444EEA044403FB0CFCA44508D916
:100F30003C1903F1FF3E80F08280A4457FD9023B3B
:100F40003C4443EA0040A4EB0C04A0FB02EC6445E3
:100F50007346E14662D35FD05DB1B8EB030264EB48
:100F6000090404FA06F622FA01F31E43CC40C5E94F
:100F7000006400214FE7B1FBF2FC010C41EA0E4195
:100F800080B240EA01423B4638463C46B846BE463F
:100F90002026B1FBF7F1A2EB080241EA0C4166E71B
:100FA000014618E710462CE7C6F120022EFA02F39C
:100FB000B740B14020FA02F24FEA174E0A43B3FBA2
:100FC000FEF8BCB20EFB1833110C41EA034108FBDA
:100FD00004F9B04089454FEA104380B23ED97918F0
:100FE00008F1FF3C01D289451FD8A1EB0901B1FBF3
:100FF000FEF909FB04F80EFB191192B242EA014214
:10100000424529D2BA1809F1FF31C4D24245C2D2B1
:10101000A9F102013A44BEE7F0459DD2BEEB0203BE
:101020006CEB070C0138E14696E7A7EB0909494448
:10103000A8F1020CB1FBFEF909FB04F8DBE77346EB
:101040007FE7504666E70846FDE63B44023A33E751
:10105000ACF1020C3B441CE749469CE7A1EB0901BB
:10106000C446B1FBFEF909FB04F8C4E7704700BFB2
:1010700038B504461D462170044801224FF48051C2
:1010800005F048FE0120656038BD00BF000400483F
:10109000F0B583B0144602AF15480D4600224FF458
:1010A000805105F037FEE31D03F4FC73ADEB030D37
:1010B00002AE24B122462946304667F068FE4FF062
:1010C000FF3300932A46234631460A4809F0F0FBD5
:1010D000012205464FF48051054805F01BFE002D06
:1010E0000CBF20464FF0FF300437BD46F0BD00BFB7
:1010F000000400486814002038B50E4814460D4618
:1011000000224FF4805105F005FE4FF0FF332246D8
:101110002946094809F0A4FA012205464FF48051F6
:10112000044805F0F7FD002D0CBF20464FF0FF30BE
:1011300038BD00BF000400486814002008B5084608
:1011400001F094FE002008BD30B5002385B0CDE944
:101150000033CDE90233002900F098800B780A7A39
:1011600003F03F0343F040038DF80030037C054655
:101170000C46002B40F087800132D2B269462846E7
:10118000FFF786FF00287CDB2B7C257A002B67D0BD
:10119000227802F03F02012342F040028DF808203D
:1011A00005EB030E1A4610326A440133DBB212F823
:1011B000101C02F8081C73451A46F4DD0DF10903F2
:1011C0000DF1080C53FA8EFE00221CF8013B510071
:1011D0005A40C9B2120648BF81F00701C3F380101C
:1011E0004A00D2B2B0EBD11F18BF82F00702C3F39E
:1011F00040105100C9B2B0EBD21F18BF81F00701F7
:10120000C3F300104A00D2B2B0EBD11F18BF82F076
:101210000702C3F3C0005100C9B2B0EBD21F18BF20
:1012200081F00701C3F380004A00D2B2B0EBD11FB6
:1012300018BF82F007025000C3F34001C0B2B1EB07
:10124000D21F18BF80F00700420003F00103B3EB88
:10125000D01FD2B218BF82F00702E645B5D1C2B99D
:101260000022626001235DB103F110016944013382
:1012700011F8101CDBB2AB4201EB0222F4D9626020
:10128000002005B030BD0232D2B277E74FF0FF3018
:10129000F7E76FF00100F4E770B586B001AC84E8C1
:1012A0000E009DF804309DF80C40002203F03F032F
:1012B000CDE904228DF81030027C029B002C00F056
:1012C0008F8004F118010DEB0105012C05F8083C95
:1012D0004FEA232120D0022C05F8091C4FEA2341B4
:1012E0001AD0032C05F80A1C4FEA236114D0042CF1
:1012F00005F80B1C4FEAE3730ED0DBB2052C05F8A2
:101300000C3C09D0062C05F80D3C05D0072C05F83F
:101310000E3C01D005F80F3C002A58D0631CDBB20C
:101320000DF11102013B52FA83FE0DF1100C002267
:101330001CF8013B51005A40C9B2120648BF81F067
:101340000701C3F380164A00D2B2B6EBD11F18BF13
:1013500082F00702C3F340165100C9B2B6EBD21FA8
:1013600018BF81F00701C3F300164A00D2B2B6EBF2
:10137000D11F18BF82F00702C3F3C0065100C9B2E3
:10138000B6EBD21F18BF81F00701C3F380064A00F5
:10139000D2B2B6EBD11F18BF82F007025100C3F3DF
:1013A0004006C9B2B6EBD21F18BF81F007014A0050
:1013B00003F00103B3EBD11FD2B218BF82F00702D2
:1013C000F445B5D1023405F8072CE2B201E0621C05
:1013D000D2B204A9FFF790FE00EAE07006B070BD3B
:1013E000002AF4D0012306AD9AE700BFF8B50F46F6
:1013F00005460E46EC6894F84830062B04F1480484
:1014000001D06B7C13BB21462846FFF79DFE0346A7
:10141000002B4FF00101284611DBEB68DC6C04F077
:10142000400446B1FFF78AFE013EB4B1002EE1D17F
:1014300047B93B4603E02FB9B4FA84F35B09184679
:10144000F8BD66B96FF002031846F8BD6969284611
:10145000FFF7CCFF031ED6DAF1E7002FF1D101230D
:10146000EDE700BF38B50B78062B0D46044601D0DA
:10147000437C2BB929462046BDE83840FFF764BEBF
:101480004169FFF7B3FF0028F4DA38BD30B585B005
:1014900001AC84E80E00437C054623B14169FFF7A7
:1014A000A5FF002807DB94E80E00284605B0BDE83C
:1014B0003040FFF7F1BE05B030BD00BFF8B51E4E9D
:1014C000A6FB01360F460546F608EC682378062B86
:1014D00001D06B7CFBB921462846FFF735FE034659
:1014E000002B4FF00A01284613DBEB685C6804F020
:1014F00010044EB1FFF722FE013ECCB1002EE4D124
:10150000092F11D8334604E0092F0DD8B4FA84F31B
:101510005B091846F8BD69692846FFF767FF031E97
:10152000D9DA1846F8BD2EB96FF002031846F8BD97
:10153000092FF8D80123ECE7CDCCCCCC70B5C3682B
:1015400003F118061B7E062B04460D4601D0437C92
:101550003BB931462046FFF7F7FDE368DB692B60B6
:1015600070BD4169FFF742FF0028F2DAF5E700BFDE
:10157000F0B587B000240127C2602B4B0194C9B29B
:10158000009722460546FFF773FD002849D0274BF8
:1015900093E8030003AE86E803000822314628469C
:1015A000FFF7AAFD00283ADB69692846FFF786FFA6
:1015B000002834DB6F7401E0292C2ED0EB6804EB9B
:1015C000440203EB82035A7A012A13D0072C04F158
:1015D0000104F1D1EB689A6D0824C2F38001C2F3D3
:1015E00080126A7404EB440203EB820329745A7A72
:1015F000012AEBD193E807006B7C86E807002846B8
:1016000023B16969FFF7F2FE002806DB96E80E00B9
:101610002846FFF741FE0028D8DA00EAE07007B05C
:10162000F0BD6FF00300FAE740420F00A4B70608D0
:1016300000224FF47A71C26002824161704700BF9C
:10164000704700BF02494FF42B7267F0A0BB00BF88
:1016500060C3060870B500F1180604460D46304612
:10166000FFF7F0FF324629462046FFF781FF0028AA
:101670000ADB41F20803A36204F1240320460ECBE7
:10168000BDE87040FFF702BF70BD00BF10B500F1AC
:1016900018010446FFF7E6FE002804DBE069002895
:1016A000A8BF00F00F0010BD10B50F299DF808C0AD
:1016B0009DF80CE01AD8072A18D80931C9B20CF0E5
:1016C0001F0C4CEACE3C01EB41014FEA431E00EBFC
:1016D00081030EF478714CEA010C4CEA0232DA61B3
:1016E0001833BDE810400ECBFFF7D0BE4FF0FF30EF
:1016F00010BD00BF0F2925D8093170B5CCB20C211F
:1017000001FB0401183105461646FFF7ABFE002821
:1017100017DB04EB440205EB82026300D1696EB96A
:1017200021F40041234405EB830303F11802D9613E
:1017300028460ECABDE87040FFF7A8BE41F400413C
:10174000F0E770BD4FF0FF30704700BF10B50729BC
:101750009DF808409DF80CE01DD81931D2004FEAE1
:101760004E2E02F01802C9B203F007030EF4C06E49
:1017700013434EEAC42E01EB410100EB810243EA20
:101780000E0343F4F073D36102F11803BDE8104077
:101790000ECBFFF77BBE4FF0FF3010BD30B50729F1
:1017A0009DF80C409DF810C09DF814501ED82131B2
:1017B0004FEA0C5C4CEA054CC3F30A03C9B264045B
:1017C0004CEA030C01EB410104F46024520500EBE8
:1017D00081034CEA040C02F460024CEA0202DA6172
:1017E0001833BDE830400ECBFFF750BE4FF0FF304E
:1017F00030BD00BF07290BD82931C9B201EB410127
:1018000000EB810303F11801DA610EC9FFF73EBE58
:101810004FF0FF30704700BF00B589009DF804E02D
:1018200001F03C0141EA03210EF0030E9201D2B215
:1018300041EA0E01114341F4805100F1240C816210
:101840009CE80E005DF804EBFFF720BE00B583B006
:1018500001A9FFF773FE0028A8BF019803B05DF847
:1018600004FB00BF00000000F8B5174655EC104B14
:101870000E46FEF72FFED7B1134A4FF07A53FEF70C
:1018800093FE124B0022FEF7D7FC22462B46FEF7B2
:101890008BFE044630460D46FEF71CFE02460B4604
:1018A00020462946FEF7AAFF41EC100BF8BD04A321
:1018B000D3E90023FEF778FEE7E700BFAFF300802F
:1018C000100000100000703E400000200000F03FBB
:1018D00010B400246C214FF47A72046081805DF8AA
:1018E000044B8260704700BFF0B585B083680093F9
:1018F00045F2FE428188ADF80C20032303AA04467A
:10190000002700688DF80E7005F02AFE642001F0B3
:10191000ADFA03251A26A368A188206800930DF16B
:101920000B0201238DF80B608DF80C7005F018FE8A
:10193000012303AA08BBA1680091A188206805F0D3
:101940007DFF9DF80CC00CF0FE0CA268A1882068F9
:101950000092022303AA8DF80C608DF80DC005F0EB
:10196000FFFD034632205BB101F080FA681E10F0E3
:10197000FF05D0D1284605B0F0BD4FF0000CE4E7DC
:10198000012005B0F0BD00BF70B5044684B0520020
:10199000082308468DF80B3091B20023A26800920C
:1019A000ADF80C302060A18001230DF10B0205F091
:1019B000D7FD18B10025284604B070BDA368009378
:1019C000A1882068022303AA05F038FF06460028F4
:1019D000F0D1BDF80C305BBA23F00F031B041B0CD5
:1019E000102BE7D12046FFF77FFF05460028E1D006
:1019F000A368009306238DF80B30A18820688DF82A
:101A00000C6001230DF10B0205F0AAFD002845D161
:101A1000A3680093A1882068012303AA05F00EFFA4
:101A20009DF80C3003F0DF038DF80D30A3680093B0
:101A30000623A1888DF80C3003AA0223206805F044
:101A40008FFDA36800930C238DF80B3000238DF8D5
:101A50000C30A18820680DF10B02012305F080FDF8
:101A600058B9A3680093A1882068012303AA05F050
:101A7000E5FE9DF80C0000F07F060C230DEB030241
:101A80008DF80C30A3680093A18820688DF80D6054
:101A9000022305F065FD284604B070BD3346C3E758
:101AA00010B584B0836800930821002204468DF8A5
:101AB0000B10ADF80C208188006801230DF10B029A
:101AC00005F04EFD18B19FED220A04B010BDA368C9
:101AD0000093A1882068022303AA05F0AFFE002826
:101AE000F1D1BDF80C305BBA23F00F031B041B0CC3
:101AF000102BE8D104238DF80B30A3680093ADF8C8
:101B00000C00A18820680DF10B02012305F028FDCF
:101B100018B19FED100A04B010BDA368A188206819
:101B2000009303AA022305F089FE0028F1D1BDF835
:101B30000C0040BA80B2FEF7CDFC074B0022FEF746
:101B400033FDFFF729F800EE100A04B010BD00BF06
:101B50000000C07F000000000000703F30B5044668
:101B600085B0A368A1880093062000228DF80B00A1
:101B70008DF80C20206801230DF10B0205F0F0FC1C
:101B800080B1402103ADA368009306208DF80C00BE
:101B90008DF80D102068A18802232A4605F0E0FC8C
:101BA00005B030BDA368A1882068009303AD012370
:101BB0002A4605F043FE9DF80C1021F0400141F04B
:101BC0004001E0E72DE9F041DFF884801C4F1D4E15
:101BD000362241463846FFF7D7FE60BB1A4D194CF6
:101BE00005F1200EAC46BCE80F00F44504F11004EA
:101BF000654644F8100C44F80C1C44F8082C44F8D2
:101C0000043CEFD1BCF8003023803046FEF708FBDF
:101C1000024692B231464FF496730C480AF042F9EC
:101C20004FF47A7001F022F9362241463846FFF728
:101C3000ABFE0028D2D0BDE8F0410148FFF78EBFCF
:101C4000C40300207C090020B0B70608D01500208E
:101C5000C008002008B50A48FFF722FFDFED097A27
:101C6000B4EEE70AF1EE10FA08DA0548FFF718FFBC
:101C7000BCEEC00A10EE103A98B208BD642008BD50
:101C8000C40300200000C84208B51021034805F035
:101C90003BF8B0FA80F0400908BD00BF00040048DE
:101CA0000148FFF715BE00BFC40300202DE9F04F27
:101CB0008BB064250021009504468DF8271000683C
:101CC00001230DF12702702105F04AFC10B10BB081
:101CD000BDE8F08F2246009552F8480B2123702171
:101CE00005F0ACFD0028F2D194F85430039394F839
:101CF0005F3094F84BA094F858B094F85190CDF818
:101D000014B01B0294F8578094F8636094F94D5016
:101D100094F953E094F959C094F84C20049203F4D8
:101D2000706B4FEA0A2A03464FEA09296AF30F0348
:101D30004FEA082869F31F438146360268F30F090A
:101D400080462D0266F30F0865F31F484FEA0E2EFA
:101D500005464FEA0C2C6EF30F056CF31F4594F803
:101D600012C094F84A1094F8652094F85D70CDF88C
:101D700018B0BCF1050F01F00F0128BF4FF0050CA2
:101D8000120261454FEA072702F4706228BF6146DC
:101D9000079267F31F49049A217509F00F2701463E
:101DA00094F8529094F864B094F84EE094F85AC0C5
:101DB00062F30F0169F31F4103F00F23059A0B43F0
:101DC000C4F8163008F00F26034694F85E8062F3DC
:101DD0000F0368F31F431F4303466BF30F036EF3B8
:101DE0001F431E43039BC4F81A70C4F81E6063F3BC
:101DF0000F0094F86630079A13432385069A94F8E7
:101E000060306CF31F4005F00F2505431343C4F801
:101E10002250E3840BB0BDE8F08F00BF038A8B42F1
:101E200004BF012380F84230704700BF2DE9F04124
:101E3000284C294F29494FF0FF3384B00026022552
:101E4000C4E90B33C4E90D33C4F81630C4F81A30B2
:101E5000C4F81E30C4F82230C4F82630E363204BA7
:101E60002160324629464FF001083846C4E9037321
:101E7000676084F82A6084F8406026752581A4F89C
:101E8000418004F047FF0A2000F0F0FF4246294657
:101E9000384604F03FFF6427642000F0E7FF009716
:101EA0002B4603AA2068ADF80C60702105F058FBA2
:101EB000009740F688602B46ADF80C0003AA206816
:101EC000702105F04DFB40F20153638204B0BDE880
:101ED000F08100BFD003002000080048C0080020A7
:101EE000010005052DE9F8438A4CE3680D46A3B1CE
:101EF00094F842308BB9884F3B780BB100233B708C
:101F0000B4F94410B4F94660002384F8433085F8EE
:101F10002030C5E90916BDE8F8837E48FFF7C6FE04
:101F2000237D94F82AE00022734584F8422084F847
:101F30004020C0F0C380784F3A78002B00F0E28058
:101F4000B4F91610B4F92C20E07C521A002AB8BF5C
:101F50005242824200F3C680B4F93620B4F92060C0
:101F6000921B002AB8BF52429042ACBF002201220D
:101F7000B4F92060A185012BE68600F08A80B4F9CF
:101F80001880B4F92EC0ACEB080CBCF1000FB8BF40
:101F9000CCF1000C6045C0F2A780B4F938C0B4F9A8
:101FA0002290ACEB090CBCF1000FB8BFCCF1000CD7
:101FB0008445C8BF0122B4F822C0A4F82E80022BA9
:101FC000A4F838C065D0B4F91A80B4F930C0ACEBCD
:101FD000080CBCF1000FB8BFCCF1000C6045C0F29A
:101FE0008580B4F93AC0B4F92490ACEB090CBCF18B
:101FF000000FB8BFCCF1000C6045B8BF0122B4F8A7
:1020000024C0A4F83080032BA4F83AC041D0B4F91E
:102010001C80B4F932C0ACEB080CBCF1000FB8BFA7
:10202000CCF1000C604569DBB4F93CC0B4F92690F2
:10203000ACEB090CBCF1000FB8BFCCF1000C604553
:10204000B8BF0122B4F826C0A4F83280042BA4F84B
:102050003CC01ED0B4F91E80B4F934C0ACEB080CFF
:10206000BCF1000FB8BFCCF1000C604548DBB4F9FF
:102070003EC0B4F92890ACEB090CBCF1000FB8BF1E
:10208000CCF1000C8445C8BF0122208DA4F8348017
:10209000E0877345387884F82A3029D000287FF407
:1020A0002DAF0123A4F84410A4F8466084F843300F
:1020B00085F82030C5E90916BDE8F883AEEB0302C8
:1020C000154F84F84020002B7FF43AAF002384F8AA
:1020D0002A303B78B4F94410B4F94660002B3FF441
:1020E00014AF0BE7012243E7012264E7012286E7F0
:1020F00000287FF403AF002AD3D101E70122A1E732
:102100000122C2E7BEF1000FE0D1002A7FF4F6AE53
:10211000F6E600BFD003002008000020F0B53C2305
:1021200085B00021C0F8D0320446FFF793FA0028AA
:1021300008DA642000F09AFE00212046FFF78AFAB0
:102140000028F6DB534E00254FF4FA70356000F09E
:102150008DFE514A1278CDE90025072331780222FD
:102160002046FFF7F3FAB4F8D0320095CDE90155D7
:10217000042231782046FFF711FB484B5A68002AA9
:1021800040F082800025012732782946CDE90057AA
:1021900002232046FFF788FA294602223B46009593
:1021A0002046FFF739FBC82000F060FE2046FFF70D
:1021B0004DFB0346C4F8C832C82000F057FEC820C3
:1021C00000F054FE3A4629462046FFF793FA2A4685
:1021D00039462046FFF78EFA2A4602212046FFF7AD
:1021E00089FA2A4603212046FFF784FA2A46042169
:1021F0002046FFF77FFA2A4605212046FFF77AFAA4
:102200002A4606212046FFF775FA2A46072120466E
:10221000FFF770FA2A4608212046FFF76BFA2A4694
:1022200009212046FFF766FA2A460A212046FFF7D1
:1022300061FA2A460B212046FFF75CFA2A460C2158
:102240002046FFF757FA2A460D212046FFF752FA9B
:102250002A460E212046FFF74DFA2A460F21204636
:10226000FFF748FAC82000F001FE0D4C0D490E4B57
:102270000E484C6100228A600A6188619A601A6186
:102280005C61986105B0F0BD31782046FFF7B2FA85
:1022900078E700BFB807002009000020840B002069
:1022A000CDCC4C3DE0070020C40700200000C84210
:1022B0008F4B1A6802B170472DE9F0472DED048B62
:1022C0000F2286B004461A60FFF7C0FAC4F8C802AD
:1022D0002046FFF7DBF9C4F8CC02002800F0A48008
:1022E000012800F0C080D4E9BC67D4E9BA01FEF748
:1022F00053FC804D08EE100A30467F4E85ED008A73
:102300003946FEF749FCD6ED028AD6ED057A96ED00
:10231000066A306078EEA78A07EE100A38EE866A01
:10232000D6ED047AC8EE866A77EE675AC6ED036A80
:10233000E6EEA57A16EE900AC6ED047AFEF7DCF812
:1023400002460B4600206D49FDF776FF804618EEE9
:10235000900A8946FEF7D0F802460B4640464946A9
:10236000FEF722F9FEF718FC95ED029AD5ED057AF5
:1023700095ED067AD5ED048AB06039EE279A38EEED
:10238000688A39EE077AC9EE077AE7EE888AC5EDE2
:10239000037A17EE900AC5ED048AFEF7ADF80246FF
:1023A0000B4600205549FDF747FF064619EE100A77
:1023B0000F46FEF7A1F802460B4630463946FEF7B7
:1023C000F3F8FEF7E9FB4E4A4E4B92ED007AD3ED5F
:1023D000006ADFED4D7A4D4EA86027EE267AE8EED2
:1023E000877AC6ED007A02F03FFA96ED000A0DF00A
:1023F000BDFD3068FEF780F802460B462869CDE93E
:102400000423FEF779F8D4E9BA45414ACDE902013F
:10241000CDE900454FF480713E4866F05FFB06B0A1
:10242000BDEC048BBDE8F0873B4BD4F8C8021A78AA
:102430003A4DC4F8D8029FED2C0B8021FFF714FA17
:102440002B7884EDBA0B5BB1354E364F3268D4F839
:10245000C83213443A6833600132FF2A3A6012DC12
:10246000D4F8CC023CE72C4BD4F8C8021A78C4F854
:10247000DC029FED1D0B8021FFF7F6F984EDBC0B0C
:1024800057EC106B31E7DFF8A090D9F80420002B4F
:10249000B8BFFF33A2F500024FF0000802EB232A79
:1024A000022201231146CDF800802046FFF7B4F93F
:1024B000524641462046FFF79DF90123022241463C
:1024C000CDF800802046FFF7A7F91748C9F804A007
:1024D00001F0FAFCD4F8CC0285F80080C6F8008040
:1024E000C7F80080FCE600BF0000000000000440C8
:1024F000BC070020C4070020E00700200000F03FD8
:102500000C0000201000002000008743FC07002082
:10251000D4B706087C09002009000020800B0020A9
:10252000B4070020B0070020840B002038B50A4C07
:102530002046FFF77DF8012508480949094A0A4B5A
:10254000C4F8C452C4F81C03C4F82013C4F82423EC
:10255000C4F8303338BD00BF400400200000FA4406
:102560003313954300B056456AF72B380148FFF7FF
:1025700067B800BF400400202DE9F04F0020A9B04B
:102580000FF056FADFF8EC93EE4FEF4DDFF8E8A3CB
:10259000044648463C604BF0D1FDC0F30743C0F30E
:1025A00007228DF80A308DF808008DF8092002996D
:1025B0000022204617F030F838680FF039FA4FF44F
:1025C00096720446DC2111F023FC204613F0A8F893
:1025D00048464BF0B3FDC0F307238DF80C00C0F361
:1025E00007408DF80D308DF80E000399002220462B
:1025F00017F012F828464BF0A1FDC0F307238DF821
:102600001000C0F307408DF811308DF812000499C6
:102610002046002217F024F820460022022117F05D
:1026200033F820460022052117F0A2F820460022A8
:10263000052116F0E1FF20460022052116F0E4FFF7
:1026400020460022052116F0C7FF00222046052162
:1026500016F0CAFF102120460FF002FA20465CF067
:10266000A5FDBA4980465CF0ADFD0022022140463E
:1026700017F076F828464BF061FDC0F307238DF87C
:102680001400C0F307408DF815308DF81600059939
:102690004046002217F048F851464046002217F005
:1026A00057F8052300220221404611F065FC204620
:1026B0005CF07CFDA64906465CF084FD5146002294
:1026C000304617F045F828464BF038FD8DF81800D5
:1026D000C0F30723C0F307408DF819308DF81A00B6
:1026E0000699DFF898A23046002217F01DF84146FF
:1026F0004FF0050800230E223046CDF8008012F07E
:10270000DDFB20465CF052FD924B93491A688346EC
:102710000FA866F019FA0FA958465CF053FD284639
:102720004BF00CFDC0F307238DF81C00C0F30740ED
:102730008DF81D308DF81E0007995846002216F0BE
:10274000F3FF51465846002217F002F800230E22EC
:1027500031465846CDF8008012F0B0FB20465CF0C0
:1027600025FD7E4906465CF02DFD28464BF0E6FC33
:10277000C0F307238DF82000C0F307408DF8213007
:102780008DF8220008993046002216F0CDFF514600
:102790003046002216F0DCFF00230E225946304658
:1027A000CDF8008012F08AFB20465CF0FFFC6C49FB
:1027B00083465CF007FD28464BF0C0FCC0F30723BE
:1027C0008DF82400C0F307408DF825308DF82600E1
:1027D00009995846002216F0A7FF51465846002294
:1027E00016F0B6FF0E22002331465846CDF8008081
:1027F00012F064FB204647F071FB6421064647F067
:1028000079FB28464BF09AFCC0F307238DF828008B
:10281000C0F307408DF829308DF82A000A99304618
:1028200047F088FB48464BF089FCC0F307238DF83E
:102830002C00C0F307408DF82D308DF82E000B9939
:10284000304647F081FB47492522304647F08AFB56
:102850001E2300220921304611F08EFB20465CF039
:10286000A5FC414981465CF0ADFC28464BF066FC76
:10287000C0F307238DF83000C0F307408DF83130E6
:102880008DF832000C994846002216F04DFF514653
:102890004846002216F05CFF314600263346484683
:1028A0000E22009612F00AFB204655F02FFD28223A
:1028B0001146044611F0ACFA28464BF03FFCC0F339
:1028C00007238DF83400C0F307408DF835308DF8BC
:1028D00036000D993246204616F09EFE324641469D
:1028E000204616F045FF334632460421204611F0BB
:1028F00043FB20465CF05AFC1C4905465CF062FC38
:10290000284612F00DFF6FF07F404BF017FC034696
:10291000C3F30722C3F307438DF838008DF839203D
:102920008DF83A300E992846324616F0FDFE1049D1
:1029300033460A22204610F0B1FC38460FF084FCE2
:102940001EE000BF000800204F453600E8B706082B
:1029500010B806082000002020B8060834B8060881
:102960004CB8060864B806088CB80608A8B806086B
:1029700055470008D0EAF00048F6060868C906087E
:10298000386829B0BDE8F08F1D4A1E48137813B986
:102990000378002B33D030B587B0002101240DF12E
:1029A0001703642502958DF817101170CDE90034D6
:1029B0003022017023461448A62105F0F5F89DF851
:1029C0001720D00604D51148114B0470022119704C
:1029D000110705D50F480E4B01240321047019700F
:1029E000930608D50C4A0D491378B3FA83F30120F6
:1029F0005B090870137001F003FF07B030BD70472A
:102A00000608002005080020C00800200808002053
:102A10001C080020070800200408002009080020E6
:102A200070B5434EBEB00124642509AB0093CDE9D7
:102A3000014523460022A621304605F0B5F80DF1E8
:102A400025038DE838001D222346A621304605F0D7
:102A5000ABF80DF126038DE8380021222346A6218C
:102A6000304605F0A1F80DF127038DE83800222249
:102A70002346A621304605F097F80AAB8DE83800CA
:102A80002A222346A621304605F08EF80DF12903AF
:102A90008DE838002D222346A621304605F084F823
:102AA0000DF12A038DE838002E222346A621304658
:102AB00005F07AF80DF12B038DE838002F2223461C
:102AC000A621304605F070F80BAB8DE838003022B7
:102AD0002346A621304605F067F89DF82C009DF8A6
:102AE0002B30144ACDE906309DF82A3005939DF825
:102AF000293004939DF8283003939DF827300293E2
:102B00009DF8263001939DF825300093C8219DF84B
:102B100024300CA865F0E2FF0CA8FDF781FB02460B
:102B20002B4692B20CA9044809F0BCF93EB070BD26
:102B3000C0080020ACB80608D01500202DE9F041EF
:102B40005F4D88B0012464260DF113032822009301
:102B50008DF813202346CDE901462D22A6212846D3
:102B600004F026FF10238DF8153050238DF8163011
:102B7000F0238DF8173005AB30270093CDE90146DF
:102B800023461D22A62128468DF814708DF8184082
:102B900004F00EFF0DF115030093CDE90146234625
:102BA0002122A621284604F003FF0DF1160300930D
:102BB000CDE9014623462222A621284604F0F8FE4C
:102BC0000DF117030093CDE9014623462322A621E8
:102BD000284604F0EDFE06AB0093CDE901462346FE
:102BE0002A22A621284604F0E3FE03238DF81A309A
:102BF0000DF119030093FF234FF078088DF81C3076
:102C0000CDE9014623462422A62128468DF81970D5
:102C10008DF81B8004F0CCFE0DF11A030093CDE972
:102C2000014623462522A621284604F0C1FE0DF1C7
:102C30001B030093CDE9014623462622A621284600
:102C400004F0B6FE07AB0093CDE9014623462722E8
:102C5000A621284604F0ACFE0DF11D030093382395
:102C60008DF81D30CDE9014623462E22A6212846A7
:102C700004F09EFE0DF11E03009318238DF81E3004
:102C8000CDE9014623462F22A621284604F090FED6
:102C90000DF11F0300213A46CDE900348DF81F10D5
:102CA0002346A6210296284604F07EFFFFF7B8FED1
:102CB000044A054B147083F8008008B0BDE8F08129
:102CC000C00800200B0800200A08002010B50B4C9B
:102CD0000FCC88B00DF1040CACE80F0094E80700AD
:102CE000ACE803002CF8022B130C8CF800300CF02D
:102CF00073FD01A80CF004FA08B010BD08B706086F
:102D0000704700BF4368B3F80B30B3F5124F00D0E3
:102D1000704730B589B0044668460CF00FFA0023BE
:102D2000CDE90433CDE906336268557B25B1012D29
:102D300008BF237009B030BDFFF7C8FF0F210C4B4F
:102D40008DF810107F228DF812201A681B68120C63
:102D5000C3F30B0304A8ADF81C20ADF81E300CF033
:102D6000DFF90CF0E3FD294601200DF081FEE1E7DB
:102D7000002004E008B50B4B4FF400421A6100201C
:102D80000CF050FD68B14FF0B042074B8179C2F8AA
:102D90009C30D2F89C3023F47C5343EA0123C2F8E0
:102DA0009C3008BD00400058FECAFECA10B5244938
:102DB000244BD1F89020CA2442F05002532088B00E
:102DC000C1F890205C6258629A681F4C4FF0B04185
:102DD00022F00702FF209A6058628B6843F4004398
:102DE0008B600DF03BFE194A1949D2F8803023F070
:102DF000070343F00403C2F88030002000F09EFA7D
:102E00000CF0ECFB134A00214FF400700DF04AFE69
:102E1000114A124B12486946CDE900230CF0FEFA24
:102E20001049114A40F23C5302A8CDE90241CDE9D4
:102E300004230CF0A3FC0CF0CFFB08B010BD00BFC6
:102E40000008005800280040F80103200004005842
:102E5000E013002089F4000810040320012D00086D
:102E6000052D0008040303201C05032070B505464A
:102E700003F010F96B1C064602D003F017F9054465
:102E8000064C04E0236923F00403236130BF03F000
:102E900001F9801BA842F5D370BD00BF00ED00E032
:102EA0004FF0FF300DF054BE704700BF00214FF4CB
:102EB00000700DF00FBE00BF02200DF039BE00BF44
:102EC00002200DF0E1BE00BF10B5074C00212046E6
:102ED00008F06EF90549064A2468022000230870AC
:102EE0006363136010BD00BF841500201C08002020
:102EF000180800201F4B1B78032B07D8DFE803F0CE
:102F0000022C270A1C4A1D4B12681A601C4B1A68B7
:102F100042B170471B4A194B12681A60184B1A6865
:102F2000002AF6D1154A18481168026891421DD04E
:102F300010B416DD0132914216DB1146134C0260CB
:102F400022685DF8044B516302221A607047104AF0
:102F50000A4B12681A60D9E70E4A084B12681A60C9
:102F6000D4E7013A9142E8DD0A46E7E702221A6017
:102F7000704700BF1C0800201C0000201008002023
:102F8000180800200C0800201408002084150020D8
:102F9000140000201800002010B54FF0B04382B09C
:102FA000986C40F0040098649C6C04F00404019454
:102FB000019C9C6C44F001049C649B6C002203F017
:102FC0000103009311460B20009B03F087F80B20B0
:102FD00002B0BDE8104003F0BDB800BF2DE9F047D6
:102FE00000248AB0CDE90444CDE906444FF0B04353
:102FF0000894DA6C564F574E42F00402DA64DA6CE9
:1030000002F004020392039ADA6C42F00202DA64DC
:10301000DA6C02F002020292029ADA6C42F00102C9
:10302000DA64DB6C03F001030193384601220221CC
:10303000019B03F06FFE224616214FF0904003F0F3
:1030400069FE2246304641F2240103F063FE012569
:1030500001224FF4041304A93846CDE904234FF0AC
:103060000209069503F0B4FC04A938464FF006089F
:10307000CDE905540794CDF8109003F0A9FC04A9FC
:103080004FF09040CDE905540794CDF8108003F03F
:103090009FFC10230DEB03014FF0030A4FF090400B
:1030A0000493CDE90554CDF81CA003F091FC242332
:1030B00004A930460493CDE90554079403F088FC35
:1030C00004A9304601220023CDE90423069403F02D
:1030D0007FFC102204A930460023CDE90423069486
:1030E00003F076FC30464FF4805304A90493CDE9F5
:1030F0000554CDF81CA003F06BFC04A94FF48062CA
:103100004FF404134FF09040CDE90423069503F0EB
:103110005FFC4FF4881304A938464FF4C052CDE940
:103120000423CDF8189003F053FC22462146404674
:1031300002F0D4FF404603F00DF822462146282035
:1031400002F0CCFF282003F005F80AB0BDE8F087B4
:1031500000080048000400482DE9F8436C4B6D4D11
:103160009B682E68590500F18A80B3686A4A6B4FE4
:103170006B4C23F48063B360137803EB430107EBDC
:10318000C101DAB2D1F80880216801314FEA430366
:1031900000F09280DFF878E1DEF82800DEF82810F1
:1031A00080B289B2884206D0DEF828C008461FFAED
:1031B0008CF18142F8D12168814268D25949D4F812
:1031C00000C009886144081A5749097801FB00F0DA
:1031D00056490978C84081B2884580F095805448A6
:1031E0004FF0010C062A80F800C018BF002051D013
:1031F0004FF0000C06E0C3F808C05B7D062BDAB286
:103200000DD05300134407EBC3039A688A42F2D3EC
:103210009A68521A9A605B7D062BDAB2F1D10028C7
:1032200038D001286AD0013887B2F3685B07FCD533
:10323000F368DBB263F49063F3603E4B4FF400221B
:10324000DA60032002F0CEFF314843696FF30F03C9
:103250003B434361826A836A92B29BB29A4204D032
:10326000816A1A468BB29342FAD1296822608B6830
:1032700043F480638B60AFF30080BDE8F883F368AC
:103280005A077FF572AFF3685A07F8D46DE72168E3
:10329000081A99E71E48826A836A92B29BB29A42E0
:1032A00004D0816A1A468BB29342FAD1226003207D
:1032B000BDE8F84302F088BF4FF0000E714670463B
:1032C000DFF87490B9F800C01EFA8CFCC4450BD22C
:1032D000B9F80000DFF858C04FF0000E80B28CF84B
:1032E00000E0062A84D19AE7DFF844C0A8EB00008A
:1032F0004FF0010E80B28CF800E0F2E70B4B1B7828
:10330000012B90D1074690E708468E46D8E700BFCC
:1033100000280040E01300202D0800203008002085
:103320002808002020080020220800202308002070
:1033300024080020000800581E080020F8B5474C5B
:10334000474B2268474DCA21516253215162996807
:1033500041F020019960996801F00701C1F1040171
:10336000C9B229701B694FF4FE0595FAA5F5002D29
:1033700071D0B5FA85F503F4FE03EB400133DBB2FF
:103380001D46394E3370364B1B69C3F30E0C634632
:1033900005FB03F3A3F5A073CB4034490CF1010CFA
:1033A000A1F800C04FF6FE718B4248D9304B4FF662
:1033B000FF7119802F4B196841F400211960D3F86F
:1033C000801041F40021C3F8801000283BD12A4F1F
:1033D0002A492B4E2B4D4FF0010C87F800C04FF0BF
:1033E000FF373760087381F8240081F83C0081F8CA
:1033F000540081F86C0081F88400062129709168DE
:1034000021F480619160D168C9B261F490614FF498
:103410000025D1600320DD6002F0E4FE226893689D
:1034200043F480439360FF23032153620846002244
:1034300002F054FEBDE8F840032002F08BBE0C49B8
:103440009BB20B80B6E7D3685B05ECD5032002F096
:10345000BBFE2268E7E701252B4692E7E013002038
:103460000028004023080020220800202008002017
:103470001E08002000080058240800203008002002
:10348000280800202D080020F0B5EFF3108672B652
:103490001F4C257B95B194F8245025B394F83C50EB
:1034A0002DB394F8545035B394F86C503DB394F860
:1034B000845045B386F310880120F0BD05F0FF0E5F
:1034C000F4460CEB4C0C04EBCC0501274FEACC0C7A
:1034D0002F7386F3108828616A73002044F80C303B
:1034E00081F800E0F0BD4FF0010EF446E9E74FF03F
:1034F000020EF446E5E74FF0030EF446E1E74FF025
:10350000040EF446DDE74FF0050EF446D9E700BFA0
:10351000300800202DE9F0410446EFF3108572B623
:103520003D4E032002F024FE30683C49CA2343622A
:1035300004EB4403532201EBC30342621A7B022AC9
:1035400008D0FF234362032002F004FE85F31088B5
:10355000BDE8F081324A1778BC424FEA440C30D0C3
:1035600093F814E093F815805F7D0EEB4E0E01EB9F
:10357000CE0EFFB2B8F1060F8EF815705FFA88FE16
:1035800007D01B7D0EEB4E0E01EBCE0EDBB28EF89C
:103590001430A44401EBCC03012119731378062BDA
:1035A00003D1204B4FF0FF3119601378062BDAB2AC
:1035B00011D01D4B1B789342C3D0FFF7CDFD30686F
:1035C000BFE71778DFF860E0FFB28EF800705B7D30
:1035D000DBB21370DDE7154B9B68590514D4836883
:1035E00023F480638360C3685B07FCD5C368104A1B
:1035F000DBB263F49063C3604FF400230320D36015
:1036000002F0F0FD30689CE7C3685A07E7D5C3684D
:103610005A07F9D4E3E700BFE01300203008002088
:103620002D080020280800202C0800200028004039
:10363000000800582DE9F047894D00EB400305EBE9
:10364000C30306461B7B022B89464FEA400700F066
:10365000D280EFF3108472B6DFF81C82032002F0F0
:1036600087FDD8F800107F48CA22BB194A6205EBD3
:10367000C30353224A6202221A73C3F80890C3F8A4
:1036800004900278062A5FFA82FC24D10278DFF8DF
:10369000EC91D2B289F80020067083F815C0724B05
:1036A0004FF0FF321A604FF0000E037899F80020B7
:1036B0009A4240F09B80374405EBC7008368A3EB38
:1036C0000E038360FF234B62032002F043FD84F36B
:1036D0001088BDE8F087DFF890E1DEF800300133B4
:1036E00000F0B380DFF898C1DCF82820DCF828303F
:1036F00092B29BB29A4205D01A46DCF828309BB2AF
:103700009342F9D1DEF800309A4277D9574BDEF870
:1037100000C01B8863449A1A554B93F800E0554B40
:103720001B7802FB0EFE2EFA03FE1FFA8EFEBA195C
:1037300005EBC202936873449360D2F80890037853
:1037400003EB430305EBC3039B6899455AD3037806
:1037500003EB430205EBC2025FFA83FC92F815A06B
:10376000BAF1060F4FEA43025FFA8AF311D11BE068
:103770009AF8153003EB430205EBC2025FFA83FCB3
:1037800092F815A0BAF1060F4FEA43025FFA8AF3E6
:103790000AD003EB430305EBC30302EB0C0A9B685F
:1037A000994505EBCA0AE3D202EB0C0305EBC30310
:1037B0005B7D062B5FFA83F904D009EB490305EB27
:1037C000C3031E7502EB0C03BA1905EBC20205EB2D
:1037D000C30382F81590DFF8A49082F814C05E75D8
:1037E000037899F800209A423FF465AFFFF7B4FCE4
:1037F000D8F8001066E7FFF78DFE2AE7DEF8003004
:103800009A1A89E790F800C090F80090CC455FFACA
:103810008CF31DD003EB430905EBC90999F814C0DB
:103820000CEB4C0A05EBCA0A5FFA8CFC8AF81560AF
:10383000537582F814C089F814600378DFF83C905F
:10384000DBB289F8003006702FE74FF0000E6EE70C
:10385000537503EB430305EBC3031E75EDE700BF90
:10386000300800202D080020280800202008002013
:103870002208002023080020E01300202C0800204C
:1038800000280040104700BF2DE9F84FEFF31088E3
:1038900072B6464C46482368464DCA2753265F6297
:1038A0005E629A6822F480629A60027802EB4201BA
:1038B00005EBC10C9CF80CA0BAF1020F12D0DA682B
:1038C0005207FCD5DA683C49D2B262F49062DA6001
:1038D0004FF40023CB6088F310882368FF225A62DC
:1038E000BDE8F88F354B4FEAC10E55F80EB0DCF845
:1038F00010A01B78002B46D09CF80D30012B5FFAEE
:1039000082F911D088F310884846FFF703FE236838
:103910005F625E625A4649465046FFF7B3FF23682E
:10392000FF225A62BDE8F88F037899454FEA4201B9
:1039300032D09CF814309CF815609CF8152003EBED
:10394000430305EBC303D2B2062E5A75F3B207D078
:103950009CF8142003EB430305EBC303D2B21A75A2
:1039600001EB090205EBC20501232B73037888F3F1
:10397000108869684846FFF75DFE2368CA225A62CC
:1039800053225A62C6E7FFF7E7FB88F310882368E3
:10399000FF225A62BDE8F88F0378094ADBB2137040
:1039A0009CF81530DBB20370DAE700BFE0130020AB
:1039B0002D080020300800200008005824080020AE
:1039C0002C08002010B51848184C19490023012272
:1039D000C0E90041C0E90232C0E90433C0E906335E
:1039E000036203F063FD50B90F48002104F0DAF9D7
:1039F00068B90D48002104F0FFF980B910BD00F04E
:103A000033FC0948002104F0CDF90028F1D000F082
:103A10002BFC0548002104F0EFF90028EED0BDE8AA
:103A2000104000F021BC00BFC0080020005400403E
:103A3000B57DB1100000000010B504469CB0002117
:103A4000502208A8CDE90211CDE90411069165F0D4
:103A5000FAF81D4B22689A4201D01CB010BD042216
:103A60004FF4403308A80892109306F085F818BB6D
:103A70004FF0B0449FED127BE36C144843F0020317
:103A8000E364E36C03F0020301930423019A0693B9
:103A90000022002302A9CDE904238DED027B02F070
:103AA00097FFA36D43F40013A365A36D03F4001304
:103AB0000093009B1CB010BD00F0D6FBD8E700BF00
:103AC0000003000012000000005400400004004801
:103AD000054808B5054B036004F0BEF900B908BD00
:103AE000BDE8084000F0C0BB14090020000C0058DD
:103AF000124B02689A4200D0704700B54FF0B043B5
:103B000083B0186D40F4801018651B6D002203F41B
:103B10008013114601932C20019B02F0DFFA2C2028
:103B200002F018FB002211462D2002F0D7FA2D20BA
:103B300003B05DF804EB02F00DBB00BF000C0058B1
:103B40002DE9F843DDF820901C480E4617469846AC
:103B50000468002CFCD11A4D4FF4E0632846EB605A
:103B600006F002FD224604214FF0904003F0D2F807
:103B7000224610214FF0904003F0CCF8BAB2314603
:103B80004FF48053284606F06BFD08B1BDE8F8837A
:103B9000012204214FF0904003F0BCF81FFA89F293
:103BA00041464FF48053284606F05AFDBDE8F843DD
:103BB000012210214FF0904003F0ACB868090020BA
:103BC000D01400202DE9F047DDF820A01A4D0F4653
:103BD000904699462C68002CFCD1184E4FF4E063B7
:103BE0003046F36006F0C0FC224604214FF09040BE
:103BF00003F090F8224610214FF0904003F08AF82D
:103C00001FFA88F239464FF48053304606F028FDFB
:103C100008B1BDE8F087012204214FF0904003F085
:103C200079F801231FFA8AF2494630462B60BDE835
:103C3000F04707F02DB800BF68090020D01400201D
:103C400008B5012202214FF0904003F063F80120F3
:103C5000FFF70CF9002202214FF0904003F05AF8D0
:103C60000A20FFF703F9012202214FF0904003F0F0
:103C700051F87820FFF7FAF8012210214FF0904018
:103C800003F048F8012204214FF0904003F042F87D
:103C9000002008BD184B02689A4200D0704730B42B
:103CA000164B1B78242B10D015490A78BAB1154C45
:103CB000154D22880A2BAB5402D12B78242B13D01C
:103CC000FD2A0CD8013292B208E00D4C0F490122B6
:103CD000227000240C700C490A4C0B70228030BCFE
:103CE0000649012208F0C2B915440023074C0B70A5
:103CF0006B7001232370F2E700380140790900203E
:103D000050090020520900207C0A00207809002078
:103D10002A4B834200D0704710B5294C29482268AD
:103D2000294B013222602168284A00FB0133B2EBA3
:103D3000730F25D8264A13680BB1013B1360236823
:103D400024492368244A01FB03F303F5511303F5C7
:103D50003753B2EB331F12D32049214B0A68214855
:103D60001A604FF0010C00221F4B0A6080F800C05F
:103D700022601A781AB11A78013AD2B21A7010BDBC
:103D8000012052F0CDFD1948194B2168194A00FB5A
:103D90000133B2EBF30F02D3174B01221A60174B1A
:103DA0001A6812B11A68013A1A60154B1A68002A8B
:103DB000C0D01A68013A1A60BCE700BF381500206D
:103DC00064090020CDCCCCCC98999919999999196E
:103DD0007C0B0020917EFB3AB88D06005C09002028
:103DE00058090020540900200A080020295C8FC2CD
:103DF00050B81E0514AE470160090020BC07002022
:103E00001808002008B5094B834200D008BD0122E4
:103E100010214FF0904002F07DFF054B0549002234
:103E20001A600868BDE8084017F05ABED014002098
:103E3000680900206C090020044B02689A4200D0F7
:103E40007047034B01221A60704700BF00380140E1
:103E500074090020B0F5006F01460BD0B0F5805F0B
:103E600004D001280AD10948FDF7D8BF084B012228
:103E70001A707047074B01221A707047B0F5806FB7
:103E800002D1054B01221A60704700BFD003002009
:103E90000508002006080020C0070020094B8446C2
:103EA0000FCB8CE80F00013004BF0023CCF80030AA
:103EB000DCF80430013304BF4FF00043CCF8043089
:103EC000704700BF50FE0B0810B584B0044602F0E6
:103ED0003DFB0D4B93E8070001AB83E80700694603
:103EE000184602F0F7FBD4E900230849012002F04C
:103EF000A5FBD4E902230649012002F09FFB02F052
:103F000039FB04B010BD00BF24B7060850FE0B08F3
:103F100058FE0B0800B595B04C220021684664F0AD
:103F200092FE02F013FB02F031FB04214FF04062DD
:103F300000236846CDE90523009102F04BFC02F016
:103F400039FB15B05DF804FB10B59CB00024482285
:103F500000210AA864F077FECDE90244CDE90444CB
:103F6000CDE90644089404F0BBFF4FF0B04227218E
:103F7000D2F8903023F0180343F01003C2F89030C9
:103F8000D2F8003423F4C06343F40073C2F8003461
:103F9000D2F8003412944FF48032CDE90A1203F4BF
:103FA000C063402201934FF4807101230E920222DC
:103FB000CDE90C31159260212022119313911693B3
:103FC0004FF0005118924FF000734FF400320AA8DE
:103FD0001794CDE91923019C1B9105F049F808B10C
:103FE00072B6FEE79FED0A7B034603216F2202A80B
:103FF0008DED067BCDE9031302920593089305F03E
:104000008DFB08B172B6FEE705F0A2FF1CB010BD33
:10401000000000008000000010B594B04022002194
:1040200001A864F010FE4FF440544FF48041022286
:1040300010236846CDE911120094139305F09CFDFE
:1040400008B172B6FEE7024BD3F8943014B010BD3D
:10405000001400582DE9804883B001F0F7FF6C4B45
:104060006C4C0FCB84E80F00013004BF00232360A9
:1040700063682268013304BF4FF000436360664BFE
:104080001A60FFF761FFFFF7C7FFFEF773FEFFF748
:104090001FFDFEF7A3FFFEF77FFF01F09DFBFFF77B
:1040A00091FC01F005FC01F029FC01F0C9FD01F0D3
:1040B0007FFE01F02FFE01F051FB01F051FB642067
:1040C000FEF7D4FE0CF06CF86420FEF7CFFE5348E8
:1040D00006F0D8FF00221146192001F0FFFF192039
:1040E00002F038F8FEF762FEFEF728FD4C48FEF7B6
:1040F00015F8FDF79BFEFDF765FD48F095F8FFF715
:104100009FFD0446C8B9474A474B00924FF4A0713F
:104110000246F0203FF052FF444D0221286017F084
:104120009BFF28681B2117F0B1FC2868404A4149D1
:1041300000944FF4164317F01FFC3F483F4C404D8E
:10414000404EDFF81C91DFF81C81DFF8D4A052F05C
:104150006BFC40F003FC0121206040F043FC3A4935
:1041600020683A4C40F046FC002001F0B9FEFEF712
:10417000ABFE0FCD0FC495E8030084E80300A4F163
:104180001000FCF74DF8A4F1100182B23048314D17
:1041900007F016FF30492E48012207F067FFA4F10F
:1041A0001000FCF73DF881B2A4F110000CF0ACF95E
:1041B0002A4C00274FF0A70B236801332360FEF73A
:1041C0006FFE337803B13770FEF7DEFBFEF792FE29
:1041D0005046FEF76DF82A78D9F8003002B12F70FA
:1041E00043B1D8F80030002BE6D0C8F800704DF08D
:1041F00031FADFE7C9F800B00BF0B2FED8F80030B2
:10420000002BD9D0C8F800704DF024FAD2E700BFD7
:1042100050FE0B08840B00202000002038150020E1
:1042200040040020C53B0008413B00086C09002009
:104230009C1600209CAC00209560000870090020AE
:1042400004B9060878090020E51E00087C09002052
:10425000D015002054090020790900205C090020B5
:104260007C0B00206009002072B6FEE708B50BF059
:1042700053FDBDE80840002001F032BE024B012290
:1042800000201A7001F02CBE800B0020022001F0EB
:1042900027BE00BF002001F023BE00BF2DE9F04F74
:1042A000002093B00DF0C4FBE94FEA4D38600221C5
:1042B0000DF0D6FB3868DFF8BC83DFF8BC93DFF87D
:1042C000BCA310210DF0CCFB38680022FF2115F0B3
:1042D000B7F928463C6849F031FFC0F307238DF851
:1042E0000C00C0F307408DF80D308DF80E00002251
:1042F0000399204615F090F93868D74C0DF098FBDB
:10430000022120600DF0ACFB206810210DF0A8FB0D
:10431000386826680FF004FFA0F1140130460FF052
:10432000A3FD20686FF040410FF0B8FD2068002227
:10433000022115F0A9F94046266849F0FFFE034620
:10434000C3F30722C3F307438DF812308DF8100032
:104350008DF8112004993046002215F081F9284685
:10436000256849F0EBFE0346C3F30722C3F3074376
:104370008DF816308DF814008DF815200599284613
:10438000002215F049F920680022052115F0F0F906
:104390002568002228460A2115F02EF92846002219
:1043A0000A2115F031F9284600220A2115F014F9E6
:1043B000284600220A2115F017F900231A46206822
:1043C00009210FF0D9FD206853F0A0FF32220546E5
:1043D000B4210FF01DFD00220821284615F0C8F970
:1043E000404649F0ABFEC0F307238DF81800C0F338
:1043F00007408DF819308DF81A00069928460022DA
:1044000015F00AF900220A21284615F045F9002086
:1044100049F094FEC0F307238DF81C00C0F3074059
:104420008DF81D308DF81E0007992846002215F0E2
:104430003BF900224C21284615F04AF9484649F03C
:104440007DFE8DF82000C0F30723C0F307408DF8F0
:1044500021308DF8220008992846202215F0DCF83A
:1044600000231A46284602210FF086FD00230A2267
:104470007A4928460EF012FF28465AF097FE7849EE
:1044800006465AF09FFE51460022304615F060F96C
:10449000304611F045F9206853F038FF32220646C5
:1044A000B4210FF0B5FC00220821304615F060F968
:1044B000404649F043FEC0F307238DF82400C0F3C3
:1044C00007408DF825308DF82600099930460022E6
:1044D00015F0A2F800220A21304615F0DDF8002080
:1044E00049F02CFEC0F307238DF82800C0F30740E5
:1044F0008DF829308DF82A000A993046002215F0EF
:10450000D3F800224C21304615F0E2F8484649F035
:1045100015FE8DF82C00C0F30723C0F307408DF87B
:104520002D308DF82E004FF00F0B0B9930462022C6
:1045300015F072F829463046CDF800B000230E225F
:1045400010F0BCFC00230A22464930460EF0A6FEBD
:1045500030465AF02BFE444905465AF033FE514688
:104560000022284615F0F4F8284611F0D9F8206802
:1045700053F0CCFE32220546B4210FF049FC002254
:104580000821284615F0F4F8404649F0D7FDC0F35D
:1045900007238DF83000C0F307408DF831308DF8D7
:1045A00032000C992846002215F036F800220A2124
:1045B000284615F071F8002049F0C0FDC0F307232C
:1045C0008DF83400C0F307408DF835308DF8360093
:1045D0000D992846002215F067F800224C21284644
:1045E00015F076F8484649F0A9FD8DF83800C0F37B
:1045F0000723C0F307408DF839308DF83A000E9943
:104600002846202215F008F831462846CDF800B09B
:1046100000230E2210F052FC00230A2213492846E0
:104620000EF03CFE28465AF0C1FD114906465AF0EC
:10463000C9FD51460022304615F08AF8304611F087
:104640006FF8206853F062FE32220446B42117E06E
:10465000980B0020D0EAF000940B00208D42000857
:104660001CB906089542000824B906086D420008E6
:104670002CB906084F453600D276190048F60608D0
:104680000FF0C6FB00220821204615F071F84046C5
:1046900049F054FDC0F307238DF83C00C0F30740F8
:1046A0008DF83D308DF83E000F992046002214F021
:1046B000B3FF00220A21204614F0EEFF002049F04B
:1046C0003DFDC0F307238DF84000C0F307408DF88F
:1046D00041308DF8420010992046002214F0E4FF8A
:1046E00000224C21204614F0F3FF484649F026FDF5
:1046F0008DF84400C0F30723C0F307408DF8453020
:104700008DF8460011992046202214F085FF294695
:1047100020460023CDF800B00E2210F0CFFB00237E
:104720000A220A4920460EF0B9FD20465AF03EFD05
:10473000074904465AF046FD204610F0F1FF38467E
:104740000DF082FD386813B0BDE8F08F7D4200089F
:104750003CB90608012001F0C3BB00BF0B4B1B682E
:1047600093B110B590B00446402168460BF010FBA1
:104770006946074864F0A0F920464CF0E9FF694615
:104780005AF020FD10B010BD704700BF8C13002000
:1047900048B90608164B1B6843B370B58AB0044687
:1047A000FDF758FA0546FDF76FFA064620464CF02D
:1047B000CFFF044666B902AE0E4A2B462021304692
:1047C00064F08CF9314620465AF0FCFC0AB070BD0A
:1047D00002AE094B094A00952021304664F07EF96B
:1047E000314620465AF0EEFC0AB070BD704700BF5B
:1047F0008C13002064B9060858B906085CB906088D
:10480000114B1B68FBB100B5104B11481A781149C8
:10481000114B002AB0EE007AF7EE007A89B018BF8B
:10482000F0EE477A08BF0346C1ED007A0B4A20211B
:10483000684664F053F90A4B694618685AF0C2FC9E
:1048400009B05DF804FB70478C13002004080020B9
:1048500074B90608100000206CB9060878B906087B
:10486000C8130020000000006B4B1B68002B7ED09B
:1048700070B56A4B6A4C2DED048BD4ED007A93ED44
:10488000008A684BB4EE678AF1EE10FA82B083EDCD
:10489000008A68D0DFED647AB4EEE78AF1EE10FAB0
:1048A00066D4DFED627AB4EEE78AF1EE10FA6CDDE1
:1048B0009FED5F9ADFED5F8AC3ED007AF0EE490A63
:1048C000B0EE678A62250026B0EE680A9FED5A2A8C
:1048D000DFED5A1A9FED5A1A84ED008A01A9684645
:1048E00001F03CFBDDED007A564C5749574B2068F0
:1048F000CD60F4EEE87AF1EE10FA8CBFB0EE688A83
:10490000B0EE678A78EEC88A77EEC87AFDEEE88A5C
:10491000FDEEE77A0222C1ED008AC1ED027A4E6017
:1049200001935BF063FB206815F074FA05460FF005
:1049300061FB08EE900A28460FF088FB07EE900A0C
:10494000F8EEE77AF8EEE88A39EE679A38EE688A88
:10495000FDEEC97A206817EE902AFDEEC87A17EEB0
:10496000901A0FF0F5F902B0BDEC048B70BD7047E2
:104970009FED2F9AC3ED007AB0EE678AF0EE490AF8
:1049800062250026F3EE058A9EE718EE100AFBF773
:10499000B3FD1FA3D3E90023FBF706FEFCF7FCF8E9
:1049A00009EE100AB0EE490A61F0F8FEDFED289A30
:1049B000DFED237AE0EE297AB0EE670A61F078FF46
:1049C000F0EE408AB0EE490A61F02CFFDFED217A6B
:1049D000E0EE297AB0EE670A61F06AFFDFED1E7A39
:1049E000B4EEE70AF1EE10FA8CBFB0EE679AB0EEC3
:1049F000409A30EE497A77EEC97ABDEEC77AFDEE7D
:104A0000E77A17EE106A17EE905AF0EE400A5BE76D
:104A1000399D52A246DF913F8C130020FC070020F5
:104A2000AC0B0020B00B00200000804300008E4340
:104A30000000784200005B430000C8420000484389
:104A40000000F042A01300209C0B00200000204337
:104A50000000CD430000E643000020432DE9F04173
:104A60008F4E904C3068904F94B00CF0E1FF0221D3
:104A700020600CF0F5FF102120680CF0F1FF306889
:104A800025680FF04DFB011F28460FF0EDF9206857
:104A90006FF040410FF002FA00220221206814F06A
:104AA000F3FD8248256849F049FBC0F307238DF8E0
:104AB0000800C0F307408DF809308DF80A0002990C
:104AC0002846002214F0CCFD20680022052114F0B5
:104AD0004FFE256800222846032114F08DFD28464C
:104AE0000022032114F090FD28460022032114F037
:104AF00073FD00220321284614F076FD6B482568DB
:104B000049F01CFBC0F307238DF80C00C0F30740ED
:104B10008DF80D308DF80E0003992846002214F010
:104B20007BFD0223194600222068614D0FF024FA14
:104B300020685AF03BFB022128600CF091FF2868A6
:104B400010210CF08DFF5B4928685AF03BFB6FF099
:104B50004042114628680FF05BF9286800220321C3
:104B600014F0FEFD002328681A4608210FF004FA0D
:104B70003868002800F0818029684CF0DBFD3D6832
:104B80003368C3B1FDF766F80746FDF77DF8804648
:104B900028464CF0DDFD0546B8F1000F63D10DF15C
:104BA0001008454A3B462021404663F097FF4146A6
:104BB00028465AF007FB2068404D414F5AF0F6FA5C
:104BC000022128600CF04CFF286810210CF048FFEF
:104BD0003C4928685AF0F6FA6FF0404211462868BE
:104BE0000FF016F928680022032114F0B9FD002304
:104BF00028681A4609210FF0BFF93868002845D007
:104C000029684CF097FD3D6833686BB1402104A8DA
:104C10000BF0BEF804A92C4863F04EFF28464CF078
:104C200097FD04A95AF0CEFA2068284C5AF0BEFA33
:104C3000022120600CF014FF206810210CF010FFFE
:104C4000206823495AF0BEFA6FF0404220681146AE
:104C50000FF0DEF8002320681A46072114B0BDE8E3
:104C6000F0410FF089B90DF110081A4B1A4A00975C
:104C70002021404663F032FF99E72A6817484FF435
:104C80007A714CF0F9FC0546386079E72A681448D7
:104C90004FF47A714CF0F0FC05463860B4E700BF81
:104CA0008C130020B013002088130020D0EAF000FD
:104CB000C41300207CB9060864B90608C01300209C
:104CC0008413002084B9060848B90608C8130020D8
:104CD00074B9060858B906085CB906089547000873
:104CE0005D470008000000002DE9F0472DED0C8B1A
:104CF000834CDFF854A22068824D9FED83DA9FED4C
:104D0000838A9FED83CADFED83BA9FED83BADFED1F
:104D100083AA9FED83AA88B00CF08AFE0221CAF80C
:104D200000000CF09DFE1021DAF800000CF098FE57
:104D30002068DAF800400FF0F3F9011F20460FF069
:104D400093F8DAF8000082210FF0A8F8002202217F
:104D5000DAF8000014F098FC7248DAF8004049F0E4
:104D6000EDF9C0F30743C0F307228DF80E308DF83C
:104D70000C008DF80D2020460399002214F070FCE1
:104D8000DAF800000022052114F0F2FCDAF8004005
:104D900000221146204614F02FFC00221146204626
:104DA00014F032FC00221146204614F015FC0022BB
:104DB0001146204614F018FC5B48DAF8004049F030
:104DC000BDF9C0F30743C0F307228DF810008DF83A
:104DD00011208DF8123020460499002214F01CFC9A
:104DE00002231946DAF8000000220FF0C5F84F4BF5
:104DF00002241968009400230E22DAF8000010F053
:104E00005DF8DAF8000010F071FBDAF800000FF03E
:104E1000F1F809EE900ADAF800000FF017F909EE40
:104E2000100ADAF800005AF0C1F9214628600CF0A7
:104E300017FE286810210CF013FE28683C495AF030
:104E4000C1F928682146002214F08AFC6FF0404224
:104E5000286811460EF0DCFF052300222146286851
:104E6000344D0FF089F8DAF800005AF09FF9214626
:104E700028600CF0F5FD286810210CF0F1FD286881
:104E80002D495AF09FF928682146002214F068FC49
:104E90006FF04042286811460EF0BAFF0A236422E0
:104EA00021462868254D0FF067F8DAF800005AF01F
:104EB0007DF9214628600CF0D3FD286810210CF004
:104EC000CFFD28681C495AF07DF928682146002248
:104ED00014F046FC6FF04042286811460EF098FF2F
:104EE0002868174D21460A236FF063020FF044F83B
:104EF000144CF8EEE99AB8EEC99A4FF000084EE06B
:104F00008C130020981300204D6578BF62BA77BEDD
:104F10000000CD430000C9430000F0420000E6431A
:104F2000000048434F453600D0EAF000B01300209F
:104F300088B90608941300208CB906089013002045
:104F4000B40B0020F01100209C1300203333333FBA
:104F50000000804307EE908A5FED046A1FED047A3B
:104F6000F8EEE77AA7EEA67A17EE100AFBF7C4FA76
:104F700094A3D3E90023FBF717FBFBF70DFE08EE24
:104F8000100AB0EE480A61F009FCF0EE407AB0EE8B
:104F9000480AB0EE678A61F045FCB0EE40DA824B19
:104FA00003FB08F3B3F1333F8CBFF0EE6BDAF0EEA6
:104FB0004CDAB0EE4B0AF0EE007AADEE880A08F15A
:104FC0000108F2EE04CA88BFF0EE67CA61F070FC17
:104FD000F0EE408AB0EE6A0AADEE8D0A61F068FC30
:104FE000B0EE6C2AF0EE400A9FED701AF0EE4A1A0D
:104FF000B0EE408A07A9B0EE680A06A800F0AEFF3E
:105000009DED067ADDED077ADAF80000B4EEE87A75
:10501000F1EE10FAF4EEC87A8CBFF0EE68CAF0EE4A
:1050200047CAF1EE10FAB4EEE87A8CBFB0EE48DA77
:10503000B0EE67DAF1EE10FAB4BFB0EE686AB0EE27
:10504000476AF4EEC87AF1EE10FAB4EE6C6AB4BFB7
:10505000F0EE486AF0EE676AF1EE10FA18BF36EE2D
:105060006C6AF4EE4D6A18BFBDEEC66A78EEEC8A43
:1050700018BF16EE106A38EE4D8A37EE6C7A77EE6E
:10508000CD7A08BF0126F1EE10FA18BF76EECD6A90
:10509000BDEEC77AFDEEE77AFDEEE88ABDEEC88A7E
:1050A00018BFFDEEE66A85ED027AC5ED037AC5ED1F
:1050B000008A85ED018A14BF16EE907A01275AF016
:1050C00089FF44F8040F294602225AF08FFF00227C
:1050D0000221206814F004FB3548D4F8009049F010
:1050E0002DF8C0F307238DF81400C0F307408DF8A6
:1050F00015308DF816000599002248463DEE49DA34
:1051000014F0FEFA20680022012114F0F1FA7CEE7E
:10511000E9CAFDEECD7A206817EE902AFDEEEC7A12
:10512000103517EE901A0EF013FE20683A463146FD
:105130000EF06EFEB8F1290F7FF40CAFDAF8000024
:105140001C4C5AF047FF022120600CF089FC2068BB
:1051500010210CF085FC20680022032114F0C0FA15
:105160001548256848F0EAFFC0F30743C0F307225B
:105170008DF81E308DF81C008DF81D2007992846EB
:10518000002214F0BDFA00221146206814F0B0FA93
:105190000A4B0B4A1A6008B0BDEC0C8BBDE8F04717
:1051A000FFF762BBAFF30080CDCCCCCC0000F04267
:1051B0004F453600A01300201D57DF00AC0B002028
:1051C00000008743399D52A246DF913F30B5474DDD
:1051D000474C28688DB00CF02BFC022120600CF0AD
:1051E0003FFC206810210CF03BFC286825680EF07D
:1051F00097FF011F28460EF037FE20686FF04041F0
:105200000EF04CFE20680022022114F03DFA3948CD
:10521000256848F093FFC0F30743C0F307228DF8D9
:105220000A308DF808008DF80920029900222846DE
:1052300014F016FA3048256848F080FFC0F30743A1
:10524000C0F307228DF80E308DF80C008DF80D207C
:1052500003992846002214F0DFF920680022052176
:1052600014F086FA256800222846032114F0C4F9B8
:1052700028460022032114F0C7F928460022032102
:1052800014F0AAF928460022032114F0ADF91B4BB3
:1052900002251968009500230E2220680FF00EFEEB
:1052A0002068174C59F082FF294620600CF0D8FB8B
:1052B000206810210CF0D4FB124B134A1B682021EC
:1052C00004A863F00BFC206804A959F07BFF6FF081
:1052D0004042206811460EF09BFD002320681A46CC
:1052E00007210EF049FE0DB030BD00BF8C13002029
:1052F000AC1300204F453600D0EAF0009C1300208C
:10530000BC1300202000002090B906082DE9F041D0
:10531000764D774C2868774F86B00CF089FB0221D8
:1053200020600CF09DFB206810210CF099FB286890
:1053300025680EF0F5FE011F28460EF095FD206849
:105340006FF040410EF0AAFD20680022022114F007
:105350009BF93846256848F0F1FEC0F307238DF825
:105360000800C0F307408DF809308DF80A00029953
:105370000022284614F074F95F48256848F0DEFEE4
:10538000C0F307238DF80C00C0F307408DF80D30F3
:105390008DF80E0003992846002214F03DF920688C
:1053A0000022052114F0E4F9256800222846032193
:1053B00014F022F928460022032114F025F928468A
:1053C0000022032114F008F928460022032114F0DA
:1053D0000BF94A4B4A4D19680226009600230E220B
:1053E00020680FF06BFD206859F0E0FE3146286020
:1053F0000CF036FB286810210CF032FB6FF04042B5
:10540000114628680EF004FD28683E4959F0DAFE7E
:1054100028683146002214F0A3F9002211462868BA
:1054200014F032F93846D5F8008048F087FE03467C
:10543000C3F30722C3F307438DF812308DF8100031
:105440008DF8112004994046002214F06DF9286867
:105450002D49002214F07CF900231A4631462868B1
:105460000EF08AFD2068294C59F0A0FE31462060DC
:105470000CF0F6FA206810210CF0F2FA6FF04042BE
:10548000114620680EF0C4FC2068214959F09AFEAC
:1054900020683146002214F063F90022114620688A
:1054A00014F0F2F83846276848F048FE0346C3F384
:1054B0000722C3F307438DF816308DF814008DF8DA
:1054C000152005993846002214F02EF9206811495C
:1054D000002214F03DF929682068009600230E226E
:1054E0000FF0ECFC06B0BDE8F08100BF8C1300208B
:1054F000A81300204F453600D0EAF000AC1300207E
:10550000B813002010B8060848F60608B4130020A7
:105510009CB9060868C9060870B56A4D6A4C2868C7
:1055200088B00CF085FA022120600CF099FA20680E
:1055300010210CF095FA286825680EF0F1FD011F86
:1055400028460EF091FC614D206834210EF0A6FC37
:1055500020680022022114F097F82846266848F0B7
:10556000EDFDC0F307238DF80C00C0F307408DF864
:105570000D308DF80E0003990022304614F070F8BB
:105580002846256848F0DAFDC0F30743C0F3072238
:105590008DF812308DF810008DF8112004992846EE
:1055A000002214F039F820680022052114F0E0F8F8
:1055B000256800222846032114F01EF82846002200
:1055C000032114F021F828460022032114F004F8E6
:1055D00028460022032114F007F83D4A206811688C
:1055E000022300930E2200230FF068FC206852F083
:1055F0008DFE2822114604460EF00AFC00231A46AE
:10560000204607210EF0B8FC00220821204614F0A5
:10561000AFF8304848F092FDC0F30743C0F30722CB
:105620008DF816308DF814008DF815200599204658
:10563000002213F0F1FF00220A21204614F02CF87A
:10564000002048F07BFDC0F30743C0F307228DF82C
:105650001A308DF818008DF819200699204600227E
:1056600014F022F800224C21204614F031F81A4898
:1056700048F064FDC0F30743C0F307228DF81E30E5
:105680008DF81C008DF81D2007992022204613F06C
:10569000C3FF204659F08AFD1049054659F092FD96
:1056A000284610F03DF828460D49002214F050F825
:1056B0000C4900230A22204608B0BDE870400DF0D6
:1056C000EDBD00BF8C130020A4130020D0EAF00031
:1056D000A81300204F453600D2761900A8B8060856
:1056E00048F606085547000830B5002083B00CF096
:1056F0009FF9184C022120600CF0B2F920681021AB
:105700000CF0AEF920680022FF2113F099FF124837
:10571000256848F013FDC0F30743C0F307228DF856
:1057200006308DF804008DF80520019900222846E6
:1057300013F072FFFFF792F9FFF7D6FAFFF746FD75
:10574000FFF7E4FDFFF7E8FE20460CF07DFD206842
:1057500003B030BD8C130020D0EAF000704700BFCA
:105760000648074A08B50023C0E9002304F0F8FB07
:1057700000B908BDBDE80840FEF776BDCC13002097
:105780000010005810B5044696B05022002102A81F
:1057900063F059FA0F4B22689A4201D016B010BD3F
:1057A0004FF400724FF0804302A80292109304F06D
:1057B000E3F960B94FF0B0431A6D42F480221A65E4
:1057C0001B6D03F480230193019B16B010BDFEF7FF
:1057D0004BFDEFE70010005810B51248124C0023A3
:1057E0000F2147F6FF72C0E90043C0E90212C0E989
:1057F00005330361C36104F0D3FB30B900220948CB
:10580000114604F04DFC48B910BDFEF72DFD0022F5
:105810000448114604F044FC0028F5D0BDE81040CF
:10582000FEF722BDE01300200028004010B504461A
:1058300096B05022002102A863F005FA164B2268A8
:105840009A4201D016B010BD4FF400624FF480733D
:1058500002A80292129304F08FF9D0B94FF0B0432E
:105860000022D3F8900040F40040C3F890009C6DF3
:1058700044F480649C659B6D03F48063114601933E
:105880000320019B00F02AFC032000F063FC16B00B
:1058900010BDFEF7E9FCE1E70028004010B5034C1D
:1058A00020460CF0D1FC206810BD00BF041400207D
:1058B000104811494FF4827210B5C0E900124FF43C
:1058C000007200234FF4E064072182610822C0E9DE
:1058D0000234C0E90433C0E90733C0E90933C0E941
:1058E0000B13426304F040FE00B910BDBDE8104048
:1058F000FEF7BABCD01400200030014010B51148AA
:10590000114C4FF48272C0E90042022200234FF48E
:10591000E061012402614FF40072C0E90231C0E984
:10592000054208210722C0E90713C0E90933C0E98D
:105930000B23436304F018FE00B910BDBDE810400E
:10594000FEF792BC681400200038004070B5036870
:10595000414A8AB000249342CDE90444CDE906448B
:10596000089404D03D4A934244D00AB070BD4FF031
:10597000B04305461A6E3A4E42F480521A661A6EC9
:1059800002F480520192019ADA6C42F00102DA6468
:10599000DB6C03F001030093E0220223CDE9042332
:1059A0000098032205234FF0904004A9CDE9072376
:1059B00001F00EF82B4A0723C6E9002380231022AA
:1059C000336130464FF40053C6E90224C6E905446A
:1059D000C6E9074300F014FC00283AD10022114622
:1059E0006E652220B56200F079FB222000F0B2FB48
:1059F0000AB070BD4FF0B0434FF420409A6D42F4AE
:105A000080429A659A6D02F480420392039ADA6C9E
:105A100042F00202DA64DB6C022103F00203CDE9FA
:105A2000040102930525032304A90F48029ACDE936
:105A3000073500F0CDFF4FF4804202230A48089555
:105A400004A9CDE90423CDE9064400F0C1FF0AB062
:105A500070BDFEF709FCC1E700300140003800408E
:105A600008140020080002400004004800B54FF070
:105A7000B04383B0186D40F4002018651B6D002200
:105A800003F40023019311462E20019B00F026FB16
:105A90002E2003B05DF804EB00F05CBBFEE700BF16
:105AA000FEE700BFFEE700BFFEE700BFFEE700BF66
:105AB000704700BF704700BF704700BF00F0DEBAFC
:105AC000FDF7E2BE012001F02BB900BF014800F054
:105AD000EFBC00BF08140020014802F0EDBA00BF7F
