:020000040800F2
:1000000000000320655E0008595900085D5900088A
:10001000615900086559000869590008000000008E
:100020000000000000000000000000006D59000802
:10003000715900080000000075590008795900083E
:10004000BD5E0008BD5E0008BD5E00087D59000869
:10005000BD5E0008BD5E000881590008BD5E000855
:10006000BD5E0008BD5E0008BD5E0008895900083D
:10007000BD5E0008BD5E0008BD5E0008BD5E0008F4
:10008000BD5E0008BD5E0008BD5E0008BD5E0008E4
:1000900095590008BD5E0008BD5E0008BD5E000801
:1000A000BD5E0008A1590008BD5E0008BD5E0008E5
:1000B000BD5E0008BD5E0008BD5E0008BD5E0008B4
:1000C000BD5E0008BD5E0008AD590008BD5E0008B9
:1000D000B9590008BD5E0008BD5E0008BD5E00089D
:1000E000C5590008BD5E0008BD5E0008BD5E000881
:1000F000E5590008E9590008ED590008BD5E0008FF
:10010000BD5E0008BD5E0008BD5E0008BD5E000863
:10011000BD5E0008BD5E0008BD5E0008BD5E000853
:10012000BD5E0008BD5E0008BD5E0008BD5E000843
:0C013000BD5E0008BD5E0008BD5E00085A
:1001400010B5054C237833B9044B13B10448AFF311
:1001500000800123237010BDA803002000000000D0
:100160009CB5060808B5034B1BB103490348AFF320
:10017000008008BD00000000AC0300209CB506080C
:1001800001F0FF01102A2BDB10F0070F08D010F848
:10019000013B013A8B422DD010F0070F42B3F6D14C
:1001A000F0B441EA012141EA014122F007047FF065
:1001B00000070023F0E80256083C85EA010586EABC
:1001C000010685FA47F5A3FA87F586FA47F6A5FAF8
:1001D00087F68EB9EED1F0BC01F0FF0102F0070204
:1001E00032B110F8013B013A83EA010313B1F8D1AF
:1001F0000020704701387047002D06BF3546033890
:10020000073815F0010F07D1013015F4807F02BFC8
:10021000013015F4C03F0130F0BC0138704700BF19
:10022000034613F8012B002AFBD1181A0138704736
:1002300081F0004102E000BF83F0004330B54FEA97
:1002400041044FEA430594EA050F08BF90EA020F04
:100250001FBF54EA000C55EA020C7FEA645C7FEA97
:10026000655C00F0E2804FEA5454D4EB5555B8BFBA
:100270006D420CDD2C4480EA020281EA030382EA2B
:10028000000083EA010180EA020281EA0303362DBD
:1002900088BF30BD11F0004F4FEA01314FF4801C90
:1002A0004CEA113102D0404261EB410113F0004FA2
:1002B0004FEA03334CEA133302D0524263EB430359
:1002C00094EA050F00F0A780A4F10104D5F1200EF7
:1002D0000DDB02FA0EFC22FA05F2801841F1000152
:1002E00003FA0EF2801843FA05F359410EE0A5F126
:1002F00020050EF1200E012A03FA0EFC28BF4CF057
:10030000020C43FA05F3C01851EBE37101F000450C
:1003100007D54FF0000EDCF1000C7EEB00006EEB19
:100320000101B1F5801F1BD3B1F5001F0CD34908A3
:100330005FEA30004FEA3C0C04F101044FEA4452FA
:1003400012F5800F80F09A80BCF1004F08BF5FEA81
:10035000500C50F1000041EB045141EA050130BD61
:100360005FEA4C0C404141EB0101013C28BFB1F573
:10037000801FE9D291F0000F04BF01460020B1FABE
:1003800081F308BF2033A3F10B03B3F120020CDA91
:100390000C3208DD02F1140CC2F10C0201FA0CF06F
:1003A00021FA02F10CE002F11402D8BFC2F1200CD4
:1003B00001FA02F120FA0CFCDCBF41EA0C0190408A
:1003C000E41AA2BF01EB0451294330BD6FEA0404D3
:1003D0001F3C1CDA0C340EDC04F11404C4F12002BE
:1003E00020FA04F001FA02F340EA030021FA04F3D0
:1003F00045EA030130BDC4F10C04C4F1200220FA27
:1004000002F001FA04F340EA0300294630BD21FA64
:1004100004F0294630BD94F0000F83F4801306BF2A
:1004200081F480110134013D4EE77FEA645C18BF1E
:100430007FEA655C29D094EA050F08BF90EA020FB5
:1004400005D054EA000C04BF1946104630BD91EAAD
:10045000030F1EBF0021002030BD5FEA545C05D1B0
:100460004000494128BF41F0004130BD14F58004EF
:100470003CBF01F5801130BD01F0004545F0FE4163
:1004800041F470014FF0000030BD7FEA645C1ABF98
:10049000194610467FEA655C1CBF0B46024650EACF
:1004A000013406BF52EA033591EA030F41F40021FB
:1004B00030BD00BF90F0000F04BF0021704730B581
:1004C0004FF4806404F132044FF000054FF0000156
:1004D00050E700BF90F0000F04BF0021704730B517
:1004E0004FF4806404F1320410F0004548BF4042EC
:1004F0004FF000013EE700BF42004FEAE2014FEA41
:1005000031014FEA02701FBF12F07F4393F07F4F1B
:1005100081F06051704732F07F4208BF704793F01E
:100520007F4F04BF41F40021704730B54FF4607431
:1005300001F0004521F000411CE700BF50EA010234
:1005400008BF704730B54FF000050AE050EA0102DD
:1005500008BF704730B511F0004502D5404261EB4D
:1005600041014FF4806404F132045FEA915C3FF48E
:10057000D8AE4FF003025FEADC0C18BF03325FEA2B
:10058000DC0C18BF033202EBDC02C2F1200300FADC
:1005900003FC20FA02F001FA03FE40EA0E0021FA01
:1005A00002F11444BDE600BF70B54FF0FF0C4CF4EF
:1005B000E06C1CEA11541DBF1CEA135594EA0C0FA1
:1005C00095EA0C0F00F0DEF82C4481EA030621EADC
:1005D0004C5123EA4C5350EA013518BF52EA033517
:1005E00041F4801143F4801338D0A0FB02CE4FF0C9
:1005F0000005E1FB02E506F00042E0FB03E54FF0F9
:100600000006E1FB03569CF0000F18BF4EF0010EF0
:10061000A4F1FF04B6F5007F64F5407404D25FEAEC
:100620004E0E6D4146EB060642EAC62141EA55519F
:100630004FEAC52040EA5E504FEACE2EB4F1FD0CE1
:1006400088BFBCF5E06F1ED8BEF1004F08BF5FEA5F
:10065000500E50F1000041EB045170BD06F0004611
:1006600046EA010140EA020081EA0301B4EB5C04BE
:10067000C2BFD4EB0C0541EA045170BD41F48011B6
:100680004FF0000E013C00F3AB8014F1360FDEBFDB
:10069000002001F0004170BDC4F10004203C35DAB7
:1006A0000C341BDC04F11404C4F1200500FA05F33A
:1006B00020FA04F001FA05F240EA020001F00042DB
:1006C00021F0004110EBD37021FA04F642EB060151
:1006D0005EEA430E08BF20EAD37070BDC4F10C047B
:1006E000C4F1200500FA04F320FA05F001FA04F23F
:1006F00040EA020001F0004110EBD37041F100012B
:100700005EEA430E08BF20EAD37070BDC4F1200535
:1007100000FA05F24EEA020E20FA04F301FA05F29D
:1007200043EA020321FA04F001F0004121FA04F245
:1007300020EA020000EBD3705EEA430E08BF20EA15
:10074000D37070BD94F0000F0FD101F0004640004F
:1007500041EB010111F4801F08BF013CF7D041EAD1
:10076000060195F0000F18BF704703F000465200D5
:1007700043EB030313F4801F08BF013DF7D043EAA6
:100780000603704794EA0C0F0CEA135518BF95EA5C
:100790000C0F0CD050EA410618BF52EA4306D1D1E3
:1007A00081EA030101F000414FF0000070BD50EA02
:1007B000410606BF1046194652EA430619D094EA8C
:1007C0000C0F02D150EA013613D195EA0C0F05D176
:1007D00052EA03361CBF104619460AD181EA0301CA
:1007E00001F0004141F0FE4141F470014FF0000082
:1007F00070BD41F0FE4141F4780170BD70B54FF01D
:10080000FF0C4CF4E06C1CEA11541DBF1CEA13559C
:1008100094EA0C0F95EA0C0F00F0A7F8A4EB05047E
:1008200081EA030E52EA03354FEA013100F0888075
:100830004FEA03334FF0805545EA131343EA12633E
:100840004FEA022245EA111545EA10654FEA0026F3
:100850000EF000419D4208BF964244F1FD0404F5AC
:10086000407402D25B084FEA3202B61A65EB030508
:100870005B084FEA32024FF480104FF4002CB6EBC5
:10088000020E75EB030E22BFB61A754640EA0C0045
:100890005B084FEA3202B6EB020E75EB030E22BF85
:1008A000B61A754640EA5C005B084FEA3202B6EBC6
:1008B000020E75EB030E22BFB61A754640EA9C0085
:1008C0005B084FEA3202B6EB020E75EB030E22BF55
:1008D000B61A754640EADC0055EA060E18D04FEA13
:1008E000051545EA16754FEA06164FEAC30343EAB3
:1008F00052734FEAC2025FEA1C1CC0D111F4801F80
:100900000BD141EA00014FF000004FF0004CB6E778
:1009100011F4801F04BF01430020B4F1FD0C88BF17
:10092000BCF5E06F3FF6AFAEB5EB030C04BFB6EB22
:10093000020C5FEA500C50F1000041EB045170BD15
:100940000EF0004E4EEA113114EB5C04C2BFD4EB42
:100950000C0541EA045170BD41F480114FF0000EC6
:10096000013C90E645EA060E8DE60CEA135594EA42
:100970000C0F08BF95EA0C0F3FF43BAF94EA0C0F45
:100980000AD150EA01347FF434AF95EA0C0F7FF4BA
:1009900025AF104619462CE795EA0C0F06D152EA0E
:1009A00003353FF4FDAE1046194622E750EA4106F2
:1009B00018BF52EA43067FF4C5AE50EA41047FF403
:1009C0000DAF52EA43057FF4EBAE12E74FF0FF3C68
:1009D00006E000BF4FF0010C02E000BF4FF0010C39
:1009E0004DF804CD4FEA410C7FEA6C5C4FEA430CB2
:1009F00018BF7FEA6C5C1BD001B050EA410C0CBF01
:100A000052EA430C91EA030F02BF90EA020F002062
:100A1000704710F1000F91EA030F58BF994208BFC9
:100A200090422CBFD8176FEAE37040F00100704786
:100A30004FEA410C7FEA6C5C02D150EA013C07D1DD
:100A40004FEA430C7FEA6C5CD6D152EA033CD3D028
:100A50005DF8040B704700BF8446104662468C4622
:100A60001946634600E000BF01B5FFF7B7FF002855
:100A700048BF10F1000F01BD4DF808EDFFF7F4FF7E
:100A80000CBF012000205DF808FB00BF4DF808ED09
:100A9000FFF7EAFF34BF012000205DF808FB00BF2C
:100AA0004DF808EDFFF7E0FF94BF012000205DF84E
:100AB00008FB00BF4DF808EDFFF7CEFF94BF012003
:100AC00000205DF808FB00BF4DF808EDFFF7C4FFFC
:100AD00034BF012000205DF808FB00BF4FEA410C45
:100AE0007FEA6C5C02D150EA013C0AD14FEA430C28
:100AF0007FEA6C5C02D152EA033C02D14FF0000065
:100B000070474FF0010070474FEA410212F50012A2
:100B100015D211D56FF47873B3EB625212D94FEA44
:100B2000C12343F0004343EA505311F0004F23FA2E
:100B300002F018BF404270474FF00000704750EA83
:100B4000013005D111F0004008BF6FF00040704740
:100B50004FF00000704700BF4A0011D212F500129A
:100B600011D20DD56FF47873B3EB62520ED44FEA05
:100B7000C12343F0004343EA505323FA02F0704785
:100B80004FF00000704750EA013002D14FF0FF30C3
:100B900070474FF0000070474FEA4102B2F1E04366
:100BA00024BFB3F5001CDCF1FE5C0DD901F0004C54
:100BB0004FEAC0024CEA5070B2F1004F40EB8300A4
:100BC00008BF20F00100704711F0804F21D113F1D0
:100BD0003872BCBF01F00040704741F480114FEA09
:100BE0005252C2F11802C2F1200C10FA0CF320FA92
:100BF00002F018BF40F001004FEAC1234FEAD323AF
:100C000003FA0CFC40EA0C0023FA02F34FEA430318
:100C1000CCE77FEA625307D150EA01331EBF4FF0A1
:100C2000FE4040F44000704701F0004040F0FE40BC
:100C300040F40000704700BF7BB972B90029BEBF05
:100C400000204FF0004106E008BF00281CBF6FF0F5
:100C500000414FF0FF3000F009BAADF1080C6DE92A
:100C600004CE002909DB002B1ADB00F083F8DDF845
:100C700004E0DDE9022304B07047404261EB41012A
:100C8000002B1BDB00F076F8DDF804E0DDE9022341
:100C900004B0404261EB4101524263EB43037047B1
:100CA000524263EB430300F065F8DDF804E0DDE950
:100CB000022304B0404261EB41017047524263EBB2
:100CC000430300F057F8DDF804E0DDE9022304B047
:100CD000524263EB4303704753B94AB9002908BF36
:100CE00000281CBF4FF0FF314FF0FF3000F0BEB9BD
:100CF000ADF1080C6DE904CE00F03CF8DDF804E03D
:100D0000DDE9022304B0704738B500220023044611
:100D10000D46FFF7BBFE28B920462946BDE83840FE
:100D200000F00AB8204605F1004100F005F8404205
:100D300061EB410138BD00BFD0B50C4B0022064627
:100D40000F46FFF731FCFFF707FF0446FFF7B2FB42
:100D5000074B0022FFF728FC02460B463046394677
:100D6000FFF76AFAFFF7F8FE2146D0BD0000F03D1C
:100D70000000F0412DE9F047089D8E460446884664
:100D8000002B4AD18A42174662D9B2FA82F64EB196
:100D9000C6F1200301FA06F820FA03F3B74043EA4C
:100DA0000808B4404FEA174E1FFA87FCB8FBFEF163
:100DB000230C0EFB118843EA084301FB0CF29A4214
:100DC00009D9FB1801F1FF3080F0EA809A4240F225
:100DD000E78002393B449A1AA3B2B2FBFEF00EFB45
:100DE000102243EA024300FB0CFC9C4509D9FB1886
:100DF00000F1FF3280F0D6809C4540F2D3803B4426
:100E0000023840EA0140A3EB0C0300211DB1F3407E
:100E10000022C5E90032BDE8F0878B4205D90DB14B
:100E2000C5E9000100210846F5E7B3FA83F100297E
:100E300046D1734502D3824200F20581841A6EEBDB
:100E4000030201209046002DE5D0C5E90048E2E705
:100E5000002A00F09080B2FA82F6002E40F0A480C2
:100E60008A1A030C4FEA174E80B2BCB20121B2FBC2
:100E7000FEFC0EFB1C2243EA024304FB0CF29A42E6
:100E800007D9FB180CF1FF3802D29A4200F2E08039
:100E9000C4469B1AB3FBFEF20EFB123340EA034337
:100EA00002FB04F49C4207D9FB1802F1FF3002D286
:100EB0009C4200F2CA8002461B1B42EA0C40A5E796
:100EC000C1F120068B4022FA06F71F430EFA01F407
:100ED00020FA06F32EFA06FE4FEA1749234300FADA
:100EE00001F81FFA87FCBEFBF9F01C0C09FB10EEA1
:100EF00044EA0E4400FB0CFEA64502FA01F209D9B1
:100F00003C1900F1FF3A80F09C80A64540F29980A0
:100F100002383C44A4EB0E041FFA83FEB4FBF9F341
:100F200009FB13444EEA044403FB0CFCA44508D916
:100F30003C1903F1FF3E80F08280A4457FD9023B3B
:100F40003C4443EA0040A4EB0C04A0FB02EC6445E3
:100F50007346E14662D35FD05DB1B8EB030264EB48
:100F6000090404FA06F622FA01F31E43CC40C5E94F
:100F7000006400214FE7B1FBF2FC010C41EA0E4195
:100F800080B240EA01423B4638463C46B846BE463F
:100F90002026B1FBF7F1A2EB080241EA0C4166E71B
:100FA000014618E710462CE7C6F120022EFA02F39C
:100FB000B740B14020FA02F24FEA174E0A43B3FBA2
:100FC000FEF8BCB20EFB1833110C41EA034108FBDA
:100FD00004F9B04089454FEA104380B23ED97918F0
:100FE00008F1FF3C01D289451FD8A1EB0901B1FBF3
:100FF000FEF909FB04F80EFB191192B242EA014214
:10100000424529D2BA1809F1FF31C4D24245C2D2B1
:10101000A9F102013A44BEE7F0459DD2BEEB0203BE
:101020006CEB070C0138E14696E7A7EB0909494448
:10103000A8F1020CB1FBFEF909FB04F8DBE77346EB
:101040007FE7504666E70846FDE63B44023A33E751
:10105000ACF1020C3B441CE749469CE7A1EB0901BB
:10106000C446B1FBFEF909FB04F8C4E7704700BFB2
:1010700038B504461D462170044801224FF48051C2
:1010800005F0A8FD0120656038BD00BF00040048E0
:10109000F0B583B0144602AF15480D4600224FF458
:1010A000805105F097FDE31D03F4FC73ADEB030DD8
:1010B00002AE24B122462946304667F0C2FD4FF009
:1010C000FF3300932A46234631460A4809F050FB75
:1010D000012205464FF48051054805F07BFD002DA7
:1010E0000CBF20464FF0FF300437BD46F0BD00BFB7
:1010F000000400485014002038B50E4814460D4630
:1011000000224FF4805105F065FD4FF0FF33224679
:101110002946094809F004FA012205464FF4805196
:10112000044805F057FD002D0CBF20464FF0FF305E
:1011300038BD00BF000400485014002008B5084620
:1011400001F044FE002008BD30B5002385B0CDE994
:101150000033CDE90233002900F098800B780A7A39
:1011600003F03F0343F040038DF80030037C054655
:101170000C46002B40F087800132D2B269462846E7
:10118000FFF786FF00287CDB2B7C257A002B67D0BD
:10119000227802F03F02012342F040028DF808203D
:1011A00005EB030E1A4610326A440133DBB212F823
:1011B000101C02F8081C73451A46F4DD0DF10903F2
:1011C0000DF1080C53FA8EFE00221CF8013B510071
:1011D0005A40C9B2120648BF81F00701C3F380101C
:1011E0004A00D2B2B0EBD11F18BF82F00702C3F39E
:1011F00040105100C9B2B0EBD21F18BF81F00701F7
:10120000C3F300104A00D2B2B0EBD11F18BF82F076
:101210000702C3F3C0005100C9B2B0EBD21F18BF20
:1012200081F00701C3F380004A00D2B2B0EBD11FB6
:1012300018BF82F007025000C3F34001C0B2B1EB07
:10124000D21F18BF80F00700420003F00103B3EB88
:10125000D01FD2B218BF82F00702E645B5D1C2B99D
:101260000022626001235DB103F110016944013382
:1012700011F8101CDBB2AB4201EB0222F4D9626020
:10128000002005B030BD0232D2B277E74FF0FF3018
:10129000F7E76FF00100F4E770B586B001AC84E8C1
:1012A0000E009DF804309DF80C40002203F03F032F
:1012B000CDE904228DF81030027C029B002C00F056
:1012C0008F8004F118010DEB0105012C05F8083C95
:1012D0004FEA232120D0022C05F8091C4FEA2341B4
:1012E0001AD0032C05F80A1C4FEA236114D0042CF1
:1012F00005F80B1C4FEAE3730ED0DBB2052C05F8A2
:101300000C3C09D0062C05F80D3C05D0072C05F83F
:101310000E3C01D005F80F3C002A58D0631CDBB20C
:101320000DF11102013B52FA83FE0DF1100C002267
:101330001CF8013B51005A40C9B2120648BF81F067
:101340000701C3F380164A00D2B2B6EBD11F18BF13
:1013500082F00702C3F340165100C9B2B6EBD21FA8
:1013600018BF81F00701C3F300164A00D2B2B6EBF2
:10137000D11F18BF82F00702C3F3C0065100C9B2E3
:10138000B6EBD21F18BF81F00701C3F380064A00F5
:10139000D2B2B6EBD11F18BF82F007025100C3F3DF
:1013A0004006C9B2B6EBD21F18BF81F007014A0050
:1013B00003F00103B3EBD11FD2B218BF82F00702D2
:1013C000F445B5D1023405F8072CE2B201E0621C05
:1013D000D2B204A9FFF790FE00EAE07006B070BD3B
:1013E000002AF4D0012306AD9AE700BFF8B50F46F6
:1013F00005460E46EC6894F84830062B04F1480484
:1014000001D06B7C13BB21462846FFF79DFE0346A7
:10141000002B4FF00101284611DBEB68DC6C04F077
:10142000400446B1FFF78AFE013EB4B1002EE1D17F
:1014300047B93B4603E02FB9B4FA84F35B09184679
:10144000F8BD66B96FF002031846F8BD6969284611
:10145000FFF7CCFF031ED6DAF1E7002FF1D101230D
:10146000EDE700BF38B50B78062B0D46044601D0DA
:10147000437C2BB929462046BDE83840FFF764BEBF
:101480004169FFF7B3FF0028F4DA38BD30B585B005
:1014900001AC84E80E00437C054623B14169FFF7A7
:1014A000A5FF002807DB94E80E00284605B0BDE83C
:1014B0003040FFF7F1BE05B030BD00BFF8B51E4E9D
:1014C000A6FB01360F460546F608EC682378062B86
:1014D00001D06B7CFBB921462846FFF735FE034659
:1014E000002B4FF00A01284613DBEB685C6804F020
:1014F00010044EB1FFF722FE013ECCB1002EE4D124
:10150000092F11D8334604E0092F0DD8B4FA84F31B
:101510005B091846F8BD69692846FFF767FF031E97
:10152000D9DA1846F8BD2EB96FF002031846F8BD97
:10153000092FF8D80123ECE7CDCCCCCC70B5C3682B
:1015400003F118061B7E062B04460D4601D0437C92
:101550003BB931462046FFF7F7FDE368DB692B60B6
:1015600070BD4169FFF742FF0028F2DAF5E700BFDE
:10157000F0B587B000240127C2602B4B0194C9B29B
:10158000009722460546FFF773FD002849D0274BF8
:1015900093E8030003AE86E803000822314628469C
:1015A000FFF7AAFD00283ADB69692846FFF786FFA6
:1015B000002834DB6F7401E0292C2ED0EB6804EB9B
:1015C000440203EB82035A7A012A13D0072C04F158
:1015D0000104F1D1EB689A6D0824C2F38001C2F3D3
:1015E00080126A7404EB440203EB820329745A7A72
:1015F000012AEBD193E807006B7C86E807002846B8
:1016000023B16969FFF7F2FE002806DB96E80E00B9
:101610002846FFF741FE0028D8DA00EAE07007B05C
:10162000F0BD6FF00300FAE740420F0054B6060821
:1016300000224FF47A71C26002824161704700BF9C
:10164000704700BF02494FF42B7267F0FABA00BF2F
:101650000CC2060870B500F1180604460D46304667
:10166000FFF7F0FF324629462046FFF781FF0028AA
:101670000ADB41F20803A36204F1240320460ECBE7
:10168000BDE87040FFF702BF70BD00BF10B500F1AC
:1016900018010446FFF7E6FE002804DBE069002895
:1016A000A8BF00F00F0010BD10B50F299DF808C0AD
:1016B0009DF80CE01AD8072A18D80931C9B20CF0E5
:1016C0001F0C4CEACE3C01EB41014FEA431E00EBFC
:1016D00081030EF478714CEA010C4CEA0232DA61B3
:1016E0001833BDE810400ECBFFF7D0BE4FF0FF30EF
:1016F00010BD00BF0F2925D8093170B5CCB20C211F
:1017000001FB0401183105461646FFF7ABFE002821
:1017100017DB04EB440205EB82026300D1696EB96A
:1017200021F40041234405EB830303F11802D9613E
:1017300028460ECABDE87040FFF7A8BE41F400413C
:10174000F0E770BD4FF0FF30704700BF10B50729BC
:101750009DF808409DF80CE01DD81931D2004FEAE1
:101760004E2E02F01802C9B203F007030EF4C06E49
:1017700013434EEAC42E01EB410100EB810243EA20
:101780000E0343F4F073D36102F11803BDE8104077
:101790000ECBFFF77BBE4FF0FF3010BD30B50729F1
:1017A0009DF80C409DF810C09DF814501ED82131B2
:1017B0004FEA0C5C4CEA054CC3F30A03C9B264045B
:1017C0004CEA030C01EB410104F46024520500EBE8
:1017D00081034CEA040C02F460024CEA0202DA6172
:1017E0001833BDE830400ECBFFF750BE4FF0FF304E
:1017F00030BD00BF00B589009DF804E001F03C0158
:1018000041EA03210EF0030E9201D2B241EA0E0129
:10181000114341F4805100F1240C81629CE80E00D8
:101820005DF804EBFFF732BE00B583B001A9FFF706
:1018300085FE0028A8BF019803B05DF804FB00BF37
:10184000F8B5174655EC104B0E46FEF743FED7B1E0
:10185000134A4FF07A53FEF7A7FE124B0022FEF711
:10186000EBFC22462B46FEF79FFE044630460D4613
:10187000FEF730FE02460B4620462946FEF7BEFF25
:1018800041EC100BF8BD04A3D3E90023FEF78CFE56
:10189000E7E700BFAFF30080100000100000703ECB
:1018A000400000200000F03F10B400246C214FF4F1
:1018B0007A72046081805DF8044B8260704700BFDB
:1018C000F0B585B08368009345F2FE428188ADF89B
:1018D0000C20032303AA0446002700688DF80E702D
:1018E00005F09EFD642001F071FA03251A26A36815
:1018F000A188206800930DF10B0201238DF80B6085
:101900008DF80C7005F08CFD012303AA08BBA168BB
:101910000091A188206805F0F1FE9DF80CC00CF044
:10192000FE0CA268A18820680092022303AA8DF809
:101930000C608DF80DC005F073FD034632205BB1DD
:1019400001F044FA681E10F0FF05D0D1284605B01A
:10195000F0BD4FF0000CE4E7012005B0F0BD00BF82
:1019600070B5044684B05200082308468DF80B3049
:1019700091B20023A2680092ADF80C302060A180E3
:1019800001230DF10B0205F04BFD18B1002528468F
:1019900004B070BDA3680093A1882068022303AA45
:1019A00005F0ACFE06460028F0D1BDF80C305BBA5D
:1019B00023F00F031B041B0C102BE7D12046FFF76D
:1019C0007FFF05460028E1D0A368009306238DF829
:1019D0000B30A18820688DF80C6001230DF10B02FB
:1019E00005F01EFD002845D1A3680093A18820685A
:1019F000012303AA05F082FE9DF80C3003F0DF03FB
:101A00008DF80D30A36800930623A1888DF80C3063
:101A100003AA0223206805F003FDA36800930C23AA
:101A20008DF80B3000238DF80C30A18820680DF163
:101A30000B02012305F0F4FC58B9A3680093A188B8
:101A40002068012303AA05F059FE9DF80C0000F060
:101A50007F060C230DEB03028DF80C30A368009376
:101A6000A18820688DF80D60022305F0D9FC284676
:101A700004B070BD3346C3E710B584B083680093EB
:101A80000821002204468DF80B10ADF80C20818847
:101A9000006801230DF10B0205F0C2FC18B19FEDA7
:101AA000220A04B010BDA3680093A1882068022315
:101AB00003AA05F023FE0028F1D1BDF80C305BBA73
:101AC00023F00F031B041B0C102BE8D104238DF80B
:101AD0000B30A3680093ADF80C00A18820680DF1CD
:101AE0000B02012305F09CFC18B19FED100A04B015
:101AF00010BDA368A1882068009303AA022305F003
:101B0000FDFD0028F1D1BDF80C0040BA80B2FEF70F
:101B1000E1FC074B0022FEF747FDFFF73DF800EE22
:101B2000100A04B010BD00BF0000C07F000000001C
:101B30000000703F30B5044685B0A368A1880093CB
:101B4000062000228DF80B008DF80C202068012360
:101B50000DF10B0205F064FC80B1402103ADA368D8
:101B6000009306208DF80C008DF80D102068A188D8
:101B700002232A4605F054FC05B030BDA368A188B5
:101B80002068009303AD01232A4605F0B7FD9DF8B8
:101B90000C1021F0400141F04001E0E72DE9F04157
:101BA000DFF884801C4F1D4E362241463846FFF731
:101BB000D7FE60BB1A4D194C05F1200EAC46BCE8AF
:101BC0000F00F44504F11004654644F8100C44F885
:101BD0000C1C44F8082C44F8043CEFD1BCF800304D
:101BE00023803046FEF71CFB024692B231464FF48A
:101BF00096730C480AF0B6F84FF47A7001F0E6F8E4
:101C0000362241463846FFF7ABFE0028D2D0BDE869
:101C1000F0410148FFF78EBFC40300207409002083
:101C200060B60608B8150020B808002008B50A48B4
:101C3000FFF722FFDFED097AB4EEE70AF1EE10FAC2
:101C400008DA0548FFF718FFBCEEC00A10EE103A9C
:101C500098B208BD642008BDC40300200000C8423B
:101C600008B51021034804F0AFFFB0FA80F0400936
:101C700008BD00BF000400480148FFF715BE00BFC3
:101C8000C40300202DE9F04F8BB06425002100959E
:101C900004468DF82710006801230DF127027021FA
:101CA00005F0BEFB10B10BB0BDE8F08F22460095E9
:101CB00052F8480B2123702105F020FD0028F2D1B5
:101CC00094F85430039394F85F3094F84BA094F850
:101CD00058B094F85190CDF814B01B0294F8578086
:101CE00094F8636094F94D5094F953E094F959C015
:101CF00094F84C20049203F4706B4FEA0A2A0346CE
:101D00004FEA09296AF30F034FEA082869F31F43D2
:101D10008146360268F30F0980462D0266F30F08EC
:101D200065F31F484FEA0E2E05464FEA0C2C6EF362
:101D30000F056CF31F4594F812C094F84A1094F8FC
:101D4000652094F85D70CDF818B0BCF1050F01F076
:101D50000F0128BF4FF0050C120261454FEA07271B
:101D600002F4706228BF6146079267F31F49049A24
:101D7000217509F00F27014694F8529094F864B049
:101D800094F84EE094F85AC062F30F0169F31F41D2
:101D900003F00F23059A0B43C4F8163008F00F2602
:101DA000034694F85E8062F30F0368F31F431F43FA
:101DB00003466BF30F036EF31F431E43039BC4F8EC
:101DC0001A70C4F81E6063F30F0094F86630079A27
:101DD00013432385069A94F860306CF31F4005F096
:101DE0000F2505431343C4F82250E3840BB0BDE82C
:101DF000F08F00BF038A8B4204BF012380F842307A
:101E0000704700BF2DE9F041284C294F29494FF078
:101E1000FF3384B000260225C4E90B33C4E90D3337
:101E2000C4F81630C4F81A30C4F81E30C4F8223092
:101E3000C4F82630E363204B2160324629464FF038
:101E400001083846C4E90373676084F82A6084F89F
:101E5000406026752581A4F8418004F0BBFE0A206D
:101E600000F0B4FF42462946384604F0B3FE64272A
:101E7000642000F0ABFF00972B4603AA2068ADF862
:101E80000C60702105F0CCFA009740F688602B4674
:101E9000ADF80C0003AA2068702105F0C1FA40F2E9
:101EA0000153638204B0BDE8F08100BFD00300207D
:101EB00000080048B8080020010005052DE9F84396
:101EC0008A4CE3680D46A3B194F842308BB9884F31
:101ED0003B780BB100233B70B4F94410B4F9466071
:101EE000002384F8433085F82030C5E90916BDE8A1
:101EF000F8837E48FFF7C6FE237D94F82AE000228F
:101F0000734584F8422084F84020C0F0C380784FA5
:101F10003A78002B00F0E280B4F91610B4F92C20C6
:101F2000E07C521A002AB8BF5242824200F3C680B7
:101F3000B4F93620B4F92060921B002AB8BF52428F
:101F40009042ACBF00220122B4F92060A185012B90
:101F5000E68600F08A80B4F91880B4F92EC0ACEBA4
:101F6000080CBCF1000FB8BFCCF1000C6045C0F20A
:101F7000A780B4F938C0B4F92290ACEB090CBCF1DD
:101F8000000FB8BFCCF1000C8445C8BF0122B4F8E3
:101F900022C0A4F82E80022BA4F838C065D0B4F972
:101FA0001A80B4F930C0ACEB080CBCF1000FB8BF1C
:101FB000CCF1000C6045C0F28580B4F93AC0B4F9A8
:101FC0002490ACEB090CBCF1000FB8BFCCF1000CB5
:101FD0006045B8BF0122B4F824C0A4F83080032BB8
:101FE000A4F83AC041D0B4F91C80B4F932C0ACEBCB
:101FF000080CBCF1000FB8BFCCF1000C604569DBE8
:10200000B4F93CC0B4F92690ACEB090CBCF1000F5C
:10201000B8BFCCF1000C6045B8BF0122B4F826C0AF
:10202000A4F83280042BA4F83CC01ED0B4F91E8062
:10203000B4F934C0ACEB080CBCF1000FB8BFCCF164
:10204000000C604548DBB4F93EC0B4F92890ACEB15
:10205000090CBCF1000FB8BFCCF1000C8445C8BF1F
:102060000122208DA4F83480E0877345387884F805
:102070002A3029D000287FF42DAF0123A4F8441082
:10208000A4F8466084F8433085F82030C5E9091685
:10209000BDE8F883AEEB0302154F84F84020002B17
:1020A0007FF43AAF002384F82A303B78B4F9441027
:1020B000B4F94660002B3FF414AF0BE7012243E76D
:1020C000012264E7012286E700287FF403AF002A9B
:1020D000D3D101E70122A1E70122C2E7BEF1000F3F
:1020E000E0D1002A7FF4F6AEF6E600BFD003002070
:1020F00008000020F0B5642385B00021C0F8D0327C
:102100000446FFF7A7FA002808DA642000F05EFE14
:1021100000212046FFF79EFA0028F6DB4FF4FA7004
:1021200000F054FE504B1B780025CDE900352946C0
:10213000072302222046FFF709FB0126B4F8D0321C
:1021400000952946CDE9015504222046FFF726FBDC
:1021500003272B462A462946CDE900662046FFF78D
:10216000A3FA2A463146CDE9007602232046FFF73E
:102170009BFA33462946022200952046FFF73AFB98
:10218000C82000F023FE2046FFF74EFBC4F8C8022B
:10219000C82000F01BFEC82000F018FE3246294679
:1021A0002046FFF7A7FA324631462046FFF7A2FA4B
:1021B0002A4602212046FFF79DFA2A463946204644
:1021C000FFF798FA2A4604212046FFF793FA2A4699
:1021D00005212046FFF78EFA2A4606212046FFF702
:1021E00089FA2A4607212046FFF784FA2A46082161
:1021F0002046FFF77FFA2A4609212046FFF77AFAA0
:102200002A460A212046FFF775FA2A460B21204666
:10221000FFF770FA2A460C212046FFF76BFA2A4690
:102220000D212046FFF766FA2A460E212046FFF7C9
:1022300061FA2A460F212046FFF75CFAC82000F019
:10224000C5FD0A4B0A490B48996100229A601A6140
:102250005861094B9A601A615861996103F07AFEDE
:10226000C4F8540305B0F0BDB0070020D807002023
:102270000000A041CDCC4C3DBC0700200000000078
:10228000774B1A6802B170472DE9F0432DED048BAE
:102290000F228BB004461A60FFF7C6FAC4F8C802D2
:1022A0002046FFF7F3F9C4F8CC02002800F0B48010
:1022B000012800F0C180D4E9BC67D4E9BA01FEF777
:1022C0006BFC684D08EE900A3046674EC5ED008AFB
:1022D0003946FEF761FC96ED029A96ED057AD6ED49
:1022E000066A96ED048A306039EE079A07EE900A86
:1022F00079EE266A37EEC86A89EE267A5B4FA7EE3A
:10230000068A86ED037A17EE100A86ED048AFEF738
:10231000F3F802460B4600205549FDF78DFF804635
:1023200019EE100A8946FEF7E7F802460B464046CA
:102330004946FEF739F9FEF72FFCD5ED029AD5EDA7
:10234000057A95ED067A95ED049AB06079EEA79A34
:1023500078EEC98A39EE877AC9EE877AA7EEA89A0D
:10236000C5ED037A17EE900A85ED049AFEF7C4F8DE
:1023700002460B4600203E49FDF75EFF804619EEFF
:10238000900A8946FEF7B8F802460B464046494691
:10239000FEF70AF9FEF700FC364BDFED377A93EDD6
:1023A000007A364BA860D3ED006A38EE498A27EEF2
:1023B000267AE8EE077AC7ED007A02F0B5F997EDD4
:1023C000000A0DF033FD3868FEF796F802460B461A
:1023D0003069CDE90823FEF78FF802460B462869DD
:1023E000CDE90623FEF788F8D4E9BC67CDE902679A
:1023F000D4E9BA45224ACDE90401CDE900454FF4BC
:102400008071204866F086FA1E480BB0BDEC048B44
:10241000BDE8F04301F0DCBB1B4BD4F8C802C4F8A4
:10242000D8029FED0D0B1A788021FFF709FAD4F836
:10243000CC0284EDBA0B3BE7134BD4F8C8021A78F0
:10244000C4F8DC029FED040B8021FFF7F9F984ED5D
:10245000BC0B57EC106B30E700000000000004409C
:10246000B4070020BC070020D8070020F407002094
:102470000000F03F0C000020000087431000002007
:1024800084B6060874090020B007002038B50A4C4D
:102490002046FFF7CDF8012508480949094A0A4BAB
:1024A000C4F8C452C4F81C03C4F82013C4F824238D
:1024B000C4F8303338BD00BF400400200000FA44A7
:1024C0003313954300B056456AF72B380148FFF7A0
:1024D000B7B800BF400400202DE9F04F0020A9B09C
:1024E0000FF0C0F9DFF8EC93EE4FEF4DDFF8E8A303
:1024F000044648463C604BF03DFDC0F30743C0F343
:1025000007228DF80A308DF808008DF8092002990D
:102510000022204616F09CFF38680FF0A3F94FF414
:1025200096720446DC2111F08DFB204613F014F85E
:1025300048464BF01FFDC0F307238DF80C00C0F395
:1025400007408DF80D308DF80E00039900222046CB
:1025500016F07EFF28464BF00DFDC0F307238DF8E3
:102560001000C0F307408DF811308DF81200049967
:102570002046002216F090FF20460022022116F08D
:102580009FFF20460022052117F00EF8204600226A
:10259000052116F04DFF20460022052116F050FFC0
:1025A00020460022052116F033FF00222046052197
:1025B00016F036FF102120460FF06CF920465CF033
:1025C00011FDBA4980465CF019FD00220221404607
:1025D00016F0E2FF28464BF0CDFCC0F307238DF840
:1025E0001400C0F307408DF815308DF816000599DA
:1025F0004046002216F0B4FF51464046002216F035
:10260000C3FF052300220221404611F0CFFB2046E4
:102610005CF0E8FCA64906465CF0F0FC514600225E
:10262000304616F0B1FF28464BF0A4FC8DF8180098
:10263000C0F30723C0F307408DF819308DF81A0056
:102640000699DFF898A23046002216F089FF41462D
:102650004FF0050800230E223046CDF8008012F01E
:1026600049FB20465CF0BEFC924B93491A688346B6
:102670000FA866F085F90FA958465CF0BFFC284604
:102680004BF078FCC0F307238DF81C00C0F3074023
:102690008DF81D308DF81E0007995846002216F05F
:1026A0005FFF51465846002216F06EFF00230E22AF
:1026B00031465846CDF8008012F01CFB20465CF0F5
:1026C00091FC7E4906465CF099FC28464BF052FC92
:1026D000C0F307238DF82000C0F307408DF82130A8
:1026E0008DF8220008993046002216F039FF514635
:1026F0003046002216F048FF00230E22594630468D
:10270000CDF8008012F0F6FA20465CF06BFC6C49C4
:1027100083465CF073FC28464BF02CFCC0F3072387
:102720008DF82400C0F307408DF825308DF8260081
:1027300009995846002216F013FF514658460022C8
:1027400016F022FF0E22002331465846CDF80080B5
:1027500012F0D0FA204647F0DDFA6421064647F031
:10276000E5FA28464BF006FCC0F307238DF8280055
:10277000C0F307408DF829308DF82A000A993046B9
:1027800047F0F4FA48464BF0F5FBC0F307238DF809
:102790002C00C0F307408DF82D308DF82E000B99DA
:1027A000304647F0EDFA47492522304647F0F6FA21
:1027B0001E2300220921304611F0F8FA20465CF071
:1027C00011FC414981465CF019FC28464BF0D2FBD4
:1027D000C0F307238DF83000C0F307408DF8313087
:1027E0008DF832000C994846002216F0B9FE514689
:1027F0004846002216F0C8FE3146002633464846B9
:102800000E22009612F076FA204655F09BFC282204
:102810001146044611F016FA28464BF0ABFBC0F304
:1028200007238DF83400C0F307408DF835308DF85C
:1028300036000D993246204616F00AFE32464146D1
:10284000204616F0B1FE334632460421204611F0F0
:10285000ADFA20465CF0C6FB1C4905465CF0CEFB99
:10286000284612F079FE6FF07F404BF083FB034661
:10287000C3F30722C3F307438DF838008DF83920DE
:102880008DF83A300E992846324616F069FE104906
:1028900033460A22204610F01BFC38460FF0EEFBB0
:1028A0001EE000BFF80700204F4536009CB6060822
:1028B000C4B6060820000020D4B60608E8B606080C
:1028C00000B7060818B7060840B706085CB7060840
:1028D00015460008D0EAF000F4F4060814C806080B
:1028E000386829B0BDE8F08F1D4A1E48137813B927
:1028F0000378002B33D030B587B0002101240DF1CF
:102900001703642502958DF817101170CDE9003476
:102910003022017023461448A62105F0A5F89DF841
:102920001720D00604D51148114B047002211970EC
:10293000110705D50F480E4B0124032104701970AF
:10294000930608D50C4A0D491378B3FA83F3012096
:102950005B090870137001F0B3FE07B030BD70471B
:10296000FE070020FD070020B80800200008002016
:1029700014080020FF070020FC07002001080020A9
:1029800070B5434EBEB00124642509AB0093CDE978
:10299000014523460022A621304605F065F80DF1D9
:1029A00025038DE838001D222346A621304605F078
:1029B0005BF80DF126038DE8380021222346A6217D
:1029C000304605F051F80DF127038DE8380022223A
:1029D0002346A621304605F047F80AAB8DE83800BB
:1029E0002A222346A621304605F03EF80DF12903A0
:1029F0008DE838002D222346A621304605F034F814
:102A00000DF12A038DE838002E222346A6213046F8
:102A100005F02AF80DF12B038DE838002F2223460C
:102A2000A621304605F020F80BAB8DE838003022A7
:102A30002346A621304605F017F89DF82C009DF896
:102A40002B30144ACDE906309DF82A3005939DF8C5
:102A5000293004939DF8283003939DF82730029382
:102A60009DF8263001939DF825300093C8219DF8EC
:102A700024300CA865F04EFF0CA8FDF7D1FB0246F0
:102A80002B4692B20CA9044809F06CF93EB070BD17
:102A9000B808002060B70608B81500202DE9F041FD
:102AA0005F4D88B0012464260DF1130328220093A2
:102AB0008DF813202346CDE901462D22A621284674
:102AC00004F0D6FE10238DF8153050238DF8163003
:102AD000F0238DF8173005AB30270093CDE9014680
:102AE00023461D22A62128468DF814708DF8184023
:102AF00004F0BEFE0DF115030093CDE90146234617
:102B00002122A621284604F0B3FE0DF116030093FE
:102B1000CDE9014623462222A621284604F0A8FE3C
:102B20000DF117030093CDE9014623462322A62188
:102B3000284604F09DFE06AB0093CDE901462346EE
:102B40002A22A621284604F093FE03238DF81A308A
:102B50000DF119030093FF234FF078088DF81C3016
:102B6000CDE9014623462422A62128468DF8197076
:102B70008DF81B8004F07CFE0DF11A030093CDE963
:102B8000014623462522A621284604F071FE0DF1B8
:102B90001B030093CDE9014623462622A6212846A1
:102BA00004F066FE07AB0093CDE9014623462722D9
:102BB000A621284604F05CFE0DF11D030093382386
:102BC0008DF81D30CDE9014623462E22A621284648
:102BD00004F04EFE0DF11E03009318238DF81E30F5
:102BE000CDE9014623462F22A621284604F040FEC7
:102BF0000DF11F0300213A46CDE900348DF81F1076
:102C00002346A6210296284604F02EFFFFF7B8FEC1
:102C1000044A054B147083F8008008B0BDE8F081C9
:102C2000B8080020030800200208002010B50B4C53
:102C30000FCC88B00DF1040CACE80F0094E807004D
:102C4000ACE803002CF8022B130C8CF800300CF0CD
:102C500023FD01A80CF0B4F908B010BDB8B5060802
:102C6000704700BF4368B3F80B30B3F5124F00D084
:102C7000704730B589B0044668460CF0BFF90023B0
:102C8000CDE90433CDE906336268557B25B1012DCA
:102C900008BF237009B030BDFFF7C8FF0F210C4BF0
:102CA0008DF810107F228DF812201A681B68120C04
:102CB000C3F30B0304A8ADF81C20ADF81E300CF0D4
:102CC0008FF90CF093FD294601200DF0EBFDE1E7B3
:102CD000002004E008B50B4B4FF400421A610020BD
:102CE0000CF000FD68B14FF0B042074B8179C2F89B
:102CF0009C30D2F89C3023F47C5343EA0123C2F881
:102D00009C3008BD00400058FECAFECA10B52449D8
:102D1000244BD1F89020CA2442F05002532088B0AE
:102D2000C1F890205C6258629A681F4C4FF0B04125
:102D300022F00702FF209A6058628B6843F4004338
:102D40008B600DF0A5FD194A1949D2F8803023F0A7
:102D5000070343F00403C2F88030002000F09EFA1D
:102D60000CF09CFB134A00214FF400700DF0B4FDF1
:102D7000114A124B12486946CDE900230CF0AEFA15
:102D80001049114A40F23C5302A8CDE90241CDE975
:102D900004230CF053FC0CF07FFB08B010BD00BF07
:102DA0000008005800280040F801032000040058E3
:102DB000C813002049F3000810040320612C000808
:102DC000652C0008040303201C05032070B505468C
:102DD00003F0C0F86B1C064602D003F0C7F80544A8
:102DE000064C04E0236923F00403236130BF03F0A1
:102DF000B1F8801BA842F5D370BD00BF00ED00E024
:102E00004FF0FF300DF0BEBD704700BF00214FF402
:102E100000700DF079BD00BF02200DF0A3BD00BF12
:102E200002200DF04BBE00BF10B5064C002120461D
:102E300008F01EF90449054A206800230B7043631B
:102E4000136010BD6C15002014080020100800202D
:102E5000204B1B78032B07D8DFE803F0281F16024E
:102E60001D4B1B68002B2FD01C4B1A681C490B688C
:102E7000934208D023DA0133934223DC1A461948DF
:102E80000B6003685A637047134B1B68002BEBD130
:102E9000154A124B12681A60E8E70F4B1B68002BAB
:102EA000E2D1124A0D4B12681A60DFE70A4B1B6829
:102EB000002BD9D10E4A094B12681A60D6E7013BA4
:102EC0009342DBDA1346DAE70A4A044B12681A60C7
:102ED000CCE700BF140800201008002008080020DC
:102EE0000C0800206C1500201400002018000020A1
:102EF0001C0000200408002010B54FF0B04382B041
:102F0000986C40F0040098649C6C04F004040194F4
:102F1000019C9C6C44F001049C649B6C002203F0B7
:102F20000103009311460B20009B03F037F80B20A0
:102F300002B0BDE8104003F06DB800BF2DE9F047C6
:102F400000248AB0CDE90444CDE906444FF0B043F3
:102F50000894DA6C564F574E42F00402DA64DA6C89
:102F600002F004020392039ADA6C42F00202DA647D
:102F7000DA6C02F002020292029ADA6C42F001026A
:102F8000DA64DB6C03F0010301933846012202216D
:102F9000019B03F01FFE224616214FF0904003F0E4
:102FA00019FE2246304641F2240103F013FE0125AA
:102FB00001224FF4041304A93846CDE904234FF04D
:102FC0000209069503F064FC04A938464FF0060890
:102FD000CDE905540794CDF8109003F059FC04A9ED
:102FE0004FF09040CDE905540794CDF8108003F0E0
:102FF0004FFC10230DEB03014FF0030A4FF09040FC
:103000000493CDE90554CDF81CA003F041FC242322
:1030100004A930460493CDE90554079403F038FC25
:1030200004A9304601220023CDE90423069403F0CD
:103030002FFC102204A930460023CDE90423069476
:1030400003F026FC30464FF4805304A90493CDE9E5
:103050000554CDF81CA003F01BFC04A94FF48062BA
:103060004FF404134FF09040CDE90423069503F08C
:103070000FFC4FF4881304A938464FF4C052CDE931
:103080000423CDF8189003F003FC22462146404665
:1030900002F084FF404602F0BDFF22462146282070
:1030A00002F07CFF282002F0B5FF0AB0BDE8F087EF
:1030B00000080048000400482DE9F8436C4B6D4DB2
:1030C0009B682E68590500F18A80B3686A4A6B4F85
:1030D0006B4C23F48063B360137803EB430107EB7D
:1030E000C101DAB2D1F80880216801314FEA430307
:1030F00000F09280DFF878E1DEF82800DEF8281092
:1031000080B289B2884206D0DEF828C008461FFA8D
:103110008CF18142F8D12168814268D25949D4F8B2
:1031200000C009886144081A5749097801FB00F07A
:1031300056490978C84081B2884580F09580544846
:103140004FF0010C062A80F800C018BF002051D0B3
:103150004FF0000C06E0C3F808C05B7D062BDAB226
:103160000DD05300134407EBC3039A688A42F2D38D
:103170009A68521A9A605B7D062BDAB2F1D1002868
:1031800038D001286AD0013887B2F3685B07FCD5D4
:10319000F368DBB263F49063F3603E4B4FF40022BC
:1031A000DA60032002F07EFF314843696FF30F03BA
:1031B0003B434361826A836A92B29BB29A4204D0D3
:1031C000816A1A468BB29342FAD1296822608B68D1
:1031D00043F480638B60AFF30080BDE8F883F3684D
:1031E0005A077FF572AFF3685A07F8D46DE7216884
:1031F000081A99E71E48826A836A92B29BB29A4281
:1032000004D0816A1A468BB29342FAD1226003201D
:10321000BDE8F84302F038BF4FF0000E714670462B
:10322000DFF87490B9F800C01EFA8CFCC4450BD2CC
:10323000B9F80000DFF858C04FF0000E80B28CF8EB
:1032400000E0062A84D19AE7DFF844C0A8EB00002A
:103250004FF0010E80B28CF800E0F2E70B4B1B78C8
:10326000012B90D1074690E708468E46D8E700BF6D
:1032700000280040C813002025080020280800204E
:1032800020080020180800201A0800201B08002031
:103290001C0800200008005816080020F8B5474C0C
:1032A000474B2268474DCA215162532151629968A8
:1032B00041F020019960996801F00701C1F1040112
:1032C000C9B229701B694FF4FE0595FAA5F5002DCA
:1032D00071D0B5FA85F503F4FE03EB400133DBB2A0
:1032E0001D46394E3370364B1B69C3F30E0C6346D3
:1032F00005FB03F3A3F5A073CB4034490CF1010C9B
:10330000A1F800C04FF6FE718B4248D9304B4FF602
:10331000FF7119802F4B196841F400211960D3F80F
:10332000801041F40021C3F8801000283BD12A4FBF
:103330002A492B4E2B4D4FF0010C87F800C04FF05F
:10334000FF373760087381F8240081F83C0081F86A
:10335000540081F86C0081F884000621297091687E
:1033600021F480619160D168C9B261F490614FF439
:103370000025D1600320DD6002F094FE226893688E
:1033800043F480439360FF230321536208460022E5
:1033900002F004FEBDE8F840032002F03BBE0C49F9
:1033A0009BB20B80B6E7D3685B05ECD5032002F037
:1033B0006BFE2268E7E701252B4692E7C813002041
:1033C000002800401B0800201A08002018080020D0
:1033D00016080020000800581C08002028080020BB
:1033E0002008002025080020F0B5EFF3108672B603
:1033F0001F4C257B95B194F8245025B394F83C508C
:103400002DB394F8545035B394F86C503DB394F800
:10341000845045B386F310880120F0BD05F0FF0EFF
:10342000F4460CEB4C0C04EBCC0501274FEACC0C1A
:103430002F7386F3108828616A73002044F80C30DB
:1034400081F800E0F0BD4FF0010EF446E9E74FF0DF
:10345000020EF446E5E74FF0030EF446E1E74FF0C5
:10346000040EF446DDE74FF0050EF446D9E700BF41
:10347000280800202DE9F0410446EFF3108572B6CC
:103480003D4E032002F0D4FD30683C49CA2343621C
:1034900004EB4403532201EBC30342621A7B022A6A
:1034A00008D0FF234362032002F0B4FD85F31088A7
:1034B000BDE8F081324A1778BC424FEA440C30D064
:1034C00093F814E093F815805F7D0EEB4E0E01EB40
:1034D000CE0EFFB2B8F1060F8EF815705FFA88FEB7
:1034E00007D01B7D0EEB4E0E01EBCE0EDBB28EF83D
:1034F0001430A44401EBCC03012119731378062B7B
:1035000003D1204B4FF0FF3119601378062BDAB24C
:1035100011D01D4B1B789342C3D0FFF7CDFD30680F
:10352000BFE71778DFF860E0FFB28EF800705B7DD0
:10353000DBB21370DDE7154B9B68590514D4836823
:1035400023F480638360C3685B07FCD5C368104ABB
:10355000DBB263F49063C3604FF400230320D360B5
:1035600002F0A0FD30689CE7C3685A07E7D5C3683E
:103570005A07F9D4E3E700BFC81300202808002049
:1035800025080020200800202408002000280040F2
:10359000000800582DE9F047894D00EB400305EB8A
:1035A000C30306461B7B022B89464FEA400700F007
:1035B000D280EFF3108472B6DFF81C82032002F091
:1035C00037FDD8F800107F48CA22BB194A6205EBC4
:1035D000C30353224A6202221A73C3F80890C3F845
:1035E00004900278062A5FFA82FC24D10278DFF880
:1035F000EC91D2B289F80020067083F815C0724BA6
:103600004FF0FF321A604FF0000E037899F8002057
:103610009A4240F09B80374405EBC7008368A3EBD8
:103620000E038360FF234B62032002F0F3FC84F35C
:103630001088BDE8F087DFF890E1DEF80030013354
:1036400000F0B380DFF898C1DCF82820DCF82830DF
:1036500092B29BB29A4205D01A46DCF828309BB24F
:103660009342F9D1DEF800309A4277D9574BDEF811
:1036700000C01B8863449A1A554B93F800E0554BE1
:103680001B7802FB0EFE2EFA03FE1FFA8EFEBA19FD
:1036900005EBC202936873449360D2F808900378F4
:1036A00003EB430305EBC3039B6899455AD30378A7
:1036B00003EB430205EBC2025FFA83FC92F815A00C
:1036C000BAF1060F4FEA43025FFA8AF311D11BE009
:1036D0009AF8153003EB430205EBC2025FFA83FC54
:1036E00092F815A0BAF1060F4FEA43025FFA8AF387
:1036F0000AD003EB430305EBC30302EB0C0A9B6800
:10370000994505EBCA0AE3D202EB0C0305EBC303B0
:103710005B7D062B5FFA83F904D009EB490305EBC7
:10372000C3031E7502EB0C03BA1905EBC20205EBCD
:10373000C30382F81590DFF8A49082F814C05E7578
:10374000037899F800209A423FF465AFFFF7B4FC84
:10375000D8F8001066E7FFF78DFE2AE7DEF80030A4
:103760009A1A89E790F800C090F80090CC455FFA6B
:103770008CF31DD003EB430905EBC90999F814C07C
:103780000CEB4C0A05EBCA0A5FFA8CFC8AF8156050
:10379000537582F814C089F814600378DFF83C9000
:1037A000DBB289F8003006702FE74FF0000E6EE7AD
:1037B000537503EB430305EBC3031E75EDE700BF31
:1037C00028080020250800202008002018080020D4
:1037D0001A0800201B080020C8130020240800201D
:1037E00000280040104700BF2DE9F84FEFF3108884
:1037F00072B6464C46482368464DCA2753265F6238
:103800005E629A6822F480629A60027802EB42015A
:1038100005EBC10C9CF80CA0BAF1020F12D0DA68CB
:103820005207FCD5DA683C49D2B262F49062DA60A1
:103830004FF40023CB6088F310882368FF225A627C
:10384000BDE8F88F354B4FEAC10E55F80EB0DCF8E5
:1038500010A01B78002B46D09CF80D30012B5FFA8E
:1038600082F911D088F310884846FFF703FE2368D9
:103870005F625E625A4649465046FFF7B3FF2368CF
:10388000FF225A62BDE8F88F037899454FEA42015A
:1038900032D09CF814309CF815609CF8152003EB8E
:1038A000430305EBC303D2B2062E5A75F3B207D019
:1038B0009CF8142003EB430305EBC303D2B21A7543
:1038C00001EB090205EBC20501232B73037888F392
:1038D000108869684846FFF75DFE2368CA225A626D
:1038E00053225A62C6E7FFF7E7FB88F31088236884
:1038F000FF225A62BDE8F88F0378094ADBB21370E1
:103900009CF81530DBB20370DAE700BFC813002063
:103910002508002028080020000800581C08002066
:103920002408002010B51848184C1949002301221A
:10393000C0E90041C0E90232C0E90433C0E90633FE
:10394000036203F013FD50B90F48002104F08AF917
:1039500068B90D48002104F0AFF980B910BD00F03E
:1039600057FC0948002104F07DF90028F1D000F04F
:103970004FFC0548002104F09FF90028EED0BDE877
:10398000104000F045BC00BFB808002000540040C3
:10399000B57DB1100000000010B504469CB00021B8
:1039A000502208A8CDE90211CDE90411069165F075
:1039B000A3F81D4B22689A4201D01CB010BD04220E
:1039C0004FF4403308A80892109306F035F818BB5E
:1039D0004FF0B0449FED127BE36C144843F00203B8
:1039E000E364E36C03F0020301930423019A06935A
:1039F0000022002302A9CDE904238DED027B02F011
:103A000047FFA36D43F40013A365A36D03F40013F4
:103A10000093009B1CB010BD00F0FAFBD8E700BF7C
:103A200000030000120000000054004000040048A1
:103A3000054808B5054B036004F06EF900B908BDF0
:103A4000BDE8084000F0E4BB0C090020000C005861
:103A5000124B02689A4200D0704700B54FF0B04355
:103A600083B0186D40F4801018651B6D002203F4BC
:103A70008013114601932C20019B02F08FFA2C2019
:103A800002F0C8FA002211462D2002F087FA2D20FC
:103A900003B05DF804EB02F0BDBA00BF000C0058A3
:103AA0002DE9F843DDF820901C480E46174698464D
:103AB0000468002CFCD11A4D4FF4E0632846EB60FB
:103AC00006F0B2FC224604214FF0904003F082F849
:103AD000224610214FF0904003F07CF8BAB23146F4
:103AE0004FF48053284606F01BFD08B1BDE8F8836B
:103AF000012204214FF0904003F06CF81FFA89F284
:103B000041464FF48053284606F00AFDBDE8F843CD
:103B1000012210214FF0904003F05CB860090020B2
:103B2000B81400202DE9F047DDF820A01A4D0F460B
:103B3000904699462C68002CFCD1184E4FF4E06357
:103B40003046F36006F070FC224604214FF09040AE
:103B500003F040F8224610214FF0904003F03AF86D
:103B60001FFA88F239464FF48053304606F0D8FCED
:103B700008B1BDE8F087012204214FF0904003F026
:103B800029F801231FFA8AF2494630462B60BDE826
:103B9000F04706F0DDBF00BF60090020B814002028
:103BA0000FB400B5A3B025AB084A0193802102A849
:103BB00064F07AFF002803DD81B202A80CF0BEFB9E
:103BC00023B05DF804EB04B0704700BF7409002017
:103BD0000FB400B5A3B024AB802153F8042B01939C
:103BE00002A864F061FF002803DD81B202A80CF096
:103BF000A5FB23B05DF804EB04B0704708B50122C3
:103C000002214FF0904002F0E5FF0120FFF7DEF8BF
:103C1000002202214FF0904002F0DCFF0A20FFF763
:103C2000D5F8012202214FF0904002F0D3FF782016
:103C3000FFF7CCF8012210214FF0904002F0CAFFAC
:103C4000012204214FF0904002F0C4FF002008BD83
:103C5000184B02689A4200D0704730B4164B1B785C
:103C6000242B10D015490A78BAB1154C154D22886D
:103C70000A2BAB5402D12B78242B13D0FD2A0CD85D
:103C8000013292B208E00D4C0F490122227000244B
:103C90000C700C490A4C0B70228030BC0649012282
:103CA00008F044B915440023074C0B706B700123D6
:103CB0002370F2E700380140710900204809002014
:103CC0004A090020740A002070090020274B834213
:103CD00000D0704710B5264C26482268264B01328A
:103CE00022602168254A00FB0133B2EB730F25D80F
:103CF000234A13680BB1013B1360236821492368F1
:103D0000214A01FB03F303F5511303F53753B2EBDB
:103D1000331F12D31D491E4B0A681E481A604FF00C
:103D2000010C00221C4B0A6080F800C022601A7847
:103D30001AB11A78013AD2B21A7010BD012052F0AD
:103D40000BFD1648164B2168164A00FB0133B2EBF7
:103D5000F30F02D3144B01221A60144B1A68002A85
:103D6000C6D01A68013A1A60C2E700BF20150020C9
:103D70005C090020CDCCCCCC9899991999999919C6
:103D8000740B0020917EFB3AB88D06005409002088
:103D9000500900204C09002002080020295C8FC235
:103DA00050B81E0514AE470158090020B407002082
:103DB00008B5094B834200D008BD012210214FF005
:103DC000904002F007FF054B054900221A60086881
:103DD000BDE8084017F0A0BDB8140020600900201D
:103DE00064090020044B02689A4200D07047034BDC
:103DF00001221A60704700BF003801406C090020A2
:103E0000B0F5006F01460BD0B0F5805F04D00128FB
:103E10000AD10948FDF7EEBF084B01221A7070471E
:103E2000074B01221A707047B0F5806F02D1054B25
:103E300001221A60704700BFD0030020FD07002058
:103E4000FE070020B8070020034BD3F8500E431C98
:103E500008BF0020704700BF00F00B0810B584B009
:103E6000044602F0D3FA0A4B93E8070001AB83E85B
:103E700007006946184602F08DFB064922460023DA
:103E8000012002F03BFB02F0D5FA04B010BD00BFE8
:103E9000D4B5060850FE0B0800B595B04C220021A1
:103EA000684664F029FE02F0B1FA02F0CFFA04216C
:103EB0004FF0406200236846CDE90523009102F0EF
:103EC000E9FB02F0D7FA15B05DF804FB0000000032
:103ED00010B59CB00024482200210AA864F00CFE12
:103EE000CDE90244CDE90444CDE90644089404F048
:103EF00057FF4FF0B0422721D2F8903023F018033B
:103F000043F01003C2F89030D2F8003423F4C063B9
:103F100043F40073C2F80034D2F8003412944FF422
:103F20008032CDE90A1203F4C063402201934FF4BA
:103F3000807101230E920222CDE90C31159260218D
:103F400020221193139116934FF0005118924FF0C5
:103F500000734FF400320AA81794CDE91923019C8D
:103F60001B9104F0E5FF08B172B6FEE79FED0A7BF6
:103F7000034603216F2202A88DED067BCDE90313D2
:103F800002920593089305F029FB08B172B6FEE78B
:103F900005F03EFF1CB010BD0000000080000000D6
:103FA00010B594B04022002101A864F0A5FD4FF4A3
:103FB00040544FF48041022210236846CDE911128B
:103FC0000094139305F038FD08B172B6FEE7024B7A
:103FD000D3F8943014B010BD001400582DE9804877
:103FE00083B001F093FF734B734AD3F8503E591CD2
:103FF00008BF00231360FFF76BFFFFF7D1FFFEF749
:1040000069FEFFF715FDFEF799FFFEF775FF01F05A
:1040100041FBFFF787FC01F0A9FB01F0CDFB01F0AC
:104020006FFD01F025FE01F0D5FD01F0F5FA01F07C
:10403000F5FA6420FEF7CAFE0CF012F86420FEF7D1
:10404000C5FE5E4806F07EFF00221146192001F0F1
:10405000A5FF192001F0DEFFFEF758FEFEF71EFD5A
:104060005748FEF747F8FDF7CDFEFDF797FD47F0FF
:10407000F7FFFFF7C3FDD0B9524A534B00920446F5
:1040800002464FF4A071F0203FF0B4FE4F4D0221E4
:10409000286017F0FDFE28681B2117F013FC286824
:1040A0004B4A4C4900944FF4164317F081FB4A48A1
:1040B0004A4C4B4E4B4DDFF84C91DFF84CB1DFF8DA
:1040C0004C81494FDFF8F8A052F0CAFB40F062FB88
:1040D0000121206040F0A2FB44492068444C40F09C
:1040E000A5FB002001F05CFEFEF79EFE0FCC0FC684
:1040F00094E8030086E80300A6F11000FCF790F8AE
:10410000A6F1100182B23B483B4C07F0B9FE3B4997
:104110003848012207F00AFFA6F11000FCF780F8EA
:1041200081B2A6F110000CF009F9103E23680133AA
:104130002360FEF765FE2B78002203B12A70FEF79C
:10414000D3FBFEF785FE5046FEF79AF899F800304B
:10415000BBB9D8F800303BB13B68002BE6D0002358
:104160003B604DF093F9E1E7A723C8F800300BF06E
:1041700057FE3B68002BD9D000233B604DF086F9F9
:10418000D4E7002389F80030DBF800301C4A4021D6
:10419000304664F0BFFB3046FCF742F802461E236F
:1041A00092B23146134807F0DDFD3046FFF7F8FCC8
:1041B000CFE700BF00F00B082000002020150020F2
:1041C00040040020253B0008A13A000864090020B3
:1041D0008416002084AC0020555F00086809002088
:1041E000740900207009002058090020BD1E000835
:1041F000B8B70608B815002054090020710900203E
:10420000D0B706084C09002050090020740B00208C
:1042100072B6FEE708B50BF0DFFCBDE808400020F1
:1042200001F0BEBD022001F0BBBD00BF002001F0C7
:10423000B7BD00BF2DE9F04F00208FB00DF012FB8D
:10424000E74FE84D386002210DF024FB3868DFF8B5
:10425000B483DFF8B4A3DFF8B49310210DF01AFB98
:1042600038680022FF2115F007F928463C6849F01C
:1042700081FEC0F307238DF80800C0F307408DF8D6
:1042800009308DF80A0000220299204615F0E0F866
:104290003868D54C0DF0E6FA022120600DF0FAFAEC
:1042A000206810210DF0F6FA386826680FF052FEEB
:1042B000A0F1140130460FF0F1FC20686FF040418E
:1042C0000FF006FD20680022022115F0F9F84046A3
:1042D000266849F04FFE0346C3F30722C3F30743A2
:1042E0008DF80E308DF80C008DF80D2003993046B6
:1042F000002215F0D1F82846256849F03BFE034618
:10430000C3F30722C3F307438DF812308DF8100072
:104310008DF8112004992846002215F099F820689C
:104320000022052115F040F92568002228460A21BF
:1043300015F07EF8284600220A2115F081F828465B
:1043400000220A2115F064F8284600220A2115F0FF
:1043500067F800231A46206809210FF027FD20681E
:1043600053F0F0FE32220646B4210FF06BFC00221F
:104370000821304615F018F9404649F0FBFDC0F31E
:1043800007238DF81400C0F307408DF815308DF821
:10439000160005993046002215F05AF800220A212D
:1043A000304615F095F8002049F0E4FDC0F30723EE
:1043B0008DF81800C0F307408DF819308DF81A00F9
:1043C00006993046002215F08BF800224C21304629
:1043D00015F09AF8504649F0CDFD8DF81C00C0F359
:1043E0000723C0F307408DF81D308DF81E00079994
:1043F0003046202215F02CF800231A4630460221C0
:104400000FF0D4FC00230A22784930460EF060FEFB
:1044100030465AF0E7FD764905465AF0EFFD494629
:104420000022284615F0B0F8284611F095F82068CB
:1044300053F088FE32220546B4210FF003FC00221F
:104440000821284615F0B0F8404649F093FDC0F326
:1044500007238DF82000C0F307408DF821308DF838
:10446000220008992846002214F0F2FF00220A21B7
:10447000284615F02DF8002049F07CFDC0F30723F5
:104480008DF82400C0F307408DF825308DF8260004
:1044900009992846002215F023F800224C212846CD
:1044A00015F032F8504649F065FD8DF82800C0F34C
:1044B0000723C0F307408DF829308DF82A000A99A8
:1044C0002846202214F0C4FF31460F2628460096C5
:1044D00000230E2210F00EFC00230A224549284634
:1044E0000EF0F6FD28465AF07DFD434983465AF00A
:1044F00085FD49460022584615F046F8584611F009
:104500002BF8206853F01EFE32220446B4210FF02F
:1045100099FB00220821204615F046F8404649F054
:1045200029FDC0F307238DF82C00C0F307408DF858
:104530002D308DF82E000B992046002214F088FFB4
:1045400000220A21204614F0C3FF002049F012FD8A
:10455000C0F307238DF83000C0F307408DF83130E9
:104560008DF832000C992046002214F0B9FF002289
:104570004C21204614F0C8FF504649F0FBFC8DF852
:104580003400C0F30723C0F307408DF835308DF8B1
:1045900036000D992046202214F05AFF2946204665
:1045A000009600230E2210F0A5FB00230A221349D7
:1045B00020460EF08DFD20465AF014FD10490446A9
:1045C0005AF01CFD00224946204614F0DDFF20462B
:1045D00010F0C2FF38460DF051FD38680FB017E0FB
:1045E0007C0B0020D0EAF000780B00202542000868
:1045F000E4B706082D420008ECB70608154200088B
:10460000F4B706084F453600D2761900F4F40608D0
:10461000BDE8F08F012001F0C3BB00BF0B4B1B684E
:1046200093B110B590B00446402168460BF010FBE2
:104630006946074864F05CF920464CF0A5FF6946DE
:104640005AF0DCFC10B010BD704700BF70130020A2
:1046500004B80608164B1B6843B370B58AB004460D
:10466000FDF7E4FA0546FDF7FBFA064620464CF056
:104670008BFF044666B902AE0E4A2B462021304617
:1046800064F048F9314620465AF0B8FC0AB070BDD3
:1046900002AE094B094A00952021304664F03AF9F0
:1046A000314620465AF0AAFC0AB070BD704700BFE0
:1046B0007013002020B8060814B8060818B80608B9
:1046C000114B1B68FBB100B5104B11481A7811490A
:1046D000114B002AB0EE007AF7EE007A89B018BFCD
:1046E000F0EE477A08BF0346C1ED007A0B4A20215D
:1046F000684664F00FF90A4B694618685AF07EFC68
:1047000009B05DF804FB704770130020FC0700201F
:1047100030B806081000002028B8060834B806088B
:10472000AC130020000000006B4B1B68002B77D0FF
:104730006A4BF0B5D3ED007A694D6A4B2A68FDEEFD
:10474000E77A2DED048B17EE904A944283B0C3EDC7
:10475000007A61D0F8EEE77A9FED637AF4EEC77ADB
:10476000F1EE10FA5DD59FED619A4FF48074F0EE92
:10477000490A1C6062260027B3EE058AB0EE480A9B
:104780009FED5B2ADFED5B1A9FED5B1A2C6001A9A0
:10479000684601F043FBDDED007A584C5849594B0F
:1047A00020684F60F4EEC87AF1EE10FA8CBFF0EE9C
:1047B000488AF0EE678A38EE688A77EEE87ABDEECE
:1047C000C88AFDEEE77A022281ED008AC1ED027A05
:1047D000CE6001935BF026FB206815F037FA0546A2
:1047E0000FF022FB08EE100A28460FF049FB07EEF7
:1047F000900AF8EEE77AB8EEC88A39EE679A78EE52
:10480000C88AFDEEC97A206817EE902AFDEEE87A94
:1048100017EE901A0FF0B6F903B0BDEC048BF0BDA3
:1048200070479FED397AF4EEC77AF1EE10FA0BDD9E
:104830009FED2E9A9FED358A4FF48E74F0EE490A63
:104840001C606226002799E72046FBF743FE20A361
:10485000D3E90023FBF7A8FEFCF79EF908EE900AC7
:10486000B0EE680A61F0B6FE9FED299ADFED227A7C
:10487000E0EE097AB0EE670A61F036FFB0EE408AEA
:10488000B0EE680A61F0EAFEDFED227AE0EE097A26
:10489000B0EE670A61F028FFDFED1F7AB4EEE70A99
:1048A000F1EE10FA8CBFB0EE679AB0EE409A30EE9F
:1048B000497A77EEC97ABDEEC77AFDEEE77A17EE50
:1048C000107A17EE906AF0EE400A57E7AFF30080D7
:1048D000399D52A246DF913F70130020F40700205B
:1048E000900B0020940B00200000804300007842D1
:1048F0000000C842000048430000F042841300203A
:10490000800B00200000204300008E4300005B432A
:104910000000CD430000E643000020432DE9F041B4
:104920008F4E904C3068904F94B00CF09BFF02215A
:1049300020600CF0AFFF102120680CF0ABFF306856
:1049400025680FF007FB011F28460FF0A7F9206824
:104950006FF040410FF0BCF900220221206814F0F2
:10496000AFFD8248256849F005FBC0F307238DF8A9
:104970000800C0F307408DF809308DF80A0002994D
:104980002846002214F088FD20680022052114F03A
:104990000BFE256800222846032114F049FD284615
:1049A0000022032114F04CFD28460022032114F0BC
:1049B0002FFD00220321284614F032FD6B482568A4
:1049C00049F0D8FAC0F307238DF80C00C0F3074074
:1049D0008DF80D308DF80E0003992846002214F052
:1049E00037FD0223194600222068614D0FF0DEF9E1
:1049F00020685AF0F7FA022128600CF04BFF286873
:104A000010210CF047FF5B4928685AF0F7FA6FF065
:104A10004042114628680FF015F92868002203214A
:104A200014F0BAFD002328681A4608210FF0BEF9D9
:104A30003868002800F0818029684CF097FD3D68B7
:104A40003368C3B1FDF7F2F80746FDF709F9804670
:104A500028464CF099FD0546B8F1000F63D10DF1E1
:104A60001008454A3B462021404663F053FF41462B
:104A700028465AF0C3FA2068404D414F5AF0B2FA26
:104A8000022128600CF006FF286810210CF002FFBC
:104A90003C4928685AF0B2FA6FF040421146286843
:104AA0000FF0D0F828680022032114F075FD0023D0
:104AB00028681A4609210FF079F93868002845D08E
:104AC00029684CF053FD3D6833686BB1402104A860
:104AD0000BF0BEF804A92C4863F00AFF28464CF0FE
:104AE00053FD04A95AF08AFA2068284C5AF07AFA41
:104AF000022120600CF0CEFE206810210CF0CAFECE
:104B0000206823495AF07AFA6FF040422068114633
:104B10000FF098F8002320681A46072114B0BDE86A
:104B2000F0410FF043B90DF110081A4B1A4A0097E3
:104B30002021404663F0EEFE99E72A6817484FF4BB
:104B40007A714CF0B5FC0546386079E72A6814485C
:104B50004FF47A714CF0ACFC05463860B4E700BF06
:104B600070130020941300206C130020D0EAF00092
:104B7000A813002038B8060820B80608A41300209F
:104B80006813002040B8060804B80608AC130020DB
:104B900030B8060814B8060818B8060855460008C4
:104BA0001D460008000000002DE9F0472DED0C8B9C
:104BB000834CDFF854A22068824D9FED83DA9FED8D
:104BC000838A9FED83CADFED83BA9FED83BADFED61
:104BD00083AA9FED83AA88B00CF044FE0221CAF894
:104BE00000000CF057FE1021DAF800000CF052FE25
:104BF0002068DAF800400FF0ADF9011F20460FF0F1
:104C00004DF8DAF8000082210FF062F8002202214C
:104C1000DAF8000014F054FC7248DAF8004049F069
:104C2000A9F9C0F30743C0F307228DF80E308DF8C1
:104C30000C008DF80D2020460399002214F02CFC66
:104C4000DAF800000022052114F0AEFCDAF800408A
:104C500000221146204614F0EBFB002211462046AC
:104C600014F0EEFB00221146204614F0D1FB002286
:104C70001146204614F0D4FB5B48DAF8004049F0B6
:104C800079F9C0F30743C0F307228DF810008DF8BF
:104C900011208DF8123020460499002214F0D8FB20
:104CA00002231946DAF8000000220FF07FF84F4B7C
:104CB00002241968009400230E22DAF8000010F094
:104CC00019F8DAF8000010F02DFBDAF800000FF008
:104CD000ABF809EE900ADAF800000FF0D1F809EE0F
:104CE000100ADAF800005AF07DF9214628600CF02D
:104CF000D1FD286810210CF0CDFD28683C495AF000
:104D00007DF928682146002214F046FC6FF04042ED
:104D1000286811460EF096FF0523002221462868D8
:104D2000344D0FF043F8DAF800005AF05BF92146F1
:104D300028600CF0AFFD286810210CF0ABFD28684E
:104D40002D495AF05BF928682146002214F024FC12
:104D50006FF04042286811460EF074FF0A23642267
:104D600021462868254D0FF021F8DAF800005AF0A6
:104D700039F9214628600CF08DFD286810210CF0CF
:104D800089FD28681C495AF039F928682146002213
:104D900014F002FC6FF04042286811460EF052FFFA
:104DA0002868174D21460A236FF063020EF0FEFFBC
:104DB000144CF8EEE99AB8EEC99A4FF000084EE0AC
:104DC000701300207C1300204D6578BF62BA77BE57
:104DD0000000CD430000C9430000F0420000E6435C
:104DE000000048434F453600D0EAF00094130020FD
:104DF00090B906087813002044B806087413002000
:104E0000980B0020D4110020801300203333333F4F
:104E10000000804307EE908A5FED046A1FED047A7C
:104E2000F8EEE77AA7EEA67A17EE100AFBF764FB16
:104E300093A3D3E90023FBF7B7FBFBF7ADFE08EE26
:104E4000100AB0EE480A61F0C5FBF0EE407AB0EE11
:104E5000480AB0EE678A61F001FCB0EE40DA824B9E
:104E600003FB08F3B3F1333F8CBFF0EE6BDAF0EEE7
:104E70004CDAB0EE4B0AF0EE007AADEE880A08F19B
:104E80000108F2EE04CA88BFF0EE67CA61F02CFC9C
:104E9000F0EE408AB0EE6A0AADEE8D0A61F024FCB5
:104EA000B0EE6C2AF0EE400A9FED701AF0EE4A1A4E
:104EB000B0EE408A07A9B0EE680A06A800F0AEFF7F
:104EC0009DED067ADDED077ADAF80000B4EEE87AB7
:104ED000F1EE10FAF4EEC87A8CBFF0EE68CAF0EE8C
:104EE00047CAF1EE10FAB4EEE87A8CBFB0EE48DAB9
:104EF000B0EE67DAF1EE10FAB4BFB0EE686AB0EE69
:104F0000476AF4EEC87AF1EE10FAB4EE6C6AB4BFF8
:104F1000F0EE486AF0EE676AF1EE10FA18BF36EE6E
:104F20006C6AF4EE4D6A18BFBDEEC66A78EEEC8A84
:104F300018BF16EE106A38EE4D8A37EE6C7A77EEAF
:104F4000CD7A08BF0126F1EE10FA18BF76EECD6AD1
:104F5000BDEEC77AFDEEE77AFDEEE88ABDEEC88ABF
:104F600018BFFDEEE66A85ED027AC5ED037AC5ED60
:104F7000008A85ED018A14BF16EE907A01275AF057
:104F800045FF44F8040F294602225AF04BFF002245
:104F90000221206814F0C0FA3548D4F8009048F097
:104FA000E9FFC0F307238DF81400C0F307408DF824
:104FB00015308DF816000599002248463DEE49DA75
:104FC00014F0BAFA20680022012114F0ADFA7CEE48
:104FD000E9CAFDEECD7A206817EE902AFDEEEC7A54
:104FE000103517EE901A0EF0CDFD20683A46314686
:104FF0000EF028FEB8F1290F7FF40CAFDAF80000AC
:105000001C4C5AF003FF022120600CF043FC206886
:1050100010210CF03FFC20680022032114F07CFAE0
:105020001548256848F0A6FFC0F30743C0F30722E0
:105030008DF81E308DF81C008DF81D20079928462C
:10504000002214F079FA00221146206814F06CFA5C
:105050000A4B4FF487721A6008B0BDEC0C8BBDE8A8
:10506000F047FFF761BB00BFCDCCCCCC0000F042D5
:105070004F453600841300201D57DF00900B0020A1
:10508000399D52A246DF913F30B5474D474C2868C5
:105090008DB00CF0E7FB022120600CF0FBFB2068D8
:1050A00010210CF0F7FB286825680EF053FF011F54
:1050B00028460EF0F3FD20686FF040410EF008FE28
:1050C00020680022022114F0FBF93948256848F0D5
:1050D00051FFC0F30743C0F307228DF80A308DF863
:1050E00008008DF8092002990022284614F0D4F90E
:1050F0003048256848F03EFFC0F30743C0F307225D
:105100008DF80E308DF80C008DF80D20039928468F
:10511000002214F09DF920680022052114F044FAC1
:10512000256800222846032114F082F9284600222F
:10513000032114F085F928460022032114F068F9B0
:1051400028460022032114F06BF91B4B0225196835
:10515000009500230E2220680FF0CCFD2068174C2C
:1051600059F040FF294620600CF094FB2068102184
:105170000CF090FB124B134A1B68202104A863F02B
:10518000C9FB206804A959F039FF6FF0404220683C
:1051900011460EF057FD002320681A4607210EF035
:1051A00005FE0DB030BD00BF70130020901300202D
:1051B0004F453600D0EAF00080130020A0130020F5
:1051C0002000002048B806082DE9F041764D774CC4
:1051D0002868774F86B00CF045FB022120600CF068
:1051E00059FB206810210CF055FB286825680EF04B
:1051F000B1FE011F28460EF051FD20686FF04041BE
:105200000EF066FD20680022022114F059F938469C
:10521000256848F0AFFEC0F307238DF80800C0F3FF
:1052200007408DF809308DF80A00029900222846BF
:1052300014F032F95F48256848F09CFEC0F307235C
:105240008DF80C00C0F307408DF80D308DF80E007E
:1052500003992846002214F0FBF82068002205215B
:1052600014F0A2F9256800222846032114F0E0F882
:1052700028460022032114F0E3F8284600220321E7
:1052800014F0C6F828460022032114F0C9F84A4B4E
:105290004A4D19680226009600230E2220680FF05E
:1052A00029FD206859F09EFE314628600CF0F2FA84
:1052B000286810210CF0EEFA6FF040421146286881
:1052C0000EF0C0FC28683E4959F098FE2868314627
:1052D000002214F061F900221146286814F0F0F859
:1052E0003846D5F8008048F045FE0346C3F3072250
:1052F000C3F307438DF812308DF810008DF811209C
:1053000004994046002214F02BF928682D49002208
:1053100014F03AF900231A46314628680EF046FD8B
:105320002068294C59F05EFE314620600CF0B2FA3C
:10533000206810210CF0AEFA6FF040421146206850
:105340000EF080FC2068214959F058FE2068314653
:10535000002214F021F900221146206814F0B0F860
:105360003846276848F006FE0346C3F30722C3F316
:1053700007438DF816308DF814008DF81520059927
:105380003846002214F0ECF820681149002214F08D
:10539000FBF829682068009600230E220FF0AAFC73
:1053A00006B0BDE8F08100BF701300208C13002010
:1053B0004F453600D0EAF000901300209C130020E7
:1053C000C4B60608F4F406089813002054B806087A
:1053D00014C8060870B56A4D6A4C286888B00CF08D
:1053E00041FA022120600CF055FA206810210CF0DF
:1053F00051FA286825680EF0ADFD011F28460EF011
:105400004DFC614D206834210EF062FC20680022C2
:10541000022114F055F82846266848F0ABFDC0F389
:1054200007238DF80C00C0F307408DF80D308DF880
:105430000E0003990022304614F02EF82846256805
:1054400048F098FDC0F30743C0F307228DF81230EF
:105450008DF810008DF8112004992846002213F0D1
:10546000F7FF20680022052114F09EF8256800222D
:105470002846032113F0DCFF28460022032113F005
:10548000DFFF28460022032113F0C2FF2846002236
:10549000032113F0C5FF3D4A2068116802230093E1
:1054A0000E2200230FF026FC206852F04BFE28222B
:1054B000114604460EF0C6FB00231A46204607217B
:1054C0000EF074FC00220821204614F06DF83048DC
:1054D00048F050FDC0F30743C0F307228DF81630A3
:1054E0008DF814008DF8152005992046002213F040
:1054F000AFFF00220A21204613F0EAFF002048F007
:1055000039FDC0F30743C0F307228DF81A308DF838
:1055100018008DF8192006992046002213F0E0FFAC
:1055200000224C21204613F0EFFF1A4848F022FDDC
:10553000C0F30743C0F307228DF81E308DF81C001E
:105540008DF81D2007992022204613F081FF204668
:1055500059F048FD1049054659F050FD28460FF016
:10556000FBFF28460D49002214F00EF80C490023D9
:105570000A22204608B0BDE870400DF0A9BD00BF6A
:105580007013002088130020D0EAF0008C13002054
:105590004F453600D27619005CB70608F4F40608C9
:1055A0001546000830B5002083B00CF05BF9184CAC
:1055B000022120600CF06EF9206810210CF06AF9CD
:1055C00020680022FF2113F057FF1248256848F099
:1055D000D1FCC0F30743C0F307228DF806308DF8E5
:1055E00004008DF8052001990022284613F030FFB1
:1055F000FFF794F9FFF7D8FAFFF746FDFFF7E4FD50
:10560000FFF7E8FE20460CF039FD206803B030BDFE
:1056100070130020D0EAF000704700BF0648074A28
:1056200008B50023C0E9002304F0FAFB00B908BD67
:10563000BDE80840FEF7ECBDB01300200010005894
:1056400010B5044696B05022002102A863F054FA27
:105650000F4B22689A4201D016B010BD4FF4007271
:105660004FF0804302A80292109304F0E5F960B96C
:105670004FF0B0431A6D42F480221A651B6D03F49B
:1056800080230193019B16B010BDFEF7C1FDEFE72B
:105690000010005810B51248124C00230F2147F695
:1056A000FF72C0E90043C0E90212C0E9053303619B
:1056B000C36104F0D5FB30B900220948114604F05B
:1056C0004FFC48B910BDFEF7A3FD00220448114667
:1056D00004F046FC0028F5D0BDE81040FEF798BD68
:1056E000C81300200028004010B5044696B0502290
:1056F000002102A863F000FA164B22689A4201D0FA
:1057000016B010BD4FF400624FF4807302A80292ED
:10571000129304F091F9D0B94FF0B0430022D3F8BE
:10572000900040F40040C3F890009C6D44F4806405
:105730009C659B6D03F48063114601930320019BDC
:1057400000F02CFC032000F065FC16B010BDFEF745
:105750005FFDE1E70028004010B5034C20460CF047
:105760008DFC206810BD00BFEC13002010481149CB
:105770004FF4827210B5C0E900124FF4007200239A
:105780004FF4E064072182610822C0E90234C0E9D5
:105790000433C0E90733C0E90933C0E90B1342639E
:1057A00004F042FE00B910BDBDE81040FEF730BD68
:1057B000B81400200030014010B51148114C4FF4CE
:1057C0008272C0E90042022200234FF4E06101240A
:1057D00002614FF40072C0E90231C0E905420821BC
:1057E0000722C0E90713C0E90933C0E90B2343636B
:1057F00004F01AFE00B910BDBDE81040FEF708BD68
:10580000501400200038004070B50368414A8AB047
:1058100000249342CDE90444CDE90644089404D021
:105820003D4A934244D00AB070BD4FF0B0430546A4
:105830001A6E3A4E42F480521A661A6E02F4805280
:105840000192019ADA6C42F00102DA64DB6C03F037
:1058500001030093E0220223CDE9042300980322F0
:1058600005234FF0904004A9CDE9072301F010F87B
:105870002B4A0723C6E900238023102233613046D8
:105880004FF40053C6E90224C6E90544C6E90743BC
:1058900000F016FC00283AD1002211466E65222045
:1058A000B56200F07BFB222000F0B4FB0AB070BDB3
:1058B0004FF0B0434FF420409A6D42F480429A6515
:1058C0009A6D02F480420392039ADA6C42F002026B
:1058D000DA64DB6C022103F00203CDE904010293D8
:1058E0000525032304A90F48029ACDE9073500F0E6
:1058F000CFFF4FF4804202230A48089504A9CDE95E
:105900000423CDE9064400F0C3FF0AB070BDFEF7E2
:105910007FFCC1E70030014000380040F013002058
:10592000080002400004004800B54FF0B04383B0C7
:10593000186D40F4002018651B6D002203F400234D
:10594000019311462E20019B00F028FB2E2003B06E
:105950005DF804EB00F05EBBFEE700BFFEE700BFB2
:10596000FEE700BFFEE700BFFEE700BF704700BFD5
:10597000704700BF704700BF00F0E0BAFDF734BFCA
:10598000012001F02DB900BF014800F0F1BC00BFBB
:10599000F0130020014802F0EFBA00BFB45A012012
:1059A000014805F091BD00BF20150020014805F019
:1059B000A9B900BFB8140020014806F071BB00BFB0
:1059C000B815002008B54FF4806001F009F94FF4D4
:1059D000006001F005F9BDE808404FF4805001F087
:1059E000FFB800BF0AF014BB0AF0A8BA01F006B96C
:1059F0000120704708B563F0F7F8162303604FF0F5
:105A0000FF3008BD08B563F0EFF816230360FEE72A
:105A100010B50C46AFF3008003462370012010BD83
:105A200070B5161E07DD0C468D1914F8010BAFF387
:105A30000080A542F9D1304670BD00BF4FF0FF3065
:105A4000704700BF4FF400534B600020704700BF09
:105A500001207047002070470C490D4A0B6810B5B3
:105A60000C4C121B2BB11844904207D80860184602
:105A700010BD094B0B6018449042F7D963F0B4F89D
:105A80000C2303604FF0FF33184610BD1C15002097
:105A9000000003200010000088E101201449D1F823
:105AA00088204FF0B04342F47002C1F88820196892
:105AB000104A4FF4E02041F0010119609860186825
:105AC0000D4902401A60D3F8942022F00502C3F871
:105AD0009420D3F8982022F00102C3F89820D960CE
