:020000040800F2
:100000000000032045610008395C00083D5C0008E1
:10001000415C0008455C0008495C000800000000E5
:100020000000000000000000000000004D5C00081F
:10003000515C000800000000555C0008595C000895
:100040009D6100089D6100089D6100085D5C0008DD
:100050009D6100089D610008615C00089D610008C9
:100060009D6100089D6100089D610008695C0008B1
:100070009D6100089D6100089D6100089D61000868
:100080009D6100089D6100089D6100089D61000858
:10009000755C00089D6100089D6100089D61000875
:1000A0009D610008815C00089D6100089D61000859
:1000B0009D6100089D6100089D6100089D61000828
:1000C0009D6100089D6100088D5C00089D6100082D
:1000D000995C00089D6100089D6100089D61000811
:1000E000A55C00089D6100089D6100089D610008F5
:1000F000C55C0008C95C0008CD5C00089D61000873
:100100009D6100089D6100089D6100089D610008D7
:100110009D6100089D6100089D6100089D610008C7
:100120009D6100089D6100089D6100089D610008B7
:0C0130009D6100089D6100089D610008B1
:1001400010B5054C237833B9044B13B10448AFF311
:1001500000800123237010BDD803002000000000A0
:1001600034BD060808B5034B1BB103490348AFF380
:10017000008008BD00000000DC03002034BD06083C
:1001800001F0FF01102A2BDB10F0070F08D010F848
:10019000013B013A8B422DD010F0070F42B3F6D14C
:1001A000F0B441EA012141EA014122F007047FF065
:1001B00000070023F0E80256083C85EA010586EABC
:1001C000010685FA47F5A3FA87F586FA47F6A5FAF8
:1001D00087F68EB9EED1F0BC01F0FF0102F0070204
:1001E00032B110F8013B013A83EA010313B1F8D1AF
:1001F0000020704701387047002D06BF3546033890
:10020000073815F0010F07D1013015F4807F02BFC8
:10021000013015F4C03F0130F0BC0138704700BF19
:10022000034613F8012B002AFBD1181A0138704736
:1002300081F0004102E000BF83F0004330B54FEA97
:1002400041044FEA430594EA050F08BF90EA020F04
:100250001FBF54EA000C55EA020C7FEA645C7FEA97
:10026000655C00F0E2804FEA5454D4EB5555B8BFBA
:100270006D420CDD2C4480EA020281EA030382EA2B
:10028000000083EA010180EA020281EA0303362DBD
:1002900088BF30BD11F0004F4FEA01314FF4801C90
:1002A0004CEA113102D0404261EB410113F0004FA2
:1002B0004FEA03334CEA133302D0524263EB430359
:1002C00094EA050F00F0A780A4F10104D5F1200EF7
:1002D0000DDB02FA0EFC22FA05F2801841F1000152
:1002E00003FA0EF2801843FA05F359410EE0A5F126
:1002F00020050EF1200E012A03FA0EFC28BF4CF057
:10030000020C43FA05F3C01851EBE37101F000450C
:1003100007D54FF0000EDCF1000C7EEB00006EEB19
:100320000101B1F5801F1BD3B1F5001F0CD34908A3
:100330005FEA30004FEA3C0C04F101044FEA4452FA
:1003400012F5800F80F09A80BCF1004F08BF5FEA81
:10035000500C50F1000041EB045141EA050130BD61
:100360005FEA4C0C404141EB0101013C28BFB1F573
:10037000801FE9D291F0000F04BF01460020B1FABE
:1003800081F308BF2033A3F10B03B3F120020CDA91
:100390000C3208DD02F1140CC2F10C0201FA0CF06F
:1003A00021FA02F10CE002F11402D8BFC2F1200CD4
:1003B00001FA02F120FA0CFCDCBF41EA0C0190408A
:1003C000E41AA2BF01EB0451294330BD6FEA0404D3
:1003D0001F3C1CDA0C340EDC04F11404C4F12002BE
:1003E00020FA04F001FA02F340EA030021FA04F3D0
:1003F00045EA030130BDC4F10C04C4F1200220FA27
:1004000002F001FA04F340EA0300294630BD21FA64
:1004100004F0294630BD94F0000F83F4801306BF2A
:1004200081F480110134013D4EE77FEA645C18BF1E
:100430007FEA655C29D094EA050F08BF90EA020FB5
:1004400005D054EA000C04BF1946104630BD91EAAD
:10045000030F1EBF0021002030BD5FEA545C05D1B0
:100460004000494128BF41F0004130BD14F58004EF
:100470003CBF01F5801130BD01F0004545F0FE4163
:1004800041F470014FF0000030BD7FEA645C1ABF98
:10049000194610467FEA655C1CBF0B46024650EACF
:1004A000013406BF52EA033591EA030F41F40021FB
:1004B00030BD00BF90F0000F04BF0021704730B581
:1004C0004FF4806404F132044FF000054FF0000156
:1004D00050E700BF90F0000F04BF0021704730B517
:1004E0004FF4806404F1320410F0004548BF4042EC
:1004F0004FF000013EE700BF42004FEAE2014FEA41
:1005000031014FEA02701FBF12F07F4393F07F4F1B
:1005100081F06051704732F07F4208BF704793F01E
:100520007F4F04BF41F40021704730B54FF4607431
:1005300001F0004521F000411CE700BF50EA010234
:1005400008BF704730B54FF000050AE050EA0102DD
:1005500008BF704730B511F0004502D5404261EB4D
:1005600041014FF4806404F132045FEA915C3FF48E
:10057000D8AE4FF003025FEADC0C18BF03325FEA2B
:10058000DC0C18BF033202EBDC02C2F1200300FADC
:1005900003FC20FA02F001FA03FE40EA0E0021FA01
:1005A00002F11444BDE600BF70B54FF0FF0C4CF4EF
:1005B000E06C1CEA11541DBF1CEA135594EA0C0FA1
:1005C00095EA0C0F00F0DEF82C4481EA030621EADC
:1005D0004C5123EA4C5350EA013518BF52EA033517
:1005E00041F4801143F4801338D0A0FB02CE4FF0C9
:1005F0000005E1FB02E506F00042E0FB03E54FF0F9
:100600000006E1FB03569CF0000F18BF4EF0010EF0
:10061000A4F1FF04B6F5007F64F5407404D25FEAEC
:100620004E0E6D4146EB060642EAC62141EA55519F
:100630004FEAC52040EA5E504FEACE2EB4F1FD0CE1
:1006400088BFBCF5E06F1ED8BEF1004F08BF5FEA5F
:10065000500E50F1000041EB045170BD06F0004611
:1006600046EA010140EA020081EA0301B4EB5C04BE
:10067000C2BFD4EB0C0541EA045170BD41F48011B6
:100680004FF0000E013C00F3AB8014F1360FDEBFDB
:10069000002001F0004170BDC4F10004203C35DAB7
:1006A0000C341BDC04F11404C4F1200500FA05F33A
:1006B00020FA04F001FA05F240EA020001F00042DB
:1006C00021F0004110EBD37021FA04F642EB060151
:1006D0005EEA430E08BF20EAD37070BDC4F10C047B
:1006E000C4F1200500FA04F320FA05F001FA04F23F
:1006F00040EA020001F0004110EBD37041F100012B
:100700005EEA430E08BF20EAD37070BDC4F1200535
:1007100000FA05F24EEA020E20FA04F301FA05F29D
:1007200043EA020321FA04F001F0004121FA04F245
:1007300020EA020000EBD3705EEA430E08BF20EA15
:10074000D37070BD94F0000F0FD101F0004640004F
:1007500041EB010111F4801F08BF013CF7D041EAD1
:10076000060195F0000F18BF704703F000465200D5
:1007700043EB030313F4801F08BF013DF7D043EAA6
:100780000603704794EA0C0F0CEA135518BF95EA5C
:100790000C0F0CD050EA410618BF52EA4306D1D1E3
:1007A00081EA030101F000414FF0000070BD50EA02
:1007B000410606BF1046194652EA430619D094EA8C
:1007C0000C0F02D150EA013613D195EA0C0F05D176
:1007D00052EA03361CBF104619460AD181EA0301CA
:1007E00001F0004141F0FE4141F470014FF0000082
:1007F00070BD41F0FE4141F4780170BD70B54FF01D
:10080000FF0C4CF4E06C1CEA11541DBF1CEA13559C
:1008100094EA0C0F95EA0C0F00F0A7F8A4EB05047E
:1008200081EA030E52EA03354FEA013100F0888075
:100830004FEA03334FF0805545EA131343EA12633E
:100840004FEA022245EA111545EA10654FEA0026F3
:100850000EF000419D4208BF964244F1FD0404F5AC
:10086000407402D25B084FEA3202B61A65EB030508
:100870005B084FEA32024FF480104FF4002CB6EBC5
:10088000020E75EB030E22BFB61A754640EA0C0045
:100890005B084FEA3202B6EB020E75EB030E22BF85
:1008A000B61A754640EA5C005B084FEA3202B6EBC6
:1008B000020E75EB030E22BFB61A754640EA9C0085
:1008C0005B084FEA3202B6EB020E75EB030E22BF55
:1008D000B61A754640EADC0055EA060E18D04FEA13
:1008E000051545EA16754FEA06164FEAC30343EAB3
:1008F00052734FEAC2025FEA1C1CC0D111F4801F80
:100900000BD141EA00014FF000004FF0004CB6E778
:1009100011F4801F04BF01430020B4F1FD0C88BF17
:10092000BCF5E06F3FF6AFAEB5EB030C04BFB6EB22
:10093000020C5FEA500C50F1000041EB045170BD15
:100940000EF0004E4EEA113114EB5C04C2BFD4EB42
:100950000C0541EA045170BD41F480114FF0000EC6
:10096000013C90E645EA060E8DE60CEA135594EA42
:100970000C0F08BF95EA0C0F3FF43BAF94EA0C0F45
:100980000AD150EA01347FF434AF95EA0C0F7FF4BA
:1009900025AF104619462CE795EA0C0F06D152EA0E
:1009A00003353FF4FDAE1046194622E750EA4106F2
:1009B00018BF52EA43067FF4C5AE50EA41047FF403
:1009C0000DAF52EA43057FF4EBAE12E74FF0FF3C68
:1009D00006E000BF4FF0010C02E000BF4FF0010C39
:1009E0004DF804CD4FEA410C7FEA6C5C4FEA430CB2
:1009F00018BF7FEA6C5C1BD001B050EA410C0CBF01
:100A000052EA430C91EA030F02BF90EA020F002062
:100A1000704710F1000F91EA030F58BF994208BFC9
:100A200090422CBFD8176FEAE37040F00100704786
:100A30004FEA410C7FEA6C5C02D150EA013C07D1DD
:100A40004FEA430C7FEA6C5CD6D152EA033CD3D028
:100A50005DF8040B704700BF8446104662468C4622
:100A60001946634600E000BF01B5FFF7B7FF002855
:100A700048BF10F1000F01BD4DF808EDFFF7F4FF7E
:100A80000CBF012000205DF808FB00BF4DF808ED09
:100A9000FFF7EAFF34BF012000205DF808FB00BF2C
:100AA0004DF808EDFFF7E0FF94BF012000205DF84E
:100AB00008FB00BF4DF808EDFFF7CEFF94BF012003
:100AC00000205DF808FB00BF4DF808EDFFF7C4FFFC
:100AD00034BF012000205DF808FB00BF4FEA410C45
:100AE0007FEA6C5C02D150EA013C0AD14FEA430C28
:100AF0007FEA6C5C02D152EA033C02D14FF0000065
:100B000070474FF0010070474FEA410212F50012A2
:100B100015D211D56FF47873B3EB625212D94FEA44
:100B2000C12343F0004343EA505311F0004F23FA2E
:100B300002F018BF404270474FF00000704750EA83
:100B4000013005D111F0004008BF6FF00040704740
:100B50004FF00000704700BF4A0011D212F500129A
:100B600011D20DD56FF47873B3EB62520ED44FEA05
:100B7000C12343F0004343EA505323FA02F0704785
:100B80004FF00000704750EA013002D14FF0FF30C3
:100B900070474FF0000070474FEA4102B2F1E04366
:100BA00024BFB3F5001CDCF1FE5C0DD901F0004C54
:100BB0004FEAC0024CEA5070B2F1004F40EB8300A4
:100BC00008BF20F00100704711F0804F21D113F1D0
:100BD0003872BCBF01F00040704741F480114FEA09
:100BE0005252C2F11802C2F1200C10FA0CF320FA92
:100BF00002F018BF40F001004FEAC1234FEAD323AF
:100C000003FA0CFC40EA0C0023FA02F34FEA430318
:100C1000CCE77FEA625307D150EA01331EBF4FF0A1
:100C2000FE4040F44000704701F0004040F0FE40BC
:100C300040F40000704700BF7BB972B90029BEBF05
:100C400000204FF0004106E008BF00281CBF6FF0F5
:100C500000414FF0FF3000F009BAADF1080C6DE92A
:100C600004CE002909DB002B1ADB00F083F8DDF845
:100C700004E0DDE9022304B07047404261EB41012A
:100C8000002B1BDB00F076F8DDF804E0DDE9022341
:100C900004B0404261EB4101524263EB43037047B1
:100CA000524263EB430300F065F8DDF804E0DDE950
:100CB000022304B0404261EB41017047524263EBB2
:100CC000430300F057F8DDF804E0DDE9022304B047
:100CD000524263EB4303704753B94AB9002908BF36
:100CE00000281CBF4FF0FF314FF0FF3000F0BEB9BD
:100CF000ADF1080C6DE904CE00F03CF8DDF804E03D
:100D0000DDE9022304B0704738B500220023044611
:100D10000D46FFF7BBFE28B920462946BDE83840FE
:100D200000F00AB8204605F1004100F005F8404205
:100D300061EB410138BD00BFD0B50C4B0022064627
:100D40000F46FFF731FCFFF707FF0446FFF7B2FB42
:100D5000074B0022FFF728FC02460B463046394677
:100D6000FFF76AFAFFF7F8FE2146D0BD0000F03D1C
:100D70000000F0412DE9F047089D8E460446884664
:100D8000002B4AD18A42174662D9B2FA82F64EB196
:100D9000C6F1200301FA06F820FA03F3B74043EA4C
:100DA0000808B4404FEA174E1FFA87FCB8FBFEF163
:100DB000230C0EFB118843EA084301FB0CF29A4214
:100DC00009D9FB1801F1FF3080F0EA809A4240F225
:100DD000E78002393B449A1AA3B2B2FBFEF00EFB45
:100DE000102243EA024300FB0CFC9C4509D9FB1886
:100DF00000F1FF3280F0D6809C4540F2D3803B4426
:100E0000023840EA0140A3EB0C0300211DB1F3407E
:100E10000022C5E90032BDE8F0878B4205D90DB14B
:100E2000C5E9000100210846F5E7B3FA83F100297E
:100E300046D1734502D3824200F20581841A6EEBDB
:100E4000030201209046002DE5D0C5E90048E2E705
:100E5000002A00F09080B2FA82F6002E40F0A480C2
:100E60008A1A030C4FEA174E80B2BCB20121B2FBC2
:100E7000FEFC0EFB1C2243EA024304FB0CF29A42E6
:100E800007D9FB180CF1FF3802D29A4200F2E08039
:100E9000C4469B1AB3FBFEF20EFB123340EA034337
:100EA00002FB04F49C4207D9FB1802F1FF3002D286
:100EB0009C4200F2CA8002461B1B42EA0C40A5E796
:100EC000C1F120068B4022FA06F71F430EFA01F407
:100ED00020FA06F32EFA06FE4FEA1749234300FADA
:100EE00001F81FFA87FCBEFBF9F01C0C09FB10EEA1
:100EF00044EA0E4400FB0CFEA64502FA01F209D9B1
:100F00003C1900F1FF3A80F09C80A64540F29980A0
:100F100002383C44A4EB0E041FFA83FEB4FBF9F341
:100F200009FB13444EEA044403FB0CFCA44508D916
:100F30003C1903F1FF3E80F08280A4457FD9023B3B
:100F40003C4443EA0040A4EB0C04A0FB02EC6445E3
:100F50007346E14662D35FD05DB1B8EB030264EB48
:100F6000090404FA06F622FA01F31E43CC40C5E94F
:100F7000006400214FE7B1FBF2FC010C41EA0E4195
:100F800080B240EA01423B4638463C46B846BE463F
:100F90002026B1FBF7F1A2EB080241EA0C4166E71B
:100FA000014618E710462CE7C6F120022EFA02F39C
:100FB000B740B14020FA02F24FEA174E0A43B3FBA2
:100FC000FEF8BCB20EFB1833110C41EA034108FBDA
:100FD00004F9B04089454FEA104380B23ED97918F0
:100FE00008F1FF3C01D289451FD8A1EB0901B1FBF3
:100FF000FEF909FB04F80EFB191192B242EA014214
:10100000424529D2BA1809F1FF31C4D24245C2D2B1
:10101000A9F102013A44BEE7F0459DD2BEEB0203BE
:101020006CEB070C0138E14696E7A7EB0909494448
:10103000A8F1020CB1FBFEF909FB04F8DBE77346EB
:101040007FE7504666E70846FDE63B44023A33E751
:10105000ACF1020C3B441CE749469CE7A1EB0901BB
:10106000C446B1FBFEF909FB04F8C4E7704700BFB2
:1010700038B504461D462170044801224FF48051C2
:1010800005F018FF0120656038BD00BF000400486E
:10109000F0B583B0144602AF15480D4600224FF458
:1010A000805105F007FFE31D03F4FC73ADEB030D66
:1010B00002AE24B122462946304668F08CF94FF042
:1010C000FF3300932A46234631460A4809F0C0FC04
:1010D000012205464FF48051054805F0EBFE002D36
:1010E0000CBF20464FF0FF300437BD46F0BD00BFB7
:1010F00000040048D814002038B50E4814460D46A8
:1011000000224FF4805105F0D5FE4FF0FF33224608
:101110002946094809F074FB012205464FF4805125
:10112000044805F0C7FE002D0CBF20464FF0FF30ED
:1011300038BD00BF00040048D814002008B5084698
:1011400001F03AFD002008BD30B5002385B0CDE99F
:101150000033CDE90233002900F098800B780A7A39
:1011600003F03F0343F040038DF80030037C054655
:101170000C46002B40F087800132D2B269462846E7
:10118000FFF786FF00287CDB2B7C257A002B67D0BD
:10119000227802F03F02012342F040028DF808203D
:1011A00005EB030E1A4610326A440133DBB212F823
:1011B000101C02F8081C73451A46F4DD0DF10903F2
:1011C0000DF1080C53FA8EFE00221CF8013B510071
:1011D0005A40C9B2120648BF81F00701C3F380101C
:1011E0004A00D2B2B0EBD11F18BF82F00702C3F39E
:1011F00040105100C9B2B0EBD21F18BF81F00701F7
:10120000C3F300104A00D2B2B0EBD11F18BF82F076
:101210000702C3F3C0005100C9B2B0EBD21F18BF20
:1012200081F00701C3F380004A00D2B2B0EBD11FB6
:1012300018BF82F007025000C3F34001C0B2B1EB07
:10124000D21F18BF80F00700420003F00103B3EB88
:10125000D01FD2B218BF82F00702E645B5D1C2B99D
:101260000022626001235DB103F110016944013382
:1012700011F8101CDBB2AB4201EB0222F4D9626020
:10128000002005B030BD0232D2B277E74FF0FF3018
:10129000F7E76FF00100F4E770B586B001AC84E8C1
:1012A0000E009DF804309DF80C40002203F03F032F
:1012B000CDE904228DF81030027C029B002C00F056
:1012C0008F8004F118010DEB0105012C05F8083C95
:1012D0004FEA232120D0022C05F8091C4FEA2341B4
:1012E0001AD0032C05F80A1C4FEA236114D0042CF1
:1012F00005F80B1C4FEAE3730ED0DBB2052C05F8A2
:101300000C3C09D0062C05F80D3C05D0072C05F83F
:101310000E3C01D005F80F3C002A58D0631CDBB20C
:101320000DF11102013B52FA83FE0DF1100C002267
:101330001CF8013B51005A40C9B2120648BF81F067
:101340000701C3F380164A00D2B2B6EBD11F18BF13
:1013500082F00702C3F340165100C9B2B6EBD21FA8
:1013600018BF81F00701C3F300164A00D2B2B6EBF2
:10137000D11F18BF82F00702C3F3C0065100C9B2E3
:10138000B6EBD21F18BF81F00701C3F380064A00F5
:10139000D2B2B6EBD11F18BF82F007025100C3F3DF
:1013A0004006C9B2B6EBD21F18BF81F007014A0050
:1013B00003F00103B3EBD11FD2B218BF82F00702D2
:1013C000F445B5D1023405F8072CE2B201E0621C05
:1013D000D2B204A9FFF790FE00EAE07006B070BD3B
:1013E000002AF4D0012306AD9AE700BFF8B50F46F6
:1013F00005460E46EC6894F84830062B04F1480484
:1014000001D06B7C13BB21462846FFF79DFE0346A7
:10141000002B4FF00101284611DBEB68DC6C04F077
:10142000400446B1FFF78AFE013EB4B1002EE1D17F
:1014300047B93B4603E02FB9B4FA84F35B09184679
:10144000F8BD66B96FF002031846F8BD6969284611
:10145000FFF7CCFF031ED6DAF1E7002FF1D101230D
:10146000EDE700BF38B50B78062B0D46044601D0DA
:10147000437C2BB929462046BDE83840FFF764BEBF
:101480004169FFF7B3FF0028F4DA38BD30B585B005
:1014900001AC84E80E00437C054623B14169FFF7A7
:1014A000A5FF002807DB94E80E00284605B0BDE83C
:1014B0003040FFF7F1BE05B030BD00BFF8B51E4E9D
:1014C000A6FB01360F460546F608EC682378062B86
:1014D00001D06B7CFBB921462846FFF735FE034659
:1014E000002B4FF00A01284613DBEB685C6804F020
:1014F00010044EB1FFF722FE013ECCB1002EE4D124
:10150000092F11D8334604E0092F0DD8B4FA84F31B
:101510005B091846F8BD69692846FFF767FF031E97
:10152000D9DA1846F8BD2EB96FF002031846F8BD97
:10153000092FF8D80123ECE7CDCCCCCC70B5C3682B
:1015400003F118061B7E062B04460D4601D0437C92
:101550003BB931462046FFF7F7FDE368DB692B60B6
:1015600070BD4169FFF742FF0028F2DAF5E700BFDE
:10157000F0B587B000240127C2602B4B0194C9B29B
:10158000009722460546FFF773FD002849D0274BF8
:1015900093E8030003AE86E803000822314628469C
:1015A000FFF7AAFD00283ADB69692846FFF786FFA6
:1015B000002834DB6F7401E0292C2ED0EB6804EB9B
:1015C000440203EB82035A7A012A13D0072C04F158
:1015D0000104F1D1EB689A6D0824C2F38001C2F3D3
:1015E00080126A7404EB440203EB820329745A7A72
:1015F000012AEBD193E807006B7C86E807002846B8
:1016000023B16969FFF7F2FE002806DB96E80E00B9
:101610002846FFF741FE0028D8DA00EAE07007B05C
:10162000F0BD6FF00300FAE740420F00ECBD060882
:1016300000224FF47A71C26002824161704700BF9C
:10164000704700BF02494FF42B7267F0C4BE00BF61
:1016500080CA060870B500F1180604460D463046EB
:10166000FFF7F0FF324629462046FFF781FF0028AA
:101670000ADB41F20803A36204F1240320460ECBE7
:10168000BDE87040FFF702BF70BD00BF10B50F2965
:101690009DF808C09DF80CE01AD8072A18D809311F
:1016A000C9B20CF01F0C4CEACE3C01EB41014FEAF1
:1016B000431E00EB81030EF478714CEA010C4CEAF6
:1016C0000232DA611833BDE810400ECBFFF7DEBE00
:1016D0004FF0FF3010BD00BF0F2925D8093170B57C
:1016E000CCB20C2101FB0401183105461646FFF768
:1016F000B9FE002817DB04EB440205EB820263000D
:10170000D1696EB921F40041234405EB830303F151
:101710001802D96128460ECABDE87040FFF7B6BE70
:1017200041F40041F0E770BD4FF0FF30704700BF5B
:1017300010B507299DF808409DF80CE01DD8193117
:10174000D2004FEA4E2E02F01802C9B203F007038E
:101750000EF4C06E13434EEAC42E01EB410100EBC0
:10176000810243EA0E0343F4F073D36102F11803DC
:10177000BDE810400ECBFFF789BE4FF0FF3010BD23
:1017800030B507299DF80C409DF810C09DF8145005
:101790001ED821314FEA0C5C4CEA054CC3F30A0316
:1017A000C9B264044CEA030C01EB410104F4602467
:1017B000520500EB81034CEA040C02F460024CEA8F
:1017C0000202DA611833BDE830400ECBFFF75EBE8F
:1017D0004FF0FF3030BD00BF07290BD82931C9B207
:1017E00001EB410100EB810303F11801DA610EC93D
:1017F000FFF74CBE4FF0FF30704700BF00B58900C7
:101800009DF804E001F03C0141EA03210EF0030ED3
:101810009201D2B241EA0E01114341F4805100F12C
:10182000240C81629CE80E005DF804EBFFF72EBEED
:1018300000B583B001A9FFF781FE0028A8BF019879
:1018400003B05DF804FB00BF10B400246C214FF41A
:101850007A72046081805DF8044B8260704700BF3B
:10186000F0B585B08368009345F2FE428188ADF8FB
:101870000C20032303AA0446002700688DF80E708D
:1018800005F03EFF642001F097F903251A26A368AE
:10189000A188206800930DF10B0201238DF80B60E5
:1018A0008DF80C7005F02CFF012303AA08BBA1687A
:1018B0000091A188206806F091F89DF80CC00CF00A
:1018C000FE0CA268A18820680092022303AA8DF86A
:1018D0000C608DF80DC005F013FF034632205BB19C
:1018E00001F06AF9681E10F0FF05D0D1284605B056
:1018F000F0BD4FF0000CE4E7012005B0F0BD00BFE3
:1019000070B5044684B05200082308468DF80B30A9
:1019100091B20023A2680092ADF80C302060A18043
:1019200001230DF10B0205F0EBFE18B1002528464E
:1019300004B070BDA3680093A1882068022303AAA5
:1019400006F04CF806460028F0D1BDF80C305BBA22
:1019500023F00F031B041B0C102BE7D12046FFF7CD
:101960007FFF05460028E1D0A368009306238DF889
:101970000B30A18820688DF80C6001230DF10B025B
:1019800005F0BEFE002845D1A3680093A188206819
:10199000012303AA06F022F89DF80C3003F0DF03C0
:1019A0008DF80D30A36800930623A1888DF80C30C4
:1019B00003AA0223206805F0A3FEA36800930C236A
:1019C0008DF80B3000238DF80C30A18820680DF1C4
:1019D0000B02012305F094FE58B9A3680093A18877
:1019E0002068012303AA05F0F9FF9DF80C0000F020
:1019F0007F060C230DEB03028DF80C30A3680093D7
:101A0000A18820688DF80D60022305F079FE284634
:101A100004B070BD3346C3E710B584B0836800934B
:101A20000821002204468DF80B10ADF80C208188A7
:101A3000006801230DF10B0205F062FE18B19FED65
:101A4000220A04B010BDA3680093A1882068022375
:101A500003AA05F0C3FF0028F1D1BDF80C305BBA32
:101A600023F00F031B041B0C102BE8D104238DF86B
:101A70000B30A3680093ADF80C00A18820680DF12D
:101A80000B02012305F03CFE18B19FED100A04B0D3
:101A900010BDA368A1882068009303AA022305F063
:101AA0009DFF0028F1D1BDF80C0040BA80B2FEF7CE
:101AB00011FD074B0022FEF777FDFFF76DF800EEF2
:101AC000100A04B010BD00BF0000C07F000000007D
:101AD0000000703F30B5044685B0A368A18800932C
:101AE000062000228DF80B008DF80C2020680123C1
:101AF0000DF10B0205F004FE80B1402103ADA36897
:101B0000009306208DF80C008DF80D102068A18838
:101B100002232A4605F0F4FD05B030BDA368A18874
:101B20002068009303AD01232A4605F057FF9DF876
:101B30000C1021F0400141F04001E0E72DE9F041B7
:101B4000DFF884801C4F1D4E362241463846FFF791
:101B5000D7FE60BB1A4D194C05F1200EAC46BCE80F
:101B60000F00F44504F11004654644F8100C44F8E5
:101B70000C1C44F8082C44F8043CEFD1BCF80030AD
:101B800023803046FEF74CFB024692B231464FF4BA
:101B900096730C480AF056FA4FF47A7001F00CF87C
:101BA000362241463846FFF7ABFE0028D2D0BDE8CA
:101BB000F0410148FFF78EBFF4030020A409002084
:101BC000F8BD060840160020E808002008B50A48BD
:101BD000FFF722FFDFED097AB4EEE70AF1EE10FA23
:101BE00008DA0548FFF718FFBCEEC00A10EE103AFD
:101BF00098B208BD642008BDF40300200000C8426C
:101C000008B51021034805F04FF9B0FA80F04009FB
:101C100008BD00BF000400480148FFF715BE00BF23
:101C2000F40300202DE9F04F8BB0642500210095CE
:101C300004468DF82710006801230DF1270270215A
:101C400005F05EFD10B10BB0BDE8F08F22460095A7
:101C500052F8480B2123702105F0C0FE0028F2D174
:101C600094F85430039394F85F3094F84BA094F8B0
:101C700058B094F85190CDF814B01B0294F85780E6
:101C800094F8636094F94D5094F953E094F959C075
:101C900094F84C20049203F4706B4FEA0A2A03462E
:101CA0004FEA09296AF30F034FEA082869F31F4333
:101CB0008146360268F30F0980462D0266F30F084D
:101CC00065F31F484FEA0E2E05464FEA0C2C6EF3C3
:101CD0000F056CF31F4594F812C094F84A1094F85D
:101CE000652094F85D70CDF818B0BCF1050F01F0D7
:101CF0000F0128BF4FF0050C120261454FEA07277C
:101D000002F4706228BF6146079267F31F49049A84
:101D1000217509F00F27014694F8529094F864B0A9
:101D200094F84EE094F85AC062F30F0169F31F4132
:101D300003F00F23059A0B43C4F8163008F00F2662
:101D4000034694F85E8062F30F0368F31F431F435A
:101D500003466BF30F036EF31F431E43039BC4F84C
:101D60001A70C4F81E6063F30F0094F86630079A87
:101D700013432385069A94F860306CF31F4005F0F6
:101D80000F2505431343C4F82250E3840BB0BDE88C
:101D9000F08F00BF038A8B4204BF012380F84230DA
:101DA000704700BF2DE9F041284C294F29494FF0D9
:101DB000FF3384B000260225C4E90B33C4E90D3398
:101DC000C4F81630C4F81A30C4F81E30C4F82230F3
:101DD000C4F82630E363204B2160324629464FF099
:101DE00001083846C4E90373676084F82A6084F800
:101DF000406026752581A4F8418005F05BF80A2033
:101E000000F0DAFE42462946384605F053F86427CA
:101E1000642000F0D1FE00972B4603AA2068ADF89D
:101E20000C60702105F06CFC009740F688602B4632
:101E3000ADF80C0003AA2068702105F061FC40F2A7
:101E40000153638204B0BDE8F08100BF00040020AC
:101E500000080048E8080020010005052DE9F843C6
:101E60008A4CE3680D46A3B194F842308BB9884F91
:101E70003B780BB100233B70B4F94410B4F94660D1
:101E8000002384F8433085F82030C5E90916BDE801
:101E9000F8837E48FFF7C6FE237D94F82AE00022EF
:101EA000734584F8422084F84020C0F0C380784F06
:101EB0003A78002B00F0E280B4F91610B4F92C2027
:101EC000E07C521A002AB8BF5242824200F3C68018
:101ED000B4F93620B4F92060921B002AB8BF5242F0
:101EE0009042ACBF00220122B4F92060A185012BF1
:101EF000E68600F08A80B4F91880B4F92EC0ACEB05
:101F0000080CBCF1000FB8BFCCF1000C6045C0F26A
:101F1000A780B4F938C0B4F92290ACEB090CBCF13D
:101F2000000FB8BFCCF1000C8445C8BF0122B4F843
:101F300022C0A4F82E80022BA4F838C065D0B4F9D2
:101F40001A80B4F930C0ACEB080CBCF1000FB8BF7C
:101F5000CCF1000C6045C0F28580B4F93AC0B4F908
:101F60002490ACEB090CBCF1000FB8BFCCF1000C15
:101F70006045B8BF0122B4F824C0A4F83080032B18
:101F8000A4F83AC041D0B4F91C80B4F932C0ACEB2B
:101F9000080CBCF1000FB8BFCCF1000C604569DB48
:101FA000B4F93CC0B4F92690ACEB090CBCF1000FBD
:101FB000B8BFCCF1000C6045B8BF0122B4F826C010
:101FC000A4F83280042BA4F83CC01ED0B4F91E80C3
:101FD000B4F934C0ACEB080CBCF1000FB8BFCCF1C5
:101FE000000C604548DBB4F93EC0B4F92890ACEB76
:101FF000090CBCF1000FB8BFCCF1000C8445C8BF80
:102000000122208DA4F83480E0877345387884F865
:102010002A3029D000287FF42DAF0123A4F84410E2
:10202000A4F8466084F8433085F82030C5E90916E5
:10203000BDE8F883AEEB0302154F84F84020002B77
:102040007FF43AAF002384F82A303B78B4F9441087
:10205000B4F94660002B3FF414AF0BE7012243E7CD
:10206000012264E7012286E700287FF403AF002AFB
:10207000D3D101E70122A1E70122C2E7BEF1000F9F
:10208000E0D1002A7FF4F6AEF6E600BF000400209F
:1020900008000020F0B53C2385B00021C0F8D03204
:1020A0000446FFF7D7FA002808DA642000F084FD20
:1020B00000212046FFF7CEFA0028F6DB534E00251C
:1020C0004FF4FA70356000F077FD514A1278CDE98F
:1020D00000250723317802222046FFF729FBB4F8B8
:1020E000D0320095CDE90155042231782046FFF722
:1020F00047FB484B5A68002A40F0828000250127A0
:1021000032782946CDE9005702232046FFF7BEFA70
:10211000294602223B4600952046FFF76FFBC82068
:1021200000F04AFD2046FFF783FB0346C4F8C8329F
:10213000C82000F041FDC82000F03EFD3A46294687
:102140002046FFF7C9FA2A4639462046FFF7C4FA67
:102150002A4602212046FFF7BFFA2A4603212046DD
:10216000FFF7BAFA2A4604212046FFF7B5FA2A46B5
:1021700005212046FFF7B0FA2A4606212046FFF740
:10218000ABFA2A4607212046FFF7A6FA2A4608217D
:102190002046FFF7A1FA2A4609212046FFF79CFABC
:1021A0002A460A212046FFF797FA2A460B212046A5
:1021B000FFF792FA2A460C212046FFF78DFA2A46AD
:1021C0000D212046FFF788FA2A460E212046FFF708
:1021D00083FA2A460F212046FFF77EFAC82000F036
:1021E000EBFC0D4C0D490E4B0E484C6100228A60F1
:1021F0000A6188619A601A615C61986105B0F0BDFE
:1022000031782046FFF7E8FA78E700BFE0070020C2
:1022100009000020AC0B0020CDCC4C3D080800206C
:10222000EC0700200000C84230B587B004460EF02D
:10223000CFF80E4D85ED000A02F0FAF82868FEF797
:102240005BF9CDE904010A4B1869FEF755F9D4E9A9
:10225000BA45084ACDE90201CDE900454FF4807145
:10226000054866F05FFF07B030BD00BF24080020BE
:10227000EC0700201CBE0608A409002038B50A4C53
:102280002046FFF7D5F9012508480949094A0A4BB4
:10229000C4F8C452C4F81C03C4F82013C4F824239F
:1022A000C4F8303338BD00BF700400200000FA4489
:1022B0003313954300B056456AF72B380148FFF7B2
:1022C000BFB900BF700400202DE9F04F0020A9B075
:1022D0000FF014FEDFF8EC93EE4FEF4DDFF8E8A3BC
:1022E000044648463C604CF091F9C0F30743C0F304
:1022F00007228DF80A308DF808008DF80920029920
:102300000022204617F0F0FB38680FF0F7FD4FF47D
:1023100096720446DC2111F0E3FF204613F068FCBE
:1023200048464CF073F9C0F307238DF80C00C0F356
:1023300007408DF80D308DF80E00039900222046DD
:1023400017F0D2FB28464CF061F9C0F307238DF853
:102350001000C0F307408DF811308DF81200049979
:102360002046002217F0E4FB20460022022117F04D
:10237000F3FB20460022052117F062FC20460022D4
:10238000052117F0A1FB20460022052117F0A4FB30
:1023900020460022052117F087FB00222046052158
:1023A00017F08AFB102120460FF0C0FD20465DF09B
:1023B00065F9BA4980465DF06DF900220221404678
:1023C00017F036FC28464CF021F9C0F307238DF8AE
:1023D0001400C0F307408DF815308DF816000599EC
:1023E0004046002217F008FC51464046002217F0F4
:1023F00017FC052300220221404612F025F8204652
:102400005DF03CF9A64906465DF044F951460022CC
:10241000304617F005FC28464CF0F8F88DF8180007
:10242000C0F30723C0F307408DF819308DF81A0068
:102430000699DFF898A23046002217F0DDFB4146EE
:102440004FF0050800230E223046CDF8008012F030
:102450009DFF20465DF012F9924B93491A6883461E
:102460000FA866F095FE0FA958465DF013F92846AF
:102470004CF0CCF8C0F307238DF81C00C0F30740E4
:102480008DF81D308DF81E0007995846002217F070
:10249000B3FB51465846002217F0C2FB00230E2220
:1024A00031465846CDF8008012F070FF20465DF0AE
:1024B000E5F87E4906465DF0EDF828464CF0A6F8B2
:1024C000C0F307238DF82000C0F307408DF82130BA
:1024D0008DF8220008993046002217F08DFB5146F6
:1024E0003046002217F09CFB00230E22594630464E
:1024F000CDF8008012F04AFF20465DF0BFF86C492D
:1025000083465DF0C7F828464CF080F8C0F30723F7
:102510008DF82400C0F307408DF825308DF8260093
:1025200009995846002217F067FB51465846002289
:1025300017F076FB0E22002331465846CDF8008076
:1025400012F024FF204647F031FF6421064647F091
:1025500039FF28464CF05AF8C0F307238DF82800BD
:10256000C0F307408DF829308DF82A000A993046CB
:1025700047F048FF48464CF049F8C0F307238DF870
:102580002C00C0F307408DF82D308DF82E000B99EC
:10259000304647F041FF47492522304647F04AFF81
:1025A0001E2300220921304611F04EFF20465DF027
:1025B00065F8414981465DF06DF828464CF026F8F3
:1025C000C0F307238DF83000C0F307408DF8313099
:1025D0008DF832000C994846002217F00DFB514649
:1025E0004846002217F01CFB314600263346484679
:1025F0000E22009612F0CAFE204656F0EFF828226E
:102600001146044611F06CFE28464BF0FFFFC0F364
:1026100007238DF83400C0F307408DF835308DF86E
:1026200036000D993246204617F05EFA3246414692
:10263000204617F005FB334632460421204611F0B0
:1026400003FF20465DF01AF81C4905465DF022F8AC
:10265000284613F0CDFA6FF07F404BF0D7FF0346CA
:10266000C3F30722C3F307438DF838008DF83920F0
:102670008DF83A300E992846324617F0BDFA1049C7
:1026800033460A22204611F06FF8384610F042F81F
:102690001EE000BF280800204F45360030BE060867
:1026A00058BE06081C00002068BE06087CBE06084E
:1026B00094BE0608ACBE0608D4BE0608F0BE0608E6
:1026C00081430008D0EAF00060FD060880D00608CB
:1026D000386829B0BDE8F08F1C4A1D4813780BB943
:1026E00003788BB330B587B0002101240DF11703B7
:1026F000642502958DF817101170CDE90034302251
:10270000017023461348A62105F01EFB9DF81720F3
:10271000D00604D51048114B04700221197011071E
:1027200005D50F480D4B0124032104701970930641
:1027300008D50C4A0C491378B3FA83F301205B09DE
:102740000870137007B030BD704700BF2E0800201E
:102750002D080020E8080020300800204408002050
:102760002F0800202C0800203108002070B5434EAF
:10277000BEB00124642509AB0093CDE90145234691
:102780000022A621304605F0DFFA0DF125038DE881
:1027900038001D222346A621304605F0D5FA0DF15A
:1027A00026038DE8380021222346A621304605F075
:1027B000CBFA0DF127038DE8380022222346A6210B
:1027C000304605F0C1FA0AAB8DE838002A222346CC
:1027D000A621304605F0B8FA0DF129038DE838003E
:1027E0002D222346A621304605F0AEFA0DF12A032C
:1027F0008DE838002E222346A621304605F0A4FAA3
:102800000DF12B038DE838002F222346A6213046F8
:1028100005F09AFA0BAB8DE8380030222346A6214A
:10282000304605F091FA9DF82C009DF82B30144AA3
:10283000CDE906309DF82A3005939DF829300493A0
:102840009DF8283003939DF8273002939DF8263099
:1028500001939DF825300093C8219DF824300CA8E1
:1028600066F060FC0CA8FDF7DBFC02462B4692B23A
:102870000CA9044809F0E6FB3EB070BDE808002052
:10288000F4BE0608401600202DE9F0415F4D88B0E7
:10289000012464260DF11303282200938DF81320E0
:1028A0002346CDE901462D22A621284605F050F900
:1028B00010238DF8153050238DF81630F0238DF845
:1028C000173005AB30270093CDE9014623461D2282
:1028D000A62128468DF814708DF8184005F038F9B7
:1028E0000DF115030093CDE9014623462122A621CF
:1028F000284605F02DF90DF116030093CDE90146A8
:1029000023462222A621284605F022F90DF11703BD
:102910000093CDE9014623462322A621284605F04F
:1029200017F906AB0093CDE9014623462A22A621DA
:10293000284605F00DF903238DF81A300DF119031F
:102940000093FF234FF078088DF81C30CDE9014645
:1029500023462422A62128468DF819708DF81B8065
:1029600005F0F6F80DF11A030093CDE90146234670
:102970002522A621284605F0EBF80DF11B03009354
:10298000CDE9014623462622A621284605F0E0F897
:1029900007AB0093CDE9014623462722A62128460E
:1029A00005F0D6F80DF11D03009338238DF81D3086
:1029B000CDE9014623462E22A621284605F0C8F877
:1029C0000DF11E03009318238DF81E30CDE901464A
:1029D00023462F22A621284605F0BAF80DF11F0341
:1029E00000213A46CDE900348DF81F102346A62178
:1029F0000296284605F0A8F9FFF7B8FE044A054BF1
:102A0000147083F8008008B0BDE8F081E808002069
:102A1000330800203208002010B50B4C0FCC88B0D2
:102A20000DF1040CACE80F0094E80700ACE80300DB
:102A30002CF8022B130C8CF800300CF0C3FF01A80B
:102A40000CF054FC08B010BD50BD0608704700BF24
:102A50004368B3F80B30B3F5124F00D0704730B570
:102A600089B0044668460CF05FFC0023CDE90433CE
:102A7000CDE906336268557B25B1012D08BF23706F
:102A800009B030BDFFF7C8FF0F210C4B8DF81010B7
:102A90007F228DF812201A681B68120CC3F30B03F7
:102AA00004A8ADF81C20ADF81E300CF02FFC0DF082
:102AB00067F8294601200EF041FAE1E7002004E022
:102AC00008B50B4B4FF400421A6100200CF0A0FF38
:102AD00068B14FF0B042074B8179C2F89C30D2F810
:102AE0009C3023F47C5343EA0123C2F89C3008BD98
:102AF00000400058FECAFECA10B52449244BD1F844
:102B00009020CA2442F05002532088B0C1F890208F
:102B10005C6258629A681F4C4FF0B04122F0070285
:102B2000FF209A6058628B6843F400438B600EF07C
:102B3000FBF9194A1949D2F8803023F0070343F012
:102B40000403C2F88030002000F09EFA0CF03CFE36
:102B5000134A00214FF400700EF00AFA114A124B8A
:102B600012486946CDE900230CF04EFD1049114A88
:102B700040F23C5302A8CDE90241CDE904230CF018
:102B8000F3FE0CF01FFE08B010BD00BF0008005897
:102B900000280040F8010320000400580814002019
:102BA00075F60008100403204D2A0008512A000879
:102BB000040303201C05032070B5054603F03AFB0F
:102BC0006B1C064602D003F041FB0544064C04E0B2
:102BD000236923F00403236130BF03F02BFB801B28
:102BE000A842F5D370BD00BF00ED00E04FF0FF300C
:102BF0000EF014BA704700BF00214FF400700EF0C1
:102C0000CFB900BF02200EF0F9B900BF02200EF0CC
:102C1000A1BA00BF10B5064C0021204608F098FB71
:102C20000449054A206800230B704363136010BDFC
:102C3000F41500204408002040080020204B1B7899
:102C4000032B07D8DFE803F0281F16021D4B1B6873
:102C5000002B2FD01C4B1A681C490B68934208D0DC
:102C600023DA0133934223DC1A4619480B600368C8
:102C70005A637047134B1B68002BEBD1154A124B5C
:102C800012681A60E8E70F4B1B68002BE2D1124A6A
:102C90000D4B12681A60DFE70A4B1B68002BD9D175
:102CA0000E4A094B12681A60D6E7013B9342DBDA01
:102CB0001346DAE70A4A044B12681A60CCE700BFF1
:102CC0004408002040080020380800203C0800206C
:102CD000F41500201000002014000020180000202F
:102CE0003408002010B54FF0B04382B0986C40F02B
:102CF000040098649C6C04F004040194019C9C6C96
:102D000044F001049C649B6C002203F001030093D7
:102D100011460B20009B03F0B1FA0B2002B0BDE876
:102D2000104003F0E7BA00BF2DE9F04700248AB055
:102D3000CDE90444CDE906444FF0B0430894DA6C81
:102D4000564F574E42F00402DA64DA6C02F0040285
:102D50000392039ADA6C42F00202DA64DA6C02F04F
:102D600002020292029ADA6C42F00102DA64DB6C2F
:102D700003F001030193384601220221019B04F074
:102D800099F8224616214FF0904004F093F822461D
:102D9000304641F2240104F08DF8012501224FF460
:102DA000041304A93846CDE904234FF0020906951F
:102DB00003F0DEFE04A938464FF00608CDE90554BD
:102DC0000794CDF8109003F0D3FE04A94FF0904083
:102DD000CDE905540794CDF8108003F0C9FE102307
:102DE0000DEB03014FF0030A4FF090400493CDE93F
:102DF0000554CDF81CA003F0BBFE242304A93046E3
:102E00000493CDE90554079403F0B2FE04A93046BB
:102E100001220023CDE90423069403F0A9FE102229
:102E200004A930460023CDE90423069403F0A0FE54
:102E300030464FF4805304A90493CDE90554CDF8EE
:102E40001CA003F095FE04A94FF480624FF4041314
:102E50004FF09040CDE90423069503F089FE4FF42E
:102E6000881304A938464FF4C052CDE90423CDF8A5
:102E7000189003F07DFE22462146404603F0FEF9FD
:102E8000404603F037FA22462146282003F0F6F99F
:102E9000282003F02FFA0AB0BDE8F08700080048A8
:102EA000000400482DE9F8436C4B6D4D9B682E687B
:102EB000590500F18A80B3686A4A6B4F6B4C23F462
:102EC0008063B360137803EB430107EBC101DAB20F
:102ED000D1F80880216801314FEA430300F0928065
:102EE000DFF878E1DEF82800DEF8281080B289B239
:102EF000884206D0DEF828C008461FFA8CF18142CD
:102F0000F8D12168814268D25949D4F800C00988B3
:102F10006144081A5749097801FB00F056490978BD
:102F2000C84081B2884580F0958054484FF0010C2C
:102F3000062A80F800C018BF002051D04FF0000CC6
:102F400006E0C3F808C05B7D062BDAB20DD0530053
:102F5000134407EBC3039A688A42F2D39A68521A61
:102F60009A605B7D062BDAB2F1D1002838D00128B7
:102F70006AD0013887B2F3685B07FCD5F368DBB22F
:102F800063F49063F3603E4B4FF40022DA60032059
:102F900003F0F8F9314843696FF30F033B43436192
:102FA000826A836A92B29BB29A4204D0816A1A46BC
:102FB0008BB29342FAD1296822608B6843F4806314
:102FC0008B60AFF30080BDE8F883F3685A077FF5A4
:102FD00072AFF3685A07F8D46DE72168081A99E7C9
:102FE0001E48826A836A92B29BB29A4204D0816A76
:102FF0001A468BB29342FAD122600320BDE8F8430F
:1030000003F0B2B94FF0000E71467046DFF87490CD
:10301000B9F800C01EFA8CFCC4450BD2B9F8000008
:10302000DFF858C04FF0000E80B28CF800E0062A9E
:1030300084D19AE7DFF844C0A8EB00004FF0010EFE
:1030400080B28CF800E0F2E70B4B1B78012B90D19B
:10305000074690E708468E46D8E700BF00280040A4
:1030600008140020550800205808002050080020AF
:10307000480800204A0800204B0800204C08002087
:103080000008005846080020F8B5474C474B226816
:10309000474DCA21516253215162996841F0200184
:1030A0009960996801F00701C1F10401C9B2297062
:1030B0001B694FF4FE0595FAA5F5002D71D0B5FA00
:1030C00085F503F4FE03EB400133DBB21D46394EB8
:1030D0003370364B1B69C3F30E0C634605FB03F3D9
:1030E000A3F5A073CB4034490CF1010CA1F800C04A
:1030F0004FF6FE718B4248D9304B4FF6FF71198065
:103100002F4B196841F400211960D3F8801041F465
:103110000021C3F8801000283BD12A4F2A492B4EAA
:103120002B4D4FF0010C87F800C04FF0FF37376090
:10313000087381F8240081F83C0081F8540081F87C
:103140006C0081F8840006212970916821F4806167
:103150009160D168C9B261F490614FF40025D160EB
:103160000320DD6003F00EF92268936843F4804386
:103170009360FF23032153620846002203F07EF888
:10318000BDE8F840032003F0B5B80C499BB20B80B2
:10319000B6E7D3685B05ECD5032003F0E5F82268B9
:1031A000E7E701252B4692E708140020002800409D
:1031B0004B0800204A08002048080020460800204C
:1031C000000800584C080020580800205008002033
:1031D00055080020F0B5EFF3108672B61F4C257B22
:1031E00095B194F8245025B394F83C502DB394F83D
:1031F000545035B394F86C503DB394F8845045B3B3
:1032000086F310880120F0BD05F0FF0EF4460CEBAC
:103210004C0C04EBCC0501274FEACC0C2F7386F342
:10322000108828616A73002044F80C3081F800E0AF
:10323000F0BD4FF0010EF446E9E74FF0020EF44600
:10324000E5E74FF0030EF446E1E74FF0040EF446D5
:10325000DDE74FF0050EF446D9E700BF580800201F
:103260002DE9F0410446EFF3108572B63D4E032080
:1032700003F04EF830683C49CA23436204EB440330
:10328000532201EBC30342621A7B022A08D0FF23B8
:103290004362032003F02EF885F31088BDE8F08127
:1032A000324A1778BC424FEA440C30D093F814E00D
:1032B00093F815805F7D0EEB4E0E01EBCE0EFFB244
:1032C000B8F1060F8EF815705FFA88FE07D01B7DE7
:1032D0000EEB4E0E01EBCE0EDBB28EF81430A44492
:1032E00001EBCC03012119731378062B03D1204B7A
:1032F0004FF0FF3119601378062BDAB211D01D4B55
:103300001B789342C3D0FFF7CDFD3068BFE7177835
:10331000DFF860E0FFB28EF800705B7DDBB2137007
:10332000DDE7154B9B68590514D4836823F480634B
:103330008360C3685B07FCD5C368104ADBB263F4E3
:103340009063C3604FF400230320D36003F01AF8A6
:1033500030689CE7C3685A07E7D5C3685A07F9D4B1
:10336000E3E700BF0814002058080020550800209B
:103370005008002054080020002800400008005891
:103380002DE9F047894D00EB400305EBC3030646EA
:103390001B7B022B89464FEA400700F0D280EFF3F7
:1033A000108472B6DFF81C82032002F0B1FFD8F857
:1033B00000107F48CA22BB194A6205EBC30353229F
:1033C0004A6202221A73C3F80890C3F80490027884
:1033D000062A5FFA82FC24D10278DFF8EC91D2B29F
:1033E00089F80020067083F815C0724B4FF0FF3249
:1033F0001A604FF0000E037899F800209A4240F0CE
:103400009B80374405EBC7008368A3EB0E03836002
:10341000FF234B62032002F06DFF84F31088BDE8A8
:10342000F087DFF890E1DEF80030013300F0B38080
:10343000DFF898C1DCF82820DCF8283092B29BB283
:103440009A4205D01A46DCF828309BB29342F9D153
:10345000DEF800309A4277D9574BDEF800C01B885F
:1034600063449A1A554B93F800E0554B1B7802FBC6
:103470000EFE2EFA03FE1FFA8EFEBA1905EBC202EB
:10348000936873449360D2F80890037803EB430386
:1034900005EBC3039B6899455AD3037803EB4302BA
:1034A00005EBC2025FFA83FC92F815A0BAF1060F91
:1034B0004FEA43025FFA8AF311D11BE09AF8153004
:1034C00003EB430205EBC2025FFA83FC92F815A0FE
:1034D000BAF1060F4FEA43025FFA8AF30AD003EB10
:1034E000430305EBC30302EB0C0A9B68994505EB0C
:1034F000CA0AE3D202EB0C0305EBC3035B7D062B88
:103500005FFA83F904D009EB490305EBC3031E7589
:1035100002EB0C03BA1905EBC20205EBC30382F8F8
:103520001590DFF8A49082F814C05E75037899F8BE
:1035300000209A423FF465AFFFF7B4FCD8F80010C2
:1035400066E7FFF78DFE2AE7DEF800309A1A89E772
:1035500090F800C090F80090CC455FFA8CF31DD035
:1035600003EB430905EBC90999F814C00CEB4C0AAD
:1035700005EBCA0A5FFA8CFC8AF81560537582F86D
:1035800014C089F814600378DFF83C90DBB289F846
:10359000003006702FE74FF0000E6EE7537503EB17
:1035A000430305EBC3031E75EDE700BF5808002079
:1035B0005508002050080020480800204A08002034
:1035C0004B08002008140020540800200028004068
:1035D000104700BF2DE9F84FEFF3108872B6464C44
:1035E00046482368464DCA2753265F625E629A6842
:1035F00022F480629A60027802EB420105EBC10C72
:103600009CF80CA0BAF1020F12D0DA685207FCD570
:10361000DA683C49D2B262F49062DA604FF4002377
:10362000CB6088F310882368FF225A62BDE8F88FC8
:10363000354B4FEAC10E55F80EB0DCF810A01B78E0
:10364000002B46D09CF80D30012B5FFA82F911D087
:1036500088F310884846FFF703FE23685F625E62C6
:103660005A4649465046FFF7B3FF2368FF225A6285
:10367000BDE8F88F037899454FEA420132D09CF8B3
:1036800014309CF815609CF8152003EB430305EB00
:10369000C303D2B2062E5A75F3B207D09CF8142099
:1036A00003EB430305EBC303D2B21A7501EB090226
:1036B00005EBC20501232B73037888F31088696832
:1036C0004846FFF75DFE2368CA225A6253225A62B7
:1036D000C6E7FFF7E7FB88F310882368FF225A62EA
:1036E000BDE8F88F0378094ADBB213709CF81530F7
:1036F000DBB20370DAE700BF081400205508002091
:1037000058080020000800584C08002054080020E9
:1037100010B51848184C194900230122C0E900418E
:10372000C0E90232C0E90433C0E90633036203F0A2
:103730008DFF50B90F48002104F004FC68B90D4812
:10374000002104F029FC80B910BD00F01BFC0948E1
:10375000002104F0F7FB0028F1D000F013FC05482D
:10376000002104F019FC0028EED0BDE8104000F064
:1037700009BC00BFE808002000540040B57DB1102E
:1037800010B504469CB00021502208A8CDE90211D2
:10379000CDE90411069165F07AFD1D4B22689A422D
:1037A00001D01CB010BD04224FF4403308A8089289
:1037B000109306F0B1FA18BB4FF0B0449FED127BA6
:1037C000E36C144843F00203E364E36C03F0020388
:1037D00001930423019A06930022002302A9CDE954
:1037E00004238DED027B03F0C3F9A36D43F40013B2
:1037F000A365A36D03F400130093009B1CB010BDE0
:1038000000F0C0FBD8E700BF00030000120000007A
:103810000054004000040048054808B5054B03600B
:1038200004F0EAFB00B908BDBDE8084000F0AABBFF
:103830003C090020000C0058124B02689A4200D04C
:10384000704700B54FF0B04383B0186D40F480105E
:1038500018651B6D002203F48013114601932C2080
:10386000019B02F00BFD2C2002F044FD00221146CA
:103870002D2002F003FD2D2003B05DF804EB02F0D3
:1038800039BD00BF000C00582DE9F843DDF8209049
:103890001C480E46174698460468002CFCD11A4D69
:1038A0004FF4E0632846EB6006F02EFF2246042129
:1038B0004FF0904003F0FEFA224610214FF0904066
:1038C00003F0F8FABAB231464FF48053284606F0B6
:1038D00097FF08B1BDE8F883012204214FF0904022
:1038E00003F0E8FA1FFA89F241464FF48053284664
:1038F00006F086FFBDE8F843012210214FF090400A
:1039000003F0D8BA90090020401500202DE9F047B7
:10391000DDF820A01A4D0F46904699462C68002CE1
:10392000FCD1184E4FF4E0633046F36006F0ECFE35
:10393000224604214FF0904003F0BCFA22461021A9
:103940004FF0904003F0B6FA1FFA88F239464FF470
:103950008053304606F054FF08B1BDE8F0870122DD
:1039600004214FF0904003F0A5FA01231FFA8AF2D8
:10397000494630462B60BDE8F04707F059BA00BF12
:10398000900900204015002008B5012202214FF0C7
:10399000904003F08FFA0120FFF70EF90022022178
:1039A0004FF0904003F086FA0A20FFF705F9012254
:1039B00002214FF0904003F07DFA7820FFF7FCF8E9
:1039C000012210214FF0904003F074FA01220421EB
:1039D0004FF0904003F06EFA002008BD184B0268CB
:1039E0009A4200D0704730B4164B1B78242B10D06D
:1039F00015490A78BAB1154C154D22880A2BAB54DB
:103A000002D12B78242B13D0FD2A0CD8013292B28C
:103A100008E00D4C0F490122227000240C700C4963
:103A20000A4C0B70228030BC0649012208F0EEBB24
:103A300015440023074C0B706B7001232370F2E7D1
:103A400000380140A1090020780900207A090020EF
:103A5000A40A0020A0090020274B834200D0704711
:103A600010B5264C26482268264B01322260216878
:103A7000254A00FB0133B2EB730F25D8234A1368A4
:103A80000BB1013B1360236821492368214A01FBE4
:103A900003F303F5511303F53753B2EB331F12D37E
:103AA0001D491E4B0A681E481A604FF0010C002287
:103AB0001C4B0A6080F800C022601A781AB11A788C
:103AC000013AD2B21A7010BD012053F091F9164894
:103AD000164B2168164A00FB0133B2EBF30F02D3F9
:103AE000144B01221A60144B1A68002AC6D01A68B7
:103AF000013A1A60C2E700BFA81500208C09002017
:103B0000CDCCCCCC9899991999999919A40B0020EE
:103B1000917EFB3AB88D06008409002080090020C0
:103B20007C09002032080020295C8FC250B81E0595
:103B300014AE470188090020E407002008B5094BAE
:103B4000834200D008BD012210214FF0904003F0C5
:103B5000B1F9054B054900221A600868BDE8084024
:103B600018F026BA40150020900900209409002082
:103B7000044B02689A4200D07047034B01221A603E
:103B8000704700BF003801409C090020B0F5006F6D
:103B900001460BD0B0F5805F04D001280AD1094856
:103BA000FEF7F8B8084B01221A707047074B012244
:103BB0001A707047B0F5806F02D1054B01221A6070
:103BC000704700BF000400202D0800202E080020B0
:103BD000E8070020094B84460FCB8CE80F0001302A
:103BE00004BF0023CCF80030DCF80430013304BFFC
:103BF0004FF00043CCF80430704700BF50FE0B0874
:103C000010B584B0044602F071FD0D4B93E8070037
:103C100001AB83E807006946184602F02BFED4E9A1
:103C200000230849012002F0D9FDD4E90223064906
:103C3000012002F0D3FD02F06DFD04B010BD00BF05
:103C40006CBD060850FE0B0858FE0B0800B595B079
:103C50004C220021684665F01AFB02F047FD02F095
:103C600065FD04214FF0406200236846CDE905233D
:103C7000009102F07FFE02F06DFD15B05DF804FBCF
:103C800010B59CB00024482200210AA865F0FFFA74
:103C9000CDE90244CDE90444CDE90644089405F099
:103CA000EFF94FF0B0422721D2F8903023F01803FB
:103CB00043F01003C2F89030D2F8003423F4C0630C
:103CC00043F40073C2F80034D2F8003412944FF475
:103CD0008032CDE90A1203F4C063402201934FF40D
:103CE000807101230E920222CDE90C3115926021E0
:103CF00020221193139116934FF0005118924FF018
:103D000000734FF400320AA81794CDE91923019CDF
:103D10001B9105F07DFA08B172B6FEE79FED0A7BB4
:103D2000034603216F2202A88DED067BCDE9031324
:103D300002920593089305F0C1FD08B172B6FEE743
:103D400006F0D6F91CB010BD000000008000000095
:103D500010B594B04022002101A865F098FA4FF404
:103D600040544FF48041022210236846CDE91112DD
:103D70000094139305F0D0FF08B172B6FEE7024B32
:103D8000D3F8943014B010BD0014005880B582B040
:103D900002F02CFA664B674C0FCB84E80F00013021
:103DA00004BF0023236063682268013304BF4FF01F
:103DB00000436360604B1A60FFF762FFFFF7C8FFC4
:103DC000FEF77EFEFFF728FDFEF7AEFFFEF78AFF47
:103DD00001F0E6FAFFF79CFC01F038FE01F05CFE12
:103DE00001F0FEFF02F0B4F802F064F801F09AFA74
:103DF00001F09AFA6420FEF7DFFE0CF037FC642035
:103E0000FEF7DAFE4D4807F00DFA002211461920A0
:103E100002F034FA192002F06DFAFEF76DFEFEF79B
:103E200033FD4748FEF736F9FDF7BCFFFDF786FE88
:103E300048F062FCFFF7A8FD0446C8B9414A424B6E
:103E400000924FF4A0710246F02040F01FFB3F4D5E
:103E50000221286018F068FB28681B2118F07EF802
:103E600028683B4A3B4900944FF4164317F0ECFF97
:103E700039483A4C3A4D3B4EDFF80481DFF8C090A8
:103E800053F03AF840F0D2FF0121206041F012F8DF
:103E900035492068354C41F015F8002002F0F0F863
:103EA000FEF7B8FE0FCD0FC495E8030084E80300C9
:103EB000A4F11000FCF7B4F9A4F1100182B22C486F
:103EC0002C4D08F04DF92C492948012208F09EF9A3
:103ED000A4F11000FCF7A4F981B2A4F110000CF0D9
:103EE00079FD264C0027236801332360FEF77EFE10
:103EF000337803B13770FEF7EFFBFEF79FFE4846BD
:103F0000FEF792F92B784BB12F70D8F80030002BC8
:103F1000E9D0C8F800704DF005FEE4E7D8F80030AD
:103F2000002BE0D0C8F800704DF0FCFDDBE700BFCF
:103F300050FE0B08AC0B00201C000020A815002030
:103F4000700400200D390008893800089409002009
:103F50000C1700200CAD00203562000898090020E5
:103F60004CBF0608A00900205D1E0008A40900201F
:103F7000401600207C090020A109002084090020AF
:103F80008809002072B6FEE7022002F079B800BF6F
:103F9000002002F075B800BF032002F071B800BF26
:103FA0002DE9F04F00208FB00DF0A8FFE74FE84D4E
:103FB000386002210DF0BAFF3868DFF8B483DFF80B
:103FC000B4A3DFF8B49310210DF0B0FF38680022DD
:103FD000FF2115F09DFD28463C684AF017FBC0F311
:103FE00007238DF80800C0F307408DF809308DF8DD
:103FF0000A0000220299204615F076FD3868D54C5B
:104000000DF07CFF022120600DF090FF2068102150
:104010000DF08CFF3868266810F0EAFAA0F1140160
:10402000304610F089F920686FF0404110F09EF999
:1040300020680022022115F08FFD404626684AF0D4
:10404000E5FA0346C3F30722C3F307438DF80E30A6
:104050008DF80C008DF80D2003993046002215F0E4
:1040600067FD284625684AF0D1FA0346C3F30722C4
:10407000C3F307438DF812308DF810008DF811202E
:1040800004992846002215F02FFD20680022052102
:1040900015F0D6FD2568002228460A2115F014FDEA
:1040A000284600220A2115F017FD284600220A2181
:1040B00015F0FAFC284600220A2115F0FDFC002329
:1040C0001A462068092110F0BFF9206854F086FBD9
:1040D00032220646B42110F003F9002208213046AE
:1040E00015F0AEFD40464AF091FAC0F307238DF873
:1040F0001400C0F307408DF815308DF816000599AF
:104100003046002215F0F0FC00220A21304615F05E
:104110002BFD00204AF07AFAC0F307238DF818002F
:10412000C0F307408DF819308DF81A000699304613
:10413000002215F021FD00224C21304615F030FD03
:1041400050464AF063FA8DF81C00C0F30723C0F311
:1041500007408DF81D308DF81E000799304620224B
:1041600015F0C2FC00231A463046022110F06CF90B
:1041700000230A22784930460FF0F6FA30465BF009
:104180007DFA764905465BF085FA494600222846C5
:1041900015F046FD284611F02BFD206854F01EFB5B
:1041A00032220546B42110F09BF80022082128464F
:1041B00015F046FD40464AF029FAC0F307238DF872
:1041C0002000C0F307408DF821308DF822000899B7
:1041D0002846002215F088FC00220A21284615F006
:1041E000C3FC00204AF012FAC0F307238DF8240024
:1041F000C0F307408DF825308DF826000999284630
:10420000002215F0B9FC00224C21284615F0C8FC0C
:1042100050464AF0FBF98DF82800C0F30723C0F39D
:1042200007408DF829308DF82A000A992846202267
:1042300015F05AFC31460F262846009600230E2220
:1042400011F0A4F800230A22454928460FF08CFA01
:1042500028465BF013FA434983465BF01BFA494654
:104260000022584615F0DCFC584611F0C1FC2068CD
:1042700054F0B4FA32220446B42110F031F800228E
:104280000821204615F0DCFC40464AF0BFF9C0F397
:1042900007238DF82C00C0F307408DF82D308DF8E2
:1042A0002E000B992046002215F01EFC00220A2148
:1042B000204615F059FC00204AF0A8F9C0F3072366
:1042C0008DF83000C0F307408DF831308DF83200A2
:1042D0000C992046002215F04FFC00224C2120466C
:1042E00015F05EFC50464AF091F98DF83400C0F3A9
:1042F0000723C0F307408DF835308DF836000D994F
:104300002046202215F0F0FB294620460096002387
:104310000E2211F03BF800230A22134920460FF029
:1043200023FA20465BF0AAF9104904465BF0B2F983
:1043300000224946204615F073FC204611F058FC37
:1043400038460EF0E7F938680FB017E0C00B0020D0
:10435000D0EAF000BC0B0020893F000864BF0608CB
:10436000913F00086CBF0608993F000874BF06081B
:104370004F453600D276190060FD0608BDE8F08F83
:10438000012001F07DBE00BF0B4B1B6893B110B53F
:1043900090B00446402168460BF00CFE6946074881
:1043A00064F0AEFE20464DF03BFC69465BF072F9CE
:1043B00010B010BD704700BFB413002080BF0608C6
:1043C000164B1B6843B370B58AB00446FDF7FEFB7D
:1043D0000546FDF715FC064620464DF021FC044637
:1043E00066B902AE0E4A2B462021304664F09AFE92
:1043F000314620465BF04EF90AB070BD02AE094B63
:10440000094A00952021304664F08CFE3146204652
:104410005BF040F90AB070BD704700BFB4130020D4
:104420009CBF060890BF060894BF06080000000065
:104430006B4B1B68002B7ED070B56A4B6A4C2DED20
:10444000048BD4ED007A93ED008A684BB4EE678A52
:10445000F1EE10FA82B083ED008A68D0DFED647A65
:10446000B4EEE78AF1EE10FA66D4DFED627AB4EECC
:10447000E78AF1EE10FA6CDD9FED5F9ADFED5F8A5F
:10448000C3ED007AF0EE490AB0EE678A6225002695
:10449000B0EE680A9FED5A2ADFED5A1A9FED5A1ABC
:1044A00084ED008A01A9684601F028FEDDED007A5E
:1044B000564C5749574B2068CD60F4EEE87AF1EE40
:1044C00010FA8CBFB0EE688AB0EE678A78EEC88AC0
:1044D00077EEC87AFDEEE88AFDEEE77A0222C1EDBA
:1044E000008AC1ED027A4E6001935BF0E7FF20681D
:1044F00015F0F8FE05460FF0E5FF08EE900A284695
:1045000010F00CF807EE900AF8EEE77AF8EEE88A79
:1045100039EE679A38EE688AFDEEC97A206817EEA0
:10452000902AFDEEC87A17EE901A0FF079FE02B0CD
:10453000BDEC048B70BD70479FED2F9AC3ED007AE0
:10454000B0EE678AF0EE490A62250026F3EE058A8E
:104550009EE718EE100AFBF7CFFF1FA3D3E9002355
:10456000FCF722F8FCF718FB09EE100AB0EE490A36
:1045700062F0B0FBDFED289ADFED237AE0EE297AD6
:10458000B0EE670A62F030FCF0EE408AB0EE490A05
:1045900062F0E4FBDFED217AE0EE297AB0EE670A03
:1045A00062F022FCDFED1E7AB4EEE70AF1EE10FABB
:1045B0008CBFB0EE679AB0EE409A30EE497A77EE53
:1045C000C97ABDEEC77AFDEEE77A17EE106A17EEEC
:1045D000905AF0EE400A5BE7399D52A246DF913FC8
:1045E000B413002024080020D40B0020D80B002096
:1045F0000000804300008E430000784200005B43CF
:104600000000C842000048430000F042C8130020E8
:10461000C40B0020000020430000CD430000E6430F
:10462000000020432DE9F0418F4E904C3068904FB0
:1046300094B00DF063FC022120600DF077FC102196
:1046400020680DF073FC306825680FF0D1FF011F62
:1046500028460FF071FE20686FF040410FF086FE93
:1046600000220221206815F077FA8248256849F077
:10467000CDFFC0F307238DF80800C0F307408DF885
:1046800009308DF80A0002992846002215F050FAE8
:1046900020680022052115F0D3FA2568002228465B
:1046A000032115F011FA28460022032115F014FA0F
:1046B00028460022032115F0F7F90022032128469D
:1046C00015F0FAF96B48256849F0A0FFC0F30723FD
:1046D0008DF80C00C0F307408DF80D308DF80E00FA
:1046E00003992846002215F0FFF9022319460022FB
:1046F0002068614D0FF0A8FE20685AF0BFFF02212C
:1047000028600DF013FC286810210DF00FFC5B49A8
:1047100028685AF0BFFF6FF04042114628680FF03A
:10472000DFFD28680022032115F082FA00232868A3
:104730001A4608210FF088FE3868002800F08180B2
:1047400029684DF05FFA3D683368C3B1FDF73EFA62
:104750000746FDF755FA804628464DF061FA0546B2
:10476000B8F1000F63D10DF11008454A3B462021F6
:10477000404664F0D7FC414628465AF08BFF20683B
:10478000404D414F5AF07AFF022128600DF0CEFBD8
:10479000286810210DF0CAFB3C4928685AF07AFFBE
:1047A0006FF04042114628680FF09AFD28680022F9
:1047B000032115F03DFA002328681A4609210FF05D
:1047C00043FE3868002845D029684DF01BFA3D6843
:1047D00033686BB1402104A80BF0ECFB04A92C4812
:1047E00064F08EFC28464DF01BFA04A95AF052FFE3
:1047F0002068284C5AF042FF022120600DF096FB01
:10480000206810210DF092FB206823495AF042FFE6
:104810006FF04042206811460FF062FD00232068CF
:104820001A46072114B0BDE8F0410FF00DBE0DF19E
:1048300010081A4B1A4A00972021404664F072FC77
:1048400099E72A6817484FF47A714DF07DF90546CB
:10485000386079E72A6814484FF47A714DF074F99A
:1048600005463860B4E700BFB4130020D813002019
:10487000B0130020D0EAF000EC130020A4BF06081B
:104880009CBF0608E8130020AC130020ACBF06084C
:1048900080BF0608F0130020B0BF060890BF0608CE
:1048A00094BF0608C14300088943000800000000C7
:1048B0002DE9F0472DED0C8B834CDFF854A22068D6
:1048C000824D9FED83DA9FED838A9FED83CADFEDF2
:1048D00083BA9FED83BADFED83AA9FED83AA88B0E8
:1048E0000DF00CFB0221CAF800000DF01FFB102197
:1048F000DAF800000DF01AFB2068DAF800400FF03B
:1049000077FE011F20460FF017FDDAF80000822124
:104910000FF02CFD00220221DAF8000015F01CF93E
:104920007248DAF8004049F071FEC0F30743C0F363
:1049300007228DF80E308DF80C008DF80D202046E2
:104940000399002215F0F4F8DAF80000002205219E
:1049500015F076F9DAF8004000221146204615F0ED
:10496000B3F800221146204615F0B6F80022114691
:10497000204615F099F800221146204615F09CF8C3
:104980005B48DAF8004049F041FEC0F30743C0F34A
:1049900007228DF810008DF811208DF81230204676
:1049A0000499002215F0A0F802231946DAF8000055
:1049B00000220FF049FD4F4B022419680094002398
:1049C0000E22DAF8000010F0E1FCDAF8000010F036
:1049D000F5FFDAF800000FF075FD09EE900ADAF83D
:1049E00000000FF09BFD09EE100ADAF800005AF003
:1049F00045FE214628600DF099FA286810210DF037
:104A000095FA28683C495AF045FE2868214600225C
:104A100015F00EF96FF04042286811460FF060FC67
:104A20000523002221462868344D0FF00DFDDAF8E9
:104A300000005AF023FE214628600DF077FA28681E
:104A400010210DF073FA28682D495AF023FE2868CA
:104A50002146002215F0ECF86FF04042286811461C
:104A60000FF03EFC0A23642221462868254D0FF0F2
:104A7000EBFCDAF800005AF001FE214628600DF048
:104A800055FA286810210DF051FA28681C495AF08F
:104A900001FE28682146002215F0CAF86FF0404256
:104AA000286811460FF01CFC2868174D21460A2380
:104AB0006FF063020FF0C8FC144CF8EEE99AB8EE00
:104AC000C99A4FF000084EE0B4130020C013002034
:104AD0004D6578BF62BA77BE0000CD430000C94380
:104AE0000000F0420000E643000048434F45360016
:104AF000D0EAF000D813002030C20608BC13002012
:104B0000B4BF0608B8130020DC0B002018120020E8
:104B1000C41300203333333F0000804307EE908AF4
:104B20005FED046A1FED047AF8EEE77AA7EEA67A45
:104B300017EE100AFBF7E0FC94A3D3E90023FBF780
:104B400033FDFCF729F808EE100AB0EE480A62F0CF
:104B5000C1F8F0EE407AB0EE480AB0EE678A62F033
:104B6000FDF8B0EE40DA824B03FB08F3B3F1333FBC
:104B70008CBFF0EE6BDAF0EE4CDAB0EE4B0AF0EEF2
:104B8000007AADEE880A08F10108F2EE04CA88BF87
:104B9000F0EE67CA62F028F9F0EE408AB0EE6A0AD9
:104BA000ADEE8D0A62F020F9B0EE6C2AF0EE400A0C
:104BB0009FED701AF0EE4A1AB0EE408A07A9B0EEE7
:104BC000680A06A801F09AFA9DED067ADDED077AEB
:104BD000DAF80000B4EEE87AF1EE10FAF4EEC87AF2
:104BE0008CBFF0EE68CAF0EE47CAF1EE10FAB4EEF0
:104BF000E87A8CBFB0EE48DAB0EE67DAF1EE10FA80
:104C0000B4BFB0EE686AB0EE476AF4EEC87AF1EE6F
:104C100010FAB4EE6C6AB4BFF0EE486AF0EE676A60
:104C2000F1EE10FA18BF36EE6C6AF4EE4D6A18BF5A
:104C3000BDEEC66A78EEEC8A18BF16EE106A38EE42
:104C40004D8A37EE6C7A77EECD7A08BF0126F1EE09
:104C500010FA18BF76EECD6ABDEEC77AFDEEE77AA0
:104C6000FDEEE88ABDEEC88A18BFFDEEE66A85ED66
:104C7000027AC5ED037AC5ED008A85ED018A14BF7D
:104C800016EE907A01275BF00DFC44F8040F2946DC
:104C900002225BF013FC00220221206814F088FF3E
:104CA0003548D4F8009049F0B1FCC0F307238DF8E3
:104CB0001400C0F307408DF815308DF816000599E3
:104CC000002248463DEE49DA14F082FF20680022B7
:104CD000012114F075FF7CEEE9CAFDEECD7A206863
:104CE00017EE902AFDEEEC7A103517EE901A0FF0C1
:104CF00097FA20683A4631460FF0F2FAB8F1290FD8
:104D00007FF40CAFDAF800001C4C5BF0CBFB022107
:104D100020600DF00BF9206810210DF007F92068D4
:104D20000022032114F044FF1548256849F06EFC69
:104D3000C0F30743C0F307228DF81E308DF81C0026
:104D40008DF81D2007992846002214F041FF00220B
:104D50001146206814F034FF0A4B0B4A1A6008B061
:104D6000BDEC0C8BBDE8F047FFF762BBAFF30080F2
:104D7000CDCCCCCC0000F0424F453600C81300200B
:104D80001D57DF00D40B002000008743399D52A23D
:104D900046DF913F30B5474D474C28688DB00DF048
:104DA000ADF8022120600DF0C1F8206810210DF04F
:104DB000BDF8286825680FF01BFC011F28460FF07E
:104DC000BBFA20686FF040410FF0D0FA2068002253
:104DD000022114F0C1FE3948256849F017FCC0F3E0
:104DE0000743C0F307228DF80A308DF808008DF8CC
:104DF000092002990022284614F09AFE30482568BE
:104E000049F004FCC0F30743C0F307228DF80E30CD
:104E10008DF80C008DF80D2003992846002214F01F
:104E200063FE20680022052114F00AFF2568002295
:104E30002846032114F048FE28460022032114F0DE
:104E40004BFE28460022032114F02EFE28460022A5
:104E5000032114F031FE1B4B022519680095002335
:104E60000E22206810F092FA2068174C5AF006FCC7
:104E7000294620600DF05AF8206810210DF056F8F0
:104E8000124B134A1B68202104A864F04BF92068D8
:104E900004A95AF0FFFB6FF04042206811460FF062
:104EA0001FFA002320681A4607210FF0CDFA0DB033
:104EB00030BD00BFB4130020D41300204F4536008E
:104EC000D0EAF000C4130020E41300201C000020EE
:104ED000B8BF06082DE9F041764D774C2868774F2A
:104EE00086B00DF00BF8022120600DF01FF820684D
:104EF00010210DF01BF8286825680FF079FB011FC1
:104F000028460FF019FA20686FF040410FF02EFA92
:104F100020680022022114F01FFE3846256849F05F
:104F200075FBC0F307238DF80800C0F307408DF828
:104F300009308DF80A0002990022284614F0F8FD85
:104F40005F48256849F062FBC0F307238DF80C0029
:104F5000C0F307408DF80D308DF80E0003992846F8
:104F6000002214F0C1FD20680022052114F068FE23
:104F7000256800222846032114F0A6FD28460022B9
:104F8000032114F0A9FD28460022032114F08CFD12
:104F900028460022032114F08FFD4A4B4A4D196820
:104FA0000226009600230E22206810F0EFF92068F8
:104FB0005AF064FB314628600CF0B8FF28681021D5
:104FC0000CF0B4FF6FF04042114628680FF088F9EA
:104FD00028683E495AF05EFB28683146002214F0EA
:104FE00027FE00221146286814F0B6FD3846D5F891
:104FF000008049F00BFB0346C3F30722C3F30743CA
:105000008DF812308DF810008DF81120049940466B
:10501000002214F0F1FD28682D49002214F000FE52
:1050200000231A46314628680FF00EFA2068294CF2
:105030005AF024FB314620600CF078FF20681021E4
:105040000CF074FF6FF04042114620680FF048F9F1
:10505000206821495AF01EFB20683146002214F0D6
:10506000E7FD00221146206814F076FD38462768D7
:1050700049F0CCFA0346C3F30722C3F307438DF884
:1050800016308DF814008DF8152005993846002249
:1050900014F0B2FD20681149002214F0C1FD296806
:1050A0002068009600230E2210F070F906B0BDE8CB
:1050B000F08100BFB4130020D01300204F4536000C
:1050C000D0EAF000D4130020E013002058BE0608F8
:1050D00060FD0608DC130020C4BF060880D0060867
:1050E00070B56A4D6A4C286888B00CF007FF022141
:1050F00020600CF01BFF206810210CF017FF2868BF
:1051000025680FF075FA011F28460FF015F9614D5B
:10511000206834210FF02AF920680022022114F0BF
:105120001BFD2846266849F071FAC0F307238DF865
:105130000C00C0F307408DF80D308DF80E00039978
:105140000022304614F0F4FC2846256849F05EFA47
:10515000C0F30743C0F307228DF812308DF810001A
:105160008DF8112004992846002214F0BDFC206817
:105170000022052114F064FD256800222846032141
:1051800014F0A2FC28460022032114F0A5FC2846B6
:105190000022032114F088FC28460022032114F089
:1051A0008BFC3D4A20681168022300930E220023E5
:1051B00010F0ECF8206853F011FB28221146044649
:1051C0000FF08EF800231A46204607210FF03CF915
:1051D00000220821204614F033FD304849F016FA29
:1051E000C0F30743C0F307228DF816308DF8140082
:1051F0008DF8152005992046002214F075FC002238
:105200000A21204614F0B0FC002049F0FFF9C0F359
:105210000743C0F307228DF81A308DF818008DF877
:10522000192006992046002214F0A6FC00224C21E9
:10523000204614F0B5FC1A4849F0E8F9C0F30743DA
:10524000C0F307228DF81E308DF81C008DF81D204C
:1052500007992022204614F047FC20465AF00EFA07
:10526000104905465AF016FA284610F0C1FC2846A7
:105270000D49002214F0D4FC0C4900230A222046D8
:1052800008B0BDE870400EF06FBA00BFB413002044
:10529000CC130020D0EAF000D01300204F45360098
:1052A000D2761900F0BE060860FD060881430008AA
:1052B00030B5002083B00CF021FE184C0221206094
:1052C0000CF034FE206810210CF030FE2068002223
:1052D000FF2114F01DFC1248256849F097F9C0F32E
:1052E0000743C0F307228DF806308DF804008DF8CF
:1052F000052001990022284614F0F6FBFFF792F9E9
:10530000FFF7D6FAFFF746FDFFF7E4FDFFF7E8FEEB
:1053100020460DF0FFF9206803B030BDB413002023
:10532000D0EAF000704700BF0648074A08B50023DE
:10533000C0E9002304F0E4FE00B908BDBDE8084060
:10534000FEF720BEF41300200010005810B50446EC
:1053500096B05022002102A863F099FF0F4B2268FB
:105360009A4201D016B010BD4FF400724FF0804346
:1053700002A80292109304F0CFFC60B94FF0B04342
:105380001A6D42F480221A651B6D03F48023019389
:10539000019B16B010BDFEF7F5FDEFE700100058B9
:1053A00010B51248124C00230F2147F6FF72C0E9D6
:1053B0000043C0E90212C0E905330361C36104F090
:1053C000BFFE30B900220948114604F039FF48B940
:1053D00010BDFEF7D7FD00220448114604F030FF4F
:1053E0000028F5D0BDE81040FEF7CCBD0814002021
:1053F0000028004010B5044696B05022002102A8B3
:1054000063F045FF164B22689A4201D016B010BDDA
:105410004FF400624FF4807302A80292129304F0DA
:105420007BFCD0B94FF0B0430022D3F8900040F499
:105430000040C3F890009C6D44F480649C659B6DB3
:1054400003F48063114601930320019B00F016FFD3
:10545000032000F04FFF16B010BDFEF793FDE1E70B
:10546000002800400AF09ABD38B505460EF090F9C4
:105470000446284649F00CFD0546204654F0B2FB90
:105480000146204654F0B2FB0D4904464DF0EEFDB6
:1054900020B92846BDE8384060F09EBE0949204644
:1054A0004DF0E4FD024628B928462621BDE83840E3
:1054B0000EF08AB821462846BDE8384060F086BE26
:1054C00008C006080CC00608084B1B686BB110B575
:1054D0004021044606480AF01BFD20464CF0A0FB84
:1054E000BDE8104002495AF0D5B870477414002046
:1054F0002C14002038B50EF04BF961F0B9FA62F0C7
:1055000081F9044680B280B10AF0E0FCA3B20F4AF0
:105510000F48402163F006FE0E4B0D4918685AF003
:10552000B9F8BDE838400AF0E3BC0B4D084C0FCD8C
:105530000FC495E8070003C42146064B21F818293B
:105540001868BDE838405AF0A5B800BF10C006087A
:105550002C1400207014002028C006082DE9F04FFC
:10556000002095B00CF0CAFCDFF8E493DFF8E48388
:105570000446EA48C9F8004049F048F8C0F3074338
:10558000C0F307228DF812308DF810008DF811202D
:1055900004990022204614F0A7FAD9F800000CF074
:1055A000ADFC0446D9F800000FF022F8011F204698
:1055B0000EF0C2FE6FF0404120460EF0D7FED748F5
:1055C00049F024F8C0F30743C0F307228DF81630E2
:1055D0008DF814008DF8152020460599002214F04E
:1055E00083FA0022FF21204614F092FACB4849F0BA
:1055F0000DF8C0F30743C0F307228DF81A308DF879
:1056000018008DF8192020460699002214F090FA0F
:1056100020460022022114F09FFA20460022052194
:1056200014F00EFB20460022032114F04DFA204610
:105630000022032114F050FA20460022032114F026
:1056400033FA00222046032114F036FA10212046B6
:105650000CF06CFC20465AF011F8B14905465AF09E
:1056600019F8B0490022284614F0DAFAAE4848F09A
:10567000CDFFC0F307238DF81C00C0F307408DF861
:105680001D308DF81E0007992846002214F0B4FA48
:1056900000231A46022128460EF0D6FE204660F06E
:1056A00003FC0121064661F0A1F930469F4961F0F3
:1056B00043F93046C0210EF03FFE0022114630462D
:1056C0004FF0050B11F098FD2946304600230E22BD
:1056D000CDF800B00FF05AFE3346262294493046EA
:1056E0000EF042F8022130460CF028FC8B4848F0BE
:1056F0008DFFC0F307238DF82000C0F307408DF81D
:1057000021308DF8220000220899304614F010FA5A
:10571000204659F0B3FF0221C8F800000CF006FC47
:10572000D8F8000010210CF001FC8249D8F80000E4
:1057300059F0B0FF6FF0404211464FF00A0AD8F816
:1057400000000EF0CDFDCDF800A0002331460D2263
:10575000D8F800000FF01AFE204654F0ABF8B4223F
:10576000D82105460EF0BCFD1C2331462846009387
:105770000E2200230FF00AFE334623226E492846EC
:105780000DF0F2FF284604210CF0D0FB6B492846AF
:1057900054F09CF8614848F039FFC0F307238DF8B6
:1057A0002400C0F307408DF825308DF826000999B4
:1057B0000022284614F0BCF95B4848F027FFC0F3EC
:1057C00007238DF82800C0F307408DF829308DF8A5
:1057D0002A000A994FF4A022284614F085F9584867
:1057E00048F014FFC0F307238DF82C00C0F30740E6
:1057F0008DF82D308DF82E00524A0B99284614F062
:1058000073F96FF07F4048F001FFC0F307238DF874
:105810003000C0F307408DF831308DF832000C991C
:105820004FF4A022284614F0E7F93C4848F0EEFE79
:10583000C0F307238DF83400C0F307408DF83530EE
:105840008DF836000D990022284614F04DF90020FD
:1058500048F0DCFEC0F307238DF83800C0F30740A2
:105860008DF839308DF83A000E990022284614F050
:1058700083F9204652F0B2FF2822114607460EF067
:105880002FFD294848F0C2FEC0F307238DF83C00E5
:10589000C0F307408DF83D308DF83E000F9900228F
:1058A0003846002614F020F900225946384614F0F4
:1058B000C7F933460D222946384600960FF066FD9B
:1058C000384659F0DBFE2049039059F0E3FE039877
:1058D00010F08EF96FF07F4048F098FE0346C3F356
:1058E0000722C3F307438DF840008DF841208DF85F
:1058F000423003981099324614F07EF9334613492A
:10590000524638460DF030FF204652F067FF2822FD
:10591000114604460EF0E4FC1EE000BFD0EAF000A1
:1059200074BF060860FD06084F45360044C00608EF
:10593000F55400085CC006086954000820000020E7
:105940001D57DF0020000500F0BE06088143000857
:105950007414002070140020354848F057FEC0F33E
:1059600007238DF84400C0F307408DF845308DF8CB
:10597000460011993246204614F0B6F82D4848F0FA
:1059800045FEC0F307238DF84800C0F307408DF8AB
:1059900049308DF84A0012992046202214F0A4F8CC
:1059A00020463246594614F04BF933460F22294619
:1059B000204600960FF0EAFC204659F05FFE1E4993
:1059C000054659F067FE284610F012F96FF07F4047
:1059D00048F01CFE0346C3F30722C3F307438DF8C8
:1059E0004C008DF84D208DF84E30139928463246E4
:1059F00014F002F92046114C1149334652460DF07D
:105A0000B3FE206858B1D8F800104CF0FBF80D48F0
:105A10000CF080FED9F8000015B0BDE8F08FD8F882
:105A2000002009484FF47A714CF08EF82060EEE7C0
:105A30004F4536003333CC0070C006086C1400208C
:105A40006554000874140020C95400081048114916
:105A50004FF4827210B5C0E900124FF400720023B7
:105A60004FF4E064072182610822C0E90234C0E9F2
:105A70000433C0E90733C0E90933C0E90B134263BB
:105A800004F042FE00B910BDBDE81040FEF77ABA3E
:105A9000401500200030014010B51148114C4FF462
:105AA0008272C0E90042022200234FF4E061012427
:105AB00002614FF40072C0E90231C0E905420821D9
:105AC0000722C0E90713C0E90933C0E90B23436388
:105AD00004F01AFE00B910BDBDE81040FEF752BA3E
