:020000040800F2
:1000000000000320D55F0008CD5A0008D15A00082F
:10001000D55A0008D95A0008DD5A0008000000002F
:10002000000000000000000000000000E15A00088D
:10003000E55A000800000000E95A0008ED5A0008DF
:100040002D6000082D6000082D600008F15A00089E
:100050002D6000082D600008F55A00082D6000088A
:100060002D6000082D6000082D600008FD5A000872
:100070002D6000082D6000082D6000082D6000082C
:100080002D6000082D6000082D6000082D6000081C
:10009000095B00082D6000082D6000082D60000835
:1000A0002D600008155B00082D6000082D60000819
:1000B0002D6000082D6000082D6000082D600008EC
:1000C0002D6000082D600008215B00082D600008ED
:1000D0002D5B00082D6000082D6000082D600008D1
:1000E000395B00082D6000082D6000082D600008B5
:1000F000595B00085D5B0008615B00082D6000082B
:100100002D6000082D6000082D6000082D6000089B
:100110002D6000082D6000082D6000082D6000088B
:100120002D6000082D6000082D6000082D6000087B
:0C0130002D6000082D6000082D60000804
:1001400010B5054C237833B9044B13B10448AFF311
:1001500000800123237010BDD003002000000000A8
:100160005CA5060808B5034B1BB103490348AFF370
:10017000008008BD00000000D40300205CA5060834
:1001800001F0FF01102A2BDB10F0070F08D010F848
:10019000013B013A8B422DD010F0070F42B3F6D14C
:1001A000F0B441EA012141EA014122F007047FF065
:1001B00000070023F0E80256083C85EA010586EABC
:1001C000010685FA47F5A3FA87F586FA47F6A5FAF8
:1001D00087F68EB9EED1F0BC01F0FF0102F0070204
:1001E00032B110F8013B013A83EA010313B1F8D1AF
:1001F0000020704701387047002D06BF3546033890
:10020000073815F0010F07D1013015F4807F02BFC8
:10021000013015F4C03F0130F0BC0138704700BF19
:10022000034613F8012B002AFBD1181A0138704736
:1002300081F0004102E000BF83F0004330B54FEA97
:1002400041044FEA430594EA050F08BF90EA020F04
:100250001FBF54EA000C55EA020C7FEA645C7FEA97
:10026000655C00F0E2804FEA5454D4EB5555B8BFBA
:100270006D420CDD2C4480EA020281EA030382EA2B
:10028000000083EA010180EA020281EA0303362DBD
:1002900088BF30BD11F0004F4FEA01314FF4801C90
:1002A0004CEA113102D0404261EB410113F0004FA2
:1002B0004FEA03334CEA133302D0524263EB430359
:1002C00094EA050F00F0A780A4F10104D5F1200EF7
:1002D0000DDB02FA0EFC22FA05F2801841F1000152
:1002E00003FA0EF2801843FA05F359410EE0A5F126
:1002F00020050EF1200E012A03FA0EFC28BF4CF057
:10030000020C43FA05F3C01851EBE37101F000450C
:1003100007D54FF0000EDCF1000C7EEB00006EEB19
:100320000101B1F5801F1BD3B1F5001F0CD34908A3
:100330005FEA30004FEA3C0C04F101044FEA4452FA
:1003400012F5800F80F09A80BCF1004F08BF5FEA81
:10035000500C50F1000041EB045141EA050130BD61
:100360005FEA4C0C404141EB0101013C28BFB1F573
:10037000801FE9D291F0000F04BF01460020B1FABE
:1003800081F308BF2033A3F10B03B3F120020CDA91
:100390000C3208DD02F1140CC2F10C0201FA0CF06F
:1003A00021FA02F10CE002F11402D8BFC2F1200CD4
:1003B00001FA02F120FA0CFCDCBF41EA0C0190408A
:1003C000E41AA2BF01EB0451294330BD6FEA0404D3
:1003D0001F3C1CDA0C340EDC04F11404C4F12002BE
:1003E00020FA04F001FA02F340EA030021FA04F3D0
:1003F00045EA030130BDC4F10C04C4F1200220FA27
:1004000002F001FA04F340EA0300294630BD21FA64
:1004100004F0294630BD94F0000F83F4801306BF2A
:1004200081F480110134013D4EE77FEA645C18BF1E
:100430007FEA655C29D094EA050F08BF90EA020FB5
:1004400005D054EA000C04BF1946104630BD91EAAD
:10045000030F1EBF0021002030BD5FEA545C05D1B0
:100460004000494128BF41F0004130BD14F58004EF
:100470003CBF01F5801130BD01F0004545F0FE4163
:1004800041F470014FF0000030BD7FEA645C1ABF98
:10049000194610467FEA655C1CBF0B46024650EACF
:1004A000013406BF52EA033591EA030F41F40021FB
:1004B00030BD00BF90F0000F04BF0021704730B581
:1004C0004FF4806404F132044FF000054FF0000156
:1004D00050E700BF90F0000F04BF0021704730B517
:1004E0004FF4806404F1320410F0004548BF4042EC
:1004F0004FF000013EE700BF42004FEAE2014FEA41
:1005000031014FEA02701FBF12F07F4393F07F4F1B
:1005100081F06051704732F07F4208BF704793F01E
:100520007F4F04BF41F40021704730B54FF4607431
:1005300001F0004521F000411CE700BF50EA010234
:1005400008BF704730B54FF000050AE050EA0102DD
:1005500008BF704730B511F0004502D5404261EB4D
:1005600041014FF4806404F132045FEA915C3FF48E
:10057000D8AE4FF003025FEADC0C18BF03325FEA2B
:10058000DC0C18BF033202EBDC02C2F1200300FADC
:1005900003FC20FA02F001FA03FE40EA0E0021FA01
:1005A00002F11444BDE600BF70B54FF0FF0C4CF4EF
:1005B000E06C1CEA11541DBF1CEA135594EA0C0FA1
:1005C00095EA0C0F00F0DEF82C4481EA030621EADC
:1005D0004C5123EA4C5350EA013518BF52EA033517
:1005E00041F4801143F4801338D0A0FB02CE4FF0C9
:1005F0000005E1FB02E506F00042E0FB03E54FF0F9
:100600000006E1FB03569CF0000F18BF4EF0010EF0
:10061000A4F1FF04B6F5007F64F5407404D25FEAEC
:100620004E0E6D4146EB060642EAC62141EA55519F
:100630004FEAC52040EA5E504FEACE2EB4F1FD0CE1
:1006400088BFBCF5E06F1ED8BEF1004F08BF5FEA5F
:10065000500E50F1000041EB045170BD06F0004611
:1006600046EA010140EA020081EA0301B4EB5C04BE
:10067000C2BFD4EB0C0541EA045170BD41F48011B6
:100680004FF0000E013C00F3AB8014F1360FDEBFDB
:10069000002001F0004170BDC4F10004203C35DAB7
:1006A0000C341BDC04F11404C4F1200500FA05F33A
:1006B00020FA04F001FA05F240EA020001F00042DB
:1006C00021F0004110EBD37021FA04F642EB060151
:1006D0005EEA430E08BF20EAD37070BDC4F10C047B
:1006E000C4F1200500FA04F320FA05F001FA04F23F
:1006F00040EA020001F0004110EBD37041F100012B
:100700005EEA430E08BF20EAD37070BDC4F1200535
:1007100000FA05F24EEA020E20FA04F301FA05F29D
:1007200043EA020321FA04F001F0004121FA04F245
:1007300020EA020000EBD3705EEA430E08BF20EA15
:10074000D37070BD94F0000F0FD101F0004640004F
:1007500041EB010111F4801F08BF013CF7D041EAD1
:10076000060195F0000F18BF704703F000465200D5
:1007700043EB030313F4801F08BF013DF7D043EAA6
:100780000603704794EA0C0F0CEA135518BF95EA5C
:100790000C0F0CD050EA410618BF52EA4306D1D1E3
:1007A00081EA030101F000414FF0000070BD50EA02
:1007B000410606BF1046194652EA430619D094EA8C
:1007C0000C0F02D150EA013613D195EA0C0F05D176
:1007D00052EA03361CBF104619460AD181EA0301CA
:1007E00001F0004141F0FE4141F470014FF0000082
:1007F00070BD41F0FE4141F4780170BD70B54FF01D
:10080000FF0C4CF4E06C1CEA11541DBF1CEA13559C
:1008100094EA0C0F95EA0C0F00F0A7F8A4EB05047E
:1008200081EA030E52EA03354FEA013100F0888075
:100830004FEA03334FF0805545EA131343EA12633E
:100840004FEA022245EA111545EA10654FEA0026F3
:100850000EF000419D4208BF964244F1FD0404F5AC
:10086000407402D25B084FEA3202B61A65EB030508
:100870005B084FEA32024FF480104FF4002CB6EBC5
:10088000020E75EB030E22BFB61A754640EA0C0045
:100890005B084FEA3202B6EB020E75EB030E22BF85
:1008A000B61A754640EA5C005B084FEA3202B6EBC6
:1008B000020E75EB030E22BFB61A754640EA9C0085
:1008C0005B084FEA3202B6EB020E75EB030E22BF55
:1008D000B61A754640EADC0055EA060E18D04FEA13
:1008E000051545EA16754FEA06164FEAC30343EAB3
:1008F00052734FEAC2025FEA1C1CC0D111F4801F80
:100900000BD141EA00014FF000004FF0004CB6E778
:1009100011F4801F04BF01430020B4F1FD0C88BF17
:10092000BCF5E06F3FF6AFAEB5EB030C04BFB6EB22
:10093000020C5FEA500C50F1000041EB045170BD15
:100940000EF0004E4EEA113114EB5C04C2BFD4EB42
:100950000C0541EA045170BD41F480114FF0000EC6
:10096000013C90E645EA060E8DE60CEA135594EA42
:100970000C0F08BF95EA0C0F3FF43BAF94EA0C0F45
:100980000AD150EA01347FF434AF95EA0C0F7FF4BA
:1009900025AF104619462CE795EA0C0F06D152EA0E
:1009A00003353FF4FDAE1046194622E750EA4106F2
:1009B00018BF52EA43067FF4C5AE50EA41047FF403
:1009C0000DAF52EA43057FF4EBAE12E74FF0FF3C68
:1009D00006E000BF4FF0010C02E000BF4FF0010C39
:1009E0004DF804CD4FEA410C7FEA6C5C4FEA430CB2
:1009F00018BF7FEA6C5C1BD001B050EA410C0CBF01
:100A000052EA430C91EA030F02BF90EA020F002062
:100A1000704710F1000F91EA030F58BF994208BFC9
:100A200090422CBFD8176FEAE37040F00100704786
:100A30004FEA410C7FEA6C5C02D150EA013C07D1DD
:100A40004FEA430C7FEA6C5CD6D152EA033CD3D028
:100A50005DF8040B704700BF8446104662468C4622
:100A60001946634600E000BF01B5FFF7B7FF002855
:100A700048BF10F1000F01BD4DF808EDFFF7F4FF7E
:100A80000CBF012000205DF808FB00BF4DF808ED09
:100A9000FFF7EAFF34BF012000205DF808FB00BF2C
:100AA0004DF808EDFFF7E0FF94BF012000205DF84E
:100AB00008FB00BF4DF808EDFFF7CEFF94BF012003
:100AC00000205DF808FB00BF4DF808EDFFF7C4FFFC
:100AD00034BF012000205DF808FB00BF4FEA410C45
:100AE0007FEA6C5C02D150EA013C0AD14FEA430C28
:100AF0007FEA6C5C02D152EA033C02D14FF0000065
:100B000070474FF0010070474FEA410212F50012A2
:100B100015D211D56FF47873B3EB625212D94FEA44
:100B2000C12343F0004343EA505311F0004F23FA2E
:100B300002F018BF404270474FF00000704750EA83
:100B4000013005D111F0004008BF6FF00040704740
:100B50004FF00000704700BF4FEA4102B2F1E0439E
:100B600024BFB3F5001CDCF1FE5C0DD901F0004C94
:100B70004FEAC0024CEA5070B2F1004F40EB8300E4
:100B800008BF20F00100704711F0804F21D113F110
:100B90003872BCBF01F00040704741F480114FEA49
:100BA0005252C2F11802C2F1200C10FA0CF320FAD2
:100BB00002F018BF40F001004FEAC1234FEAD323EF
:100BC00003FA0CFC40EA0C0023FA02F34FEA430359
:100BD000CCE77FEA625307D150EA01331EBF4FF0E2
:100BE000FE4040F44000704701F0004040F0FE40FD
:100BF00040F40000704700BF7BB972B90029BEBF46
:100C000000204FF0004106E008BF00281CBF6FF035
:100C100000414FF0FF3000F0D3B9ADF1080C6DE9A1
:100C200004CE002909DB002B1ADB00F04DF8DDF8BB
:100C300004E0DDE9022304B07047404261EB41016A
:100C4000002B1BDB00F040F8DDF804E0DDE90223B7
:100C500004B0404261EB4101524263EB43037047F1
:100C6000524263EB430300F02FF8DDF804E0DDE9C6
:100C7000022304B0404261EB41017047524263EBF2
:100C8000430300F021F8DDF804E0DDE9022304B0BD
:100C9000524263EB4303704753B94AB9002908BF76
:100CA00000281CBF4FF0FF314FF0FF3000F088B933
:100CB000ADF1080C6DE904CE00F006F8DDF804E0B3
:100CC000DDE9022304B070472DE9F047089D8E4608
:100CD00004468846002B4AD18A42174662D9B2FAA6
:100CE00082F64EB1C6F1200301FA06F820FA03F3AA
:100CF000B74043EA0808B4404FEA174E1FFA87FC92
:100D0000B8FBFEF1230C0EFB118843EA084301FBFC
:100D10000CF29A4209D9FB1801F1FF3080F0EA8009
:100D20009A4240F2E78002393B449A1AA3B2B2FBDE
:100D3000FEF00EFB102243EA024300FB0CFC9C4534
:100D400009D9FB1800F1FF3280F0D6809C4540F2B3
:100D5000D3803B44023840EA0140A3EB0C0300215E
:100D60001DB1F3400022C5E90032BDE8F0878B4297
:100D700005D90DB1C5E9000100210846F5E7B3FA30
:100D800083F1002946D1734502D3824200F20581E6
:100D9000841A6EEB030201209046002DE5D0C5E9D0
:100DA0000048E2E7002A00F09080B2FA82F6002EB6
:100DB00040F0A4808A1A030C4FEA174E80B2BCB2EE
:100DC0000121B2FBFEFC0EFB1C2243EA024304FBA2
:100DD0000CF29A4207D9FB180CF1FF3802D29A4262
:100DE00000F2E080C4469B1AB3FBFEF20EFB123306
:100DF00040EA034302FB04F49C4207D9FB1802F1CA
:100E0000FF3002D29C4200F2CA8002461B1B42EA1B
:100E10000C40A5E7C1F120068B4022FA06F71F43DC
:100E20000EFA01F420FA06F32EFA06FE4FEA1749ED
:100E3000234300FA01F81FFA87FCBEFBF9F01C0CF3
:100E400009FB10EE44EA0E4400FB0CFEA64502FA34
:100E500001F209D93C1900F1FF3A80F09C80A645C7
:100E600040F2998002383C44A4EB0E041FFA83FE42
:100E7000B4FBF9F309FB13444EEA044403FB0CFCF6
:100E8000A44508D93C1903F1FF3E80F08280A445B7
:100E90007FD9023B3C4443EA0040A4EB0C04A0FB96
:100EA00002EC64457346E14662D35FD05DB1B8EBB6
:100EB000030264EB090404FA06F622FA01F31E4366
:100EC000CC40C5E9006400214FE7B1FBF2FC010C06
:100ED00041EA0E4180B240EA01423B4638463C4678
:100EE000B846BE462026B1FBF7F1A2EB080241EA64
:100EF0000C4166E7014618E710462CE7C6F12002D0
:100F00002EFA02F3B740B14020FA02F24FEA174E30
:100F10000A43B3FBFEF8BCB20EFB1833110C41EAD6
:100F2000034108FB04F9B04089454FEA104380B201
:100F30003ED9791808F1FF3C01D289451FD8A1EBB1
:100F40000901B1FBFEF909FB04F80EFB191192B27D
:100F500042EA0142424529D2BA1809F1FF31C4D20E
:100F60004245C2D2A9F102013A44BEE7F0459DD202
:100F7000BEEB02036CEB070C0138E14696E7A7EBEA
:100F800009094944A8F1020CB1FBFEF909FB04F878
:100F9000DBE773467FE7504666E70846FDE63B44DD
:100FA000023A33E7ACF1020C3B441CE749469CE7AC
:100FB000A1EB0901C446B1FBFEF909FB04F8C4E743
:100FC000704700BF38B504461D4621700448012211
:100FD0004FF4805105F0B6FE0120656038BD00BFBA
:100FE00000040048F0B583B0144602AF15480D4622
:100FF00000224FF4805105F0A5FEE31D03F4FC73BD
:10100000ADEB030D02AE24B122462946304667F00F
:1010100070FA4FF0FF3300932A46234631460A48C0
:1010200009F05EFC012205464FF48051054805F0A9
:1010300089FE002D0CBF20464FF0FF300437BD461F
:10104000F0BD00BF00040048B814002038B50E48B9
:1010500014460D4600224FF4805105F073FE4FF008
:10106000FF3322462946094809F012FB01220546B2
:101070004FF48051044805F065FE002D0CBF20465A
:101080004FF0FF3038BD00BF00040048B814002006
:1010900008B5084601F0DEFC002008BD30B500238D
:1010A00085B0CDE90033CDE90233002900F0988006
:1010B0000B780A7A03F03F0343F040038DF80030C9
:1010C000037C05460C46002B40F087800132D2B2EB
:1010D00069462846FFF786FF00287CDB2B7C257AB3
:1010E000002B67D0227802F03F02012342F0400239
:1010F0008DF8082005EB030E1A4610326A440133BE
:10110000DBB212F8101C02F8081C73451A46F4DD15
:101110000DF109030DF1080C53FA8EFE00221CF8A4
:10112000013B51005A40C9B2120648BF81F0070185
:10113000C3F380104A00D2B2B0EBD11F18BF82F0C7
:101140000702C3F340105100C9B2B0EBD21F18BF61
:1011500081F00701C3F300104A00D2B2B0EBD11FF7
:1011600018BF82F00702C3F3C0005100C9B2B0EB50
:10117000D21F18BF81F00701C3F380004A00D2B22A
:10118000B0EBD11F18BF82F007025000C3F340013B
:10119000C0B2B1EBD21F18BF80F00700420003F0CD
:1011A0000103B3EBD01FD2B218BF82F00702E645AD
:1011B000B5D1C2B90022626001235DB103F1100113
:1011C0006944013311F8101CDBB2AB4201EB02227F
:1011D000F4D96260002005B030BD0232D2B277E7A8
:1011E0004FF0FF30F7E76FF00100F4E770B586B01D
:1011F00001AC84E80E009DF804309DF80C400022FC
:1012000003F03F03CDE904228DF81030027C029BED
:10121000002C00F08F8004F118010DEB0105012C6A
:1012200005F8083C4FEA232120D0022C05F8091CC0
:101230004FEA23411AD0032C05F80A1C4FEA236118
:1012400014D0042C05F80B1C4FEAE3730ED0DBB26C
:10125000052C05F80C3C09D0062C05F80D3C05D0F2
:10126000072C05F80E3C01D005F80F3C002A58D099
:10127000631CDBB20DF11102013B52FA83FE0DF14A
:10128000100C00221CF8013B51005A40C9B2120652
:1012900048BF81F00701C3F380164A00D2B2B6EB13
:1012A000D11F18BF82F00702C3F340165100C9B224
:1012B000B6EBD21F18BF81F00701C3F300164A0036
:1012C000D2B2B6EBD11F18BF82F00702C3F3C0063B
:1012D0005100C9B2B6EBD21F18BF81F00701C3F3AA
:1012E00080064A00D2B2B6EBD11F18BF82F00702C7
:1012F0005100C3F34006C9B2B6EBD21F18BF81F04C
:1013000007014A0003F00103B3EBD11FD2B218BFAB
:1013100082F00702F445B5D1023405F8072CE2B299
:1013200001E0621CD2B204A9FFF790FE00EAE0706F
:1013300006B070BD002AF4D0012306AD9AE700BFC5
:10134000F8B50F4605460E46EC6894F84830062B73
:1013500004F1480401D06B7C13BB21462846FFF7FB
:101360009DFE0346002B4FF00101284611DBEB6880
:10137000DC6C04F0400446B1FFF78AFE013EB4B1D4
:10138000002EE1D147B93B4603E02FB9B4FA84F30C
:101390005B091846F8BD66B96FF002031846F8BD40
:1013A00069692846FFF7CCFF031ED6DAF1E7002F64
:1013B000F1D10123EDE700BF38B50B78062B0D46C0
:1013C000044601D0437C2BB929462046BDE838406D
:1013D000FFF764BE4169FFF7B3FF0028F4DA38BDB8
:1013E00030B585B001AC84E80E00437C054623B1DE
:1013F0004169FFF7A5FF002807DB94E80E002846A7
:1014000005B0BDE83040FFF7F1BE05B030BD00BF0C
:10141000F8B51E4EA6FB01360F460546F608EC68E9
:101420002378062B01D06B7CFBB921462846FFF7B9
:1014300035FE0346002B4FF00A01284613DBEB680C
:101440005C6804F010044EB1FFF722FE013ECCB1FF
:10145000002EE4D1092F11D8334604E0092F0DD80E
:10146000B4FA84F35B091846F8BD69692846FFF7AA
:1014700067FF031ED9DA1846F8BD2EB96FF00203D4
:101480001846F8BD092FF8D80123ECE7CDCCCCCC19
:10149000F0B587B000240127C2602B4B0194C9B27C
:1014A000009722460546FFF78DFD002849D0274BBF
:1014B00093E8030003AE86E803000822314628467D
:1014C000FFF7C4FD00283ADB69692846FFF7A0FF53
:1014D000002834DB6F7401E0292C2ED0EB6804EB7C
:1014E000440203EB82035A7A012A13D0072C04F139
:1014F0000104F1D1EB689A6D0824C2F38001C2F3B4
:1015000080126A7404EB440203EB820329745A7A52
:10151000012AEBD193E807006B7C86E80700284698
:1015200023B16969FFF70CFF002806DB96E80E007F
:101530002846FFF75BFE0028D8DA00EAE07007B023
:10154000F0BD6FF00300FAE740420F0014A6060852
:1015500000224FF47A71C26002824161704700BF7D
:10156000704700BF02494FF42B7266F0C2BF00BF44
:1015700090B2060870B500F1180604460D463046D4
:10158000FFF7F0FF324629462046FFF781FF00288B
:101590000ADB41F20803A36204F1240320460ECBC8
:1015A000BDE87040FFF71CBF70BD00BF10B50F292C
:1015B0009DF808C09DF80CE01AD8072A18D8093100
:1015C000C9B20CF01F0C4CEACE3C01EB41014FEAD2
:1015D000431E00EB81030EF478714CEA010C4CEAD7
:1015E0000232DA611833BDE810400ECBFFF7F8BEC7
:1015F0004FF0FF3010BD00BF0F2925D8093170B55D
:10160000CCB20C2101FB0401183105461646FFF748
:10161000D3FE002817DB04EB440205EB82026300D3
:10162000D1696EB921F40041234405EB830303F132
:101630001802D96128460ECABDE87040FFF7D0BE37
:1016400041F40041F0E770BD4FF0FF30704700BF3C
:1016500010B507299DF808409DF80CE01DD81931F8
:10166000D2004FEA4E2E02F01802C9B203F007036F
:101670000EF4C06E13434EEAC42E01EB410100EBA1
:10168000810243EA0E0343F4F073D36102F11803BD
:10169000BDE810400ECBFFF7A3BE4FF0FF3010BDEA
:1016A00030B507299DF80C409DF810C09DF81450E6
:1016B0001ED821314FEA0C5C4CEA054CC3F30A03F7
:1016C000C9B264044CEA030C01EB410104F4602448
:1016D000520500EB81034CEA040C02F460024CEA70
:1016E0000202DA611833BDE830400ECBFFF778BE56
:1016F0004FF0FF3030BD00BF00B589009DF804E019
:1017000001F03C0141EA03210EF0030E9201D2B236
:1017100041EA0E01114341F4805100F1240C816231
:101720009CE80E005DF804EBFFF75ABE10B40024ED
:101730006C214FF47A72046081805DF8044B826002
:10174000704700BFF0B585B08368009345F2FE4254
:101750008188ADF80C20032303AA04460027006803
:101760008DF80E7005F014FF642001F073F9032565
:101770001A26A368A188206800930DF10B020123AB
:101780008DF80B608DF80C7005F002FF012303AAA1
:1017900008BBA1680091A188206806F067F89DF851
:1017A0000CC00CF0FE0CA268A188206800920223F5
:1017B00003AA8DF80C608DF80DC005F0E9FE034614
:1017C00032205BB101F046F9681E10F0FF05D0D160
:1017D000284605B0F0BD4FF0000CE4E7012005B04D
:1017E000F0BD00BF70B5044684B05200082308461F
:1017F0008DF80B3091B20023A2680092ADF80C3046
:101800002060A18001230DF10B0205F0C1FE18B18B
:101810000025284604B070BDA3680093A188206805
:10182000022303AA06F022F806460028F0D1BDF8EC
:101830000C305BBA23F00F031B041B0C102BE7D1F9
:101840002046FFF77FFF05460028E1D0A3680093FC
:1018500006238DF80B30A18820688DF80C600123D9
:101860000DF10B0205F094FE002845D1A36800930A
:10187000A1882068012303AA05F0F8FF9DF80C3029
:1018800003F0DF038DF80D30A36800930623A188D1
:101890008DF80C3003AA0223206805F079FEA368B6
:1018A00000930C238DF80B3000238DF80C30A188A9
:1018B00020680DF10B02012305F06AFE58B9A368F8
:1018C0000093A1882068012303AA05F0CFFF9DF8AB
:1018D0000C0000F07F060C230DEB03028DF80C309A
:1018E000A3680093A18820688DF80D60022305F09D
:1018F0004FFE284604B070BD3346C3E710B584B030
:10190000836800930821002204468DF80B10ADF87F
:101910000C208188006801230DF10B0205F038FED0
:1019200018B19FED220A04B010BDA3680093A188EE
:101930002068022303AA05F099FF0028F1D1BDF821
:101940000C305BBA23F00F031B041B0C102BE8D1E7
:1019500004238DF80B30A3680093ADF80C00A18828
:1019600020680DF10B02012305F012FE18B19FED66
:10197000100A04B010BDA368A1882068009303AAD0
:10198000022305F073FF0028F1D1BDF80C0040BA26
:1019900080B2FEF79FFD074B0022FEF705FEFFF722
:1019A000DBF800EE100A04B010BD00BF0000C07FDD
:1019B000000000000000703F30B5044685B0A36809
:1019C000A1880093062000228DF80B008DF80C20D2
:1019D000206801230DF10B0205F0DAFD80B14021F2
:1019E00003ADA368009306208DF80C008DF80D1050
:1019F0002068A18802232A4605F0CAFD05B030BD43
:101A0000A368A1882068009303AD01232A4605F04E
:101A10002DFF9DF80C1021F0400141F04001E0E75E
:101A20002DE9F041DFF884801C4F1D4E36224146DF
:101A30003846FFF7D7FE60BB1A4D194C05F1200E52
:101A4000AC46BCE80F00F44504F11004654644F8C8
:101A5000100C44F80C1C44F8082C44F8043CEFD15A
:101A6000BCF8003023803046FEF7DAFB024692B223
:101A700031464FF496730C480AF02CFA4FF47A7002
:101A800000F0E8FF362241463846FFF7ABFE00285B
:101A9000D2D0BDE8F0410148FFF78EBFEC03002033
:101AA0009809002020A6060820160020D80800204B
:101AB00008B50A48FFF722FFDFED097AB4EEE70A1E
:101AC000F1EE10FA08DA0548FFF718FFBCEEC00A7D
:101AD00010EE103A98B208BD642008BDEC03002057
:101AE0000000C84208B51021034805F025F9B0FAF6
:101AF00080F0400908BD00BF000400480148FFF71E
:101B000015BE00BFEC0300202DE9F04F8BB064251B
:101B10000021009504468DF82710006801230DF17F
:101B20002702702105F034FD10B10BB0BDE8F08F35
:101B30002246009552F8480B2123702105F096FEAD
:101B40000028F2D194F85430039394F85F3094F85D
:101B50004BA094F858B094F85190CDF814B01B02F3
:101B600094F8578094F8636094F94D5094F953E0D9
:101B700094F959C094F84C20049203F4706B4FEA26
:101B80000A2A03464FEA09296AF30F034FEA082895
:101B900069F31F438146360268F30F0980462D0220
:101BA00066F30F0865F31F484FEA0E2E05464FEA0D
:101BB0000C2C6EF30F056CF31F4594F812C094F8CB
:101BC0004A1094F8652094F85D70CDF818B0BCF117
:101BD000050F01F00F0128BF4FF0050C12026145FF
:101BE0004FEA072702F4706228BF6146079267F345
:101BF0001F49049A217509F00F27014694F8529065
:101C000094F864B094F84EE094F85AC062F30F016F
:101C100069F31F4103F00F23059A0B43C4F81630F4
:101C200008F00F26034694F85E8062F30F0368F312
:101C30001F431F4303466BF30F036EF31F431E4303
:101C4000039BC4F81A70C4F81E6063F30F0094F885
:101C50006630079A13432385069A94F860306CF334
:101C60001F4005F00F2505431343C4F82250E384B9
:101C70000BB0BDE8F08F00BF038A8B4204BF012385
:101C800080F84230704700BF2DE9F041284C294FC1
:101C900029494FF0FF3384B000260225C4E90B33F5
:101CA000C4E90D33C4F81630C4F81A30C4F81E3035
:101CB000C4F82230C4F82630E363204B216032465A
:101CC00029464FF001083846C4E90373676084F879
:101CD0002A6084F8406026752581A4F8418005F0CB
:101CE00031F80A2000F0B6FE42462946384605F093
:101CF00029F86427642000F0ADFE00972B4603AA64
:101D00002068ADF80C60702105F042FC009740F6A9
:101D100088602B46ADF80C0003AA2068702105F0FE
:101D200037FC40F20153638204B0BDE8F08100BF8C
:101D3000F803002000080048D8080020010005052D
:101D40002DE9F8438A4CE3680D46A3B194F842307C
:101D50008BB9884F3B780BB100233B70B4F944102A
:101D6000B4F94660002384F8433085F82030C5E993
:101D70000916BDE8F8837E48FFF7C6FE237D94F878
:101D80002AE00022734584F8422084F84020C0F005
:101D9000C380784F3A78002B00F0E280B4F9161037
:101DA000B4F92C20E07C521A002AB8BF5242824279
:101DB00000F3C680B4F93620B4F92060921B002AE3
:101DC000B8BF52429042ACBF00220122B4F9206059
:101DD000A185012BE68600F08A80B4F91880B4F959
:101DE0002EC0ACEB080CBCF1000FB8BFCCF1000C5E
:101DF0006045C0F2A780B4F938C0B4F92290ACEBCA
:101E0000090CBCF1000FB8BFCCF1000C8445C8BF71
:101E10000122B4F822C0A4F82E80022BA4F838C006
:101E200065D0B4F91A80B4F930C0ACEB080CBCF141
:101E3000000FB8BFCCF1000C6045C0F28580B4F94A
:101E40003AC0B4F92490ACEB090CBCF1000FB8BF58
:101E5000CCF1000C6045B8BF0122B4F824C0A4F84E
:101E60003080032BA4F83AC041D0B4F91C80B4F9F7
:101E700032C0ACEB080CBCF1000FB8BFCCF1000CC9
:101E8000604569DBB4F93CC0B4F92690ACEB090CB1
:101E9000BCF1000FB8BFCCF1000C6045B8BF012207
:101EA000B4F826C0A4F83280042BA4F83CC01ED09D
:101EB000B4F91E80B4F934C0ACEB080CBCF1000FCF
:101EC000B8BFCCF1000C604548DBB4F93EC0B4F9B2
:101ED0002890ACEB090CBCF1000FB8BFCCF1000CA2
:101EE0008445C8BF0122208DA4F83480E087734563
:101EF000387884F82A3029D000287FF42DAF0123C8
:101F0000A4F84410A4F8466084F8433085F82030E3
:101F1000C5E90916BDE8F883AEEB0302154F84F856
:101F20004020002B7FF43AAF002384F82A303B781E
:101F3000B4F94410B4F94660002B3FF414AF0BE73A
:101F4000012243E7012264E7012286E700287FF4AB
:101F500003AF002AD3D101E70122A1E70122C2E7A2
:101F6000BEF1000FE0D1002A7FF4F6AEF6E600BF26
:101F7000F803002008000020F0B5642385B000219C
:101F8000C0F8D0320446FFF7F5FA002808DA6420DA
:101F900000F060FD00212046FFF7ECFA0028F6DB98
:101FA000002501262946CDE90065072302222046A7
:101FB000FFF74EFBB4F8D03200952946CDE9015524
:101FC00004222046FFF76CFB2B463146CDE9006525
:101FD00002222046FFF73CFBB4F8D0320095314690
:101FE000CDE9015504222046FFF75AFB03272B4673
:101FF0002A462946CDE900662046FFF7D7FA2A4649
:102000003146CDE9007602232046FFF7CFFA33466A
:102010002946022200952046FFF76EFBC82000F0FB
:1020200019FD324629462046FFF7E6FA3246314688
:102030002046FFF7E1FA2A4602212046FFF7DCFAA4
:102040002A4639462046FFF7D7FA2A460421204679
:10205000FFF7D2FA2A4605212046FFF7CDFA2A4695
:1020600006212046FFF7C8FA2A4607212046FFF737
:10207000C3FA2A4608212046FFF7BEFA2A4609215C
:102080002046FFF7B9FA2A460A212046FFF7B4FA9C
:102090002A460B212046FFF7AFFA2A460C2120469C
:1020A000FFF7AAFA2A460D212046FFF7A5FA2A468D
:1020B0000E212046FFF7A0FA2A460F212046FFF7FF
:1020C0009BFAC82000F0C6FC094B0A49996100221E
:1020D0004FF07E509A601A615861074B9A601A61FE
:1020E0005861996103F0EEFFC4F8540305B0F0BDE8
:1020F000F80700200000A040DC07002008B50EF023
:10210000AFF8034B83ED000ABDE8084002F0DCB8ED
:102110001408002038B50A4C2046FFF719FA0125AB
:1021200008480949094A0A4BC4F8C452C4F81C03B8
:10213000C4F82013C4F82423C4F8303338BD00BFDA
:10214000680400200000FA443313954300B056455C
:102150006AF72B380148FFF703BA00BF6804002074
:102160002DE9F04F0020A9B00FF0BAFDDFF8EC9395
:10217000EE4FEF4DDFF8E8A3044648463C604CF0D4
:1021800039F9C0F30743C0F307228DF80A308DF800
:1021900008008DF8092002990022204617F098FBCC
:1021A00038680FF09DFD4FF496720446DC2111F063
:1021B00089FF204613F010FC48464CF01BF9C0F391
:1021C00007238DF80C00C0F307408DF80D308DF813
:1021D0000E0003990022204617F07AFB28464CF0A7
:1021E00009F9C0F307238DF81000C0F307408DF8FC
:1021F00011308DF8120004992046002217F08CFB54
:1022000020460022022117F09BFB204600220521D8
:1022100017F00AFC20460022052117F049FB204652
:102220000022052117F04CFB20460022052117F063
:102230002FFB00222046052117F032FB10212046FB
:102240000FF066FD20465DF00DF9BA4980465DF05D
:1022500015F900220221404617F0DEFB28464CF01B
:10226000C9F8C0F307238DF81400C0F307408DF8B8
:1022700015308DF8160005994046002217F0B0FB86
:1022800051464046002217F0BFFB052300220221E1
:10229000404611F0CBFF20465DF0E4F8A649064623
:1022A0005DF0ECF851460022304617F0ADFB2846B1
:1022B0004CF0A0F88DF81800C0F30723C0F30740D6
:1022C0008DF819308DF81A000699DFF898A230467B
:1022D000002217F085FB41464FF0050800230E222F
:1022E0003046CDF8008012F045FF20465DF0BAF888
:1022F000924B93491A6883460FA865F0D7FF0FA940
:1023000058465DF0BBF828464CF074F8C0F307233C
:102310008DF81C00C0F307408DF81D308DF81E00AD
:1023200007995846002217F05BFB51465846002299
:1023300017F06AFB00230E2231465846CDF8008084
:1023400012F018FF20465DF08DF87E4906465DF0DC
:1023500095F828464CF04EF8C0F307238DF820007E
:10236000C0F307408DF821308DF8220008993046DF
:10237000002217F035FB51463046002217F044FB8F
:1023800000230E2259463046CDF8008012F0F2FEAE
:1023900020465DF067F86C4983465DF06FF828468B
:1023A0004CF028F8C0F307238DF82400C0F3074051
:1023B0008DF825308DF8260009995846002217F02F
:1023C0000FFB51465846002217F01EFB0E22002339
:1023D00031465846CDF8008012F0CCFE204647F03A
:1023E000D9FE6421064647F0E1FE28464CF002F88B
:1023F000C0F307238DF82800C0F307408DF829307B
:102400008DF82A000A99304647F0F0FE48464BF016
:10241000F1FFC0F307238DF82C00C0F307408DF8BF
:102420002D308DF82E000B99304647F0E9FE4749D4
:102430002522304647F0F2FE1E23002209213046B5
:1024400011F0F4FE20465DF00DF8414981465DF043
:1024500015F828464BF0CEFFC0F307238DF8300067
:10246000C0F307408DF831308DF832000C994846A2
:10247000002217F0B5FA51464846002217F0C4FA78
:1024800031460026334648460E22009612F072FE70
:10249000204656F097F828221146044611F012FE05
:1024A00028464BF0A7FFC0F307238DF83400C0F394
:1024B00007408DF835308DF836000D9932462046AC
:1024C00017F006FA32464146204617F0ADFA334679
:1024D00032460421204611F0A9FE20465CF0C2FFDE
:1024E0001C4905465CF0CAFF284613F075FA6FF0E8
:1024F0007F404BF07FFF0346C3F30722C3F307433C
:102500008DF838008DF839208DF83A300E9928462C
:10251000324617F065FA104933460A22204611F078
:1025200015F838460FF0E8FF1EE000BF180800203D
:102530004F45360044A606086CA606086C09002024
:102540007CA6060890A60608A8A60608C0A6060847
:10255000E8A6060804A706081D420008D0EAF00015
:1025600070E5060890B80608386829B0BDE8F08F15
:102570001C4A1D4813780BB903788BB330B587B06C
:10258000002101240DF11703642502958DF8171021
:102590001170CDE900343022017023461348A62182
:1025A00005F01AFB9DF81720D00604D51048114BF2
:1025B000047002211970110705D50F480D4B012435
:1025C000032104701970930608D50C4A0C4913783E
:1025D000B3FA83F301205B090870137007B030BDB4
:1025E000704700BF1E0800201D080020D8080020EA
:1025F00020080020340800201F0800201C080020AC
:102600002108002070B5434EBEB00124642509ABFB
:102610000093CDE9014523460022A621304605F06E
:10262000DBFA0DF125038DE838001D222346A62193
:10263000304605F0D1FA0DF126038DE8380021224D
:102640002346A621304605F0C7FA0DF127038DE891
:10265000380022222346A621304605F0BDFA0AABF7
:102660008DE838002A222346A621304605F0B4FA28
:102670000DF129038DE838002D222346A62130468E
:1026800005F0AAFA0DF12A038DE838002E22234620
:10269000A621304605F0A0FA0DF12B038DE8380095
:1026A0002F222346A621304605F096FA0BAB8DE883
:1026B000380030222346A621304605F08DFA9DF8D9
:1026C0002C009DF82B30144ACDE906309DF82A30B5
:1026D00005939DF8293004939DF8283003939DF8C5
:1026E000273002939DF8263001939DF82530009302
:1026F000C8219DF824300CA865F0A2FD0CA8FDF7B8
:102700008FFD02462B4692B20CA9044809F0E2FB69
:102710003EB070BDD808002008A70608201600208B
:102720002DE9F043604D89B0012464260DF11303B7
:10273000282200938DF813202346CDE901462D224F
:10274000A621284605F04CF910238DF815305023AA
:102750008DF81630F0238DF8173005AB4FF01809BF
:102760000093CDE9014623461D22A62128468DF877
:1027700014908DF8184005F033F90DF1150300930E
:10278000CDE9014623462122A621284605F028F955
:102790000DF116030093CDE9014623462222A6211E
:1027A000284605F01DF90DF117030093CDE9014608
:1027B00023462322A621284605F012F90DEB090332
:1027C0000093CDE9014623462A22A621284605F09A
:1027D00007F90DF11903009303238DF81A30FF2335
:1027E0004FF0300878278DF81C30CDE9014623469C
:1027F0002422A62128468DF819808DF81B7005F03B
:10280000EFF80DF11A030093CDE901462346252286
:10281000A621284605F0E4F80DF11B030093CDE94D
:10282000014623462622A621284605F0D9F807AB03
:102830000093CDE9014623462722A621284605F02C
:10284000CFF80DF11D03009338238DF81D30CDE92D
:10285000014623462E22A621284605F0C1F80DF197
:102860001E030093CDE9014623462F22A6212846C8
:102870008DF81E9005F0B4F80DF11F0300214246BB
:10288000CDE900348DF81F102346A6210296284674
:1028900005F0A2F9FFF7B6FE044A054B14701F704D
:1028A00009B0BDE8F08300BFD8080020230800204D
:1028B0002208002010B50B4C0FCC88B00DF1040C91
:1028C000ACE80F0094E80700ACE803002CF8022BFA
:1028D000130C8CF800300CF0BDFF01A80CF04EFC7E
:1028E00008B010BD78A50608704700BF4368B3F86C
:1028F0000B30B3F5124F00D0704730B589B00446A5
:1029000068460CF059FC0023CDE90433CDE90633C9
:102910006268557B25B1012D08BF237009B030BD19
:10292000FFF7C8FF0F210C4B8DF810107F228DF898
:1029300012201A681B68120CC3F30B0304A8ADF82D
:102940001C20ADF81E300CF029FC0DF061F8294672
:1029500001200EF0E5F9E1E7002004E008B50B4B9B
:102960004FF400421A6100200CF09AFF68B14FF05A
:10297000B042074B8179C2F89C30D2F89C3023F4E6
:102980007C5343EA0123C2F89C3008BD0040005844
:10299000FECAFECA10B52449244BD1F89020CA249F
:1029A00042F05002532088B0C1F890205C62586217
:1029B0009A681F4C4FF0B04122F00702FF209A6046
:1029C00058628B6843F400438B600EF09FF9194AFC
:1029D0001949D2F8803023F0070343F00403C2F80A
:1029E0008030002000F09EFA0CF036FE134A0021E1
:1029F0004FF400700EF0AEF9114A124B12486946BE
:102A0000CDE900230CF048FD1049114A40F23C5337
:102A100002A8CDE90241CDE904230CF0EDFE0CF053
:102A200019FE08B010BD00BF000800580028004083
:102A3000F801032000040058E813002005F5000801
:102A400010040320E9280008ED28000804030320EF
:102A50001C05032070B5054603F034FB6B1C0646CD
:102A600002D003F03BFB0544064C04E0236923F04D
:102A70000403236130BF03F025FB801BA842F5D37C
:102A800070BD00BF00ED00E04FF0FF300EF0B8B9B0
:102A9000704700BF00214FF400700EF073B900BF03
:102AA00002200EF09DB900BF02200EF045BA00BF13
:102AB00010B5064C0021204608F092FB0449054A57
:102AC000206800230B704363136010BDD4150020F1
:102AD0003408002030080020204B1B78032B07D837
:102AE000DFE803F0281F16021D4B1B68002B2FD0B8
:102AF0001C4B1A681C490B68934208D023DA013337
:102B0000934223DC1A4619480B6003685A637047E6
:102B1000134B1B68002BEBD1154A124B12681A603D
:102B2000E8E70F4B1B68002BE2D1124A0D4B1268ED
:102B30001A60DFE70A4B1B68002BD9D10E4A094BFC
:102B400012681A60D6E7013B9342DBDA1346DAE7F4
:102B50000A4A044B12681A60CCE700BF3408002010
:102B600030080020280800202C080020D415002060
:102B70000C00002010000020140000202408002079
:102B800010B54FF0B04382B0986C40F004009864E8
:102B90009C6C04F004040194019C9C6C44F00104BE
:102BA0009C649B6C002203F00103009311460B20F0
:102BB000009B03F0ABFA0B2002B0BDE8104003F01D
:102BC000E1BA00BF2DE9F04700248AB0CDE9044402
:102BD000CDE906444FF0B0430894DA6C564F574E97
:102BE00042F00402DA64DA6C02F004020392039AFF
:102BF000DA6C42F00202DA64DA6C02F0020202924B
:102C0000029ADA6C42F00102DA64DB6C03F0010331
:102C10000193384601220221019B04F093F82246D9
:102C200016214FF0904004F08DF82246304641F2D4
:102C3000240104F087F8012501224FF4041304A9AC
:102C40003846CDE904234FF00209069503F0D8FE7B
:102C500004A938464FF00608CDE905540794CDF88D
:102C6000109003F0CDFE04A94FF09040CDE905543B
:102C70000794CDF8108003F0C3FE10230DEB030181
:102C80004FF0030A4FF090400493CDE90554CDF87E
:102C90001CA003F0B5FE242304A930460493CDE91B
:102CA0000554079403F0ACFE04A93046012200232A
:102CB000CDE90423069403F0A3FE102204A93046B4
:102CC0000023CDE90423069403F09AFE30464FF426
:102CD000805304A90493CDE90554CDF81CA003F05A
:102CE0008FFE04A94FF480624FF404134FF090401C
:102CF000CDE90423069503F083FE4FF4881304A95D
:102D000038464FF4C052CDE90423CDF8189003F0B3
:102D100077FE22462146404603F0F8F9404603F08C
:102D200031FA22462146282003F0F0F9282003F04A
:102D300029FA0AB0BDE8F0870008004800040048FE
:102D40002DE9F8436C4B6D4D9B682E68590500F1D9
:102D50008A80B3686A4A6B4F6B4C23F48063B3601C
:102D6000137803EB430107EBC101DAB2D1F8088015
:102D7000216801314FEA430300F09280DFF878E1E7
:102D8000DEF82800DEF8281080B289B2884206D02A
:102D9000DEF828C008461FFA8CF18142F8D121687C
:102DA000814268D25949D4F800C009886144081AA0
:102DB0005749097801FB00F056490978C84081B2AB
:102DC000884580F0958054484FF0010C062A80F821
:102DD00000C018BF002051D04FF0000C06E0C3F82F
:102DE00008C05B7D062BDAB20DD05300134407EB0D
:102DF000C3039A688A42F2D39A68521A9A605B7D3A
:102E0000062BDAB2F1D1002838D001286AD0013877
:102E100087B2F3685B07FCD5F368DBB263F49063B9
:102E2000F3603E4B4FF40022DA60032003F0F2F926
:102E3000314843696FF30F033B434361826A836AFE
:102E400092B29BB29A4204D0816A1A468BB29342E4
:102E5000FAD1296822608B6843F480638B60AFF3FA
:102E60000080BDE8F883F3685A077FF572AFF36816
:102E70005A07F8D46DE72168081A99E71E48826A54
:102E8000836A92B29BB29A4204D0816A1A468BB28C
:102E90009342FAD122600320BDE8F84303F0ACB9B5
:102EA0004FF0000E71467046DFF87490B9F800C01C
:102EB0001EFA8CFCC4450BD2B9F80000DFF858C0EC
:102EC0004FF0000E80B28CF800E0062A84D19AE719
:102ED000DFF844C0A8EB00004FF0010E80B28CF880
:102EE00000E0F2E70B4B1B78012B90D1074690E7EF
:102EF00008468E46D8E700BF00280040E8130020AF
:102F0000450800204808002040080020380800201C
:102F10003A0800203B0800203C0800200008005828
:102F200036080020F8B5474C474B2268474DCA2168
:102F3000516253215162996841F02001996099686A
:102F400001F00701C1F10401C9B229701B694FF4F6
:102F5000FE0595FAA5F5002D71D0B5FA85F503F4B7
:102F6000FE03EB400133DBB21D46394E3370364B66
:102F70001B69C3F30E0C634605FB03F3A3F5A073B3
:102F8000CB4034490CF1010CA1F800C04FF6FE71A2
:102F90008B4248D9304B4FF6FF7119802F4B19687F
:102FA00041F400211960D3F8801041F40021C3F8E6
:102FB000801000283BD12A4F2A492B4E2B4D4FF031
:102FC000010C87F800C04FF0FF373760087381F8B5
:102FD000240081F83C0081F8540081F86C0081F8ED
:102FE000840006212970916821F480619160D16884
:102FF000C9B261F490614FF40025D1600320DD6017
:1030000003F008F92268936843F480439360FF2338
:10301000032153620846002203F078F8BDE8F84027
:10302000032003F0AFB80C499BB20B80B6E7D3681E
:103030005B05ECD5032003F0DFF82268E7E7012504
:103040002B4692E7E8130020002800403B080020B0
:103050003A080020380800203608002000080058F0
:103060003C080020480800204008002045080020B7
:10307000F0B5EFF3108672B61F4C257B95B194F82E
:10308000245025B394F83C502DB394F8545035B3E4
:1030900094F86C503DB394F8845045B386F310888F
:1030A0000120F0BD05F0FF0EF4460CEB4C0C04EBD8
:1030B000CC0501274FEACC0C2F7386F310882861CA
:1030C0006A73002044F80C3081F800E0F0BD4FF046
:1030D000010EF446E9E74FF0020EF446E5E74FF043
:1030E000030EF446E1E74FF0040EF446DDE74FF03F
:1030F000050EF446D9E700BF480800202DE9F0414D
:103100000446EFF3108572B63D4E032003F048F8F5
:1031100030683C49CA23436204EB4403532201EB69
:10312000C30342621A7B022A08D0FF2343620320B2
:1031300003F028F885F31088BDE8F081324A17784B
:10314000BC424FEA440C30D093F814E093F8158059
:103150005F7D0EEB4E0E01EBCE0EFFB2B8F1060F07
:103160008EF815705FFA88FE07D01B7D0EEB4E0EB1
:1031700001EBCE0EDBB28EF81430A44401EBCC038D
:10318000012119731378062B03D1204B4FF0FF3127
:1031900019601378062BDAB211D01D4B1B789342BD
:1031A000C3D0FFF7CDFD3068BFE71778DFF860E0E8
:1031B000FFB28EF800705B7DDBB21370DDE7154B5C
:1031C0009B68590514D4836823F480638360C368C3
:1031D0005B07FCD5C368104ADBB263F49063C3603D
:1031E0004FF400230320D36003F014F830689CE709
:1031F000C3685A07E7D5C3685A07F9D4E3E700BFA5
:10320000E81300204808002045080020400800205E
:103210004408002000280040000800582DE9F0472D
:10322000894D00EB400305EBC30306461B7B022BD5
:1032300089464FEA400700F0D280EFF3108472B65F
:10324000DFF81C82032002F0ABFFD8F800107F48A3
:10325000CA22BB194A6205EBC30353224A62022207
:103260001A73C3F80890C3F804900278062A5FFA2C
:1032700082FC24D10278DFF8EC91D2B289F80020E8
:10328000067083F815C0724B4FF0FF321A604FF092
:10329000000E037899F800209A4240F09B80374452
:1032A00005EBC7008368A3EB0E038360FF234B622B
:1032B000032002F067FF84F31088BDE8F087DFF891
:1032C00090E1DEF80030013300F0B380DFF898C100
:1032D000DCF82820DCF8283092B29BB29A4205D064
:1032E0001A46DCF828309BB29342F9D1DEF8003060
:1032F0009A4277D9574BDEF800C01B8863449A1A6C
:10330000554B93F800E0554B1B7802FB0EFE2EFA4E
:1033100003FE1FFA8EFEBA1905EBC20293687344CE
:103320009360D2F80890037803EB430305EBC303E3
:103330009B6899455AD3037803EB430205EBC2021D
:103340005FFA83FC92F815A0BAF1060F4FEA430228
:103350005FFA8AF311D11BE09AF8153003EB4302B0
:1033600005EBC2025FFA83FC92F815A0BAF1060FD2
:103370004FEA43025FFA8AF30AD003EB430305EBFB
:10338000C30302EB0C0A9B68994505EBCA0AE3D21A
:1033900002EB0C0305EBC3035B7D062B5FFA83F99D
:1033A00004D009EB490305EBC3031E7502EB0C03C4
:1033B000BA1905EBC20205EBC30382F81590DFF8DA
:1033C000A49082F814C05E75037899F800209A42A0
:1033D0003FF465AFFFF7B4FCD8F8001066E7FFF7DD
:1033E0008DFE2AE7DEF800309A1A89E790F800C0CF
:1033F00090F80090CC455FFA8CF31DD003EB4309A5
:1034000005EBC90999F814C00CEB4C0A05EBCA0A84
:103410005FFA8CFC8AF81560537582F814C089F83D
:1034200014600378DFF83C90DBB289F80030067056
:103430002FE74FF0000E6EE7537503EB430305EBE8
:10344000C3031E75EDE700BF4808002045080020B3
:1034500040080020380800203A0800203B080020DF
:10346000E81300204408002000280040104700BF57
:103470002DE9F84FEFF3108872B6464C46482368A2
:10348000464DCA2753265F625E629A6822F48062C4
:103490009A60027802EB420105EBC10C9CF80CA08B
:1034A000BAF1020F12D0DA685207FCD5DA683C494B
:1034B000D2B262F49062DA604FF40023CB6088F3FA
:1034C00010882368FF225A62BDE8F88F354B4FEA17
:1034D000C10E55F80EB0DCF810A01B78002B46D0BA
:1034E0009CF80D30012B5FFA82F911D088F3108817
:1034F0004846FFF703FE23685F625E625A4649460C
:103500005046FFF7B3FF2368FF225A62BDE8F88FE9
:10351000037899454FEA420132D09CF814309CF868
:1035200015609CF8152003EB430305EBC303D2B2EF
:10353000062E5A75F3B207D09CF8142003EB430310
:1035400005EBC303D2B21A7501EB090205EBC20504
:1035500001232B73037888F3108869684846FFF7C6
:103560005DFE2368CA225A6253225A62C6E7FFF7F9
:10357000E7FB88F310882368FF225A62BDE8F88FC2
:103580000378094ADBB213709CF81530DBB2037084
:10359000DAE700BFE81300204508002048080020B3
:1035A000000800583C0800204408002010B51848C6
:1035B000184C194900230122C0E90041C0E9023238
:1035C000C0E90433C0E90633036203F087FF50B952
:1035D0000F48002104F0FEFB68B90D48002104F0FB
:1035E00023FC80B910BD00F01BFC0948002104F049
:1035F000F1FB0028F1D000F013FC0548002104F095
:1036000013FC0028EED0BDE8104000F009BC00BF5C
:10361000D808002000540040B57DB1100000000023
:1036200010B504469CB00021502208A8CDE9021133
:10363000CDE90411069164F0B8FE1D4B22689A4250
:1036400001D01CB010BD04224FF4403308A80892EA
:10365000109306F0A9FA18BB4FF0B0449FED127B0F
:10366000E36C144843F00203E364E36C03F00203E9
:1036700001930423019A06930022002302A9CDE9B5
:1036800004238DED027B03F0BBF9A36D43F400131B
:10369000A365A36D03F400130093009B1CB010BD41
:1036A00000F0BEFBD8E700BF0003000012000000DE
:1036B0000054004000040048054808B5054B03606D
:1036C00004F0E2FB00B908BDBDE8084000F0A8BB6B
:1036D0002C090020000C0058124B02689A4200D0BE
:1036E000704700B54FF0B04383B0186D40F48010C0
:1036F00018651B6D002203F48013114601932C20E2
:10370000019B02F003FD2C2002F03CFD002211463B
:103710002D2002F0FBFC2D2003B05DF804EB02F03D
:1037200031BD00BF000C00582DE9F843DDF82090B2
:103730001C480E46174698460468002CFCD11A4DCA
:103740004FF4E0632846EB6006F026FF2246042192
:103750004FF0904003F0F6FA224610214FF09040CF
:1037600003F0F0FABAB231464FF48053284606F01F
:103770008FFF08B1BDE8F883012204214FF090408B
:1037800003F0E0FA1FFA89F241464FF480532846CD
:1037900006F07EFFBDE8F843012210214FF0904073
:1037A00003F0D0BA84090020201500202DE9F0474D
:1037B000DDF820A01A4D0F46904699462C68002C43
:1037C000FCD1184E4FF4E0633046F36006F0E4FE9F
:1037D000224604214FF0904003F0B4FA2246102113
:1037E0004FF0904003F0AEFA1FFA88F239464FF4DA
:1037F0008053304606F04CFF08B1BDE8F087012247
:1038000004214FF0904003F09DFA01231FFA8AF241
:10381000494630462B60BDE8F04707F051BA00BF7B
:10382000840900202015002008B5012202214FF054
:10383000904003F087FA0120FFF70CF900220221E3
:103840004FF0904003F07EFA0A20FFF703F90122BF
:1038500002214FF0904003F075FA7820FFF7FAF854
:10386000012210214FF0904003F06CFA0122042154
:103870004FF0904003F066FA002008BD184B026834
:103880009A4200D0704730B4164B1B78242B10D0CE
:1038900015490A78BAB1154C154D22880A2BAB543C
:1038A00002D12B78242B13D0FD2A0CD8013292B2EE
:1038B00008E00D4C0F490122227000240C700C49C5
:1038C0000A4C0B70228030BC0649012208F0E6BB8E
:1038D00015440023074C0B706B7001232370F2E733
:1038E0000038014095090020680900206A0900207D
:1038F000980A002094090020284B834200D070478A
:1039000010B5274C27482268274B013222602168D6
:10391000264A00FB0133B2EB730F2ED8244BD3F8A9
:10392000C42222B1D3F8C422013AC3F8C422214AE6
:1039300013680BB1013B136023681F4923681F4ABA
:1039400001FB03F303F5511303F53753B2EB331FB8
:1039500012D31B491B4B0A681B481A604FF0010C1D
:1039600000221A4B0A6080F800C022601A781AB14F
:103970001A78013AD2B21A7010BD012053F02CF916
:103980001348144B2168144A00FB0133B2EBF30FC8
:10399000C4D3124B01221A60C0E700BF8815002073
:1039A00080090020CDCCCCCC989999199999991976
:1039B00068040020980B0020917EFB3AB88D060029
:1039C00078090020740900207009002022080020D6
:1039D000295C8FC250B81E0514AE47017C09002037
:1039E00008B5094B834200D008BD012210214FF0D9
:1039F000904003F0A7F9054B054900221A600868BA
:103A0000BDE8084018F0C8B920150020840900203E
:103A100088090020044B02689A4200D07047034B8B
:103A200001221A60704700BF003801409009002051
:103A3000B0F5006F01460BD0B0F5805F04D00128CF
:103A40000AD10948FEF718B9084B01221A707047CD
:103A5000074B01221A707047B0F5806F02D1054BF9
:103A600001221A60704700BFF80300201D080020E3
:103A70001E080020D8070020034BD3F8500E431C2B
:103A800008BF0020704700BF00F00B0810B584B0DD
:103A9000044602F073FD0A4B93E8070001AB83E88C
:103AA00007006946184602F02DFE0649224600230B
:103AB000012002F0DBFD02F075FD04B010BD00BF77
:103AC00094A5060850FE0B0800B595B04C220021C5
:103AD000684664F06AFC02F051FD02F06FFD0421BB
:103AE0004FF0406200236846CDE90523009102F0C3
:103AF00089FE02F077FD15B05DF804FB00000000C0
:103B000010B59CB00024482200210AA864F04DFCA6
:103B1000CDE90244CDE90444CDE90644089405F01A
:103B2000F7F94FF0B0422721D2F8903023F0180374
:103B300043F01003C2F89030D2F8003423F4C0638D
:103B400043F40073C2F80034D2F8003412944FF4F6
:103B50008032CDE90A1203F4C063402201934FF48E
:103B6000807101230E920222CDE90C311592602161
:103B700020221193139116934FF0005118924FF099
:103B800000734FF400320AA81794CDE91923019C61
:103B90001B9105F085FA08B172B6FEE79FED0A7B2E
:103BA000034603216F2202A88DED067BCDE90313A6
:103BB00002920593089305F0C9FD08B172B6FEE7BD
:103BC00006F0DEF91CB010BD00000000800000000F
:103BD00010B594B04022002101A864F0E6FB4FF438
:103BE00040544FF48041022210236846CDE911125F
:103BF0000094139305F0D8FF08B172B6FEE7024BAC
:103C0000D3F8943014B010BD001400582DE980484A
:103C100083B002F033FA6C4B6C4AD3F8503E591C17
:103C200008BF00231360FFF76BFFFFF7D1FFFEF71C
:103C300095FEFFF741FDFEF7C5FFFEF7A1FF01F07E
:103C4000F9FAFFF7B3FC01F04BFE01F06FFE02F052
:103C50000FF802F0C5F802F075F801F0ADFA01F0C6
:103C6000ADFA6420FEF7F6FE0CF048FC6420FEF787
:103C7000F1FE574807F01EFA00221146192002F003
:103C800045FA192002F07EFAFEF784FEFEF748FDA1
:103C90005048FEF771F9FDF7F7FFFDF7C1FE48F058
:103CA0001FFCFFF7C1FDD0B94B4A4C4B00920446B4
:103CB00002464FF4A071F02040F0DCFA484D02219A
:103CC000286018F025FB28681B2118F03BF82868AD
:103CD000444A454900944FF4164317F0A9FF43485E
:103CE000434C444E444D454FDFF82CB1DFF8E4908F
:103CF000DFF828A152F0F4FF40F08CFF0121206092
:103D000040F0CCFF3E4920683E4C40F0CFFF002001
:103D100002F0FEF8FEF7CCFE0FCC0FC694E80300CD
:103D200086E80300A6F11000FCF77AFAA6F110016C
:103D300082B23548354C08F05BF9354932480122EA
:103D400008F0ACF9A6F11000FCF76AFA81B2A6F10E
:103D500010000CF031FDA6F110082E4E236801333F
:103D60002360FEF791FE2B78002203B12A70FEF744
:103D7000FFFBFEF7B1FE4846FEF7C0F93B783BB9C2
:103D80003368002BEAD0002333604DF0BFFDE5E738
:103D900000233B70DBF8003052464021404664F07F
:103DA0004FFA4046FCF73CFA02461E23164892B2F0
:103DB000414608F08FF83368002BCFD000233360E2
:103DC0004DF0A4FDCAE700BF00F00B086C0900200D
:103DD0008815002068040020AD3700082937000846
:103DE00088090020EC160020ECAC0020C56000081B
:103DF0008C090020980900209409002070090020F7
:103E0000411D000860A70608201600207809002040
:103E1000950900207C0900207409002078A7060875
:103E200072B6FEE7022002F073B800BF002002F075
:103E30006FB800BF032002F06BB800BF2DE9F04F50
:103E400000208FB00DF04CFFE74FE84D38600221A5
:103E50000DF05EFF3868DFF8B483DFF8B4A3DFF855
:103E6000B49310210DF054FF38680022FF2115F0A3
:103E700043FD28463C684AF0BDFAC0F307238DF89D
:103E80000800C0F307408DF809308DF80A000022C1
:103E90000299204615F01CFD3868D54C0DF020FF26
:103EA000022120600DF034FF206810210DF030FF5A
:103EB0003868266810F08EFAA0F11401304610F030
:103EC0002DF920686FF0404110F042F9206800227F
:103ED000022115F035FD404626684AF08BFA03466C
:103EE000C3F30722C3F307438DF80E308DF80C009F
:103EF0008DF80D2003993046002215F00DFD28465F
:103F000025684AF077FA0346C3F30722C3F3074351
:103F10008DF812308DF810008DF811200499284684
:103F2000002215F0D5FC20680022052115F07CFD4B
:103F30002568002228460A2115F0BAFC28460022EE
:103F40000A2115F0BDFC284600220A2115F0A0FC2C
:103F5000284600220A2115F0A3FC00231A462068F7
:103F6000092110F063F9206854F02CFB3222064638
:103F7000B42110F0A7F800220821304615F054FDB6
:103F800040464AF037FAC0F307238DF81400C0F317
:103F900007408DF815308DF816000599304600223F
:103FA00015F096FC00220A21304615F0D1FC0020C5
:103FB0004AF020FAC0F307238DF81800C0F3074039
:103FC0008DF819308DF81A0006993046002215F048
:103FD000C7FC00224C21304615F0D6FC50464AF072
:103FE00009FA8DF81C00C0F30723C0F307408DF8D1
:103FF0001D308DF81E0007993046202215F068FC10
:1040000000231A463046022110F010F900230A223C
:10401000784930460FF09AFA30465BF023FA764939
:1040200005465BF02BFA49460022284615F0ECFCC9
:10403000284611F0D1FC206854F0C4FA322205461B
:10404000B42110F03FF800220821284615F0ECFCBE
:1040500040464AF0CFF9C0F307238DF82000C0F3A3
:1040600007408DF821308DF822000899284600225B
:1040700015F02EFC00220A21284615F069FC0020CC
:104080004AF0B8F9C0F307238DF82400C0F30740C5
:104090008DF825308DF8260009992846002215F064
:1040A0005FFC00224C21284615F06EFC50464AF079
:1040B000A1F98DF82800C0F30723C0F307408DF85D
:1040C00029308DF82A000A992846202215F000FC94
:1040D00031460F262846009600230E2211F04AF89A
:1040E00000230A22454928460FF030FA28465BF0A3
:1040F000B9F9434983465BF0C1F949460022584665
:1041000015F082FC584611F067FC206854F05AFA0A
:1041100032220446B4210FF0D5FF002208212046A8
:1041200015F082FC40464AF065F9C0F307238DF88C
:104130002C00C0F307408DF82D308DF82E000B9920
:104140002046002215F0C4FB00220A21204615F06B
:10415000FFFB00204AF04EF9C0F307238DF8300032
:10416000C0F307408DF831308DF832000C992046AD
:10417000002215F0F5FB00224C21204615F004FC2E
:1041800050464AF037F98DF83400C0F30723C0F3E6
:1041900007408DF835308DF836000D9920462022E5
:1041A00015F096FB29462046009600230E2210F0BB
:1041B000E1FF00230A22134920460FF0C7F92046E9
:1041C0005BF050F9104904465BF058F9002249466B
:1041D000204615F019FC204611F0FEFB38460EF083
:1041E0008BF938680FB017E0A00B0020D0EAF00080
:1041F0009C0B0020253E00088CA706082D3E0008D9
:1042000094A70608353E00089CA706084F453600CF
:10421000D276190070E50608BDE8F08F012001F0A4
:1042200077BE00BF0B4B1B6893B110B590B004462E
:10423000402168460BF006FE6946074863F0EEFF32
:1042400020464DF0E1FB69465BF018F910B010BD57
:10425000704700BF94130020A8A70608164B1B68E0
:1042600043B370B58AB00446FDF722FC0546FDF75E
:1042700039FC064620464DF0C7FB044666B902AE3F
:104280000E4A2B462021304663F0DAFF31462046A5
:104290005BF0F4F80AB070BD02AE094B094A009514
:1042A0002021304663F0CCFF314620465BF0E6F833
:1042B0000AB070BD704700BF94130020C4A7060861
:1042C000B8A70608BCA706086B4B1B68002B77D065
:1042D0006A4BF0B5D3ED007A694D6A4B2A68FDEE62
:1042E000E77A2DED048B17EE904A944283B0C3ED2C
:1042F000007A61D0F8EEE77A9FED637AF4EEC77A40
:10430000F1EE10FA5DD59FED619A4FF48074F0EEF6
:10431000490A1C6062260027B3EE058AB0EE480AFF
:104320009FED5B2ADFED5B1A9FED5B1A2C6001A904
:10433000684601F02BFEDDED007A584C5849594B88
:1043400020684F60F4EEC87AF1EE10FA8CBFF0EE00
:10435000488AF0EE678A38EE688A77EEE87ABDEE32
:10436000C88AFDEEE77A022281ED008AC1ED027A69
:10437000CE6001935BF096FF206815F0A7FE05461E
:104380000FF092FF08EE100A28460FF0B9FF07EE73
:10439000900AF8EEE77AB8EEC88A39EE679A78EEB6
:1043A000C88AFDEEC97A206817EE902AFDEEE87AF9
:1043B00017EE901A0FF026FE03B0BDEC048BF0BD93
:1043C00070479FED397AF4EEC77AF1EE10FA0BDD03
:1043D0009FED2E9A9FED358A4FF48E74F0EE490AC8
:1043E0001C606226002799E72046FCF773F820A39B
:1043F000D3E90023FCF7D8F8FCF7AEFB08EE900AEF
:10440000B0EE680A62F05AFB9FED299ADFED227A3E
:10441000E0EE097AB0EE670A62F0DAFBB0EE408AAD
:10442000B0EE680A62F08EFBDFED227AE0EE097AE8
:10443000B0EE670A62F0CCFBDFED1F7AB4EEE70A5C
:10444000F1EE10FA8CBFB0EE679AB0EE409A30EE03
:10445000497A77EEC97ABDEEC77AFDEEE77A17EEB4
:10446000107A17EE906AF0EE400A57E7AFF300803B
:10447000399D52A246DF913F94130020140800207A
:10448000B40B0020B80B00200000804300007842ED
:104490000000C842000048430000F042A81300207A
:1044A000A40B00200000204300008E4300005B436B
:1044B0000000CD430000E643000020432DE9F04119
:1044C0008F4E904C3068904F94B00DF009FC022153
:1044D00020600DF01DFC102120680DF019FC3068E3
:1044E00025680FF077FF011F28460FF017FE2068A0
:1044F0006FF040410FF02CFE00220221206815F0E1
:104500001FFA8248256849F075FFC0F307238DF82C
:104510000800C0F307408DF809308DF80A000299B1
:104520002846002215F0F8F920680022052115F030
:104530007BFA256800222846032115F0B9F92846A0
:104540000022032115F0BCF928460022032115F0B2
:104550009FF900220321284615F0A2F96B4825682F
:1045600049F048FFC0F307238DF80C00C0F3074063
:104570008DF80D308DF80E0003992846002215F0B5
:10458000A7F90223194600222068614D0FF04EFE64
:1045900020685AF067FF022128600DF0B9FB2868F7
:1045A00010210DF0B5FB5B4928685AF067FF6FF0EA
:1045B0004042114628680FF085FD2868002203213B
:1045C00015F02AFA002328681A4608210FF02EFE5B
:1045D0003868002800F0818029684DF007FA3D68AE
:1045E0003368C3B1FDF764FA0746FDF77BFA8046EE
:1045F00028464DF009FA0546B8F1000F63D10DF1D8
:104600001008454A3B462021404663F019FE4146CA
:1046100028465AF033FF2068404D414F5AF022FFA0
:10462000022128600DF074FB286810210DF070FB4A
:104630003C4928685AF022FF6FF040421146286832
:104640000FF040FD28680022032115F0E5F9002352
:1046500028681A4609210FF0E9FD3868002845D07E
:1046600029684DF0C3F93D6833686BB1402104A857
:104670000BF0E8FB04A92C4863F0D0FD28464DF070
:10468000C3F904A95AF0FAFE2068284C5AF0EAFE51
:10469000022120600DF03CFB206810210DF038FB5A
:1046A000206823495AF0EAFE6FF040422068114624
:1046B0000FF008FD002320681A46072114B0BDE85A
:1046C000F0410FF0B3BD0DF110081A4B1A4A0097D4
:1046D0002021404663F0B4FD99E72A6817484FF45B
:1046E0007A714DF025F90546386079E72A68144853
:1046F0004FF47A714DF01CF905463860B4E700BFFD
:1047000094130020B813002090130020D0EAF0008A
:10471000CC130020CCA70608C4A70608C8130020A5
:104720008C130020D4A70608A8A70608D0130020E1
:10473000D8A70608B8A70608BCA706085D42000867
:1047400025420008000000002DE9F0472DED0C8BFC
:10475000834CDFF854A22068824D9FED83DA9FEDF1
:10476000838A9FED83CADFED83BA9FED83BADFEDC5
:1047700083AA9FED83AA88B00DF0B2FA0221CAF88D
:1047800000000DF0C5FA1021DAF800000DF0C0FAB3
:104790002068DAF800400FF01DFE011F20460FF0E0
:1047A000BDFCDAF8000082210FF0D2FC00220221C9
:1047B000DAF8000015F0C4F87248DAF8004049F061
:1047C00019FEC0F30743C0F307228DF80E308DF8B1
:1047D0000C008DF80D2020460399002215F09CF85E
:1047E000DAF800000022052115F01EF9DAF8004081
:1047F00000221146204615F05BF8002211462046A3
:1048000015F05EF800221146204615F041F800220E
:104810001146204615F044F85B48DAF8004049F0AC
:10482000E9FDC0F30743C0F307228DF810008DF8AF
:1048300011208DF8123020460499002215F048F816
:1048400002231946DAF8000000220FF0EFFC4F4B6C
:1048500002241968009400230E22DAF8000010F0F8
:1048600089FCDAF8000010F09DFFDAF800000FF084
:104870001BFD09EE900ADAF800000FF041FD09EE89
:10488000100ADAF800005AF0EDFD214628600DF01C
:104890003FFA286810210DF03BFA28683C495AF08D
:1048A000EDFD28682146002215F0B6F86FF0404271
:1048B000286811460FF006FC0523002221462868CF
:1048C000344D0FF0B3FCDAF800005AF0CBFD21466E
:1048D00028600DF01DFA286810210DF019FA2868DB
:1048E0002D495AF0CBFD28682146002215F094F896
:1048F0006FF04042286811460FF0E4FB0A2364225F
:1049000021462868254D0FF091FCDAF800005AF096
:10491000A9FD214628600DF0FBF9286810210DF053
:10492000F7F928681C495AF0A9FD28682146002299
:1049300015F072F86FF04042286811460FF0C2FB84
:104940002868174D21460A236FF063020FF06EFCB2
:10495000144CF8EEE99AB8EEC99A4FF000084EE010
:1049600094130020A01300204D6578BF62BA77BE73
:104970000000CD430000C9430000F0420000E643C0
:10498000000048434F453600D0EAF000B81300203D
:1049900048AA06089C130020DCA7060898130020EC
:1049A000BC0B0020F8110020A41300203333333F48
:1049B0000000804307EE908A5FED046A1FED047AE1
:1049C000F8EEE77AA7EEA67A17EE100AFBF794FD49
:1049D00093A3D3E90023FBF7E7FDFCF7BDF808EE4E
:1049E000100AB0EE480A62F069F8F0EE407AB0EED4
:1049F000480AB0EE678A62F0A5F8B0EE40DA824B62
:104A000003FB08F3B3F1333F8CBFF0EE6BDAF0EE4B
:104A10004CDAB0EE4B0AF0EE007AADEE880A08F1FF
:104A20000108F2EE04CA88BFF0EE67CA62F0D0F85F
:104A3000F0EE408AB0EE6A0AADEE8D0A62F0C8F878
:104A4000B0EE6C2AF0EE400A9FED701AF0EE4A1AB2
:104A5000B0EE408A07A9B0EE680A06A801F096FAFF
:104A60009DED067ADDED077ADAF80000B4EEE87A1B
:104A7000F1EE10FAF4EEC87A8CBFF0EE68CAF0EEF0
:104A800047CAF1EE10FAB4EEE87A8CBFB0EE48DA1D
:104A9000B0EE67DAF1EE10FAB4BFB0EE686AB0EECD
:104AA000476AF4EEC87AF1EE10FAB4EE6C6AB4BF5D
:104AB000F0EE486AF0EE676AF1EE10FA18BF36EED3
:104AC0006C6AF4EE4D6A18BFBDEEC66A78EEEC8AE9
:104AD00018BF16EE106A38EE4D8A37EE6C7A77EE14
:104AE000CD7A08BF0126F1EE10FA18BF76EECD6A36
:104AF000BDEEC77AFDEEE77AFDEEE88ABDEEC88A24
:104B000018BFFDEEE66A85ED027AC5ED037AC5EDC4
:104B1000008A85ED018A14BF16EE907A01275BF0BA
:104B2000B5FB44F8040F294602225BF0BBFB0022D0
:104B30000221206814F030FF3548D4F8009049F085
:104B400059FCC0F307238DF81400C0F307408DF81B
:104B500015308DF816000599002248463DEE49DAD9
:104B600014F02AFF20680022012114F01DFF7CEEC2
:104B7000E9CAFDEECD7A206817EE902AFDEEEC7AB8
:104B8000103517EE901A0FF03DFA20683A4631467C
:104B90000FF098FAB8F1290F7FF40CAFDAF80000A3
:104BA0001C4C5BF073FB022120600DF0B1F8206813
:104BB00010210DF0ADF820680022032114F0ECFE66
:104BC0001548256849F016FCC0F30743C0F30722D7
:104BD0008DF81E308DF81C008DF81D200799284691
:104BE000002214F0E9FE00221146206814F0DCFED9
:104BF0000A4B4FF487721A6008B0BDEC0C8BBDE80D
:104C0000F047FFF761BB00BFCDCCCCCC0000F04239
:104C10004F453600A81300201D57DF00B40B0020BD
:104C2000399D52A246DF913F30B5474D474C286829
:104C30008DB00DF055F8022120600DF069F8206864
:104C400010210DF065F8286825680FF0C3FB011FDF
:104C500028460FF063FA20686FF040410FF078FAB1
:104C600020680022022114F06BFE3948256849F0C3
:104C7000C1FBC0F30743C0F307228DF80A308DF85B
:104C800008008DF8092002990022284614F044FEFD
:104C90003048256849F0AEFBC0F30743C0F3072254
:104CA0008DF80E308DF80C008DF80D2003992846F4
:104CB000002214F00DFE20680022052114F0B4FE3D
:104CC000256800222846032114F0F2FD2846002220
:104CD000032114F0F5FD28460022032114F0D8FD2D
:104CE00028460022032114F0DBFD1B4B0225196826
:104CF000009500230E22206810F03CFA2068174C23
:104D00005AF0B0FB294620600DF002F8206810210F
:104D10000CF0FEFF124B134A1B68202104A863F01D
:104D20008FFA206804A95AF0A9FB6FF0404220686E
:104D300011460FF0C7F9002320681A4607210FF02B
:104D400075FA0DB030BD00BF94130020B4130020DD
:104D50004F453600D0EAF000A4130020C413002011
:104D60006C090020E0A706082DE9F041764D774C4C
:104D70002868774F86B00CF0B3FF022120600CF05A
:104D8000C7FF206810210CF0C3FF286825680FF0CA
:104D900021FB011F28460FF0C1F920686FF0404148
:104DA0000FF0D6F920680022022114F0C9FD384620
:104DB000256849F01FFBC0F307238DF80800C0F3F6
:104DC00007408DF809308DF80A0002990022284624
:104DD00014F0A2FD5F48256849F00CFBC0F30723DF
:104DE0008DF80C00C0F307408DF80D308DF80E00E3
:104DF00003992846002214F06BFD2068002205214B
:104E000014F012FE256800222846032114F050FDFC
:104E100028460022032114F053FD284600220321D6
:104E200014F036FD28460022032114F039FD4A4BC8
:104E30004A4D19680226009600230E22206810F0C1
:104E400099F920685AF00EFB314628600CF060FF9B
:104E5000286810210CF05CFF6FF040421146286872
:104E60000FF030F928683E495AF008FB28683146AF
:104E7000002214F0D1FD00221146286814F060FDD4
:104E80003846D5F8008049F0B5FA0346C3F3072247
:104E9000C3F307438DF812308DF810008DF8112000
:104EA00004994046002214F09BFD28682D490022F9
:104EB00014F0AAFD00231A46314628680FF0B6F90F
:104EC0002068294C5AF0CEFA314620600CF020FFC1
:104ED000206810210CF01CFF6FF040421146206842
:104EE0000FF0F0F8206821495AF0C8FA20683146DE
:104EF000002214F091FD00221146206814F020FDDC
:104F00003846276849F076FA0346C3F30722C3F30D
:104F100007438DF816308DF814008DF8152005998B
:104F20003846002214F05CFD20681149002214F07C
:104F30006BFD29682068009600230E2210F01AF9F4
:104F400006B0BDE8F08100BF94130020B01300202C
:104F50004F453600D0EAF000B4130020C013002003
:104F60006CA6060870E50608BC130020ECA706082E
:104F700090B8060870B56A4D6A4C286888B00CF085
:104F8000AFFE022120600CF0C3FE206810210CF05F
:104F9000BFFE286825680FF01DFA011F28460FF094
:104FA000BDF8614D206834210FF0D2F8206800224E
:104FB000022114F0C5FC2846266849F01BFAC0F30C
:104FC00007238DF80C00C0F307408DF80D308DF8E5
:104FD0000E0003990022304614F09EFC28462568F6
:104FE00049F008FAC0F30743C0F307228DF81230E6
:104FF0008DF810008DF8112004992846002214F035
:1050000067FC20680022052114F00EFD25680022AF
:105010002846032114F04CFC28460022032114F0FA
:105020004FFC28460022032114F032FC28460022BF
:10503000032114F035FC3D4A2068116802230093D7
:105040000E22002310F096F8206853F0BBFA2822B5
:10505000114604460FF036F800231A462046072171
:105060000FF0E4F800220821204614F0DDFC30485F
:1050700049F0C0F9C0F30743C0F307228DF816309A
:105080008DF814008DF8152005992046002214F0A3
:105090001FFC00220A21204614F05AFC002049F08F
:1050A000A9F9C0F30743C0F307228DF81A308DF831
:1050B00018008DF8192006992046002214F050FCA3
:1050C00000224C21204614F05FFC1A4849F092F966
:1050D000C0F30743C0F307228DF81E308DF81C0083
:1050E0008DF81D2007992022204614F0F1FB204660
:1050F0005AF0B8F9104905465AF0C0F9284610F0A0
:105100006BFC28460D49002214F07EFC0C4900235C
:105110000A22204608B0BDE870400EF017BA00BF62
:1051200094130020AC130020D0EAF000B01300204C
:105130004F453600D276190004A7060870E5060828
:105140001D42000830B5002083B00CF0C9FD184C9A
:10515000022120600CF0DCFD206810210CF0D8FD4D
:1051600020680022FF2114F0C7FB1248256849F08F
:1051700041F9C0F30743C0F307228DF806308DF8DC
:1051800004008DF8052001990022284614F0A0FBA8
:10519000FFF794F9FFF7D8FAFFF746FDFFF7E4FDB4
:1051A000FFF7E8FE20460DF0A7F9206803B030BDF8
:1051B00094130020D0EAF000704700BF0648074A69
:1051C00008B50023C0E9002304F0E2FE00B908BDE1
:1051D000BDE80840FEF724BED4130020001000589C
:1051E00010B5044696B05022002102A863F0DDF805
:1051F0000F4B22689A4201D016B010BD4FF40072D6
:105200004FF0804302A80292109304F0CDFC60B9E5
:105210004FF0B0431A6D42F480221A651B6D03F4FF
:1052200080230193019B16B010BDFEF7F9FDEFE757
:105230000010005810B51248124C00230F2147F6F9
:10524000FF72C0E90043C0E90212C0E905330361FF
:10525000C36104F0BDFE30B900220948114604F0D4
:1052600037FF48B910BDFEF7DBFD002204481146A8
:1052700004F02EFF0028F5D0BDE81040FEF7D0BDA9
:10528000E81300200028004010B5044696B05022D4
:10529000002102A863F089F8164B22689A4201D0D7
:1052A00016B010BD4FF400624FF4807302A8029252
:1052B000129304F079FCD0B94FF0B0430022D3F838
:1052C000900040F40040C3F890009C6D44F480646A
:1052D0009C659B6D03F48063114601930320019B41
:1052E00000F014FF032000F04DFF16B010BDFEF7D4
:1052F00097FDE1E7002800400AF098BD38B5054663
:105300000EF038F90446284649F0B6FC054620461A
:1053100054F05CFB0146204654F05CFB0D4904460A
:105320004DF098FD20B92846BDE8384060F048BEF1
:10533000094920464DF08EFD024628B9284626210F
:10534000BDE838400EF032B821462846BDE8384066
:1053500060F030BE30A8060834A80608084B1B6869
:105360006BB110B54021044606480AF019FD2046ED
:105370004CF04AFBBDE8104002495AF07FB8704734
:10538000541400200C14002038B50EF0F3F861F02E
:1053900063FA62F02BF9044680B280B10AF0DEFCB9
:1053A000A3B20F4A0F48402162F04AFF0E4B0D494D
:1053B00018685AF063F8BDE838400AF0E1BC0B4DBC
:1053C000084C0FCD0FC495E8070003C42146064BD7
:1053D00021F818291868BDE838405AF04FB800BFC6
:1053E00038A806080C1400205014002050A8060805
:1053F0002DE9F04F002095B00CF072FCDFF8E4933B
:10540000DFF8E4830446EA48C9F8004048F0F2FFB8
:10541000C0F30743C0F307228DF812308DF8100057
:105420008DF8112004990022204614F051FAD9F881
:1054300000000CF055FC0446D9F800000EF0CAFF3D
:10544000011F20460EF06AFE6FF0404120460EF02C
:105450007FFED74848F0CEFFC0F30743C0F30722D2
:105460008DF816308DF814008DF81520204605991A
:10547000002214F02DFA0022FF21204614F03CFAFD
:10548000CB4848F0B7FFC0F30743C0F307228DF8BD
:105490001A308DF818008DF8192020460699002240
:1054A00014F03AFA20460022022114F049FA20466C
:1054B0000022052114F0B8FA20460022032114F03E
:1054C000F7F920460022032114F0FAF920460022C1
:1054D000032114F0DDF900222046032114F0E0F945
:1054E000102120460CF014FC204659F0BBFFB149B6
:1054F000054659F0C3FFB0490022284614F084FA4B
:10550000AE4848F077FFC0F307238DF81C00C0F3C6
:1055100007408DF81D308DF81E000799284600229F
:1055200014F05EFA00231A46022128460EF07EFE91
:10553000204660F0ADFB0121064661F04BF9304694
:105540009F4961F0EDF83046C0210EF0E7FD0022E2
:10555000114630464FF0050B11F042FD294630460A
:1055600000230E22CDF800B00FF004FE33462622B1
:10557000944930460DF0EAFF022130460CF0D0FB92
:105580008B4848F037FFC0F307238DF82000C0F3A5
:1055900007408DF821308DF822000022089930460E
:1055A00014F0BAF9204659F05DFF0221C8F8000056
:1055B0000CF0AEFBD8F8000010210CF0A9FB8249DA
:1055C000D8F8000059F05AFF6FF0404211464FF0F2
:1055D0000A0AD8F800000EF075FDCDF800A00023EF
:1055E00031460D22D8F800000FF0C4FD204654F0DB
:1055F00055F8B422D82105460EF064FD1C2331462F
:10560000284600930E2200230FF0B4FD33462322D8
:105610006E4928460DF09AFF284604210CF078FBCD
:105620006B49284654F046F8614848F0E3FEC0F361
:1056300007238DF82400C0F307408DF825308DF83E
:10564000260009990022284614F066F95B4848F0C4
:10565000D1FEC0F307238DF82800C0F307408DF872
:1056600029308DF82A000A994FF4A022284614F018
:105670002FF9584848F0BEFEC0F307238DF82C00E0
:10568000C0F307408DF82D308DF82E00524A0B994B
:10569000284614F01DF96FF07F4048F0ABFEC0F3D0
:1056A00007238DF83000C0F307408DF831308DF8B6
:1056B00032000C994FF4A022284614F091F93C488E
:1056C00048F098FEC0F307238DF83400C0F307407C
:1056D0008DF835308DF836000D990022284614F0EB
:1056E000F7F8002048F086FEC0F307238DF8380055
:1056F000C0F307408DF839308DF83A000E9900223A
:10570000284614F02DF9204652F05CFF282211465D
:1057100007460EF0D7FC294848F06CFEC0F307237B
:105720008DF83C00C0F307408DF83D308DF83E0009
:105730000F9900223846002614F0CAF80022594674
:10574000384614F071F933460D2229463846009642
:105750000FF010FD384659F085FE2049039059F0AE
:105760008DFE039810F038F96FF07F4048F042FE4C
:105770000346C3F30722C3F307438DF840008DF8B7
:1057800041208DF8423003981099324614F028F9E0
:1057900033461349524638460DF0D8FE204652F0A3
:1057A00011FF2822114604460EF08CFC1EE000BFBB
:1057B000D0EAF0009CA7060870E506084F453600C1
:1057C0006CA806088953000884A80608FD52000842
:1057D000180000201D57DF002000050004A7060860
:1057E0001D4200085414002050140020354848F091
:1057F00001FEC0F307238DF84400C0F307408DF885
:1058000045308DF8460011993246204614F060F874
:105810002D4848F0EFFDC0F307238DF84800C0F392
:1058200007408DF849308DF84A0012992046202211
:1058300014F04EF820463246594614F0F5F8334637
:105840000F222946204600960FF094FC204659F07E
:1058500009FE1E49054659F011FE284610F0BCF815
:105860006FF07F4048F0C6FD0346C3F30722C3F341
:1058700007438DF84C008DF84D208DF84E3013996C
:105880002846324614F0ACF82046114C11493346F4
:1058900052460DF05BFE206858B1D8F800104CF06D
:1058A000A5F80D480CF028FED9F8000015B0BDE8A9
:1058B000F08FD8F8002009484FF47A714CF038F88E
:1058C0002060EEE74F4536003333CC0098A8060839
:1058D0004C140020F9520008541400205D530008B5
:1058E000104811494FF4827210B5C0E900124FF40C
:1058F000007200234FF4E064072182610822C0E9AE
:105900000234C0E90433C0E90733C0E90933C0E910
:105910000B13426304F040FE00B910BDBDE8104017
:10592000FEF77EBA201500200030014010B5114866
:10593000114C4FF48272C0E90042022200234FF45E
:10594000E061012402614FF40072C0E90231C0E954
:10595000054208210722C0E90713C0E90933C0E95D
:105960000B23436304F018FE00B910BDBDE81040DE
:10597000FEF756BAB81400200038004070B503682E
:10598000414A8AB000249342CDE90444CDE906445B
:10599000089404D03D4A934244D00AB070BD4FF001
:1059A000B04305461A6E3A4E42F480521A661A6E99
:1059B00002F480520192019ADA6C42F00102DA6438
:1059C000DB6C03F001030093E0220223CDE9042302
:1059D0000098032205234FF0904004A9CDE9072346
:1059E00001F00EF82B4A0723C6E90023802310227A
:1059F000336130464FF40053C6E90224C6E905443A
:105A0000C6E9074300F014FC00283AD100221146F1
:105A10006E652220B56200F079FB222000F0B2FB17
:105A20000AB070BD4FF0B0434FF420409A6D42F47D
:105A300080429A659A6D02F480420392039ADA6C6E
:105A400042F00202DA64DB6C022103F00203CDE9CA
:105A5000040102930525032304A90F48029ACDE906
:105A6000073500F0CDFF4FF4804202230A48089525
:105A700004A9CDE90423CDE9064400F0C1FF0AB032
:105A800070BDFEF7CDF9C1E700300140003800409D
:105A900058140020080002400004004800B54FF0F0
:105AA000B04383B0186D40F4002018651B6D0022D0
:105AB00003F40023019311462E20019B00F026FBE6
:105AC0002E2003B05DF804EB00F05CBBFEE700BFE6
:105AD000FEE700BFFEE700BFFEE700BFFEE700BF36
